{
  "contractName": "CanReclaimToken",
  "abi": [
    {
      "anonymous": false,
      "inputs": [
        {
          "indexed": true,
          "internalType": "address",
          "name": "previousOwner",
          "type": "address"
        },
        {
          "indexed": true,
          "internalType": "address",
          "name": "newOwner",
          "type": "address"
        }
      ],
      "name": "OwnershipTransferred",
      "type": "event"
    },
    {
      "constant": true,
      "inputs": [],
      "name": "owner",
      "outputs": [
        {
          "internalType": "address",
          "name": "",
          "type": "address"
        }
      ],
      "payable": false,
      "stateMutability": "view",
      "type": "function"
    },
    {
      "constant": false,
      "inputs": [
        {
          "internalType": "address",
          "name": "newOwner",
          "type": "address"
        }
      ],
      "name": "transferOwnership",
      "outputs": [],
      "payable": false,
      "stateMutability": "nonpayable",
      "type": "function"
    },
    {
      "constant": false,
      "inputs": [
        {
          "internalType": "contract ERC20Basic",
          "name": "token",
          "type": "address"
        }
      ],
      "name": "reclaimToken",
      "outputs": [],
      "payable": false,
      "stateMutability": "nonpayable",
      "type": "function"
    }
  ],
  "bytecode": "0x6080604052600080546001600160a01b031916331790556102cc806100256000396000f3fe608060405234801561001057600080fd5b50600436106100415760003560e01c806317ffc320146100465780638da5cb5b1461006e578063f2fde38b14610092575b600080fd5b61006c6004803603602081101561005c57600080fd5b50356001600160a01b03166100b8565b005b61007661016c565b604080516001600160a01b039092168252519081900360200190f35b61006c600480360360208110156100a857600080fd5b50356001600160a01b031661017b565b6000546001600160a01b031633146100cf57600080fd5b604080516370a0823160e01b815230600482015290516000916001600160a01b038416916370a0823191602480820192602092909190829003018186803b15801561011957600080fd5b505afa15801561012d573d6000803e3d6000fd5b505050506040513d602081101561014357600080fd5b5051600054909150610168906001600160a01b0384811691168363ffffffff61020016565b5050565b6000546001600160a01b031681565b6000546001600160a01b0316331461019257600080fd5b6001600160a01b0381166101a557600080fd5b600080546040516001600160a01b03808516939216917f8be0079c531659141344cd1fd0a4f28419497f9722a3daafe3b4186f6b6457e091a3600080546001600160a01b0319166001600160a01b0392909216919091179055565b826001600160a01b031663a9059cbb83836040518363ffffffff1660e01b815260040180836001600160a01b03166001600160a01b0316815260200182815260200192505050602060405180830381600087803b15801561026057600080fd5b505af1158015610274573d6000803e3d6000fd5b505050506040513d602081101561028a57600080fd5b505161029257fe5b50505056fea265627a7a72315820127d8865e4969bb99f50c1f5f1342a82e8a73936971c32bb09708a4818a60a6464736f6c634300050d0032",
  "source": "pragma solidity ^0.5.10;\n\nimport \"./Ownable.sol\";\nimport \"../token/ERC20/ERC20Basic.sol\";\nimport \"../token/ERC20/SafeERC20.sol\";\n\n\n/**\n * @title Contracts that should be able to recover tokens\n * @author SylTi\n * @dev This allow a contract to recover any ERC20 token received in a contract by transferring the balance to the contract owner.\n * This will prevent any accidental loss of tokens.\n */\ncontract CanReclaimToken is Ownable {\n  using SafeERC20 for ERC20Basic;\n\n  /**\n   * @dev Reclaim all ERC20Basic compatible tokens\n   * @param token ERC20Basic The address of the token contract\n   */\n  function reclaimToken(ERC20Basic token) external onlyOwner {\n    uint256 balance = token.balanceOf(address(this));\n    token.safeTransfer(owner, balance);\n  }\n\n}\n",
  "sourcePath": "D:\\projects\\kittiefight\\token\\DutchAuction\\contracts\\openzeppelin-solidity\\ownership\\CanReclaimToken.sol",
  "compiler": {
    "name": "solc",
    "version": "0.5.13+commit.5b0b510c.Emscripten.clang"
  },
  "schemaVersion": "3.0.16",
  "updatedAt": "2019-11-20T23:53:24.339Z",
  "devdoc": {
    "author": "SylTi",
    "details": "This allow a contract to recover any ERC20 token received in a contract by transferring the balance to the contract owner. This will prevent any accidental loss of tokens.",
    "methods": {
      "reclaimToken(address)": {
        "details": "Reclaim all ERC20Basic compatible tokens",
        "params": {
          "token": "ERC20Basic The address of the token contract"
        }
      },
      "transferOwnership(address)": {
        "details": "Allows the current owner to transfer control of the contract to a newOwner.",
        "params": {
          "newOwner": "The address to transfer ownership to."
        }
      }
    },
    "title": "Contracts that should be able to recover tokens"
  },
  "userdoc": {
    "methods": {}
  }
}