{
  "contractName": "CapperRole",
  "abi": [
    {
      "inputs": [],
      "payable": false,
      "stateMutability": "nonpayable",
      "type": "constructor"
    },
    {
      "anonymous": false,
      "inputs": [
        {
          "indexed": true,
          "name": "account",
          "type": "address"
        }
      ],
      "name": "CapperAdded",
      "type": "event"
    },
    {
      "anonymous": false,
      "inputs": [
        {
          "indexed": true,
          "name": "account",
          "type": "address"
        }
      ],
      "name": "CapperRemoved",
      "type": "event"
    },
    {
      "constant": true,
      "inputs": [
        {
          "name": "account",
          "type": "address"
        }
      ],
      "name": "isCapper",
      "outputs": [
        {
          "name": "",
          "type": "bool"
        }
      ],
      "payable": false,
      "stateMutability": "view",
      "type": "function"
    },
    {
      "constant": false,
      "inputs": [
        {
          "name": "account",
          "type": "address"
        }
      ],
      "name": "addCapper",
      "outputs": [],
      "payable": false,
      "stateMutability": "nonpayable",
      "type": "function"
    },
    {
      "constant": false,
      "inputs": [],
      "name": "renounceCapper",
      "outputs": [],
      "payable": false,
      "stateMutability": "nonpayable",
      "type": "function"
    }
  ],
  "bytecode": "0x608060405234801561001057600080fd5b5061002333640100000000610028810204565b6100b1565b61004060008264010000000061020961007782021704565b604051600160a060020a038216907fa7555c95b69d4f5cc847881feb4ab2883a1921319e34fa2043747b793d65b36e90600090a250565b600160a060020a038116151561008c57600080fd5b600160a060020a0316600090815260209190915260409020805460ff19166001179055565b61026f806100c06000396000f3006080604052600436106100565763ffffffff7c010000000000000000000000000000000000000000000000000000000060003504166339564561811461005b5780635d5576f8146100905780638dfbcf36146100a7575b600080fd5b34801561006757600080fd5b5061007c600160a060020a03600435166100c8565b604080519115158252519081900360200190f35b34801561009c57600080fd5b506100a56100e0565b005b3480156100b357600080fd5b506100a5600160a060020a03600435166100eb565b60006100da818363ffffffff61010b16565b92915050565b6100e933610142565b565b6100f4336100c8565b15156100ff57600080fd5b6101088161018a565b50565b6000600160a060020a038216151561012257600080fd5b50600160a060020a03166000908152602091909152604090205460ff1690565b61015360008263ffffffff6101d216565b604051600160a060020a038216907f427400d279c506df610224b22ecce89b693fc1865864113f21c8d19c1f0c2a3b90600090a250565b61019b60008263ffffffff61020916565b604051600160a060020a038216907fa7555c95b69d4f5cc847881feb4ab2883a1921319e34fa2043747b793d65b36e90600090a250565b600160a060020a03811615156101e757600080fd5b600160a060020a0316600090815260209190915260409020805460ff19169055565b600160a060020a038116151561021e57600080fd5b600160a060020a0316600090815260209190915260409020805460ff191660011790555600a165627a7a72305820c8f013f9a779bf3fb78921a18f527021cdf2b4379d869158d0f940b536e58dc30029",
  "source": "pragma solidity ^0.4.24;\n\nimport \"../Roles.sol\";\n\ncontract CapperRole {\n  using Roles for Roles.Role;\n\n  event CapperAdded(address indexed account);\n  event CapperRemoved(address indexed account);\n\n  Roles.Role private cappers;\n\n  constructor() public {\n    _addCapper(msg.sender);\n  }\n\n  modifier onlyCapper() {\n    require(isCapper(msg.sender));\n    _;\n  }\n\n  function isCapper(address account) public view returns (bool) {\n    return cappers.has(account);\n  }\n\n  function addCapper(address account) public onlyCapper {\n    _addCapper(account);\n  }\n\n  function renounceCapper() public {\n    _removeCapper(msg.sender);\n  }\n\n  function _addCapper(address account) internal {\n    cappers.add(account);\n    emit CapperAdded(account);\n  }\n\n  function _removeCapper(address account) internal {\n    cappers.remove(account);\n    emit CapperRemoved(account);\n  }\n}\n",
  "sourcePath": "/Users/achiko/Documents/elva/projects/kittiefight/KittieSITE/contracts/openzeppelin-solidity__old/access/roles/CapperRole.sol",
  "compiler": {
    "name": "solc",
    "version": "0.4.24+commit.e67f0147.Emscripten.clang"
  },
  "schemaVersion": "2.0.1",
  "updatedAt": "2018-11-05T14:07:26.409Z"
}