{
  "contractName": "Contactable",
  "abi": [
    {
      "constant": true,
      "inputs": [],
      "name": "contactInformation",
      "outputs": [
        {
          "name": "",
          "type": "string"
        }
      ],
      "payable": false,
      "stateMutability": "view",
      "type": "function"
    },
    {
      "constant": true,
      "inputs": [],
      "name": "owner",
      "outputs": [
        {
          "name": "",
          "type": "address"
        }
      ],
      "payable": false,
      "stateMutability": "view",
      "type": "function"
    },
    {
      "constant": false,
      "inputs": [
        {
          "name": "newOwner",
          "type": "address"
        }
      ],
      "name": "transferOwnership",
      "outputs": [],
      "payable": false,
      "stateMutability": "nonpayable",
      "type": "function"
    },
    {
      "anonymous": false,
      "inputs": [
        {
          "indexed": true,
          "name": "previousOwner",
          "type": "address"
        },
        {
          "indexed": true,
          "name": "newOwner",
          "type": "address"
        }
      ],
      "name": "OwnershipTransferred",
      "type": "event"
    },
    {
      "constant": false,
      "inputs": [
        {
          "name": "info",
          "type": "string"
        }
      ],
      "name": "setContactInformation",
      "outputs": [],
      "payable": false,
      "stateMutability": "nonpayable",
      "type": "function"
    }
  ],
  "bytecode": "0x608060405260008054600160a060020a031916331790556103c2806100256000396000f3006080604052600436106100615763ffffffff7c010000000000000000000000000000000000000000000000000000000060003504166336f7ab5e81146100665780638da5cb5b146100f0578063b967a52e14610121578063f2fde38b1461017c575b600080fd5b34801561007257600080fd5b5061007b61019d565b6040805160208082528351818301528351919283929083019185019080838360005b838110156100b557818101518382015260200161009d565b50505050905090810190601f1680156100e25780820380516001836020036101000a031916815260200191505b509250505060405180910390f35b3480156100fc57600080fd5b5061010561022a565b60408051600160a060020a039092168252519081900360200190f35b34801561012d57600080fd5b506040805160206004803580820135601f810184900484028501840190955284845261017a9436949293602493928401919081908401838280828437509497506102399650505050505050565b005b34801561018857600080fd5b5061017a600160a060020a0360043516610267565b60018054604080516020600284861615610100026000190190941693909304601f810184900484028201840190925281815292918301828280156102225780601f106101f757610100808354040283529160200191610222565b820191906000526020600020905b81548152906001019060200180831161020557829003601f168201915b505050505081565b600054600160a060020a031681565b600054600160a060020a0316331461025057600080fd5b80516102639060019060208401906102fb565b5050565b600054600160a060020a0316331461027e57600080fd5b600160a060020a038116151561029357600080fd5b60008054604051600160a060020a03808516939216917f8be0079c531659141344cd1fd0a4f28419497f9722a3daafe3b4186f6b6457e091a36000805473ffffffffffffffffffffffffffffffffffffffff1916600160a060020a0392909216919091179055565b828054600181600116156101000203166002900490600052602060002090601f016020900481019282601f1061033c57805160ff1916838001178555610369565b82800160010185558215610369579182015b8281111561036957825182559160200191906001019061034e565b50610375929150610379565b5090565b61039391905b80821115610375576000815560010161037f565b905600a165627a7a72305820896647b876168f11ac1dc282d261dd962e8e1f75385731ac5473ce47f5ae9d8f0029",
  "source": "pragma solidity ^0.4.18;\n\nimport \"./Ownable.sol\";\n\n\n/**\n * @title Contactable token\n * @dev Basic version of a contactable contract, allowing the owner to provide a string with their\n * contact information.\n */\ncontract Contactable is Ownable {\n\n  string public contactInformation;\n\n  /**\n    * @dev Allows the owner to set a string with their contact information.\n    * @param info The contact information to attach to the contract.\n    */\n  function setContactInformation(string info) onlyOwner public {\n    contactInformation = info;\n  }\n}\n",
  "sourcePath": "/Users/achiko/Documents/elva/projects/kittiefight/KittieSITE/contracts/openzeppelin-solidity/ownership/Contactable.sol",
  "compiler": {
    "name": "solc",
    "version": "0.4.24+commit.e67f0147.Emscripten.clang"
  },
  "schemaVersion": "2.0.1",
  "updatedAt": "2018-11-05T14:07:26.240Z"
}