{
  "contractName": "DutchAuction",
  "abi": [
    {
      "inputs": [
        {
          "internalType": "address payable",
          "name": "_pWallet",
          "type": "address"
        },
        {
          "internalType": "uint256",
          "name": "_ceiling",
          "type": "uint256"
        },
        {
          "internalType": "uint256",
          "name": "_priceFactor",
          "type": "uint256"
        }
      ],
      "payable": false,
      "stateMutability": "nonpayable",
      "type": "constructor"
    },
    {
      "anonymous": false,
      "inputs": [
        {
          "indexed": true,
          "internalType": "address",
          "name": "sender",
          "type": "address"
        },
        {
          "indexed": false,
          "internalType": "uint256",
          "name": "amount",
          "type": "uint256"
        }
      ],
      "name": "BidSubmission",
      "type": "event"
    },
    {
      "anonymous": false,
      "inputs": [
        {
          "indexed": false,
          "internalType": "bytes",
          "name": "_data",
          "type": "bytes"
        },
        {
          "indexed": false,
          "internalType": "uint256",
          "name": "_lengt",
          "type": "uint256"
        }
      ],
      "name": "logPayload",
      "type": "event"
    },
    {
      "constant": true,
      "inputs": [],
      "name": "KittieFightToken",
      "outputs": [
        {
          "internalType": "contract Token",
          "name": "",
          "type": "address"
        }
      ],
      "payable": false,
      "stateMutability": "view",
      "type": "function"
    },
    {
      "constant": true,
      "inputs": [],
      "name": "MAX_TOKENS_SOLD",
      "outputs": [
        {
          "internalType": "uint256",
          "name": "",
          "type": "uint256"
        }
      ],
      "payable": false,
      "stateMutability": "view",
      "type": "function"
    },
    {
      "constant": true,
      "inputs": [],
      "name": "PromissoryTokenIns",
      "outputs": [
        {
          "internalType": "contract PromissoryToken",
          "name": "",
          "type": "address"
        }
      ],
      "payable": false,
      "stateMutability": "view",
      "type": "function"
    },
    {
      "constant": true,
      "inputs": [],
      "name": "WAITING_PERIOD",
      "outputs": [
        {
          "internalType": "uint256",
          "name": "",
          "type": "uint256"
        }
      ],
      "payable": false,
      "stateMutability": "view",
      "type": "function"
    },
    {
      "constant": true,
      "inputs": [
        {
          "internalType": "address",
          "name": "",
          "type": "address"
        }
      ],
      "name": "bids",
      "outputs": [
        {
          "internalType": "uint256",
          "name": "",
          "type": "uint256"
        }
      ],
      "payable": false,
      "stateMutability": "view",
      "type": "function"
    },
    {
      "constant": true,
      "inputs": [],
      "name": "ceiling",
      "outputs": [
        {
          "internalType": "uint256",
          "name": "",
          "type": "uint256"
        }
      ],
      "payable": false,
      "stateMutability": "view",
      "type": "function"
    },
    {
      "constant": true,
      "inputs": [],
      "name": "endTime",
      "outputs": [
        {
          "internalType": "uint256",
          "name": "",
          "type": "uint256"
        }
      ],
      "payable": false,
      "stateMutability": "view",
      "type": "function"
    },
    {
      "constant": true,
      "inputs": [],
      "name": "finalPrice",
      "outputs": [
        {
          "internalType": "uint256",
          "name": "",
          "type": "uint256"
        }
      ],
      "payable": false,
      "stateMutability": "view",
      "type": "function"
    },
    {
      "constant": true,
      "inputs": [],
      "name": "owner",
      "outputs": [
        {
          "internalType": "address",
          "name": "",
          "type": "address"
        }
      ],
      "payable": false,
      "stateMutability": "view",
      "type": "function"
    },
    {
      "constant": true,
      "inputs": [],
      "name": "pWallet",
      "outputs": [
        {
          "internalType": "address payable",
          "name": "",
          "type": "address"
        }
      ],
      "payable": false,
      "stateMutability": "view",
      "type": "function"
    },
    {
      "constant": true,
      "inputs": [],
      "name": "priceFactor",
      "outputs": [
        {
          "internalType": "uint256",
          "name": "",
          "type": "uint256"
        }
      ],
      "payable": false,
      "stateMutability": "view",
      "type": "function"
    },
    {
      "constant": true,
      "inputs": [],
      "name": "promissoryAddr",
      "outputs": [
        {
          "internalType": "address",
          "name": "",
          "type": "address"
        }
      ],
      "payable": false,
      "stateMutability": "view",
      "type": "function"
    },
    {
      "constant": true,
      "inputs": [],
      "name": "stage",
      "outputs": [
        {
          "internalType": "enum DutchAuction.Stages",
          "name": "",
          "type": "uint8"
        }
      ],
      "payable": false,
      "stateMutability": "view",
      "type": "function"
    },
    {
      "constant": true,
      "inputs": [],
      "name": "startBlock",
      "outputs": [
        {
          "internalType": "uint256",
          "name": "",
          "type": "uint256"
        }
      ],
      "payable": false,
      "stateMutability": "view",
      "type": "function"
    },
    {
      "constant": true,
      "inputs": [],
      "name": "totalReceived",
      "outputs": [
        {
          "internalType": "uint256",
          "name": "",
          "type": "uint256"
        }
      ],
      "payable": false,
      "stateMutability": "view",
      "type": "function"
    },
    {
      "constant": false,
      "inputs": [
        {
          "internalType": "address",
          "name": "_kittieToken",
          "type": "address"
        }
      ],
      "name": "setup",
      "outputs": [],
      "payable": false,
      "stateMutability": "nonpayable",
      "type": "function"
    },
    {
      "constant": false,
      "inputs": [],
      "name": "startAuction",
      "outputs": [],
      "payable": false,
      "stateMutability": "nonpayable",
      "type": "function"
    },
    {
      "constant": false,
      "inputs": [
        {
          "internalType": "uint256",
          "name": "_ceiling",
          "type": "uint256"
        },
        {
          "internalType": "uint256",
          "name": "_priceFactor",
          "type": "uint256"
        }
      ],
      "name": "changeSettings",
      "outputs": [],
      "payable": false,
      "stateMutability": "nonpayable",
      "type": "function"
    },
    {
      "constant": false,
      "inputs": [],
      "name": "calcCurrentTokenPrice",
      "outputs": [
        {
          "internalType": "uint256",
          "name": "",
          "type": "uint256"
        }
      ],
      "payable": false,
      "stateMutability": "nonpayable",
      "type": "function"
    },
    {
      "constant": false,
      "inputs": [],
      "name": "updateStage",
      "outputs": [
        {
          "internalType": "enum DutchAuction.Stages",
          "name": "",
          "type": "uint8"
        }
      ],
      "payable": false,
      "stateMutability": "nonpayable",
      "type": "function"
    },
    {
      "constant": false,
      "inputs": [
        {
          "internalType": "address payable",
          "name": "receiver",
          "type": "address"
        }
      ],
      "name": "bid",
      "outputs": [
        {
          "internalType": "uint256",
          "name": "amount",
          "type": "uint256"
        }
      ],
      "payable": true,
      "stateMutability": "payable",
      "type": "function"
    },
    {
      "constant": false,
      "inputs": [
        {
          "internalType": "address",
          "name": "receiver",
          "type": "address"
        }
      ],
      "name": "claimTokens",
      "outputs": [],
      "payable": false,
      "stateMutability": "nonpayable",
      "type": "function"
    },
    {
      "constant": true,
      "inputs": [],
      "name": "calcStopPrice",
      "outputs": [
        {
          "internalType": "uint256",
          "name": "",
          "type": "uint256"
        }
      ],
      "payable": false,
      "stateMutability": "view",
      "type": "function"
    },
    {
      "constant": true,
      "inputs": [],
      "name": "calcTokenPrice",
      "outputs": [
        {
          "internalType": "uint256",
          "name": "",
          "type": "uint256"
        }
      ],
      "payable": false,
      "stateMutability": "view",
      "type": "function"
    }
  ],
  "bytecode": "0x608060405234801561001057600080fd5b50604051610d39380380610d398339818101604052606081101561003357600080fd5b50805160208201516040909201519091906001600160a01b0383161580610058575081155b80610061575080155b1561006b57600080fd5b600280546001600160a01b03199081163317909155600380548216730348b55abd6e1a99c6ebc972a6a4582ec0bceb5c179055600080546001600160a01b039590951694909116939093178355600491909155600555600b805460ff19169055610c5e9081906100db90396000f3fe60806040526004361061014b5760003560e01c80638da5cb5b116100b6578063c062f5781161006f578063c062f57814610386578063cf7606341461039b578063d9f8a4e2146103b0578063dd9dd688146103c5578063df8de3e7146103da578063dfb2866d1461040d5761014b565b80638da5cb5b146102d35780639866845d146102e85780639cf5453d146102fd578063a3c2c46214610323578063a6b513ee14610338578063c040e6b81461034d5761014b565b80635fcee458116101085780635fcee4581461021957806362ea82db1461022e57806366d38203146102615780636b64c769146102945780636f85c7e4146102a9578063753ed1bd146102be5761014b565b806317f5de95146101505780633197cbb61461017757806333a42d101461018c57806336d02c94146101bd57806339f64b52146101ef57806348cd4cb114610204575b600080fd5b34801561015c57600080fd5b50610165610422565b60408051918252519081900360200190f35b34801561018357600080fd5b50610165610431565b34801561019857600080fd5b506101a1610437565b604080516001600160a01b039092168252519081900360200190f35b3480156101c957600080fd5b506101ed600480360360408110156101e057600080fd5b508035906020013561044f565b005b3480156101fb57600080fd5b50610165610490565b34801561021057600080fd5b506101656104b9565b34801561022557600080fd5b506101a16104bf565b34801561023a57600080fd5b506101656004803603602081101561025157600080fd5b50356001600160a01b03166104ce565b34801561026d57600080fd5b506101ed6004803603602081101561028457600080fd5b50356001600160a01b03166104e0565b3480156102a057600080fd5b506101ed6105dd565b3480156102b557600080fd5b50610165610626565b3480156102ca57600080fd5b5061016561062d565b3480156102df57600080fd5b506101a1610633565b3480156102f457600080fd5b506101a1610642565b6101656004803603602081101561031357600080fd5b50356001600160a01b0316610651565b34801561032f57600080fd5b5061016561082f565b34801561034457600080fd5b50610165610835565b34801561035957600080fd5b5061036261083b565b6040518082600481111561037257fe5b60ff16815260200191505060405180910390f35b34801561039257600080fd5b50610362610844565b3480156103a757600080fd5b506101a16108c4565b3480156103bc57600080fd5b506101656108d3565b3480156103d157600080fd5b50610165610993565b3480156103e657600080fd5b506101ed600480360360208110156103fd57600080fd5b50356001600160a01b03166109b5565b34801561041957600080fd5b50610165610be8565b6a084595161401484a00000081565b60075481565b730348b55abd6e1a99c6ebc972a6a4582ec0bceb5c81565b6000546001600160a01b0316331461046657600080fd5b600180600b5460ff16600481111561047a57fe5b1461048457600080fd5b50600491909155600555565b60006006544303611d4c01600554670de0b6b3a764000002816104af57fe5b0460010190505b90565b60065481565b6001546001600160a01b031681565b600a6020526000908152604090205481565b6002546001600160a01b031633146104f757600080fd5b600080600b5460ff16600481111561050b57fe5b1461051557600080fd5b6001600160a01b03821661052857600080fd5b600180546001600160a01b0319166001600160a01b038481169190911791829055604080516370a0823160e01b815230600482015290516a084595161401484a00000093909216916370a0823191602480820192602092909190829003018186803b15801561059657600080fd5b505afa1580156105aa573d6000803e3d6000fd5b505050506040513d60208110156105c057600080fd5b5051146105cc57600080fd5b5050600b805460ff19166001179055565b6002546001600160a01b031633146105f457600080fd5b600180600b5460ff16600481111561060857fe5b1461061257600080fd5b50600b805460ff1916600217905543600655565b623b538081565b60045481565b6002546001600160a01b031681565b6000546001600160a01b031681565b60006002600b5460ff16600481111561066657fe5b1480156106815750610676610993565b61067e610490565b11155b1561068e5761068e610bee565b6003600b5460ff1660048111156106a157fe5b1480156106b45750623b53806007540142115b156106c757600b805460ff191660041790555b600280600b5460ff1660048111156106db57fe5b146106e557600080fd5b6001600160a01b0383166106f7573392505b3491506000600854610707610490565b670de0b6b3a76400006a084595161401484a0000000402039050600060085460045403905081811015610738578091505b8184111561077657819350846001600160a01b03166108fc8534039081150290604051600060405180830381858888f1935050505061077657600080fd5b8315806107a85750600080546040516001600160a01b039091169186156108fc02918791818181858888f19350505050155b156107b257600080fd5b6001600160a01b0385166000908152600a602052604090208054850190556008805485019055818414156107e8576107e8610bee565b6040805185815290516001600160a01b038716917f9c89e828e6cee6374b68147c9e753e41746aad98ba255a527a4fc0ac1868bff9919081900360200190a2505050919050565b60085481565b60095481565b600b5460ff1681565b60006002600b5460ff16600481111561085957fe5b1480156108745750610869610993565b610871610490565b11155b1561088157610881610bee565b6003600b5460ff16600481111561089457fe5b1480156108a75750623b53806007540142115b156108ba57600b805460ff191660041790555b50600b5460ff1690565b6003546001600160a01b031681565b60006002600b5460ff1660048111156108e857fe5b14801561090357506108f8610993565b610900610490565b11155b1561091057610910610bee565b6003600b5460ff16600481111561092357fe5b1480156109365750623b53806007540142115b1561094957600b805460ff191660041790555b6003600b5460ff16600481111561095c57fe5b148061097857506004600b5460ff16600481111561097657fe5b145b1561098657506009546104b6565b61098e610490565b905090565b60006a084595161401484a000000600854670de0b6b3a764000002816104af57fe5b6040805136602082018190528282529181018290527f1731fdc3bb916cb9784ad5d30a3a9c01b6f53ca830447dbfa839dfea7a699e8d9160009181908060608101858480828437600083820152604051601f909101601f1916909201829003965090945050505050a16004361480610a2d5750602436145b610a71576040805162461bcd60e51b815260206004820152601060248201526f139bc81d985b1a59081c185e5b1bd85960821b604482015290519081900360640190fd5b6002600b5460ff166004811115610a8457fe5b148015610a9f5750610a94610993565b610a9c610490565b11155b15610aac57610aac610bee565b6003600b5460ff166004811115610abf57fe5b148015610ad25750623b53806007540142115b15610ae557600b805460ff191660041790555b600480600b5460ff166004811115610af957fe5b14610b0357600080fd5b6001600160a01b038216610b15573391505b6009546001600160a01b0383166000908152600a6020526040812054909190670de0b6b3a76400000281610b4557fe5b6001600160a01b038086166000818152600a60209081526040808320839055600154815163a9059cbb60e01b8152600481019590955296909504602484018190529451949650949092169363a9059cbb9360448084019492939192918390030190829087803b158015610bb757600080fd5b505af1158015610bcb573d6000803e3d6000fd5b505050506040513d6020811015610be157600080fd5b5050505050565b60055481565b600b805460ff191660031790556004546008541415610c1757610c0f610490565b600955610c23565b610c1f610993565b6009555b4260075556fea265627a7a723158201b5e9ca4c6ebcd0f9a78c3c59edda0165fc2b16b0afa17c2efa9b08b0e57a91b64736f6c634300050d0032",
  "source": "pragma solidity ^0.5.10;\n\nlibrary SafeMath {\n\n  function mul(uint256 a, uint256 b) internal pure returns (uint256) {\n    if (a == 0) {\n      return 0;\n    }\n    uint256 c = a * b;\n    assert(c / a == b);\n    return c;\n  }\n\n  function div(uint256 a, uint256 b) internal pure returns (uint256) {\n    // assert(b > 0); // Solidity automatically throws when dividing by 0\n    uint256 c = a / b;\n    // assert(a == b * c + a % b); // There is no case in which this doesn't hold\n    return c;\n  }\n\n  function sub(uint256 a, uint256 b) internal pure returns (uint256) {\n    assert(b <= a);\n    return a - b;\n  }\n\n  function add(uint256 a, uint256 b) internal pure returns (uint256) {\n    uint256 c = a + b;\n    assert(c >= a);\n    return c;\n  }\n}\n\ninterface Token {\n    function transfer(address to, uint256 value) external returns (bool success);\n    function transferFrom(address from, address to, uint256 value) external returns (bool success);\n    function approve(address spender, uint256 value) external returns (bool success);\n\n    // This is not an abstract function, because solc won't recognize generated getter functions for public variables as functions.\n    function totalSupply() external view returns (uint256 supply);\n    function balanceOf(address owner) external view returns (uint256 balance);\n    function allowance(address owner, address spender) external view returns (uint256 remaining);\n\n    event Transfer(address indexed from, address indexed to, uint256 value);\n    event Approval(address indexed owner, address indexed spender, uint256 value);\n}\ninterface PromissoryToken {\n\n\tfunction claim() payable external;\n\tfunction lastPrice() external returns(uint256);\n}\n\n/// @title Dutch auction contract - from gnosis, see source : https://github.com/maurelian/dutch-auction\n/// improved with latest solidity syntax\ncontract DutchAuction {\n\n    /*\n     *  Events\n     */\n    event BidSubmission(address indexed sender, uint256 amount);\n    event logPayload(bytes _data, uint _lengt);\n\n    /*\n     *  Constants\n     */\n    uint constant public MAX_TOKENS_SOLD = 10000000 * 10**18; // 10M\n    uint constant public WAITING_PERIOD = 45 days;\n\n    /*\n     *  Storage\n     */\n\n\n    address payable public pWallet;\n    Token public KittieFightToken;\n    address public owner;\n    PromissoryToken public PromissoryTokenIns; \n    address constant public promissoryAddr = 0x0348B55AbD6E1A99C6EBC972A6A4582Ec0bcEb5c;\n    uint public ceiling;\n    uint public priceFactor;\n    uint public startBlock;\n    uint public endTime;\n    uint public totalReceived;\n    uint public finalPrice;\n    mapping (address => uint) public bids;\n    Stages public stage;\n\n    /*\n     *  Enums\n     */\n    enum Stages {\n        AuctionDeployed,\n        AuctionSetUp,\n        AuctionStarted,\n        AuctionEnded,\n        TradingStarted\n    }\n\n    /*\n     *  Modifiers\n     */\n    modifier atStage(Stages _stage) {\n        require(stage == _stage);\n            // Contract not in expected state\n        _;\n    }\n\n    modifier isOwner() {\n        require(msg.sender == owner);\n            // Only owner is allowed to proceed\n        _;\n    }\n\n    modifier isWallet() {\n         require(msg.sender == address(pWallet));\n            // Only wallet is allowed to proceed\n        _;\n    }\n\n    modifier isValidPayload() {\n        emit logPayload(msg.data, msg.data.length);\n        require(msg.data.length == 4 || msg.data.length == 36, \"No valid payload\");\n        _;\n    }\n\n    modifier timedTransitions() {\n        if (stage == Stages.AuctionStarted && calcTokenPrice() <= calcStopPrice())\n            finalizeAuction();\n        if (stage == Stages.AuctionEnded && now > endTime + WAITING_PERIOD)\n            stage = Stages.TradingStarted;\n        _;\n    }\n\n    /*\n     *  Public functions\n     */\n    /// @dev Contract constructor function sets owner.\n    /// @param _pWallet KittieFight promissory wallet.\n    /// @param _ceiling Auction ceiling.\n    /// @param _priceFactor Auction price factor.\n    constructor(address payable _pWallet, uint _ceiling, uint _priceFactor)\n        public\n    {\n        if (_pWallet == address(0) || _ceiling == 0 || _priceFactor == 0)\n            // Arguments are null.\n            revert();\n        owner = msg.sender;\n        PromissoryTokenIns = PromissoryToken(promissoryAddr);\n        pWallet = _pWallet;\n        ceiling = _ceiling;\n        priceFactor = _priceFactor;\n        stage = Stages.AuctionDeployed;\n    }\n\n    /// @dev Setup function sets external contracts' addresses.\n    /// @param _kittieToken  token address.\n    function setup(address _kittieToken)\n        public\n        isOwner\n        atStage(Stages.AuctionDeployed)\n    {\n        if (_kittieToken == address(0))\n            // Argument is null.\n            revert();\n        KittieFightToken = Token(_kittieToken);\n        // Validate token balance\n        if (KittieFightToken.balanceOf(address(this)) != MAX_TOKENS_SOLD)\n            revert();\n        stage = Stages.AuctionSetUp;\n    }\n\n    /// @dev Starts auction and sets startBlock.\n    function startAuction()\n        public\n        isOwner\n        atStage(Stages.AuctionSetUp)\n    {\n        stage = Stages.AuctionStarted;\n        startBlock = block.number;\n    }\n\n    /// @dev Changes auction ceiling and start price factor before auction is started.\n    /// @param _ceiling Updated auction ceiling.\n    /// @param _priceFactor Updated start price factor.\n    function changeSettings(uint _ceiling, uint _priceFactor)\n        public\n        isWallet\n        atStage(Stages.AuctionSetUp)\n    {\n        ceiling = _ceiling;\n        priceFactor = _priceFactor;\n    }\n\n    /// @dev Calculates current token price.\n    /// @return Returns token price.\n    function calcCurrentTokenPrice()\n        public\n        timedTransitions\n        returns (uint)\n    {\n        if (stage == Stages.AuctionEnded || stage == Stages.TradingStarted)\n            return finalPrice;\n        return calcTokenPrice();\n    }\n\n    /// @dev Returns correct stage, even if a function with timedTransitions modifier has not yet been called yet.\n    /// @return Returns current auction stage.\n    function updateStage()\n        public\n        timedTransitions\n        returns (Stages)\n    {\n        return stage;\n    }\n\n    /// @dev Allows to send a bid to the auction.\n    /// @param receiver Bid will be assigned to this address if set.\n    function bid(address payable receiver)\n        public\n        payable\n        //isValidPayload\n        timedTransitions\n        atStage(Stages.AuctionStarted)\n        returns (uint amount)\n    {\n        // If a bid is done on behalf of a user via ShapeShift, the receiver address is set.\n        if (receiver == address(0))\n            receiver = msg.sender;\n        amount = msg.value;\n        // Prevent that more than 90% of tokens are sold. Only relevant if cap not reached.\n        uint maxWei = (MAX_TOKENS_SOLD / 10**18) * calcTokenPrice() - totalReceived;\n        uint maxWeiBasedOnTotalReceived = ceiling - totalReceived;\n        if (maxWeiBasedOnTotalReceived < maxWei)\n            maxWei = maxWeiBasedOnTotalReceived;\n        // Only invest maximum possible amount.\n        if (amount > maxWei) {\n            amount = maxWei;\n            // Send change back to receiver address. In case of a ShapeShift bid the user receives the change back directly.\n            if (!receiver.send(msg.value - amount))\n                // Sending failed\n                revert();\n        }\n        // Forward funding to ether pWallet\n        if (amount == 0 || !address(pWallet).send(amount))\n            // No amount sent or sending failed\n            revert();\n        bids[receiver] += amount;\n        totalReceived += amount;\n        if (maxWei == amount)\n            // When maxWei is equal to the big amount the auction is ended and finalizeAuction is triggered.\n            finalizeAuction();\n        emit BidSubmission(receiver, amount);\n    }\n\n    /// @dev Claims tokens for bidder after auction.\n    /// @param receiver Tokens will be assigned to this address if set.\n    function claimTokens(address receiver)\n        public\n        isValidPayload\n        timedTransitions\n        atStage(Stages.TradingStarted)\n    {\n        if (receiver == address(0))\n            receiver = msg.sender;\n        uint tokenCount = bids[receiver] * 10**18 / finalPrice;\n        bids[receiver] = 0;\n        KittieFightToken.transfer(receiver, tokenCount);\n    }\n\n    /// @dev Calculates stop price.\n    /// @return Returns stop price.\n    function calcStopPrice()\n        view\n        public\n        returns (uint)\n    {\n        return totalReceived * 10**18 / MAX_TOKENS_SOLD + 1;\n    }\n\n    /// @dev Calculates token price.\n    /// @return Returns token price.\n    function calcTokenPrice()\n        view\n        public\n        returns (uint)\n    {\n        return priceFactor * 10**18 / (block.number - startBlock + 7500) + 1;\n    }\n\n    /*\n     *  Private functions\n     */\n    function finalizeAuction()\n        private\n    {\n        stage = Stages.AuctionEnded;\n\n        if (totalReceived == ceiling)\n            finalPrice = calcTokenPrice();\n        else\n            finalPrice = calcStopPrice();\n\n        endTime = now;\n    }\n\n\n}\ncontract Dutchwrapper is DutchAuction {\n\n\n    uint constant public MAX_TOKEN_REFERRAL = 2000000 * 10**18; // One Million and eight hundred  thousand\n\n    uint public claimedTokenReferral = 0; // 800,000 : eigth hundred thousand limit\n    uint public totalEthEarnedByPartners = 0; // Partners earning\n\n\n    // 2,000,000 :  2 million: total MAX_TOKEN_REFERRAL\n    uint constant public TOTAL_BONUS_TOKEN = 2000000 * 10**18;\n\n    uint public softCap;\n    bool public softcapReached = false;\n\n\n    uint constant public None = 0; // Distinction between promotion groups, discontinued bonuses\n    uint constant public Partners = 1; // Distinction between promotion groups, partnership for eth\n    uint constant public Referrals = 2; // Distinction between promotion groups, referral campaign for tokens\n    \n\n    uint constant public ONE = 1; // NUMBER 1\n\n    // various reward levels\n    uint constant public thirty = 30 * 10**18; // thirty tokens awarded to bidder when earned\n    uint constant public twoHundred = 200 * 10**18; // two hundred tokens awarded to bidder when earned\n    uint constant public sixHundred = 600 * 10**18; // six hundred tokens awarded to bidder when earned\n\n    uint constant public oneHundred = 100 * 10**18; // one hundred tokens awarded to refferer when earned\n    uint constant public fiveHundred = 500 * 10**18; // five hundred tokens awarded to refferer when earned\n    uint constant public oneThousand = 1000 * 10**18; // one thousand tokens awarded to refferer when earned\n    uint public residualToken; // variable tracking number of tokens left at near complete token exhaustion\n\n    mapping (address => uint) public SuperDAOTokens; // amount of bonus Superdao Tokens earned per bidder\n    //for participation on auction based on eth bid\n\n    struct PartnerForEth {\n        bytes4 hash; // unique hash for partner\n        address addr; //address for partner\n        uint totalReferrals; // Number of reffered parties\n        uint totalContribution; // total contribution in ETH by reffered parties\n        uint[] individualContribution; // individual contribution list, number of eth per contributor\n        uint percentage; // percentage share for partner of each referral\n        uint EthEarned; // up to date total amount earned\n    }\n\n\taddress [] public PartnersList; // list of partners\n\n    //for token referal campaign\n    struct tokenForReferral {\n        bytes4 hash; // hash of this campaign\n        address addr; // address of this user\n        uint totalReferrals; // total amount of participators refered\n        uint totalTokensEarned; // total tokens earned based on referals\n        mapping(uint => uint) tokenAmountPerReferred;// Amount of tokens earned for each participator referred\n    }\n\n     address [] public TokenReferalList; // list of partners\n\n     bytes4 [20] public topAddrHashes; // display top 20 refferers address hashes\n     uint [20] public topReferredNum; // display number of bidders reffered by top 20 refferers\n\n    event topAddrHashesUpdate(bytes4 [20] topAddrHashes); // log display top 20 refferers address hashes ( see function orderTop20 )\n    event topNumbersUpdate(uint[20] topNumArray);  // log number of bidders reffered by top 20 refferers (( see function orderTop20 )\n    bool public bidderBonus = true; // bolean bonus indicator for both refferers and bidders\n\n    mapping(bytes4 => PartnerForEth )  public MarketingPartners;\n    mapping(bytes4 => tokenForReferral)  public TokenReferrals;\n    mapping(address => bool ) public Admins;\n\n    // statistics on the number of bidders\n    struct bidder {\n        address addr;\n        uint amount;\n    }\n\n    bidder [] public CurrentBidders; // document current bidders\n\n\n    event PartnerReferral(bytes4 _partnerHash,address _addr, uint _amount);//fired after marketing partner referral happens\n    event TokenReferral(bytes4 _campaignHash,address _addr, uint _amount);// fired when token referral happens\n    event BidEvent(bytes4 _hash, address _addr, uint _amount); //fired when a bid happens\n    event SetupReferal(uint _type); //fired when a referal campaign is setup\n    event ReferalSignup(bytes4 _Hash, address _addr); // fired when a token promoter signs up\n    event ClaimtokenBonus(bytes4 _Hash, address _addr, bool success); //fired when a person claims earned tokens\n\n\n\n    // check when dutch auction is ended and trading has started\n    modifier tradingstarted(){\n        require(stage == Stages.TradingStarted);\n        _;\n    }\n\n    // uint constant public MAX_TOKEN_REFERRAL = 1800000 * 10**18; // 1 800,000 : one million and eight hundred  thousand    \n    // uint public claimedTokenReferral = 0; // 800,000 : eigth hundred thousand limit\n\n    // safety check for requiring limits at maximum amount allocated for referrals\n    modifier ReferalCampaignLimit() {\n        require (claimedTokenReferral < MAX_TOKEN_REFERRAL);\n        _;\n    }\n\n\n    constructor  (address payable _pWallet, uint _ceiling, uint _priceFactor, uint _softCap)\n        DutchAuction(_pWallet, _ceiling, _priceFactor)  public {\n\n            softCap = _softCap;\n    }\n\n    function checksoftCAP() internal {\n        //require (softcapReached == false);\n        if( totalReceived >= softCap ) {\n            softcapReached = true;\n        }\n    }\n\n    // creates either a marketing partnering for eth or a twitter retweet campaign. referal marketing in\n    // exchange for tokens are self generated in referal signup function\n\n    function setupReferal(address _addr, uint _percentage)\n        public\n        isOwner\n        returns (string memory successmessage) \n    {\n\n            bytes4 tempHash = bytes4(keccak256(abi.encodePacked(_addr, msg.sender)));\n\n            MarketingPartners[tempHash].hash = tempHash;\n            MarketingPartners[tempHash].addr = _addr;\n            MarketingPartners[tempHash].percentage = _percentage;\n\n            InternalReferalSignupByhash(tempHash, _addr);\n\n    \t\temit SetupReferal(1); // Marketin partners\n            return \"partner signed up\";\n    }\n\n    // generated hash on behalf of partners earning cash and tokensby tokens. referalcampaignlimmit modifier\n    //removed because partner signup it will fail if referal tokens are used up\n    function InternalReferalSignup(address _addr) internal returns (bytes4 referalhash) {\n        \n        bytes4 tempHash = bytes4(keccak256(abi.encodePacked(_addr)));\n        TokenReferrals[tempHash].addr = msg.sender;\n        TokenReferrals[tempHash].hash = tempHash;\n        referalhash = tempHash;\n        emit ReferalSignup(tempHash, _addr);\n    }\n\n    //\n    function InternalReferalSignupByhash(bytes4 _hash, address _addr) internal returns (bytes4 referalhash) {\n        TokenReferrals[_hash].addr = _addr;\n        TokenReferrals[_hash].hash = _hash;\n        referalhash = _hash;\n        emit ReferalSignup(_hash, _addr);\n    }\n\n\n    // public self generated hash by token earning promoters\n    function referralSignup() public ReferalCampaignLimit returns (bytes4 referalhash) {\n        bytes4 tempHash = bytes4(keccak256(abi.encodePacked(msg.sender)));\n        require (tempHash != TokenReferrals[tempHash].hash); //check prevent overwriting\n        TokenReferrals[tempHash].addr = msg.sender;\n        TokenReferrals[tempHash].hash = tempHash;\n        referalhash = tempHash;\n        emit ReferalSignup(tempHash, msg.sender);\n    }\n\n\n    // Biding using a referral hash\n    function bidReferral(address payable _receiver, bytes4 _hash) public payable returns (uint) {\n\n        uint bidAmount = msg.value;\n        uint256 promissorytokenLastPrice = PromissoryTokenIns.lastPrice();\n\n\n        if(bidAmount > ceiling - totalReceived) {\n            bidAmount = ceiling - totalReceived;\n        }\n\n        require( bid(_receiver) == bidAmount ); //Change will be sent back to _receiver, that's why he should be payable\n\n\t\tuint amount = msg.value;\n\t\tbidder memory _bidder;\n\t\t_bidder.addr = _receiver;\n\t\t_bidder.amount = amount;\n        SuperDAOTokens[msg.sender] += amount/promissorytokenLastPrice;\n\t\tCurrentBidders.push(_bidder);\n        checksoftCAP();\n\n        emit BidEvent(_hash, msg.sender, amount);\n\n        if (_hash == MarketingPartners[_hash].hash) {\n\n            MarketingPartners[_hash].totalReferrals += ONE;\n            MarketingPartners[_hash].totalContribution += amount;\n            MarketingPartners[_hash].individualContribution.push(amount);\n            MarketingPartners[_hash].EthEarned += referalPercentage(amount, MarketingPartners[_hash].percentage);\n\n            totalEthEarnedByPartners += referalPercentage(amount, MarketingPartners[_hash].percentage);\n\n            if( (msg.value >= 1 ether) && (msg.value <= 3 ether) && (bidderBonus == true)) {\n             if(bonusChecker(oneHundred, thirty) == false){\n                    discontinueBonus(oneHundred, thirty);\n                    return None;\n                    }\n              TokenReferrals[_hash].totalReferrals += ONE;\n              orderTop20(TokenReferrals[_hash].totalReferrals, _hash);\n              TokenReferrals[_hash].tokenAmountPerReferred[amount] = oneHundred;\n              TokenReferrals[_hash].totalTokensEarned += oneHundred;\n              bidderEarnings (thirty) == true ? claimedTokenReferral = oneHundred + thirty : claimedTokenReferral += oneHundred;\n              emit TokenReferral(_hash ,msg.sender, amount);\n\n\n              } else if ((msg.value > 3 ether)&&(msg.value <= 6 ether) && (bidderBonus == true)) {\n                   if(bonusChecker(fiveHundred, twoHundred) == false){\n                    discontinueBonus(fiveHundred, twoHundred);\n                    return None;\n                    }\n                  TokenReferrals[_hash].totalReferrals += ONE;\n                  orderTop20(TokenReferrals[_hash].totalReferrals, _hash);\n                  TokenReferrals[_hash].tokenAmountPerReferred[amount] = fiveHundred;\n                  TokenReferrals[_hash].totalTokensEarned += fiveHundred;\n                  bidderEarnings (twoHundred) == true ? claimedTokenReferral = fiveHundred + twoHundred : claimedTokenReferral += fiveHundred;\n                  emit TokenReferral(_hash ,msg.sender, amount);\n\n\n                  } else if ((msg.value > 6 ether) && (bidderBonus == true)) {\n                    if(bonusChecker(oneThousand, sixHundred) == false){\n                    discontinueBonus(oneThousand, sixHundred);\n                    return None;\n                    }\n                    TokenReferrals[_hash].totalReferrals += ONE;\n                    orderTop20(TokenReferrals[_hash].totalReferrals, _hash);\n                    TokenReferrals[_hash].tokenAmountPerReferred[amount] = oneThousand;\n                    TokenReferrals[_hash].totalTokensEarned += oneThousand;\n                    bidderEarnings (sixHundred) == true ? claimedTokenReferral = oneThousand + sixHundred : claimedTokenReferral += oneThousand;\n                    emit TokenReferral(_hash, msg.sender, amount);\n\n                  }\n\n            emit PartnerReferral(_hash, MarketingPartners[_hash].addr, amount);\n\n            return Partners;\n\n          } else if (_hash == TokenReferrals[_hash].hash){\n\n        \t\t\tif( (msg.value >= 1 ether) && (msg.value <= 3 ether) && (bidderBonus == true) ) {\n        \t\t\t    if(bonusChecker(oneHundred, thirty) == false){\n                            discontinueBonus(oneHundred, thirty);\n                                return None;\n                            }\n                            TokenReferrals[_hash].totalReferrals += ONE;\n                            orderTop20(TokenReferrals[_hash].totalReferrals, _hash);\n            \t\t\t\tTokenReferrals[_hash].tokenAmountPerReferred[amount] = oneHundred;\n            \t\t\t\tTokenReferrals[_hash].totalTokensEarned += oneHundred;\n                            bidderEarnings (thirty) == true ? claimedTokenReferral = oneHundred + thirty : claimedTokenReferral += oneHundred;\n            \t\t\t\temit TokenReferral(_hash ,msg.sender, amount);\n            \t\t\t\treturn Referrals;\n\n        \t\t\t\t} else if ((msg.value > 3 ether)&&(msg.value <= 6 ether) && (bidderBonus == true)) {\n        \t\t\t\t    if(bonusChecker(fiveHundred, twoHundred) == false){\n                                discontinueBonus(fiveHundred, twoHundred);\n                                return None;\n                                }\n                                TokenReferrals[_hash].totalReferrals += ONE;\n                                orderTop20(TokenReferrals[_hash].totalReferrals, _hash);\n        \t\t\t\t\t\tTokenReferrals[_hash].tokenAmountPerReferred[amount] = fiveHundred;\n        \t\t\t\t\t\tTokenReferrals[_hash].totalTokensEarned += fiveHundred;\n                                bidderEarnings (twoHundred) == true ? claimedTokenReferral = fiveHundred + twoHundred : claimedTokenReferral += fiveHundred;\n        \t\t\t\t\t\temit TokenReferral(_hash ,msg.sender, amount);\n        \t\t\t\t\t\treturn Referrals;\n\n        \t\t\t\t\t\t} else if ((msg.value > 6 ether) && (bidderBonus == true)) {\n        \t\t\t\t\t\t    if(bonusChecker(oneThousand, sixHundred) == false){\n                                     discontinueBonus(oneThousand, sixHundred);\n                                     return None;\n                                    }\n                                    TokenReferrals[_hash].totalReferrals += ONE;\n                                    orderTop20(TokenReferrals[_hash].totalReferrals, _hash);\n        \t\t\t\t\t\t\tTokenReferrals[_hash].tokenAmountPerReferred[amount] = oneThousand;\n        \t\t\t\t\t\t\tTokenReferrals[_hash].totalTokensEarned += oneThousand;\n        \t\t\t\t\t\t\tbidderEarnings (sixHundred) == true ? claimedTokenReferral = oneThousand + sixHundred : claimedTokenReferral += oneThousand;\n        \t\t\t\t\t\t\temit TokenReferral(_hash, msg.sender, amount);\n        \t\t\t\t\t\t\treturn Referrals;\n        \t\t\t\t\t\t}\n                        }\n    \n    }\n\n\n\tfunction referalPercentage(uint _amount, uint _percent)\n\t    internal\n\t    pure\n\t    returns (uint) {\n            return SafeMath.mul( SafeMath.div( SafeMath.sub(_amount, _amount%100), 100 ), _percent );\n\t}\n\n\n    function claimtokenBonus () public returns(bool success)  {\n\n        bytes4 _personalHash = bytes4(keccak256(abi.encodePacked(msg.sender)));\n        \n        if ((_personalHash == TokenReferrals[_personalHash].hash) \n                && (TokenReferrals[_personalHash].totalTokensEarned > 0)) {\n\n            uint TokensToTransfer1 = TokenReferrals[_personalHash].totalTokensEarned;\n            TokenReferrals[_personalHash].totalTokensEarned = 0;\n            KittieFightToken.transfer(TokenReferrals[_personalHash].addr , TokensToTransfer1);\n            emit ClaimtokenBonus(_personalHash, msg.sender, true);\n         \n            return true;\n\n        } else {\n\n            return false;\n       }\n    }\n\n\n    function claimCampaignTokenBonus(bytes4 _campaignHash) public returns(bool success)  {\n        \n        bytes4 _marketingCampaignHash = bytes4(keccak256(abi.encodePacked(msg.sender, owner)));\n\n        if ((_marketingCampaignHash == TokenReferrals[_campaignHash].hash) \n                && (TokenReferrals[_campaignHash].totalTokensEarned > 0)) {\n\n            uint TokensToTransfer1 = TokenReferrals[_campaignHash].totalTokensEarned;\n            TokenReferrals[_campaignHash].totalTokensEarned = 0;\n            KittieFightToken.transfer(TokenReferrals[_campaignHash].addr , TokensToTransfer1);\n            emit ClaimtokenBonus(_campaignHash, msg.sender, true);\n         \n            return true;\n\n        } else {\n\n            return false;\n       }\n    }\n    \n\n    /*\n     *  Admin transfers all unsold tokens back to token contract\n     */\n    function transferUnsoldTokens(uint _unsoldTokens, address _addr)\n        public\n        isOwner\n\n     {\n\n        uint soldTokens = totalReceived * 10**18 / finalPrice;\n        uint totalSold = (MAX_TOKENS_SOLD + claimedTokenReferral)  - soldTokens;\n\n        require (_unsoldTokens < totalSold );\n        KittieFightToken.transfer(_addr, _unsoldTokens);\n    }\n\n\n    function tokenAmountPerReferred(bytes4 _hash, uint _amount ) public view returns(uint tokenAmount) {\n        tokenAmount = TokenReferrals[_hash].tokenAmountPerReferred[_amount];\n    }\n\n    function getCurrentBiddersCount () public view returns(uint biddersCount)  {\n        biddersCount = CurrentBidders.length;\n    }\n\n    // helper functions  return msg.senders hash\n    function calculatPersonalHash() public view returns (bytes4 _hash) {\n        _hash = bytes4(keccak256(abi.encodePacked(msg.sender)));\n    }\n\n    function calculatPersonalHashByAddress(address _addr) public pure returns (bytes4 _hash) {\n        _hash = bytes4(keccak256(abi.encodePacked(_addr)));\n    }\n\n    function calculateCampaignHash(address _addr) public view returns (bytes4 _hash) {\n        _hash = bytes4(keccak256(abi.encodePacked(_addr, msg.sender)));\n    }\n\n    // helper functions ordering top 20 address by number of reffered bidders\n    // array of addresses and bidder numbers are logged\n    function orderTop20(uint _value, bytes4 _hash) private {\n        uint i = 0;\n        /** get the index of the current max element **/\n        for(i; i < topReferredNum.length; i++) {\n            if(topReferredNum[i] < _value) {\n                break;\n            }\n        }\n\n        if(i < topReferredNum.length)\n        {\n            if(topAddrHashes[i]!=_hash)\n            {\n                /** shift the array of one position (getting rid of the last element) **/\n                for(uint j = topReferredNum.length - 1; j > i; j--) {\n                    (topReferredNum[j], topAddrHashes[j] ) = (topReferredNum[j - 1],topAddrHashes[j - 1]);\n                }\n\n            \n            }\n            /** update the new max element **/\n            (topReferredNum[i], topAddrHashes[i]) = (_value, _hash);\n            emit topAddrHashesUpdate (topAddrHashes);\n            emit topNumbersUpdate(topReferredNum);\n        }\n\n\n\n    }\n\n    // helper functions returning top 20 leading number of reffered bidders by refferers\n    function getTop20Reffered() public view returns (uint [20] memory){\n      return topReferredNum;\n    }\n\n    // helper functions  top 20 refferer addresses\n    function getTop20Addr() public view returns (bytes4 [20] memory){\n        return topAddrHashes;\n     }\n\n    // helper functions  return msg.senders address from given hash\n    function getAddress (bytes4 _hash) public view returns (address){\n        return TokenReferrals[_hash].addr;\n    }\n\n    // helper checking existence of bidder as a token refferer\n    // creates a token refferer hash for bidder, if bidder is not already a refferer\n    // also allocates  20%, 25% or 40% (30, 200, 600 KTY tokens) discounts to bidder, based on amount bid\n    function bidderEarnings (uint _amountEarned) private returns (bool){\n\n        bytes4 bidderTemphash = calculatPersonalHash();\n\n        if ( bidderTemphash == TokenReferrals[bidderTemphash].hash){\n            TokenReferrals[bidderTemphash].totalTokensEarned += _amountEarned;\n            return true;\n        }else{\n            bytes4 newBidderHash = InternalReferalSignup(msg.sender);\n            TokenReferrals[newBidderHash].totalTokensEarned = _amountEarned;\n            return true;\n        }\n        //return false; //Will never reach here, Commented out to remove compilation warning\n    }\n\n     // check if both bidder bonus and refferer bonus is avalable\n     // return true if bonus is available\n     function bonusChecker(uint _tokenRefferralBonus, uint _bidderBonusAmount) public view returns (bool){\n      return _tokenRefferralBonus + _bidderBonusAmount + claimedTokenReferral <= MAX_TOKEN_REFERRAL ? true : false;\n    }\n\n    //document actual remaining residual tokens\n    //call function to terminate bonus\n    function discontinueBonus(uint _tokenRefferralBonus, uint _bidderBonusAmount) private returns (string memory) {\n        residualToken = MAX_TOKEN_REFERRAL - (_tokenRefferralBonus + _bidderBonusAmount + claimedTokenReferral);\n        return setBonustoFalse();\n    }\n\n\n    // bolean bonus switcher, only called when\n    // tokens bonus availability is exhuated\n    // terminate bonus\n    function setBonustoFalse() private returns (string memory) {\n        require (bidderBonus == true,\"no more bonuses\");\n        bidderBonus = false;\n        return \"tokens exhausted\";\n    }\n\n}\n",
  "sourcePath": "D:/projects/kittiefight/token/DutchAuction/contracts/contracts-flattened/Dutchwrapper-flattened.sol",
  "compiler": {
    "name": "solc",
    "version": "0.5.13+commit.5b0b510c.Emscripten.clang"
  },
  "schemaVersion": "3.0.16",
  "updatedAt": "2019-11-20T23:53:24.201Z",
  "devdoc": {
    "methods": {
      "bid(address)": {
        "details": "Allows to send a bid to the auction.",
        "params": {
          "receiver": "Bid will be assigned to this address if set."
        }
      },
      "calcCurrentTokenPrice()": {
        "details": "Calculates current token price.",
        "return": "Returns token price."
      },
      "calcStopPrice()": {
        "details": "Calculates stop price.",
        "return": "Returns stop price."
      },
      "calcTokenPrice()": {
        "details": "Calculates token price.",
        "return": "Returns token price."
      },
      "changeSettings(uint256,uint256)": {
        "details": "Changes auction ceiling and start price factor before auction is started.",
        "params": {
          "_ceiling": "Updated auction ceiling.",
          "_priceFactor": "Updated start price factor."
        }
      },
      "claimTokens(address)": {
        "details": "Claims tokens for bidder after auction.",
        "params": {
          "receiver": "Tokens will be assigned to this address if set."
        }
      },
      "constructor": {
        "details": "Contract constructor function sets owner.",
        "params": {
          "_ceiling": "Auction ceiling.",
          "_pWallet": "KittieFight promissory wallet.",
          "_priceFactor": "Auction price factor."
        }
      },
      "setup(address)": {
        "details": "Setup function sets external contracts' addresses.",
        "params": {
          "_kittieToken": "token address."
        }
      },
      "startAuction()": {
        "details": "Starts auction and sets startBlock."
      },
      "updateStage()": {
        "details": "Returns correct stage, even if a function with timedTransitions modifier has not yet been called yet.",
        "return": "Returns current auction stage."
      }
    },
    "title": "Dutch auction contract - from gnosis, see source : https://github.com/maurelian/dutch-auction improved with latest solidity syntax"
  },
  "userdoc": {
    "methods": {}
  }
}