{
  "contractName": "Dutchwrapper",
  "abi": [
    {
      "inputs": [
        {
          "internalType": "address payable",
          "name": "_pWallet",
          "type": "address"
        },
        {
          "internalType": "uint256",
          "name": "_ceiling",
          "type": "uint256"
        },
        {
          "internalType": "uint256",
          "name": "_priceFactor",
          "type": "uint256"
        },
        {
          "internalType": "uint256",
          "name": "_softCap",
          "type": "uint256"
        }
      ],
      "payable": false,
      "stateMutability": "nonpayable",
      "type": "constructor"
    },
    {
      "anonymous": false,
      "inputs": [
        {
          "indexed": false,
          "internalType": "bytes4",
          "name": "_hash",
          "type": "bytes4"
        },
        {
          "indexed": false,
          "internalType": "address",
          "name": "_addr",
          "type": "address"
        },
        {
          "indexed": false,
          "internalType": "uint256",
          "name": "_amount",
          "type": "uint256"
        }
      ],
      "name": "BidEvent",
      "type": "event"
    },
    {
      "anonymous": false,
      "inputs": [
        {
          "indexed": true,
          "internalType": "address",
          "name": "sender",
          "type": "address"
        },
        {
          "indexed": false,
          "internalType": "uint256",
          "name": "amount",
          "type": "uint256"
        }
      ],
      "name": "BidSubmission",
      "type": "event"
    },
    {
      "anonymous": false,
      "inputs": [
        {
          "indexed": false,
          "internalType": "bytes4",
          "name": "_Hash",
          "type": "bytes4"
        },
        {
          "indexed": false,
          "internalType": "address",
          "name": "_addr",
          "type": "address"
        },
        {
          "indexed": false,
          "internalType": "bool",
          "name": "success",
          "type": "bool"
        }
      ],
      "name": "ClaimtokenBonus",
      "type": "event"
    },
    {
      "anonymous": false,
      "inputs": [
        {
          "indexed": false,
          "internalType": "bytes4",
          "name": "_partnerHash",
          "type": "bytes4"
        },
        {
          "indexed": false,
          "internalType": "address",
          "name": "_addr",
          "type": "address"
        },
        {
          "indexed": false,
          "internalType": "uint256",
          "name": "_amount",
          "type": "uint256"
        }
      ],
      "name": "PartnerReferral",
      "type": "event"
    },
    {
      "anonymous": false,
      "inputs": [
        {
          "indexed": false,
          "internalType": "bytes4",
          "name": "_Hash",
          "type": "bytes4"
        },
        {
          "indexed": false,
          "internalType": "address",
          "name": "_addr",
          "type": "address"
        }
      ],
      "name": "ReferalSignup",
      "type": "event"
    },
    {
      "anonymous": false,
      "inputs": [
        {
          "indexed": false,
          "internalType": "uint256",
          "name": "_type",
          "type": "uint256"
        }
      ],
      "name": "SetupReferal",
      "type": "event"
    },
    {
      "anonymous": false,
      "inputs": [
        {
          "indexed": false,
          "internalType": "bytes4",
          "name": "_campaignHash",
          "type": "bytes4"
        },
        {
          "indexed": false,
          "internalType": "address",
          "name": "_addr",
          "type": "address"
        },
        {
          "indexed": false,
          "internalType": "uint256",
          "name": "_amount",
          "type": "uint256"
        }
      ],
      "name": "TokenReferral",
      "type": "event"
    },
    {
      "anonymous": false,
      "inputs": [
        {
          "indexed": false,
          "internalType": "bytes",
          "name": "_data",
          "type": "bytes"
        },
        {
          "indexed": false,
          "internalType": "uint256",
          "name": "_lengt",
          "type": "uint256"
        }
      ],
      "name": "logPayload",
      "type": "event"
    },
    {
      "anonymous": false,
      "inputs": [
        {
          "indexed": false,
          "internalType": "bytes4[20]",
          "name": "topAddrHashes",
          "type": "bytes4[20]"
        }
      ],
      "name": "topAddrHashesUpdate",
      "type": "event"
    },
    {
      "anonymous": false,
      "inputs": [
        {
          "indexed": false,
          "internalType": "uint256[20]",
          "name": "topNumArray",
          "type": "uint256[20]"
        }
      ],
      "name": "topNumbersUpdate",
      "type": "event"
    },
    {
      "constant": true,
      "inputs": [
        {
          "internalType": "address",
          "name": "",
          "type": "address"
        }
      ],
      "name": "Admins",
      "outputs": [
        {
          "internalType": "bool",
          "name": "",
          "type": "bool"
        }
      ],
      "payable": false,
      "stateMutability": "view",
      "type": "function"
    },
    {
      "constant": true,
      "inputs": [
        {
          "internalType": "uint256",
          "name": "",
          "type": "uint256"
        }
      ],
      "name": "CurrentBidders",
      "outputs": [
        {
          "internalType": "address",
          "name": "addr",
          "type": "address"
        },
        {
          "internalType": "uint256",
          "name": "amount",
          "type": "uint256"
        }
      ],
      "payable": false,
      "stateMutability": "view",
      "type": "function"
    },
    {
      "constant": true,
      "inputs": [],
      "name": "KittieFightToken",
      "outputs": [
        {
          "internalType": "contract Token",
          "name": "",
          "type": "address"
        }
      ],
      "payable": false,
      "stateMutability": "view",
      "type": "function"
    },
    {
      "constant": true,
      "inputs": [],
      "name": "MAX_TOKENS_SOLD",
      "outputs": [
        {
          "internalType": "uint256",
          "name": "",
          "type": "uint256"
        }
      ],
      "payable": false,
      "stateMutability": "view",
      "type": "function"
    },
    {
      "constant": true,
      "inputs": [],
      "name": "MAX_TOKEN_REFERRAL",
      "outputs": [
        {
          "internalType": "uint256",
          "name": "",
          "type": "uint256"
        }
      ],
      "payable": false,
      "stateMutability": "view",
      "type": "function"
    },
    {
      "constant": true,
      "inputs": [
        {
          "internalType": "bytes4",
          "name": "",
          "type": "bytes4"
        }
      ],
      "name": "MarketingPartners",
      "outputs": [
        {
          "internalType": "bytes4",
          "name": "hash",
          "type": "bytes4"
        },
        {
          "internalType": "address",
          "name": "addr",
          "type": "address"
        },
        {
          "internalType": "uint256",
          "name": "totalReferrals",
          "type": "uint256"
        },
        {
          "internalType": "uint256",
          "name": "totalContribution",
          "type": "uint256"
        },
        {
          "internalType": "uint256",
          "name": "percentage",
          "type": "uint256"
        },
        {
          "internalType": "uint256",
          "name": "EthEarned",
          "type": "uint256"
        }
      ],
      "payable": false,
      "stateMutability": "view",
      "type": "function"
    },
    {
      "constant": true,
      "inputs": [],
      "name": "None",
      "outputs": [
        {
          "internalType": "uint256",
          "name": "",
          "type": "uint256"
        }
      ],
      "payable": false,
      "stateMutability": "view",
      "type": "function"
    },
    {
      "constant": true,
      "inputs": [],
      "name": "ONE",
      "outputs": [
        {
          "internalType": "uint256",
          "name": "",
          "type": "uint256"
        }
      ],
      "payable": false,
      "stateMutability": "view",
      "type": "function"
    },
    {
      "constant": true,
      "inputs": [],
      "name": "Partners",
      "outputs": [
        {
          "internalType": "uint256",
          "name": "",
          "type": "uint256"
        }
      ],
      "payable": false,
      "stateMutability": "view",
      "type": "function"
    },
    {
      "constant": true,
      "inputs": [
        {
          "internalType": "uint256",
          "name": "",
          "type": "uint256"
        }
      ],
      "name": "PartnersList",
      "outputs": [
        {
          "internalType": "address",
          "name": "",
          "type": "address"
        }
      ],
      "payable": false,
      "stateMutability": "view",
      "type": "function"
    },
    {
      "constant": true,
      "inputs": [],
      "name": "PromissoryTokenIns",
      "outputs": [
        {
          "internalType": "contract PromissoryToken",
          "name": "",
          "type": "address"
        }
      ],
      "payable": false,
      "stateMutability": "view",
      "type": "function"
    },
    {
      "constant": true,
      "inputs": [],
      "name": "Referrals",
      "outputs": [
        {
          "internalType": "uint256",
          "name": "",
          "type": "uint256"
        }
      ],
      "payable": false,
      "stateMutability": "view",
      "type": "function"
    },
    {
      "constant": true,
      "inputs": [
        {
          "internalType": "address",
          "name": "",
          "type": "address"
        }
      ],
      "name": "SuperDAOTokens",
      "outputs": [
        {
          "internalType": "uint256",
          "name": "",
          "type": "uint256"
        }
      ],
      "payable": false,
      "stateMutability": "view",
      "type": "function"
    },
    {
      "constant": true,
      "inputs": [],
      "name": "TOTAL_BONUS_TOKEN",
      "outputs": [
        {
          "internalType": "uint256",
          "name": "",
          "type": "uint256"
        }
      ],
      "payable": false,
      "stateMutability": "view",
      "type": "function"
    },
    {
      "constant": true,
      "inputs": [
        {
          "internalType": "uint256",
          "name": "",
          "type": "uint256"
        }
      ],
      "name": "TokenReferalList",
      "outputs": [
        {
          "internalType": "address",
          "name": "",
          "type": "address"
        }
      ],
      "payable": false,
      "stateMutability": "view",
      "type": "function"
    },
    {
      "constant": true,
      "inputs": [
        {
          "internalType": "bytes4",
          "name": "",
          "type": "bytes4"
        }
      ],
      "name": "TokenReferrals",
      "outputs": [
        {
          "internalType": "bytes4",
          "name": "hash",
          "type": "bytes4"
        },
        {
          "internalType": "address",
          "name": "addr",
          "type": "address"
        },
        {
          "internalType": "uint256",
          "name": "totalReferrals",
          "type": "uint256"
        },
        {
          "internalType": "uint256",
          "name": "totalTokensEarned",
          "type": "uint256"
        }
      ],
      "payable": false,
      "stateMutability": "view",
      "type": "function"
    },
    {
      "constant": true,
      "inputs": [],
      "name": "WAITING_PERIOD",
      "outputs": [
        {
          "internalType": "uint256",
          "name": "",
          "type": "uint256"
        }
      ],
      "payable": false,
      "stateMutability": "view",
      "type": "function"
    },
    {
      "constant": false,
      "inputs": [
        {
          "internalType": "address payable",
          "name": "receiver",
          "type": "address"
        }
      ],
      "name": "bid",
      "outputs": [
        {
          "internalType": "uint256",
          "name": "amount",
          "type": "uint256"
        }
      ],
      "payable": true,
      "stateMutability": "payable",
      "type": "function"
    },
    {
      "constant": true,
      "inputs": [],
      "name": "bidderBonus",
      "outputs": [
        {
          "internalType": "bool",
          "name": "",
          "type": "bool"
        }
      ],
      "payable": false,
      "stateMutability": "view",
      "type": "function"
    },
    {
      "constant": true,
      "inputs": [
        {
          "internalType": "address",
          "name": "",
          "type": "address"
        }
      ],
      "name": "bids",
      "outputs": [
        {
          "internalType": "uint256",
          "name": "",
          "type": "uint256"
        }
      ],
      "payable": false,
      "stateMutability": "view",
      "type": "function"
    },
    {
      "constant": false,
      "inputs": [],
      "name": "calcCurrentTokenPrice",
      "outputs": [
        {
          "internalType": "uint256",
          "name": "",
          "type": "uint256"
        }
      ],
      "payable": false,
      "stateMutability": "nonpayable",
      "type": "function"
    },
    {
      "constant": true,
      "inputs": [],
      "name": "calcStopPrice",
      "outputs": [
        {
          "internalType": "uint256",
          "name": "",
          "type": "uint256"
        }
      ],
      "payable": false,
      "stateMutability": "view",
      "type": "function"
    },
    {
      "constant": true,
      "inputs": [],
      "name": "calcTokenPrice",
      "outputs": [
        {
          "internalType": "uint256",
          "name": "",
          "type": "uint256"
        }
      ],
      "payable": false,
      "stateMutability": "view",
      "type": "function"
    },
    {
      "constant": true,
      "inputs": [],
      "name": "ceiling",
      "outputs": [
        {
          "internalType": "uint256",
          "name": "",
          "type": "uint256"
        }
      ],
      "payable": false,
      "stateMutability": "view",
      "type": "function"
    },
    {
      "constant": false,
      "inputs": [
        {
          "internalType": "uint256",
          "name": "_ceiling",
          "type": "uint256"
        },
        {
          "internalType": "uint256",
          "name": "_priceFactor",
          "type": "uint256"
        }
      ],
      "name": "changeSettings",
      "outputs": [],
      "payable": false,
      "stateMutability": "nonpayable",
      "type": "function"
    },
    {
      "constant": false,
      "inputs": [
        {
          "internalType": "address",
          "name": "receiver",
          "type": "address"
        }
      ],
      "name": "claimTokens",
      "outputs": [],
      "payable": false,
      "stateMutability": "nonpayable",
      "type": "function"
    },
    {
      "constant": true,
      "inputs": [],
      "name": "claimedTokenReferral",
      "outputs": [
        {
          "internalType": "uint256",
          "name": "",
          "type": "uint256"
        }
      ],
      "payable": false,
      "stateMutability": "view",
      "type": "function"
    },
    {
      "constant": true,
      "inputs": [],
      "name": "endTime",
      "outputs": [
        {
          "internalType": "uint256",
          "name": "",
          "type": "uint256"
        }
      ],
      "payable": false,
      "stateMutability": "view",
      "type": "function"
    },
    {
      "constant": true,
      "inputs": [],
      "name": "finalPrice",
      "outputs": [
        {
          "internalType": "uint256",
          "name": "",
          "type": "uint256"
        }
      ],
      "payable": false,
      "stateMutability": "view",
      "type": "function"
    },
    {
      "constant": true,
      "inputs": [],
      "name": "fiveHundred",
      "outputs": [
        {
          "internalType": "uint256",
          "name": "",
          "type": "uint256"
        }
      ],
      "payable": false,
      "stateMutability": "view",
      "type": "function"
    },
    {
      "constant": true,
      "inputs": [],
      "name": "oneHundred",
      "outputs": [
        {
          "internalType": "uint256",
          "name": "",
          "type": "uint256"
        }
      ],
      "payable": false,
      "stateMutability": "view",
      "type": "function"
    },
    {
      "constant": true,
      "inputs": [],
      "name": "oneThousand",
      "outputs": [
        {
          "internalType": "uint256",
          "name": "",
          "type": "uint256"
        }
      ],
      "payable": false,
      "stateMutability": "view",
      "type": "function"
    },
    {
      "constant": true,
      "inputs": [],
      "name": "owner",
      "outputs": [
        {
          "internalType": "address",
          "name": "",
          "type": "address"
        }
      ],
      "payable": false,
      "stateMutability": "view",
      "type": "function"
    },
    {
      "constant": true,
      "inputs": [],
      "name": "pWallet",
      "outputs": [
        {
          "internalType": "address payable",
          "name": "",
          "type": "address"
        }
      ],
      "payable": false,
      "stateMutability": "view",
      "type": "function"
    },
    {
      "constant": true,
      "inputs": [],
      "name": "priceFactor",
      "outputs": [
        {
          "internalType": "uint256",
          "name": "",
          "type": "uint256"
        }
      ],
      "payable": false,
      "stateMutability": "view",
      "type": "function"
    },
    {
      "constant": true,
      "inputs": [],
      "name": "promissoryAddr",
      "outputs": [
        {
          "internalType": "address",
          "name": "",
          "type": "address"
        }
      ],
      "payable": false,
      "stateMutability": "view",
      "type": "function"
    },
    {
      "constant": true,
      "inputs": [],
      "name": "residualToken",
      "outputs": [
        {
          "internalType": "uint256",
          "name": "",
          "type": "uint256"
        }
      ],
      "payable": false,
      "stateMutability": "view",
      "type": "function"
    },
    {
      "constant": false,
      "inputs": [
        {
          "internalType": "address",
          "name": "_kittieToken",
          "type": "address"
        }
      ],
      "name": "setup",
      "outputs": [],
      "payable": false,
      "stateMutability": "nonpayable",
      "type": "function"
    },
    {
      "constant": true,
      "inputs": [],
      "name": "sixHundred",
      "outputs": [
        {
          "internalType": "uint256",
          "name": "",
          "type": "uint256"
        }
      ],
      "payable": false,
      "stateMutability": "view",
      "type": "function"
    },
    {
      "constant": true,
      "inputs": [],
      "name": "softCap",
      "outputs": [
        {
          "internalType": "uint256",
          "name": "",
          "type": "uint256"
        }
      ],
      "payable": false,
      "stateMutability": "view",
      "type": "function"
    },
    {
      "constant": true,
      "inputs": [],
      "name": "softcapReached",
      "outputs": [
        {
          "internalType": "bool",
          "name": "",
          "type": "bool"
        }
      ],
      "payable": false,
      "stateMutability": "view",
      "type": "function"
    },
    {
      "constant": true,
      "inputs": [],
      "name": "stage",
      "outputs": [
        {
          "internalType": "enum DutchAuction.Stages",
          "name": "",
          "type": "uint8"
        }
      ],
      "payable": false,
      "stateMutability": "view",
      "type": "function"
    },
    {
      "constant": false,
      "inputs": [],
      "name": "startAuction",
      "outputs": [],
      "payable": false,
      "stateMutability": "nonpayable",
      "type": "function"
    },
    {
      "constant": true,
      "inputs": [],
      "name": "startBlock",
      "outputs": [
        {
          "internalType": "uint256",
          "name": "",
          "type": "uint256"
        }
      ],
      "payable": false,
      "stateMutability": "view",
      "type": "function"
    },
    {
      "constant": true,
      "inputs": [],
      "name": "thirty",
      "outputs": [
        {
          "internalType": "uint256",
          "name": "",
          "type": "uint256"
        }
      ],
      "payable": false,
      "stateMutability": "view",
      "type": "function"
    },
    {
      "constant": true,
      "inputs": [
        {
          "internalType": "uint256",
          "name": "",
          "type": "uint256"
        }
      ],
      "name": "topAddrHashes",
      "outputs": [
        {
          "internalType": "bytes4",
          "name": "",
          "type": "bytes4"
        }
      ],
      "payable": false,
      "stateMutability": "view",
      "type": "function"
    },
    {
      "constant": true,
      "inputs": [
        {
          "internalType": "uint256",
          "name": "",
          "type": "uint256"
        }
      ],
      "name": "topReferredNum",
      "outputs": [
        {
          "internalType": "uint256",
          "name": "",
          "type": "uint256"
        }
      ],
      "payable": false,
      "stateMutability": "view",
      "type": "function"
    },
    {
      "constant": true,
      "inputs": [],
      "name": "totalEthEarnedByPartners",
      "outputs": [
        {
          "internalType": "uint256",
          "name": "",
          "type": "uint256"
        }
      ],
      "payable": false,
      "stateMutability": "view",
      "type": "function"
    },
    {
      "constant": true,
      "inputs": [],
      "name": "totalReceived",
      "outputs": [
        {
          "internalType": "uint256",
          "name": "",
          "type": "uint256"
        }
      ],
      "payable": false,
      "stateMutability": "view",
      "type": "function"
    },
    {
      "constant": true,
      "inputs": [],
      "name": "twoHundred",
      "outputs": [
        {
          "internalType": "uint256",
          "name": "",
          "type": "uint256"
        }
      ],
      "payable": false,
      "stateMutability": "view",
      "type": "function"
    },
    {
      "constant": false,
      "inputs": [],
      "name": "updateStage",
      "outputs": [
        {
          "internalType": "enum DutchAuction.Stages",
          "name": "",
          "type": "uint8"
        }
      ],
      "payable": false,
      "stateMutability": "nonpayable",
      "type": "function"
    },
    {
      "constant": false,
      "inputs": [
        {
          "internalType": "address",
          "name": "_addr",
          "type": "address"
        },
        {
          "internalType": "uint256",
          "name": "_percentage",
          "type": "uint256"
        }
      ],
      "name": "setupReferal",
      "outputs": [
        {
          "internalType": "string",
          "name": "successmessage",
          "type": "string"
        }
      ],
      "payable": false,
      "stateMutability": "nonpayable",
      "type": "function"
    },
    {
      "constant": false,
      "inputs": [],
      "name": "referralSignup",
      "outputs": [
        {
          "internalType": "bytes4",
          "name": "referalhash",
          "type": "bytes4"
        }
      ],
      "payable": false,
      "stateMutability": "nonpayable",
      "type": "function"
    },
    {
      "constant": false,
      "inputs": [
        {
          "internalType": "address payable",
          "name": "_receiver",
          "type": "address"
        },
        {
          "internalType": "bytes4",
          "name": "_hash",
          "type": "bytes4"
        }
      ],
      "name": "bidReferral",
      "outputs": [
        {
          "internalType": "uint256",
          "name": "",
          "type": "uint256"
        }
      ],
      "payable": true,
      "stateMutability": "payable",
      "type": "function"
    },
    {
      "constant": false,
      "inputs": [],
      "name": "claimtokenBonus",
      "outputs": [
        {
          "internalType": "bool",
          "name": "success",
          "type": "bool"
        }
      ],
      "payable": false,
      "stateMutability": "nonpayable",
      "type": "function"
    },
    {
      "constant": false,
      "inputs": [
        {
          "internalType": "bytes4",
          "name": "_campaignHash",
          "type": "bytes4"
        }
      ],
      "name": "claimCampaignTokenBonus",
      "outputs": [
        {
          "internalType": "bool",
          "name": "success",
          "type": "bool"
        }
      ],
      "payable": false,
      "stateMutability": "nonpayable",
      "type": "function"
    },
    {
      "constant": false,
      "inputs": [
        {
          "internalType": "uint256",
          "name": "_unsoldTokens",
          "type": "uint256"
        },
        {
          "internalType": "address",
          "name": "_addr",
          "type": "address"
        }
      ],
      "name": "transferUnsoldTokens",
      "outputs": [],
      "payable": false,
      "stateMutability": "nonpayable",
      "type": "function"
    },
    {
      "constant": true,
      "inputs": [
        {
          "internalType": "bytes4",
          "name": "_hash",
          "type": "bytes4"
        },
        {
          "internalType": "uint256",
          "name": "_amount",
          "type": "uint256"
        }
      ],
      "name": "tokenAmountPerReferred",
      "outputs": [
        {
          "internalType": "uint256",
          "name": "tokenAmount",
          "type": "uint256"
        }
      ],
      "payable": false,
      "stateMutability": "view",
      "type": "function"
    },
    {
      "constant": true,
      "inputs": [],
      "name": "getCurrentBiddersCount",
      "outputs": [
        {
          "internalType": "uint256",
          "name": "biddersCount",
          "type": "uint256"
        }
      ],
      "payable": false,
      "stateMutability": "view",
      "type": "function"
    },
    {
      "constant": true,
      "inputs": [],
      "name": "calculatPersonalHash",
      "outputs": [
        {
          "internalType": "bytes4",
          "name": "_hash",
          "type": "bytes4"
        }
      ],
      "payable": false,
      "stateMutability": "view",
      "type": "function"
    },
    {
      "constant": true,
      "inputs": [
        {
          "internalType": "address",
          "name": "_addr",
          "type": "address"
        }
      ],
      "name": "calculatPersonalHashByAddress",
      "outputs": [
        {
          "internalType": "bytes4",
          "name": "_hash",
          "type": "bytes4"
        }
      ],
      "payable": false,
      "stateMutability": "pure",
      "type": "function"
    },
    {
      "constant": true,
      "inputs": [
        {
          "internalType": "address",
          "name": "_addr",
          "type": "address"
        }
      ],
      "name": "calculateCampaignHash",
      "outputs": [
        {
          "internalType": "bytes4",
          "name": "_hash",
          "type": "bytes4"
        }
      ],
      "payable": false,
      "stateMutability": "view",
      "type": "function"
    },
    {
      "constant": true,
      "inputs": [],
      "name": "getTop20Reffered",
      "outputs": [
        {
          "internalType": "uint256[20]",
          "name": "",
          "type": "uint256[20]"
        }
      ],
      "payable": false,
      "stateMutability": "view",
      "type": "function"
    },
    {
      "constant": true,
      "inputs": [],
      "name": "getTop20Addr",
      "outputs": [
        {
          "internalType": "bytes4[20]",
          "name": "",
          "type": "bytes4[20]"
        }
      ],
      "payable": false,
      "stateMutability": "view",
      "type": "function"
    },
    {
      "constant": true,
      "inputs": [
        {
          "internalType": "bytes4",
          "name": "_hash",
          "type": "bytes4"
        }
      ],
      "name": "getAddress",
      "outputs": [
        {
          "internalType": "address",
          "name": "",
          "type": "address"
        }
      ],
      "payable": false,
      "stateMutability": "view",
      "type": "function"
    },
    {
      "constant": true,
      "inputs": [
        {
          "internalType": "uint256",
          "name": "_tokenRefferralBonus",
          "type": "uint256"
        },
        {
          "internalType": "uint256",
          "name": "_bidderBonusAmount",
          "type": "uint256"
        }
      ],
      "name": "bonusChecker",
      "outputs": [
        {
          "internalType": "bool",
          "name": "",
          "type": "bool"
        }
      ],
      "payable": false,
      "stateMutability": "view",
      "type": "function"
    }
  ],
  "bytecode": "0x60806040526000600c819055600d55600f805460ff19908116909155602b805490911660011790553480156200003457600080fd5b50604051620031d2380380620031d2833981810160405260808110156200005a57600080fd5b50805160208201516040830151606090930151919290918383836001600160a01b038316158062000089575081155b8062000093575080155b156200009e57600080fd5b600280546001600160a01b03199081163317909155600380548216730348b55abd6e1a99c6ebc972a6a4582ec0bceb5c179055600080546001600160a01b039590951694909116939093178355600491909155600555600b805460ff19169055600e919091556130ba9350839250620001189150396000f3fe6080604052600436106103d95760003560e01c8063753ed1bd116101fd578063c062f57811610118578063df8de3e7116100ab578063ecb9a4a21161007a578063ecb9a4a214610c5e578063eef506da14610d0c578063ef96b2aa14610d21578063f65bf87c14610d55578063fcfbf7f714610d6a576103d9565b8063df8de3e714610b87578063dfb2866d14610bba578063e8ccd1c614610bcf578063eaa48abe14610c49576103d9565b8063d048d7b4116100e7578063d048d7b414610b48578063d1fa9cad14610b09578063d9f8a4e214610b5d578063dd9dd68814610b72576103d9565b8063c062f57814610af4578063c2ee3a0814610b09578063caf2f5fe14610b1e578063cf76063414610b33576103d9565b80639866845d11610190578063a6b513ee1161015f578063a6b513ee14610a43578063b8d7a79414610a58578063bb07ca7f14610a88578063c040e6b814610abb576103d9565b80639866845d146109de5780639b6a1af0146109f35780639cf5453d14610a08578063a3c2c46214610a2e576103d9565b80638da5cb5b116101cc5780638da5cb5b146109755780638fdd817c1461098a578063906a26e01461099f57806394aa3b2d146109b4576103d9565b8063753ed1bd146108b55780637ae4d728146108ca5780637bce3bb2146108fd578063814a884b1461094b576103d9565b8063401260da116102f85780636a8810f91161028b5780636f85c7e41161025a5780636f85c7e414610843578063701a1f0c146104dd57806370c1204d1461085857806371754a731461086d57806371b77160146108a0576103d9565b80636a8810f9146107ef5780636b64c769146108045780636eb21929146108195780636f20befd1461082e576103d9565b8063552aaedb116102c7578063552aaedb146107405780635fcee4581461077457806362ea82db1461078957806366d38203146107bc576103d9565b8063401260da146106c8578063406faf8214610701578063442b38551461071657806348cd4cb11461072b576103d9565b80633197cbb61161037057806335d005b81161033f57806335d005b8146105ed57806336d02c941461063a57806339f64b521461066c5780633fb73c6114610681576103d9565b80633197cbb61461051c57806333a42d10146105315780633455b0881461054657806334b102fb146105b3576103d9565b80631ef554a3116103ac5780631ef554a31461049757806320269ed1146104dd57806324ace287146104f25780633123435414610507576103d9565b80630a6184ce146103de5780630d894db0146104055780630ec6d58a1461043b57806317f5de9514610482575b600080fd5b3480156103ea57600080fd5b506103f3610d7f565b60408051918252519081900360200190f35b6103f36004803603604081101561041b57600080fd5b5080356001600160a01b031690602001356001600160e01b031916610d8c565b34801561044757600080fd5b5061046e6004803603602081101561045e57600080fd5b50356001600160a01b031661191a565b604080519115158252519081900360200190f35b34801561048e57600080fd5b506103f361192f565b3480156104a357600080fd5b506104c1600480360360208110156104ba57600080fd5b503561193e565b604080516001600160a01b039092168252519081900360200190f35b3480156104e957600080fd5b506103f3611965565b3480156104fe57600080fd5b506103f3611974565b34801561051357600080fd5b506103f3611981565b34801561052857600080fd5b506103f3611986565b34801561053d57600080fd5b506104c161198c565b34801561055257600080fd5b5061057a6004803603602081101561056957600080fd5b50356001600160e01b0319166119a4565b604080516001600160e01b031990951685526001600160a01b039093166020850152838301919091526060830152519081900360800190f35b3480156105bf57600080fd5b506103f3600480360360408110156105d657600080fd5b506001600160e01b031981351690602001356119db565b3480156105f957600080fd5b506106176004803603602081101561061057600080fd5b5035611a07565b604080516001600160a01b03909316835260208301919091528051918290030190f35b34801561064657600080fd5b5061066a6004803603604081101561065d57600080fd5b5080359060200135611a3c565b005b34801561067857600080fd5b506103f3611a7d565b34801561068d57600080fd5b506106ab600480360360208110156106a457600080fd5b5035611aa6565b604080516001600160e01b03199092168252519081900360200190f35b3480156106d457600080fd5b5061066a600480360360408110156106eb57600080fd5b50803590602001356001600160a01b0316611ad0565b34801561070d57600080fd5b506103f3611bad565b34801561072257600080fd5b506103f3611bb3565b34801561073757600080fd5b506103f3611bb9565b34801561074c57600080fd5b506104c16004803603602081101561076357600080fd5b50356001600160e01b031916611bbf565b34801561078057600080fd5b506104c1611bef565b34801561079557600080fd5b506103f3600480360360208110156107ac57600080fd5b50356001600160a01b0316611bfe565b3480156107c857600080fd5b5061066a600480360360208110156107df57600080fd5b50356001600160a01b0316611c10565b3480156107fb57600080fd5b506103f3611d0d565b34801561081057600080fd5b5061066a611d13565b34801561082557600080fd5b5061046e611d5c565b34801561083a57600080fd5b506103f3611d65565b34801561084f57600080fd5b506103f3611d6a565b34801561086457600080fd5b5061046e611d71565b34801561087957600080fd5b506106ab6004803603602081101561089057600080fd5b50356001600160a01b0316611d7a565b3480156108ac57600080fd5b506103f3611db1565b3480156108c157600080fd5b506103f3611dbe565b3480156108d657600080fd5b506103f3600480360360208110156108ed57600080fd5b50356001600160a01b0316611dc4565b34801561090957600080fd5b50610912611dd6565b604051808261028080838360005b83811015610938578181015183820152602001610920565b5050505090500191505060405180910390f35b34801561095757600080fd5b506103f36004803603602081101561096e57600080fd5b5035611e12565b34801561098157600080fd5b506104c1611e26565b34801561099657600080fd5b506106ab611e35565b3480156109ab57600080fd5b506103f3611e60565b3480156109c057600080fd5b506104c1600480360360208110156109d757600080fd5b5035611e66565b3480156109ea57600080fd5b506104c1611e73565b3480156109ff57600080fd5b506106ab611e82565b6103f360048036036020811015610a1e57600080fd5b50356001600160a01b0316611f80565b348015610a3a57600080fd5b506103f361215e565b348015610a4f57600080fd5b506103f3612164565b348015610a6457600080fd5b5061046e60048036036040811015610a7b57600080fd5b508035906020013561216a565b348015610a9457600080fd5b506106ab60048036036020811015610aab57600080fd5b50356001600160a01b0316612196565b348015610ac757600080fd5b50610ad06121d5565b60405180826004811115610ae057fe5b60ff16815260200191505060405180910390f35b348015610b0057600080fd5b50610ad06121de565b348015610b1557600080fd5b506103f361225e565b348015610b2a57600080fd5b506103f3612263565b348015610b3f57600080fd5b506104c1612270565b348015610b5457600080fd5b5061091261227f565b348015610b6957600080fd5b506103f36122e6565b348015610b7e57600080fd5b506103f36123a6565b348015610b9357600080fd5b5061066a60048036036020811015610baa57600080fd5b50356001600160a01b03166123c8565b348015610bc657600080fd5b506103f36125fb565b348015610bdb57600080fd5b50610c0360048036036020811015610bf257600080fd5b50356001600160e01b031916612601565b604080516001600160e01b031990971687526001600160a01b039095166020870152858501939093526060850191909152608084015260a0830152519081900360c00190f35b348015610c5557600080fd5b5061046e612642565b348015610c6a57600080fd5b50610c9760048036036040811015610c8157600080fd5b506001600160a01b0381351690602001356127c8565b6040805160208082528351818301528351919283929083019185019080838360005b83811015610cd1578181015183820152602001610cb9565b50505050905090810190601f168015610cfe5780820380516001836020036101000a031916815260200191505b509250505060405180910390f35b348015610d1857600080fd5b506103f36128de565b348015610d2d57600080fd5b5061046e60048036036020811015610d4457600080fd5b50356001600160e01b0319166128eb565b348015610d6157600080fd5b506103f3612a8a565b348015610d7657600080fd5b506103f3612a90565b68056bc75e2d6310000081565b6000803490506000600360009054906101000a90046001600160a01b03166001600160a01b031663053f14da6040518163ffffffff1660e01b8152600401602060405180830381600087803b158015610de457600080fd5b505af1158015610df8573d6000803e3d6000fd5b505050506040513d6020811015610e0e57600080fd5b50516008546004549192509003821115610e2c576008546004540391505b81610e3686611f80565b14610e4057600080fd5b34610e4961302f565b6001600160a01b038716815260208101829052828281610e6557fe5b3360009081526011602090815260408220805494909304909301909155602f8054600181018255915282517fa813484aef6fb598f9f753daf162068ff39ccea4075cb95e1a30f86995b5b7ee600290920291820180546001600160a01b0319166001600160a01b03909216919091179055908201517fa813484aef6fb598f9f753daf162068ff39ccea4075cb95e1a30f86995b5b7ef90910155610f07612a9d565b604080516001600160e01b03198816815233602082015280820184905290517fd0ea45955ff6d9ae1d964ca3279eed0f08617f1f1201611bfb2d5efaaaf12dd79181900360600190a16001600160e01b03198087166000818152602c602052604090205460e01b90911614156114b0576001600160e01b031986166000818152602c6020908152604082206001818101805482019055600282018054880190556003820180549182018155845291832090910185905591905260040154610fcf908390612ab8565b6001600160e01b031987166000908152602c6020526040902060058101805490920190915560040154611003908390612ab8565b600d80549091019055670de0b6b3a7640000341080159061102c57506729a2241af62c00003411155b801561103f5750602b5460ff1615156001145b156111845761106068056bc75e2d631000006801a055690d9db8000061216a565b61108e5761108068056bc75e2d631000006801a055690d9db80000612ada565b506000945050505050611914565b6001600160e01b031986166000908152602d6020526040902060019081018054909101908190556110bf9087612afb565b6001600160e01b031986166000818152602d6020818152604080842087855260038101835290842068056bc75e2d63100000908190559490935252600201805490910190556111166801a055690d9db80000612d40565b151560011461113757600c805468056bc75e2d631000000190819055611147565b68070c1cc73b00c80000600c8190555b50604080516001600160e01b03198816815233602082015280820184905290516000805160206130668339815191529181900360600190a161143a565b6729a2241af62c0000341180156111a357506753444835ec5800003411155b80156111b65750602b5460ff1615156001145b156112e9576111d7681b1ae4d6e2ef500000680ad78ebc5ac620000061216a565b6111f757611080681b1ae4d6e2ef500000680ad78ebc5ac6200000612ada565b6001600160e01b031986166000908152602d6020526040902060019081018054909101908190556112289087612afb565b6001600160e01b031986166000818152602d60208181526040808420878552600381018352908420681b1ae4d6e2ef5000009081905594909352526002018054909101905561127f680ad78ebc5ac6200000612d40565b15156001146112a057600c8054681b1ae4d6e2ef5000000190819055611147565b6825f273933db5700000600c55604080516001600160e01b03198816815233602082015280820184905290516000805160206130668339815191529181900360600190a161143a565b6753444835ec580000341180156113075750602b5460ff1615156001145b1561143a57611328683635c9adc5dea00000682086ac35105260000061216a565b61134857611080683635c9adc5dea00000682086ac351052600000612ada565b6001600160e01b031986166000908152602d6020526040902060019081018054909101908190556113799087612afb565b6001600160e01b031986166000818152602d60208181526040808420878552600381018352908420683635c9adc5dea00000908190559490935252600201805490910190556113d0682086ac351052600000612d40565b15156001146113f157600c8054683635c9adc5dea000000190819055611401565b6856bc75e2d631000000600c8190555b50604080516001600160e01b03198816815233602082015280820184905290516000805160206130668339815191529181900360600190a15b6001600160e01b031986166000818152602c60209081526040918290205482519384526001600160a01b03600160201b9091041690830152818101849052517f1bbad3ec2950e7a72214d38589df066a71b1dd23bf7a28f54482f992ea66ad0b9181900360600190a16001945050505050611914565b6001600160e01b03198087166000818152602d602052604090205460e01b909116141561190f57670de0b6b3a764000034101580156114f757506729a2241af62c00003411155b801561150a5750602b5460ff1615156001145b156116495761152b68056bc75e2d631000006801a055690d9db8000061216a565b61154b5761108068056bc75e2d631000006801a055690d9db80000612ada565b6001600160e01b031986166000908152602d60205260409020600190810180549091019081905561157c9087612afb565b6001600160e01b031986166000818152602d6020818152604080842087855260038101835290842068056bc75e2d63100000908190559490935252600201805490910190556115d36801a055690d9db80000612d40565b15156001146115f457600c805468056bc75e2d631000000190819055611604565b68070c1cc73b00c80000600c8190555b50604080516001600160e01b03198816815233602082015280820184905290516000805160206130668339815191529181900360600190a16002945050505050611914565b6729a2241af62c00003411801561166857506753444835ec5800003411155b801561167b5750602b5460ff1615156001145b156117b65761169c681b1ae4d6e2ef500000680ad78ebc5ac620000061216a565b6116bc57611080681b1ae4d6e2ef500000680ad78ebc5ac6200000612ada565b6001600160e01b031986166000908152602d6020526040902060019081018054909101908190556116ed9087612afb565b6001600160e01b031986166000818152602d60208181526040808420878552600381018352908420681b1ae4d6e2ef50000090819055949093525260020180549091019055611744680ad78ebc5ac6200000612d40565b151560011461176557600c8054681b1ae4d6e2ef5000000190819055611604565b6825f273933db5700000600c55604080516001600160e01b03198816815233602082015280820184905290516000805160206130668339815191529181900360600190a16002945050505050611914565b6753444835ec580000341180156117d45750602b5460ff1615156001145b1561190f576117f5683635c9adc5dea00000682086ac35105260000061216a565b61181557611080683635c9adc5dea00000682086ac351052600000612ada565b6001600160e01b031986166000908152602d6020526040902060019081018054909101908190556118469087612afb565b6001600160e01b031986166000818152602d60208181526040808420878552600381018352908420683635c9adc5dea000009081905594909352526002018054909101905561189d682086ac351052600000612d40565b15156001146118be57600c8054683635c9adc5dea000000190819055611604565b6856bc75e2d631000000600c55604080516001600160e01b03198816815233602082015280820184905290516000805160206130668339815191529181900360600190a16002945050505050611914565b505050505b92915050565b602e6020526000908152604090205460ff1681565b6a084595161401484a00000081565b6012818154811061194b57fe5b6000918252602090912001546001600160a01b0316905081565b6a01a784379d99db4200000081565b6801a055690d9db8000081565b600081565b60075481565b730348b55abd6e1a99c6ebc972a6a4582ec0bceb5c81565b602d6020526000908152604090208054600182015460029092015460e082901b92600160201b9092046001600160a01b0316919084565b6001600160e01b03199091166000908152602d6020908152604080832093835260039093019052205490565b602f8181548110611a1457fe5b6000918252602090912060029091020180546001909101546001600160a01b03909116915082565b6000546001600160a01b03163314611a5357600080fd5b600180600b5460ff166004811115611a6757fe5b14611a7157600080fd5b50600491909155600555565b60006006544303611d4c01600554670de0b6b3a76400000281611a9c57fe5b0460010190505b90565b60148160148110611ab357fe5b60089182820401919006600402915054906101000a900460e01b81565b6002546001600160a01b03163314611ae757600080fd5b6000600954600854670de0b6b3a76400000281611b0057fe5b049050600081600c546a084595161401484a00000001039050808410611b2557600080fd5b6001546040805163a9059cbb60e01b81526001600160a01b038681166004830152602482018890529151919092169163a9059cbb9160448083019260209291908290030181600087803b158015611b7b57600080fd5b505af1158015611b8f573d6000803e3d6000fd5b505050506040513d6020811015611ba557600080fd5b505050505050565b600c5481565b600d5481565b60065481565b6001600160e01b031981166000908152602d6020526040902054600160201b90046001600160a01b03165b919050565b6001546001600160a01b031681565b600a6020526000908152604090205481565b6002546001600160a01b03163314611c2757600080fd5b600080600b5460ff166004811115611c3b57fe5b14611c4557600080fd5b6001600160a01b038216611c5857600080fd5b600180546001600160a01b0319166001600160a01b038481169190911791829055604080516370a0823160e01b815230600482015290516a084595161401484a00000093909216916370a0823191602480820192602092909190829003018186803b158015611cc657600080fd5b505afa158015611cda573d6000803e3d6000fd5b505050506040513d6020811015611cf057600080fd5b505114611cfc57600080fd5b5050600b805460ff19166001179055565b60105481565b6002546001600160a01b03163314611d2a57600080fd5b600180600b5460ff166004811115611d3e57fe5b14611d4857600080fd5b50600b805460ff1916600217905543600655565b600f5460ff1681565b600281565b623b538081565b602b5460ff1681565b6040805160609290921b6001600160601b031916602080840191909152815160148185030181526034909301909152815191012090565b680ad78ebc5ac620000081565b60045481565b60116020526000908152604090205481565b611dde613046565b604080516102808101918290529060179060149082845b815481526020019060010190808311611df5575050505050905090565b60178160148110611e1f57fe5b0154905081565b6002546001600160a01b031681565b604080513360601b602080830191909152825180830360140181526034909201909252805191012090565b600e5481565b6013818154811061194b57fe5b6000546001600160a01b031681565b60006a01a784379d99db42000000600c5410611e9d57600080fd5b604080513360601b60208083019190915282518083036014018152603490920183528151918101919091206001600160e01b03198082166000818152602d9094529390922054909260e09190911b9091161415611ef957600080fd5b6001600160e01b031981166000818152602d60209081526040918290208054640100000000600160c01b03191633600160201b81029190911763ffffffff191660e087901c17909155825193845290830152805192935083927f0b46cbed2ca40f09668847cdf0153b6c9c57e162edf9f8f8de1e2f135eefde9f9281900390910190a15090565b60006002600b5460ff166004811115611f9557fe5b148015611fb05750611fa56123a6565b611fad611a7d565b11155b15611fbd57611fbd612dd4565b6003600b5460ff166004811115611fd057fe5b148015611fe35750623b53806007540142115b15611ff657600b805460ff191660041790555b600280600b5460ff16600481111561200a57fe5b1461201457600080fd5b6001600160a01b038316612026573392505b3491506000600854612036611a7d565b670de0b6b3a76400006a084595161401484a0000000402039050600060085460045403905081811015612067578091505b818411156120a557819350846001600160a01b03166108fc8534039081150290604051600060405180830381858888f193505050506120a557600080fd5b8315806120d75750600080546040516001600160a01b039091169186156108fc02918791818181858888f19350505050155b156120e157600080fd5b6001600160a01b0385166000908152600a6020526040902080548501905560088054850190558184141561211757612117612dd4565b6040805185815290516001600160a01b038716917f9c89e828e6cee6374b68147c9e753e41746aad98ba255a527a4fc0ac1868bff9919081900360200190a2505050919050565b60085481565b60095481565b60006a01a784379d99db42000000600c5483850101111561218c57600061218f565b60015b9392505050565b604080516001600160601b0319606093841b166020808301919091523390931b6034820152815160288183030181526048909101909152805191012090565b600b5460ff1681565b60006002600b5460ff1660048111156121f357fe5b14801561220e57506122036123a6565b61220b611a7d565b11155b1561221b5761221b612dd4565b6003600b5460ff16600481111561222e57fe5b1480156122415750623b53806007540142115b1561225457600b805460ff191660041790555b50600b5460ff1690565b600181565b681b1ae4d6e2ef50000081565b6003546001600160a01b031681565b612287613046565b60408051610280810191829052906014908190816000855b82829054906101000a900460e01b6001600160e01b0319168152602001906004019060208260030104928301926001038202915080841161229f5790505050505050905090565b60006002600b5460ff1660048111156122fb57fe5b148015612316575061230b6123a6565b612313611a7d565b11155b1561232357612323612dd4565b6003600b5460ff16600481111561233657fe5b1480156123495750623b53806007540142115b1561235c57600b805460ff191660041790555b6003600b5460ff16600481111561236f57fe5b148061238b57506004600b5460ff16600481111561238957fe5b145b156123995750600954611aa3565b6123a1611a7d565b905090565b60006a084595161401484a000000600854670de0b6b3a76400000281611a9c57fe5b6040805136602082018190528282529181018290527f1731fdc3bb916cb9784ad5d30a3a9c01b6f53ca830447dbfa839dfea7a699e8d9160009181908060608101858480828437600083820152604051601f909101601f1916909201829003965090945050505050a160043614806124405750602436145b612484576040805162461bcd60e51b815260206004820152601060248201526f139bc81d985b1a59081c185e5b1bd85960821b604482015290519081900360640190fd5b6002600b5460ff16600481111561249757fe5b1480156124b257506124a76123a6565b6124af611a7d565b11155b156124bf576124bf612dd4565b6003600b5460ff1660048111156124d257fe5b1480156124e55750623b53806007540142115b156124f857600b805460ff191660041790555b600480600b5460ff16600481111561250c57fe5b1461251657600080fd5b6001600160a01b038216612528573391505b6009546001600160a01b0383166000908152600a6020526040812054909190670de0b6b3a7640000028161255857fe5b6001600160a01b038086166000818152600a60209081526040808320839055600154815163a9059cbb60e01b8152600481019590955296909504602484018190529451949650949092169363a9059cbb9360448084019492939192918390030190829087803b1580156125ca57600080fd5b505af11580156125de573d6000803e3d6000fd5b505050506040513d60208110156125f457600080fd5b5050505050565b60055481565b602c602052600090815260409020805460018201546002830154600484015460059094015460e084901b94600160201b9094046001600160a01b0316939086565b604080513360601b60208083019190915282518083036014018152603490920183528151918101919091206001600160e01b03198082166000818152602d909452938320549293919260e01b161480156126b757506001600160e01b031981166000908152602d602052604090206002015415155b156127be576001600160e01b031981166000908152602d60209081526040808320600281018054908590556001549154835163a9059cbb60e01b81526001600160a01b03600160201b90920482166004820152602481018390529351919592169363a9059cbb93604480820194929392918390030190829087803b15801561273e57600080fd5b505af1158015612752573d6000803e3d6000fd5b505050506040513d602081101561276857600080fd5b5050604080516001600160e01b03198416815233602082015260018183015290517f5ceaa24952cb4452b8781e57ea840571d194349b1e39d667878047b83715bab09181900360600190a1600192505050611aa3565b6000915050611aa3565b6002546060906001600160a01b031633146127e257600080fd5b60408051606085811b6001600160601b0319166020808401919091523390911b603483015282518083036028018152604890920183528151918101919091206001600160e01b031981166000908152602c909252919020805463ffffffff191660e083901c17640100000000600160c01b0319166001600160a01b038616600160201b021781556004018390556128798185612e0f565b50604080516001815290517f9fec2c68f61f24831aba2d0778fe76e9a54f215039b50e549e0f34745bbe7dc49181900360200190a150506040805180820190915260118152700706172746e6572207369676e656420757607c1b602082015292915050565b682086ac35105260000081565b6002546040805133606090811b60208084019190915293901b6001600160601b031916603482015281518082036028018152604890910182528051908301206001600160e01b03198481166000908152602d90945291832054909160e09190911b811690821614801561297957506001600160e01b031983166000908152602d602052604090206002015415155b15612a80576001600160e01b031983166000908152602d60209081526040808320600281018054908590556001549154835163a9059cbb60e01b81526001600160a01b03600160201b90920482166004820152602481018390529351919592169363a9059cbb93604480820194929392918390030190829087803b158015612a0057600080fd5b505af1158015612a14573d6000803e3d6000fd5b505050506040513d6020811015612a2a57600080fd5b5050604080516001600160e01b03198616815233602082015260018183015290517f5ceaa24952cb4452b8781e57ea840571d194349b1e39d667878047b83715bab09181900360600190a1600192505050611bea565b6000915050611bea565b602f5490565b683635c9adc5dea0000081565b600e5460085410612ab657600f805460ff191660011790555b565b600061218f612ad4612acd8560648106612e9e565b6064612eb0565b83612ec5565b600c54828201016a01a784379d99db4200000003601055606061218f612ee9565b60005b6014811015612b2a578260178260148110612b1557fe5b01541015612b2257612b2a565b600101612afe565b6014811015612d3b576001600160e01b03198216601482818110612b4a57fe5b600891828204019190066004029054906101000a900460e01b6001600160e01b03191614612c165760135b81811115612c145760176001820360148110612b8d57fe5b015460146001830360148110612b9f57fe5b600891828204019190066004029054906101000a900460e01b60178360148110612bc557fe5b01600060148560148110612bd557fe5b60088104909101805460e09590951c60046007909316929092026101000a91820263ffffffff9092021990941617909255919091555060001901612b75565b505b828260178360148110612c2557fe5b01600060148560148110612c3557fe5b600891828204019190066004028491906101000a81548163ffffffff021916908360e01c0217905550839190505550507fb840a7a69c476d062e9d6b3750e48e703effc4f88d8795b2d39055b2700468776014604051808260148015612cdd576020028201916000905b82829054906101000a900460e01b6001600160e01b03191681526020019060040190602082600301049283019260010382029150808411612c9f5790505b505091505060405180910390a16040517f5dbdb92bbfe4feb2ce743467a0046a6dd48137a502e995c1ee814b38ee29ed5290601790610280810182825b815481526020019060010190808311612d1a57505091505060405180910390a15b505050565b600080612d4b611e35565b6001600160e01b03198082166000818152602d602052604090205492935060e09290921b161415612d9f576001600160e01b0319166000908152602d60205260409020600201805483019055506001611bea565b6000612daa33612f6f565b6001600160e01b0319166000908152602d602052604090206002018490555060019150611bea9050565b600b805460ff191660031790556004546008541415612dfd57612df5611a7d565b600955612e09565b612e056123a6565b6009555b42600755565b6001600160e01b031982166000818152602d60209081526040918290208054640100000000600160c01b031916600160201b6001600160a01b0387169081029190911763ffffffff191660e088901c17909155825193845290830152805184927f0b46cbed2ca40f09668847cdf0153b6c9c57e162edf9f8f8de1e2f135eefde9f92908290030190a192915050565b600082821115612eaa57fe5b50900390565b600080828481612ebc57fe5b04949350505050565b600082612ed457506000611914565b82820282848281612ee157fe5b041461218f57fe5b602b5460609060ff161515600114612f3a576040805162461bcd60e51b815260206004820152600f60248201526e6e6f206d6f726520626f6e7573657360881b604482015290519081900360640190fd5b50602b805460ff1916905560408051808201909152601081526f1d1bdad95b9cc8195e1a185d5cdd195960821b602082015290565b60408051606083901b6001600160601b03191660208083019190915282516014818403018152603483018085528151918301919091206001600160e01b031981166000818152602d909452928590208054640100000000600160c01b03191633600160201b021763ffffffff191660e083901c1790559190526001600160a01b0384166054830152915182917f0b46cbed2ca40f09668847cdf0153b6c9c57e162edf9f8f8de1e2f135eefde9f916074918190039190910190a150919050565b604080518082019091526000808252602082015290565b604051806102800160405280601490602082028038833950919291505056fe00c35fb01c0d5dae78232f9ccceb19b4267e300be89df0f127816a262fd6413fa265627a7a723158208e7b05431f626dcce19eacdd694d6cd8393335b0424da6b11428a17903e7f96664736f6c634300050d0032",
  "source": "pragma solidity ^0.5.10;\n\nlibrary SafeMath {\n\n  function mul(uint256 a, uint256 b) internal pure returns (uint256) {\n    if (a == 0) {\n      return 0;\n    }\n    uint256 c = a * b;\n    assert(c / a == b);\n    return c;\n  }\n\n  function div(uint256 a, uint256 b) internal pure returns (uint256) {\n    // assert(b > 0); // Solidity automatically throws when dividing by 0\n    uint256 c = a / b;\n    // assert(a == b * c + a % b); // There is no case in which this doesn't hold\n    return c;\n  }\n\n  function sub(uint256 a, uint256 b) internal pure returns (uint256) {\n    assert(b <= a);\n    return a - b;\n  }\n\n  function add(uint256 a, uint256 b) internal pure returns (uint256) {\n    uint256 c = a + b;\n    assert(c >= a);\n    return c;\n  }\n}\n\ninterface Token {\n    function transfer(address to, uint256 value) external returns (bool success);\n    function transferFrom(address from, address to, uint256 value) external returns (bool success);\n    function approve(address spender, uint256 value) external returns (bool success);\n\n    // This is not an abstract function, because solc won't recognize generated getter functions for public variables as functions.\n    function totalSupply() external view returns (uint256 supply);\n    function balanceOf(address owner) external view returns (uint256 balance);\n    function allowance(address owner, address spender) external view returns (uint256 remaining);\n\n    event Transfer(address indexed from, address indexed to, uint256 value);\n    event Approval(address indexed owner, address indexed spender, uint256 value);\n}\ninterface PromissoryToken {\n\n\tfunction claim() payable external;\n\tfunction lastPrice() external returns(uint256);\n}\n\n/// @title Dutch auction contract - from gnosis, see source : https://github.com/maurelian/dutch-auction\n/// improved with latest solidity syntax\ncontract DutchAuction {\n\n    /*\n     *  Events\n     */\n    event BidSubmission(address indexed sender, uint256 amount);\n    event logPayload(bytes _data, uint _lengt);\n\n    /*\n     *  Constants\n     */\n    uint constant public MAX_TOKENS_SOLD = 10000000 * 10**18; // 10M\n    uint constant public WAITING_PERIOD = 45 days;\n\n    /*\n     *  Storage\n     */\n\n\n    address payable public pWallet;\n    Token public KittieFightToken;\n    address public owner;\n    PromissoryToken public PromissoryTokenIns; \n    address constant public promissoryAddr = 0x0348B55AbD6E1A99C6EBC972A6A4582Ec0bcEb5c;\n    uint public ceiling;\n    uint public priceFactor;\n    uint public startBlock;\n    uint public endTime;\n    uint public totalReceived;\n    uint public finalPrice;\n    mapping (address => uint) public bids;\n    Stages public stage;\n\n    /*\n     *  Enums\n     */\n    enum Stages {\n        AuctionDeployed,\n        AuctionSetUp,\n        AuctionStarted,\n        AuctionEnded,\n        TradingStarted\n    }\n\n    /*\n     *  Modifiers\n     */\n    modifier atStage(Stages _stage) {\n        require(stage == _stage);\n            // Contract not in expected state\n        _;\n    }\n\n    modifier isOwner() {\n        require(msg.sender == owner);\n            // Only owner is allowed to proceed\n        _;\n    }\n\n    modifier isWallet() {\n         require(msg.sender == address(pWallet));\n            // Only wallet is allowed to proceed\n        _;\n    }\n\n    modifier isValidPayload() {\n        emit logPayload(msg.data, msg.data.length);\n        require(msg.data.length == 4 || msg.data.length == 36, \"No valid payload\");\n        _;\n    }\n\n    modifier timedTransitions() {\n        if (stage == Stages.AuctionStarted && calcTokenPrice() <= calcStopPrice())\n            finalizeAuction();\n        if (stage == Stages.AuctionEnded && now > endTime + WAITING_PERIOD)\n            stage = Stages.TradingStarted;\n        _;\n    }\n\n    /*\n     *  Public functions\n     */\n    /// @dev Contract constructor function sets owner.\n    /// @param _pWallet KittieFight promissory wallet.\n    /// @param _ceiling Auction ceiling.\n    /// @param _priceFactor Auction price factor.\n    constructor(address payable _pWallet, uint _ceiling, uint _priceFactor)\n        public\n    {\n        if (_pWallet == address(0) || _ceiling == 0 || _priceFactor == 0)\n            // Arguments are null.\n            revert();\n        owner = msg.sender;\n        PromissoryTokenIns = PromissoryToken(promissoryAddr);\n        pWallet = _pWallet;\n        ceiling = _ceiling;\n        priceFactor = _priceFactor;\n        stage = Stages.AuctionDeployed;\n    }\n\n    /// @dev Setup function sets external contracts' addresses.\n    /// @param _kittieToken  token address.\n    function setup(address _kittieToken)\n        public\n        isOwner\n        atStage(Stages.AuctionDeployed)\n    {\n        if (_kittieToken == address(0))\n            // Argument is null.\n            revert();\n        KittieFightToken = Token(_kittieToken);\n        // Validate token balance\n        if (KittieFightToken.balanceOf(address(this)) != MAX_TOKENS_SOLD)\n            revert();\n        stage = Stages.AuctionSetUp;\n    }\n\n    /// @dev Starts auction and sets startBlock.\n    function startAuction()\n        public\n        isOwner\n        atStage(Stages.AuctionSetUp)\n    {\n        stage = Stages.AuctionStarted;\n        startBlock = block.number;\n    }\n\n    /// @dev Changes auction ceiling and start price factor before auction is started.\n    /// @param _ceiling Updated auction ceiling.\n    /// @param _priceFactor Updated start price factor.\n    function changeSettings(uint _ceiling, uint _priceFactor)\n        public\n        isWallet\n        atStage(Stages.AuctionSetUp)\n    {\n        ceiling = _ceiling;\n        priceFactor = _priceFactor;\n    }\n\n    /// @dev Calculates current token price.\n    /// @return Returns token price.\n    function calcCurrentTokenPrice()\n        public\n        timedTransitions\n        returns (uint)\n    {\n        if (stage == Stages.AuctionEnded || stage == Stages.TradingStarted)\n            return finalPrice;\n        return calcTokenPrice();\n    }\n\n    /// @dev Returns correct stage, even if a function with timedTransitions modifier has not yet been called yet.\n    /// @return Returns current auction stage.\n    function updateStage()\n        public\n        timedTransitions\n        returns (Stages)\n    {\n        return stage;\n    }\n\n    /// @dev Allows to send a bid to the auction.\n    /// @param receiver Bid will be assigned to this address if set.\n    function bid(address payable receiver)\n        public\n        payable\n        //isValidPayload\n        timedTransitions\n        atStage(Stages.AuctionStarted)\n        returns (uint amount)\n    {\n        // If a bid is done on behalf of a user via ShapeShift, the receiver address is set.\n        if (receiver == address(0))\n            receiver = msg.sender;\n        amount = msg.value;\n        // Prevent that more than 90% of tokens are sold. Only relevant if cap not reached.\n        uint maxWei = (MAX_TOKENS_SOLD / 10**18) * calcTokenPrice() - totalReceived;\n        uint maxWeiBasedOnTotalReceived = ceiling - totalReceived;\n        if (maxWeiBasedOnTotalReceived < maxWei)\n            maxWei = maxWeiBasedOnTotalReceived;\n        // Only invest maximum possible amount.\n        if (amount > maxWei) {\n            amount = maxWei;\n            // Send change back to receiver address. In case of a ShapeShift bid the user receives the change back directly.\n            if (!receiver.send(msg.value - amount))\n                // Sending failed\n                revert();\n        }\n        // Forward funding to ether pWallet\n        if (amount == 0 || !address(pWallet).send(amount))\n            // No amount sent or sending failed\n            revert();\n        bids[receiver] += amount;\n        totalReceived += amount;\n        if (maxWei == amount)\n            // When maxWei is equal to the big amount the auction is ended and finalizeAuction is triggered.\n            finalizeAuction();\n        emit BidSubmission(receiver, amount);\n    }\n\n    /// @dev Claims tokens for bidder after auction.\n    /// @param receiver Tokens will be assigned to this address if set.\n    function claimTokens(address receiver)\n        public\n        isValidPayload\n        timedTransitions\n        atStage(Stages.TradingStarted)\n    {\n        if (receiver == address(0))\n            receiver = msg.sender;\n        uint tokenCount = bids[receiver] * 10**18 / finalPrice;\n        bids[receiver] = 0;\n        KittieFightToken.transfer(receiver, tokenCount);\n    }\n\n    /// @dev Calculates stop price.\n    /// @return Returns stop price.\n    function calcStopPrice()\n        view\n        public\n        returns (uint)\n    {\n        return totalReceived * 10**18 / MAX_TOKENS_SOLD + 1;\n    }\n\n    /// @dev Calculates token price.\n    /// @return Returns token price.\n    function calcTokenPrice()\n        view\n        public\n        returns (uint)\n    {\n        return priceFactor * 10**18 / (block.number - startBlock + 7500) + 1;\n    }\n\n    /*\n     *  Private functions\n     */\n    function finalizeAuction()\n        private\n    {\n        stage = Stages.AuctionEnded;\n\n        if (totalReceived == ceiling)\n            finalPrice = calcTokenPrice();\n        else\n            finalPrice = calcStopPrice();\n\n        endTime = now;\n    }\n\n\n}\ncontract Dutchwrapper is DutchAuction {\n\n\n    uint constant public MAX_TOKEN_REFERRAL = 2000000 * 10**18; // One Million and eight hundred  thousand\n\n    uint public claimedTokenReferral = 0; // 800,000 : eigth hundred thousand limit\n    uint public totalEthEarnedByPartners = 0; // Partners earning\n\n\n    // 2,000,000 :  2 million: total MAX_TOKEN_REFERRAL\n    uint constant public TOTAL_BONUS_TOKEN = 2000000 * 10**18;\n\n    uint public softCap;\n    bool public softcapReached = false;\n\n\n    uint constant public None = 0; // Distinction between promotion groups, discontinued bonuses\n    uint constant public Partners = 1; // Distinction between promotion groups, partnership for eth\n    uint constant public Referrals = 2; // Distinction between promotion groups, referral campaign for tokens\n    \n\n    uint constant public ONE = 1; // NUMBER 1\n\n    // various reward levels\n    uint constant public thirty = 30 * 10**18; // thirty tokens awarded to bidder when earned\n    uint constant public twoHundred = 200 * 10**18; // two hundred tokens awarded to bidder when earned\n    uint constant public sixHundred = 600 * 10**18; // six hundred tokens awarded to bidder when earned\n\n    uint constant public oneHundred = 100 * 10**18; // one hundred tokens awarded to refferer when earned\n    uint constant public fiveHundred = 500 * 10**18; // five hundred tokens awarded to refferer when earned\n    uint constant public oneThousand = 1000 * 10**18; // one thousand tokens awarded to refferer when earned\n    uint public residualToken; // variable tracking number of tokens left at near complete token exhaustion\n\n    mapping (address => uint) public SuperDAOTokens; // amount of bonus Superdao Tokens earned per bidder\n    //for participation on auction based on eth bid\n\n    struct PartnerForEth {\n        bytes4 hash; // unique hash for partner\n        address addr; //address for partner\n        uint totalReferrals; // Number of reffered parties\n        uint totalContribution; // total contribution in ETH by reffered parties\n        uint[] individualContribution; // individual contribution list, number of eth per contributor\n        uint percentage; // percentage share for partner of each referral\n        uint EthEarned; // up to date total amount earned\n    }\n\n\taddress [] public PartnersList; // list of partners\n\n    //for token referal campaign\n    struct tokenForReferral {\n        bytes4 hash; // hash of this campaign\n        address addr; // address of this user\n        uint totalReferrals; // total amount of participators refered\n        uint totalTokensEarned; // total tokens earned based on referals\n        mapping(uint => uint) tokenAmountPerReferred;// Amount of tokens earned for each participator referred\n    }\n\n     address [] public TokenReferalList; // list of partners\n\n     bytes4 [20] public topAddrHashes; // display top 20 refferers address hashes\n     uint [20] public topReferredNum; // display number of bidders reffered by top 20 refferers\n\n    event topAddrHashesUpdate(bytes4 [20] topAddrHashes); // log display top 20 refferers address hashes ( see function orderTop20 )\n    event topNumbersUpdate(uint[20] topNumArray);  // log number of bidders reffered by top 20 refferers (( see function orderTop20 )\n    bool public bidderBonus = true; // bolean bonus indicator for both refferers and bidders\n\n    mapping(bytes4 => PartnerForEth )  public MarketingPartners;\n    mapping(bytes4 => tokenForReferral)  public TokenReferrals;\n    mapping(address => bool ) public Admins;\n\n    // statistics on the number of bidders\n    struct bidder {\n        address addr;\n        uint amount;\n    }\n\n    bidder [] public CurrentBidders; // document current bidders\n\n\n    event PartnerReferral(bytes4 _partnerHash,address _addr, uint _amount);//fired after marketing partner referral happens\n    event TokenReferral(bytes4 _campaignHash,address _addr, uint _amount);// fired when token referral happens\n    event BidEvent(bytes4 _hash, address _addr, uint _amount); //fired when a bid happens\n    event SetupReferal(uint _type); //fired when a referal campaign is setup\n    event ReferalSignup(bytes4 _Hash, address _addr); // fired when a token promoter signs up\n    event ClaimtokenBonus(bytes4 _Hash, address _addr, bool success); //fired when a person claims earned tokens\n\n\n\n    // check when dutch auction is ended and trading has started\n    modifier tradingstarted(){\n        require(stage == Stages.TradingStarted);\n        _;\n    }\n\n    // uint constant public MAX_TOKEN_REFERRAL = 1800000 * 10**18; // 1 800,000 : one million and eight hundred  thousand    \n    // uint public claimedTokenReferral = 0; // 800,000 : eigth hundred thousand limit\n\n    // safety check for requiring limits at maximum amount allocated for referrals\n    modifier ReferalCampaignLimit() {\n        require (claimedTokenReferral < MAX_TOKEN_REFERRAL);\n        _;\n    }\n\n\n    constructor  (address payable _pWallet, uint _ceiling, uint _priceFactor, uint _softCap)\n        DutchAuction(_pWallet, _ceiling, _priceFactor)  public {\n\n            softCap = _softCap;\n    }\n\n    function checksoftCAP() internal {\n        //require (softcapReached == false);\n        if( totalReceived >= softCap ) {\n            softcapReached = true;\n        }\n    }\n\n    // creates either a marketing partnering for eth or a twitter retweet campaign. referal marketing in\n    // exchange for tokens are self generated in referal signup function\n\n    function setupReferal(address _addr, uint _percentage)\n        public\n        isOwner\n        returns (string memory successmessage) \n    {\n\n            bytes4 tempHash = bytes4(keccak256(abi.encodePacked(_addr, msg.sender)));\n\n            MarketingPartners[tempHash].hash = tempHash;\n            MarketingPartners[tempHash].addr = _addr;\n            MarketingPartners[tempHash].percentage = _percentage;\n\n            InternalReferalSignupByhash(tempHash, _addr);\n\n    \t\temit SetupReferal(1); // Marketin partners\n            return \"partner signed up\";\n    }\n\n    // generated hash on behalf of partners earning cash and tokensby tokens. referalcampaignlimmit modifier\n    //removed because partner signup it will fail if referal tokens are used up\n    function InternalReferalSignup(address _addr) internal returns (bytes4 referalhash) {\n        \n        bytes4 tempHash = bytes4(keccak256(abi.encodePacked(_addr)));\n        TokenReferrals[tempHash].addr = msg.sender;\n        TokenReferrals[tempHash].hash = tempHash;\n        referalhash = tempHash;\n        emit ReferalSignup(tempHash, _addr);\n    }\n\n    //\n    function InternalReferalSignupByhash(bytes4 _hash, address _addr) internal returns (bytes4 referalhash) {\n        TokenReferrals[_hash].addr = _addr;\n        TokenReferrals[_hash].hash = _hash;\n        referalhash = _hash;\n        emit ReferalSignup(_hash, _addr);\n    }\n\n\n    // public self generated hash by token earning promoters\n    function referralSignup() public ReferalCampaignLimit returns (bytes4 referalhash) {\n        bytes4 tempHash = bytes4(keccak256(abi.encodePacked(msg.sender)));\n        require (tempHash != TokenReferrals[tempHash].hash); //check prevent overwriting\n        TokenReferrals[tempHash].addr = msg.sender;\n        TokenReferrals[tempHash].hash = tempHash;\n        referalhash = tempHash;\n        emit ReferalSignup(tempHash, msg.sender);\n    }\n\n\n    // Biding using a referral hash\n    function bidReferral(address payable _receiver, bytes4 _hash) public payable returns (uint) {\n\n        uint bidAmount = msg.value;\n        uint256 promissorytokenLastPrice = PromissoryTokenIns.lastPrice();\n\n\n        if(bidAmount > ceiling - totalReceived) {\n            bidAmount = ceiling - totalReceived;\n        }\n\n        require( bid(_receiver) == bidAmount ); //Change will be sent back to _receiver, that's why he should be payable\n\n\t\tuint amount = msg.value;\n\t\tbidder memory _bidder;\n\t\t_bidder.addr = _receiver;\n\t\t_bidder.amount = amount;\n        SuperDAOTokens[msg.sender] += amount/promissorytokenLastPrice;\n\t\tCurrentBidders.push(_bidder);\n        checksoftCAP();\n\n        emit BidEvent(_hash, msg.sender, amount);\n\n        if (_hash == MarketingPartners[_hash].hash) {\n\n            MarketingPartners[_hash].totalReferrals += ONE;\n            MarketingPartners[_hash].totalContribution += amount;\n            MarketingPartners[_hash].individualContribution.push(amount);\n            MarketingPartners[_hash].EthEarned += referalPercentage(amount, MarketingPartners[_hash].percentage);\n\n            totalEthEarnedByPartners += referalPercentage(amount, MarketingPartners[_hash].percentage);\n\n            if( (msg.value >= 1 ether) && (msg.value <= 3 ether) && (bidderBonus == true)) {\n             if(bonusChecker(oneHundred, thirty) == false){\n                    discontinueBonus(oneHundred, thirty);\n                    return None;\n                    }\n              TokenReferrals[_hash].totalReferrals += ONE;\n              orderTop20(TokenReferrals[_hash].totalReferrals, _hash);\n              TokenReferrals[_hash].tokenAmountPerReferred[amount] = oneHundred;\n              TokenReferrals[_hash].totalTokensEarned += oneHundred;\n              bidderEarnings (thirty) == true ? claimedTokenReferral = oneHundred + thirty : claimedTokenReferral += oneHundred;\n              emit TokenReferral(_hash ,msg.sender, amount);\n\n\n              } else if ((msg.value > 3 ether)&&(msg.value <= 6 ether) && (bidderBonus == true)) {\n                   if(bonusChecker(fiveHundred, twoHundred) == false){\n                    discontinueBonus(fiveHundred, twoHundred);\n                    return None;\n                    }\n                  TokenReferrals[_hash].totalReferrals += ONE;\n                  orderTop20(TokenReferrals[_hash].totalReferrals, _hash);\n                  TokenReferrals[_hash].tokenAmountPerReferred[amount] = fiveHundred;\n                  TokenReferrals[_hash].totalTokensEarned += fiveHundred;\n                  bidderEarnings (twoHundred) == true ? claimedTokenReferral = fiveHundred + twoHundred : claimedTokenReferral += fiveHundred;\n                  emit TokenReferral(_hash ,msg.sender, amount);\n\n\n                  } else if ((msg.value > 6 ether) && (bidderBonus == true)) {\n                    if(bonusChecker(oneThousand, sixHundred) == false){\n                    discontinueBonus(oneThousand, sixHundred);\n                    return None;\n                    }\n                    TokenReferrals[_hash].totalReferrals += ONE;\n                    orderTop20(TokenReferrals[_hash].totalReferrals, _hash);\n                    TokenReferrals[_hash].tokenAmountPerReferred[amount] = oneThousand;\n                    TokenReferrals[_hash].totalTokensEarned += oneThousand;\n                    bidderEarnings (sixHundred) == true ? claimedTokenReferral = oneThousand + sixHundred : claimedTokenReferral += oneThousand;\n                    emit TokenReferral(_hash, msg.sender, amount);\n\n                  }\n\n            emit PartnerReferral(_hash, MarketingPartners[_hash].addr, amount);\n\n            return Partners;\n\n          } else if (_hash == TokenReferrals[_hash].hash){\n\n        \t\t\tif( (msg.value >= 1 ether) && (msg.value <= 3 ether) && (bidderBonus == true) ) {\n        \t\t\t    if(bonusChecker(oneHundred, thirty) == false){\n                            discontinueBonus(oneHundred, thirty);\n                                return None;\n                            }\n                            TokenReferrals[_hash].totalReferrals += ONE;\n                            orderTop20(TokenReferrals[_hash].totalReferrals, _hash);\n            \t\t\t\tTokenReferrals[_hash].tokenAmountPerReferred[amount] = oneHundred;\n            \t\t\t\tTokenReferrals[_hash].totalTokensEarned += oneHundred;\n                            bidderEarnings (thirty) == true ? claimedTokenReferral = oneHundred + thirty : claimedTokenReferral += oneHundred;\n            \t\t\t\temit TokenReferral(_hash ,msg.sender, amount);\n            \t\t\t\treturn Referrals;\n\n        \t\t\t\t} else if ((msg.value > 3 ether)&&(msg.value <= 6 ether) && (bidderBonus == true)) {\n        \t\t\t\t    if(bonusChecker(fiveHundred, twoHundred) == false){\n                                discontinueBonus(fiveHundred, twoHundred);\n                                return None;\n                                }\n                                TokenReferrals[_hash].totalReferrals += ONE;\n                                orderTop20(TokenReferrals[_hash].totalReferrals, _hash);\n        \t\t\t\t\t\tTokenReferrals[_hash].tokenAmountPerReferred[amount] = fiveHundred;\n        \t\t\t\t\t\tTokenReferrals[_hash].totalTokensEarned += fiveHundred;\n                                bidderEarnings (twoHundred) == true ? claimedTokenReferral = fiveHundred + twoHundred : claimedTokenReferral += fiveHundred;\n        \t\t\t\t\t\temit TokenReferral(_hash ,msg.sender, amount);\n        \t\t\t\t\t\treturn Referrals;\n\n        \t\t\t\t\t\t} else if ((msg.value > 6 ether) && (bidderBonus == true)) {\n        \t\t\t\t\t\t    if(bonusChecker(oneThousand, sixHundred) == false){\n                                     discontinueBonus(oneThousand, sixHundred);\n                                     return None;\n                                    }\n                                    TokenReferrals[_hash].totalReferrals += ONE;\n                                    orderTop20(TokenReferrals[_hash].totalReferrals, _hash);\n        \t\t\t\t\t\t\tTokenReferrals[_hash].tokenAmountPerReferred[amount] = oneThousand;\n        \t\t\t\t\t\t\tTokenReferrals[_hash].totalTokensEarned += oneThousand;\n        \t\t\t\t\t\t\tbidderEarnings (sixHundred) == true ? claimedTokenReferral = oneThousand + sixHundred : claimedTokenReferral += oneThousand;\n        \t\t\t\t\t\t\temit TokenReferral(_hash, msg.sender, amount);\n        \t\t\t\t\t\t\treturn Referrals;\n        \t\t\t\t\t\t}\n                        }\n    \n    }\n\n\n\tfunction referalPercentage(uint _amount, uint _percent)\n\t    internal\n\t    pure\n\t    returns (uint) {\n            return SafeMath.mul( SafeMath.div( SafeMath.sub(_amount, _amount%100), 100 ), _percent );\n\t}\n\n\n    function claimtokenBonus () public returns(bool success)  {\n\n        bytes4 _personalHash = bytes4(keccak256(abi.encodePacked(msg.sender)));\n        \n        if ((_personalHash == TokenReferrals[_personalHash].hash) \n                && (TokenReferrals[_personalHash].totalTokensEarned > 0)) {\n\n            uint TokensToTransfer1 = TokenReferrals[_personalHash].totalTokensEarned;\n            TokenReferrals[_personalHash].totalTokensEarned = 0;\n            KittieFightToken.transfer(TokenReferrals[_personalHash].addr , TokensToTransfer1);\n            emit ClaimtokenBonus(_personalHash, msg.sender, true);\n         \n            return true;\n\n        } else {\n\n            return false;\n       }\n    }\n\n\n    function claimCampaignTokenBonus(bytes4 _campaignHash) public returns(bool success)  {\n        \n        bytes4 _marketingCampaignHash = bytes4(keccak256(abi.encodePacked(msg.sender, owner)));\n\n        if ((_marketingCampaignHash == TokenReferrals[_campaignHash].hash) \n                && (TokenReferrals[_campaignHash].totalTokensEarned > 0)) {\n\n            uint TokensToTransfer1 = TokenReferrals[_campaignHash].totalTokensEarned;\n            TokenReferrals[_campaignHash].totalTokensEarned = 0;\n            KittieFightToken.transfer(TokenReferrals[_campaignHash].addr , TokensToTransfer1);\n            emit ClaimtokenBonus(_campaignHash, msg.sender, true);\n         \n            return true;\n\n        } else {\n\n            return false;\n       }\n    }\n    \n\n    /*\n     *  Admin transfers all unsold tokens back to token contract\n     */\n    function transferUnsoldTokens(uint _unsoldTokens, address _addr)\n        public\n        isOwner\n\n     {\n\n        uint soldTokens = totalReceived * 10**18 / finalPrice;\n        uint totalSold = (MAX_TOKENS_SOLD + claimedTokenReferral)  - soldTokens;\n\n        require (_unsoldTokens < totalSold );\n        KittieFightToken.transfer(_addr, _unsoldTokens);\n    }\n\n\n    function tokenAmountPerReferred(bytes4 _hash, uint _amount ) public view returns(uint tokenAmount) {\n        tokenAmount = TokenReferrals[_hash].tokenAmountPerReferred[_amount];\n    }\n\n    function getCurrentBiddersCount () public view returns(uint biddersCount)  {\n        biddersCount = CurrentBidders.length;\n    }\n\n    // helper functions  return msg.senders hash\n    function calculatPersonalHash() public view returns (bytes4 _hash) {\n        _hash = bytes4(keccak256(abi.encodePacked(msg.sender)));\n    }\n\n    function calculatPersonalHashByAddress(address _addr) public pure returns (bytes4 _hash) {\n        _hash = bytes4(keccak256(abi.encodePacked(_addr)));\n    }\n\n    function calculateCampaignHash(address _addr) public view returns (bytes4 _hash) {\n        _hash = bytes4(keccak256(abi.encodePacked(_addr, msg.sender)));\n    }\n\n    // helper functions ordering top 20 address by number of reffered bidders\n    // array of addresses and bidder numbers are logged\n    function orderTop20(uint _value, bytes4 _hash) private {\n        uint i = 0;\n        /** get the index of the current max element **/\n        for(i; i < topReferredNum.length; i++) {\n            if(topReferredNum[i] < _value) {\n                break;\n            }\n        }\n\n        if(i < topReferredNum.length)\n        {\n            if(topAddrHashes[i]!=_hash)\n            {\n                /** shift the array of one position (getting rid of the last element) **/\n                for(uint j = topReferredNum.length - 1; j > i; j--) {\n                    (topReferredNum[j], topAddrHashes[j] ) = (topReferredNum[j - 1],topAddrHashes[j - 1]);\n                }\n\n            \n            }\n            /** update the new max element **/\n            (topReferredNum[i], topAddrHashes[i]) = (_value, _hash);\n            emit topAddrHashesUpdate (topAddrHashes);\n            emit topNumbersUpdate(topReferredNum);\n        }\n\n\n\n    }\n\n    // helper functions returning top 20 leading number of reffered bidders by refferers\n    function getTop20Reffered() public view returns (uint [20] memory){\n      return topReferredNum;\n    }\n\n    // helper functions  top 20 refferer addresses\n    function getTop20Addr() public view returns (bytes4 [20] memory){\n        return topAddrHashes;\n     }\n\n    // helper functions  return msg.senders address from given hash\n    function getAddress (bytes4 _hash) public view returns (address){\n        return TokenReferrals[_hash].addr;\n    }\n\n    // helper checking existence of bidder as a token refferer\n    // creates a token refferer hash for bidder, if bidder is not already a refferer\n    // also allocates  20%, 25% or 40% (30, 200, 600 KTY tokens) discounts to bidder, based on amount bid\n    function bidderEarnings (uint _amountEarned) private returns (bool){\n\n        bytes4 bidderTemphash = calculatPersonalHash();\n\n        if ( bidderTemphash == TokenReferrals[bidderTemphash].hash){\n            TokenReferrals[bidderTemphash].totalTokensEarned += _amountEarned;\n            return true;\n        }else{\n            bytes4 newBidderHash = InternalReferalSignup(msg.sender);\n            TokenReferrals[newBidderHash].totalTokensEarned = _amountEarned;\n            return true;\n        }\n        //return false; //Will never reach here, Commented out to remove compilation warning\n    }\n\n     // check if both bidder bonus and refferer bonus is avalable\n     // return true if bonus is available\n     function bonusChecker(uint _tokenRefferralBonus, uint _bidderBonusAmount) public view returns (bool){\n      return _tokenRefferralBonus + _bidderBonusAmount + claimedTokenReferral <= MAX_TOKEN_REFERRAL ? true : false;\n    }\n\n    //document actual remaining residual tokens\n    //call function to terminate bonus\n    function discontinueBonus(uint _tokenRefferralBonus, uint _bidderBonusAmount) private returns (string memory) {\n        residualToken = MAX_TOKEN_REFERRAL - (_tokenRefferralBonus + _bidderBonusAmount + claimedTokenReferral);\n        return setBonustoFalse();\n    }\n\n\n    // bolean bonus switcher, only called when\n    // tokens bonus availability is exhuated\n    // terminate bonus\n    function setBonustoFalse() private returns (string memory) {\n        require (bidderBonus == true,\"no more bonuses\");\n        bidderBonus = false;\n        return \"tokens exhausted\";\n    }\n\n}\n",
  "sourcePath": "D:/projects/kittiefight/token/DutchAuction/contracts/contracts-flattened/Dutchwrapper-flattened.sol",
  "compiler": {
    "name": "solc",
    "version": "0.5.13+commit.5b0b510c.Emscripten.clang"
  },
  "schemaVersion": "3.0.16",
  "updatedAt": "2019-11-20T23:53:24.222Z",
  "devdoc": {
    "methods": {
      "bid(address)": {
        "details": "Allows to send a bid to the auction.",
        "params": {
          "receiver": "Bid will be assigned to this address if set."
        }
      },
      "calcCurrentTokenPrice()": {
        "details": "Calculates current token price.",
        "return": "Returns token price."
      },
      "calcStopPrice()": {
        "details": "Calculates stop price.",
        "return": "Returns stop price."
      },
      "calcTokenPrice()": {
        "details": "Calculates token price.",
        "return": "Returns token price."
      },
      "changeSettings(uint256,uint256)": {
        "details": "Changes auction ceiling and start price factor before auction is started.",
        "params": {
          "_ceiling": "Updated auction ceiling.",
          "_priceFactor": "Updated start price factor."
        }
      },
      "claimTokens(address)": {
        "details": "Claims tokens for bidder after auction.",
        "params": {
          "receiver": "Tokens will be assigned to this address if set."
        }
      },
      "setup(address)": {
        "details": "Setup function sets external contracts' addresses.",
        "params": {
          "_kittieToken": "token address."
        }
      },
      "startAuction()": {
        "details": "Starts auction and sets startBlock."
      },
      "updateStage()": {
        "details": "Returns correct stage, even if a function with timedTransitions modifier has not yet been called yet.",
        "return": "Returns current auction stage."
      }
    }
  },
  "userdoc": {
    "methods": {}
  }
}