{
  "contractName": "Dutchwrapper",
  "abi": [
    {
      "constant": true,
      "inputs": [],
      "name": "claimedSocial",
      "outputs": [
        {
          "name": "",
          "type": "uint256"
        }
      ],
      "payable": false,
      "stateMutability": "view",
      "type": "function"
    },
    {
      "constant": true,
      "inputs": [
        {
          "name": "",
          "type": "address"
        }
      ],
      "name": "Admins",
      "outputs": [
        {
          "name": "",
          "type": "bool"
        }
      ],
      "payable": false,
      "stateMutability": "view",
      "type": "function"
    },
    {
      "constant": true,
      "inputs": [],
      "name": "MAX_TOKENS_SOLD",
      "outputs": [
        {
          "name": "",
          "type": "uint256"
        }
      ],
      "payable": false,
      "stateMutability": "view",
      "type": "function"
    },
    {
      "constant": true,
      "inputs": [
        {
          "name": "",
          "type": "uint256"
        }
      ],
      "name": "PartnersList",
      "outputs": [
        {
          "name": "",
          "type": "address"
        }
      ],
      "payable": false,
      "stateMutability": "view",
      "type": "function"
    },
    {
      "constant": true,
      "inputs": [],
      "name": "MAX_TOKEN_REFERRAL",
      "outputs": [
        {
          "name": "",
          "type": "uint256"
        }
      ],
      "payable": false,
      "stateMutability": "view",
      "type": "function"
    },
    {
      "constant": true,
      "inputs": [],
      "name": "endTime",
      "outputs": [
        {
          "name": "",
          "type": "uint256"
        }
      ],
      "payable": false,
      "stateMutability": "view",
      "type": "function"
    },
    {
      "constant": true,
      "inputs": [],
      "name": "promissoryAddr",
      "outputs": [
        {
          "name": "",
          "type": "address"
        }
      ],
      "payable": false,
      "stateMutability": "view",
      "type": "function"
    },
    {
      "constant": true,
      "inputs": [
        {
          "name": "",
          "type": "bytes4"
        }
      ],
      "name": "TokenReferrals",
      "outputs": [
        {
          "name": "hash",
          "type": "bytes4"
        },
        {
          "name": "addr",
          "type": "address"
        },
        {
          "name": "totalReferrals",
          "type": "uint256"
        },
        {
          "name": "totalTokensEarned",
          "type": "uint256"
        }
      ],
      "payable": false,
      "stateMutability": "view",
      "type": "function"
    },
    {
      "constant": true,
      "inputs": [
        {
          "name": "",
          "type": "uint256"
        }
      ],
      "name": "CurrentBidders",
      "outputs": [
        {
          "name": "addr",
          "type": "address"
        },
        {
          "name": "amount",
          "type": "uint256"
        }
      ],
      "payable": false,
      "stateMutability": "view",
      "type": "function"
    },
    {
      "constant": false,
      "inputs": [
        {
          "name": "_ceiling",
          "type": "uint256"
        },
        {
          "name": "_priceFactor",
          "type": "uint256"
        }
      ],
      "name": "changeSettings",
      "outputs": [],
      "payable": false,
      "stateMutability": "nonpayable",
      "type": "function"
    },
    {
      "constant": true,
      "inputs": [],
      "name": "calcTokenPrice",
      "outputs": [
        {
          "name": "",
          "type": "uint256"
        }
      ],
      "payable": false,
      "stateMutability": "view",
      "type": "function"
    },
    {
      "constant": true,
      "inputs": [],
      "name": "claimedTokenReferral",
      "outputs": [
        {
          "name": "",
          "type": "uint256"
        }
      ],
      "payable": false,
      "stateMutability": "view",
      "type": "function"
    },
    {
      "constant": true,
      "inputs": [],
      "name": "totalEthEarnedByPartners",
      "outputs": [
        {
          "name": "",
          "type": "uint256"
        }
      ],
      "payable": false,
      "stateMutability": "view",
      "type": "function"
    },
    {
      "constant": true,
      "inputs": [],
      "name": "startBlock",
      "outputs": [
        {
          "name": "",
          "type": "uint256"
        }
      ],
      "payable": false,
      "stateMutability": "view",
      "type": "function"
    },
    {
      "constant": true,
      "inputs": [],
      "name": "KittieFightToken",
      "outputs": [
        {
          "name": "",
          "type": "address"
        }
      ],
      "payable": false,
      "stateMutability": "view",
      "type": "function"
    },
    {
      "constant": true,
      "inputs": [
        {
          "name": "",
          "type": "address"
        }
      ],
      "name": "bids",
      "outputs": [
        {
          "name": "",
          "type": "uint256"
        }
      ],
      "payable": false,
      "stateMutability": "view",
      "type": "function"
    },
    {
      "constant": false,
      "inputs": [
        {
          "name": "_kittieToken",
          "type": "address"
        }
      ],
      "name": "setup",
      "outputs": [],
      "payable": false,
      "stateMutability": "nonpayable",
      "type": "function"
    },
    {
      "constant": false,
      "inputs": [],
      "name": "startAuction",
      "outputs": [],
      "payable": false,
      "stateMutability": "nonpayable",
      "type": "function"
    },
    {
      "constant": true,
      "inputs": [],
      "name": "Referrals",
      "outputs": [
        {
          "name": "",
          "type": "uint256"
        }
      ],
      "payable": false,
      "stateMutability": "view",
      "type": "function"
    },
    {
      "constant": true,
      "inputs": [],
      "name": "WAITING_PERIOD",
      "outputs": [
        {
          "name": "",
          "type": "uint256"
        }
      ],
      "payable": false,
      "stateMutability": "view",
      "type": "function"
    },
    {
      "constant": true,
      "inputs": [],
      "name": "TOTAL_BONUS_TOKEN",
      "outputs": [
        {
          "name": "",
          "type": "uint256"
        }
      ],
      "payable": false,
      "stateMutability": "view",
      "type": "function"
    },
    {
      "constant": true,
      "inputs": [],
      "name": "ceiling",
      "outputs": [
        {
          "name": "",
          "type": "uint256"
        }
      ],
      "payable": false,
      "stateMutability": "view",
      "type": "function"
    },
    {
      "constant": true,
      "inputs": [
        {
          "name": "",
          "type": "address"
        }
      ],
      "name": "SuperDAOTokens",
      "outputs": [
        {
          "name": "",
          "type": "uint256"
        }
      ],
      "payable": false,
      "stateMutability": "view",
      "type": "function"
    },
    {
      "constant": true,
      "inputs": [],
      "name": "owner",
      "outputs": [
        {
          "name": "",
          "type": "address"
        }
      ],
      "payable": false,
      "stateMutability": "view",
      "type": "function"
    },
    {
      "constant": true,
      "inputs": [
        {
          "name": "",
          "type": "bytes4"
        }
      ],
      "name": "SocialCampaigns",
      "outputs": [
        {
          "name": "hash",
          "type": "bytes4"
        },
        {
          "name": "maxParticipators",
          "type": "uint256"
        },
        {
          "name": "tokenAmountForEach",
          "type": "uint256"
        }
      ],
      "payable": false,
      "stateMutability": "view",
      "type": "function"
    },
    {
      "constant": true,
      "inputs": [
        {
          "name": "",
          "type": "uint256"
        }
      ],
      "name": "TokenReferalList",
      "outputs": [
        {
          "name": "",
          "type": "address"
        }
      ],
      "payable": false,
      "stateMutability": "view",
      "type": "function"
    },
    {
      "constant": true,
      "inputs": [],
      "name": "pWallet",
      "outputs": [
        {
          "name": "",
          "type": "address"
        }
      ],
      "payable": false,
      "stateMutability": "view",
      "type": "function"
    },
    {
      "constant": false,
      "inputs": [
        {
          "name": "receiver",
          "type": "address"
        }
      ],
      "name": "bid",
      "outputs": [
        {
          "name": "amount",
          "type": "uint256"
        }
      ],
      "payable": true,
      "stateMutability": "payable",
      "type": "function"
    },
    {
      "constant": true,
      "inputs": [],
      "name": "totalReceived",
      "outputs": [
        {
          "name": "",
          "type": "uint256"
        }
      ],
      "payable": false,
      "stateMutability": "view",
      "type": "function"
    },
    {
      "constant": true,
      "inputs": [],
      "name": "finalPrice",
      "outputs": [
        {
          "name": "",
          "type": "uint256"
        }
      ],
      "payable": false,
      "stateMutability": "view",
      "type": "function"
    },
    {
      "constant": true,
      "inputs": [],
      "name": "stage",
      "outputs": [
        {
          "name": "",
          "type": "uint8"
        }
      ],
      "payable": false,
      "stateMutability": "view",
      "type": "function"
    },
    {
      "constant": false,
      "inputs": [],
      "name": "updateStage",
      "outputs": [
        {
          "name": "",
          "type": "uint8"
        }
      ],
      "payable": false,
      "stateMutability": "nonpayable",
      "type": "function"
    },
    {
      "constant": true,
      "inputs": [],
      "name": "ONE",
      "outputs": [
        {
          "name": "",
          "type": "uint256"
        }
      ],
      "payable": false,
      "stateMutability": "view",
      "type": "function"
    },
    {
      "constant": true,
      "inputs": [],
      "name": "PromissoryTokenIns",
      "outputs": [
        {
          "name": "",
          "type": "address"
        }
      ],
      "payable": false,
      "stateMutability": "view",
      "type": "function"
    },
    {
      "constant": true,
      "inputs": [],
      "name": "Partners",
      "outputs": [
        {
          "name": "",
          "type": "uint256"
        }
      ],
      "payable": false,
      "stateMutability": "view",
      "type": "function"
    },
    {
      "constant": false,
      "inputs": [],
      "name": "calcCurrentTokenPrice",
      "outputs": [
        {
          "name": "",
          "type": "uint256"
        }
      ],
      "payable": false,
      "stateMutability": "nonpayable",
      "type": "function"
    },
    {
      "constant": true,
      "inputs": [],
      "name": "calcStopPrice",
      "outputs": [
        {
          "name": "",
          "type": "uint256"
        }
      ],
      "payable": false,
      "stateMutability": "view",
      "type": "function"
    },
    {
      "constant": false,
      "inputs": [
        {
          "name": "receiver",
          "type": "address"
        }
      ],
      "name": "claimTokens",
      "outputs": [],
      "payable": false,
      "stateMutability": "nonpayable",
      "type": "function"
    },
    {
      "constant": true,
      "inputs": [],
      "name": "priceFactor",
      "outputs": [
        {
          "name": "",
          "type": "uint256"
        }
      ],
      "payable": false,
      "stateMutability": "view",
      "type": "function"
    },
    {
      "constant": true,
      "inputs": [
        {
          "name": "",
          "type": "bytes4"
        }
      ],
      "name": "MarketingPartners",
      "outputs": [
        {
          "name": "hash",
          "type": "bytes4"
        },
        {
          "name": "addr",
          "type": "address"
        },
        {
          "name": "totalReferrals",
          "type": "uint256"
        },
        {
          "name": "totalContribution",
          "type": "uint256"
        },
        {
          "name": "percentage",
          "type": "uint256"
        },
        {
          "name": "EthEarned",
          "type": "uint256"
        }
      ],
      "payable": false,
      "stateMutability": "view",
      "type": "function"
    },
    {
      "constant": true,
      "inputs": [],
      "name": "Social",
      "outputs": [
        {
          "name": "",
          "type": "uint256"
        }
      ],
      "payable": false,
      "stateMutability": "view",
      "type": "function"
    },
    {
      "constant": true,
      "inputs": [],
      "name": "MAX_TOKEN_SOCIAL",
      "outputs": [
        {
          "name": "",
          "type": "uint256"
        }
      ],
      "payable": false,
      "stateMutability": "view",
      "type": "function"
    },
    {
      "inputs": [
        {
          "name": "_pWallet",
          "type": "address"
        },
        {
          "name": "_ceiling",
          "type": "uint256"
        },
        {
          "name": "_priceFactor",
          "type": "uint256"
        }
      ],
      "payable": false,
      "stateMutability": "nonpayable",
      "type": "constructor"
    },
    {
      "anonymous": false,
      "inputs": [
        {
          "indexed": false,
          "name": "_partnerHash",
          "type": "bytes4"
        },
        {
          "indexed": false,
          "name": "_addr",
          "type": "address"
        },
        {
          "indexed": false,
          "name": "_amount",
          "type": "uint256"
        }
      ],
      "name": "PartnerReferral",
      "type": "event"
    },
    {
      "anonymous": false,
      "inputs": [
        {
          "indexed": false,
          "name": "_campaignHash",
          "type": "bytes4"
        },
        {
          "indexed": false,
          "name": "_addr",
          "type": "address"
        },
        {
          "indexed": false,
          "name": "_amount",
          "type": "uint256"
        }
      ],
      "name": "SocialReferral",
      "type": "event"
    },
    {
      "anonymous": false,
      "inputs": [
        {
          "indexed": false,
          "name": "_campaignHash",
          "type": "bytes4"
        },
        {
          "indexed": false,
          "name": "_addr",
          "type": "address"
        },
        {
          "indexed": false,
          "name": "_amount",
          "type": "uint256"
        }
      ],
      "name": "TokenReferral",
      "type": "event"
    },
    {
      "anonymous": false,
      "inputs": [
        {
          "indexed": false,
          "name": "_hash",
          "type": "bytes4"
        },
        {
          "indexed": false,
          "name": "_addr",
          "type": "address"
        },
        {
          "indexed": false,
          "name": "_amount",
          "type": "uint256"
        }
      ],
      "name": "BidEvent",
      "type": "event"
    },
    {
      "anonymous": false,
      "inputs": [
        {
          "indexed": false,
          "name": "_type",
          "type": "uint256"
        }
      ],
      "name": "SetupReferal",
      "type": "event"
    },
    {
      "anonymous": false,
      "inputs": [
        {
          "indexed": false,
          "name": "_campaignHash",
          "type": "bytes4"
        },
        {
          "indexed": false,
          "name": "_addr",
          "type": "address"
        },
        {
          "indexed": false,
          "name": "_userName",
          "type": "bytes32"
        }
      ],
      "name": "ConfirmSocial",
      "type": "event"
    },
    {
      "anonymous": false,
      "inputs": [
        {
          "indexed": false,
          "name": "_campaignHash",
          "type": "bytes4"
        },
        {
          "indexed": false,
          "name": "_addr",
          "type": "address"
        },
        {
          "indexed": false,
          "name": "_userName",
          "type": "bytes32"
        }
      ],
      "name": "AdminRemoveBatch",
      "type": "event"
    },
    {
      "anonymous": false,
      "inputs": [
        {
          "indexed": false,
          "name": "_Hash",
          "type": "bytes4"
        },
        {
          "indexed": false,
          "name": "_addr",
          "type": "address"
        }
      ],
      "name": "ReferalSignup",
      "type": "event"
    },
    {
      "anonymous": false,
      "inputs": [
        {
          "indexed": false,
          "name": "_Hash",
          "type": "bytes4"
        },
        {
          "indexed": false,
          "name": "_addr",
          "type": "address"
        },
        {
          "indexed": false,
          "name": "success",
          "type": "bool"
        }
      ],
      "name": "ClaimtokenBonus",
      "type": "event"
    },
    {
      "anonymous": false,
      "inputs": [
        {
          "indexed": true,
          "name": "sender",
          "type": "address"
        },
        {
          "indexed": false,
          "name": "amount",
          "type": "uint256"
        }
      ],
      "name": "BidSubmission",
      "type": "event"
    },
    {
      "anonymous": false,
      "inputs": [
        {
          "indexed": false,
          "name": "_data",
          "type": "bytes"
        },
        {
          "indexed": false,
          "name": "_lengt",
          "type": "uint256"
        }
      ],
      "name": "logPayload",
      "type": "event"
    },
    {
      "constant": false,
      "inputs": [
        {
          "name": "_addr",
          "type": "address"
        }
      ],
      "name": "setAdmin",
      "outputs": [
        {
          "name": "success",
          "type": "bool"
        }
      ],
      "payable": false,
      "stateMutability": "nonpayable",
      "type": "function"
    },
    {
      "constant": false,
      "inputs": [
        {
          "name": "_addr",
          "type": "address"
        }
      ],
      "name": "removeAdmin",
      "outputs": [
        {
          "name": "success",
          "type": "bool"
        }
      ],
      "payable": false,
      "stateMutability": "nonpayable",
      "type": "function"
    },
    {
      "constant": false,
      "inputs": [
        {
          "name": "_addr",
          "type": "address"
        },
        {
          "name": "_percentage",
          "type": "uint256"
        },
        {
          "name": "_type",
          "type": "uint256"
        },
        {
          "name": "_tokenAmt",
          "type": "uint256"
        },
        {
          "name": "_numUsers",
          "type": "uint256"
        }
      ],
      "name": "setupReferal",
      "outputs": [
        {
          "name": "successmessage",
          "type": "string"
        }
      ],
      "payable": false,
      "stateMutability": "nonpayable",
      "type": "function"
    },
    {
      "constant": false,
      "inputs": [],
      "name": "referralSignup",
      "outputs": [
        {
          "name": "referalhash",
          "type": "bytes4"
        }
      ],
      "payable": false,
      "stateMutability": "nonpayable",
      "type": "function"
    },
    {
      "constant": false,
      "inputs": [
        {
          "name": "_receiver",
          "type": "address"
        },
        {
          "name": "_hash",
          "type": "bytes4"
        }
      ],
      "name": "bidReferral",
      "outputs": [
        {
          "name": "",
          "type": "uint256"
        }
      ],
      "payable": true,
      "stateMutability": "payable",
      "type": "function"
    },
    {
      "constant": false,
      "inputs": [
        {
          "name": "_campaignHash",
          "type": "bytes4"
        },
        {
          "name": "_userName",
          "type": "bytes32"
        },
        {
          "name": "_retweetOrdiscord",
          "type": "bytes32"
        }
      ],
      "name": "confirmSocial",
      "outputs": [
        {
          "name": "",
          "type": "uint256"
        }
      ],
      "payable": false,
      "stateMutability": "nonpayable",
      "type": "function"
    },
    {
      "constant": false,
      "inputs": [
        {
          "name": "_campaignHash",
          "type": "bytes4"
        },
        {
          "name": "_batchList",
          "type": "address[]"
        }
      ],
      "name": "adminRemoveBatch",
      "outputs": [
        {
          "name": "",
          "type": "uint256"
        }
      ],
      "payable": false,
      "stateMutability": "nonpayable",
      "type": "function"
    },
    {
      "constant": false,
      "inputs": [
        {
          "name": "_amount",
          "type": "uint256"
        },
        {
          "name": "_percent",
          "type": "uint256"
        }
      ],
      "name": "referalPercentage",
      "outputs": [
        {
          "name": "",
          "type": "uint256"
        }
      ],
      "payable": false,
      "stateMutability": "nonpayable",
      "type": "function"
    },
    {
      "constant": false,
      "inputs": [
        {
          "name": "_campaignHash",
          "type": "bytes4"
        }
      ],
      "name": "claimtokenBonus",
      "outputs": [
        {
          "name": "success",
          "type": "bool"
        }
      ],
      "payable": false,
      "stateMutability": "nonpayable",
      "type": "function"
    },
    {
      "constant": false,
      "inputs": [
        {
          "name": "_unsoldTokens",
          "type": "uint256"
        },
        {
          "name": "_addr",
          "type": "address"
        }
      ],
      "name": "transferUnsoldTokens",
      "outputs": [],
      "payable": false,
      "stateMutability": "nonpayable",
      "type": "function"
    },
    {
      "constant": true,
      "inputs": [
        {
          "name": "_hash",
          "type": "bytes4"
        },
        {
          "name": "_amount",
          "type": "uint256"
        }
      ],
      "name": "tokenAmountPerReferred",
      "outputs": [
        {
          "name": "tokenAmount",
          "type": "uint256"
        }
      ],
      "payable": false,
      "stateMutability": "view",
      "type": "function"
    },
    {
      "constant": true,
      "inputs": [],
      "name": "getCurrentBiddersCount",
      "outputs": [
        {
          "name": "biddersCount",
          "type": "uint256"
        }
      ],
      "payable": false,
      "stateMutability": "view",
      "type": "function"
    },
    {
      "constant": true,
      "inputs": [],
      "name": "calculatPersonalHash",
      "outputs": [
        {
          "name": "_hash",
          "type": "bytes4"
        }
      ],
      "payable": false,
      "stateMutability": "view",
      "type": "function"
    },
    {
      "constant": true,
      "inputs": [
        {
          "name": "_addr",
          "type": "address"
        }
      ],
      "name": "calculateCampaignHash",
      "outputs": [
        {
          "name": "_hash",
          "type": "bytes4"
        }
      ],
      "payable": false,
      "stateMutability": "view",
      "type": "function"
    },
    {
      "constant": false,
      "inputs": [
        {
          "name": "_promissoryAddr",
          "type": "address"
        }
      ],
      "name": "setPromissoryTokenInstance",
      "outputs": [],
      "payable": false,
      "stateMutability": "nonpayable",
      "type": "function"
    }
  ],
  "bytecode": "0x60806040526000600c556000600d556000600e5534801561001f57600080fd5b5060405160608062002fad833981016040908152815160208301519190920151828282600160a060020a0383161580610056575081155b8061005f575080155b1561006957600080fd5b60028054600160a060020a03199081163317909155600380548216730348b55abd6e1a99c6ebc972a6a4582ec0bceb5c17905560008054600160a060020a039590951694909116939093178355600491909155600555600b805460ff19169055612ed09350839250620000dd9150396000f30060806040526004361061028e5763ffffffff60e060020a60003504166212fb9b81146102935780630d894db0146102ba5780630ec6d58a146102db5780631785f53c1461031057806317f5de95146103315780631ef554a31461034657806320269ed11461037a57806320eb5fb81461038f578063310477f9146103b75780633197cbb6146103d257806333a42d10146103e75780633455b088146103fc57806334b102fb1461045757806335d005b81461047c57806336d02c94146104b757806339f64b52146104d4578063401260da146104e9578063406faf821461050d578063442b38551461052257806348cd4cb1146105375780635fcee4581461054c57806362ea82db1461056157806366d38203146105825780636b64c769146105a35780636f20befd146105b85780636f85c7e4146105cd578063701a1f0c146105e2578063704b6c02146105f7578063753ed1bd146106185780637ae4d7281461062d5780638da5cb5b1461064e5780638fdd817c14610663578063921096b51461069557806394aa3b2d146106e05780639866845d146106f85780639b44d39a1461070d5780639b6a1af0146107af5780639cf5453d146107c4578063a3c2c462146107d8578063a6b513ee146107ed578063bb07ca7f14610802578063c040e6b814610823578063c062f5781461085c578063c2ee3a0814610871578063c813a04914610886578063cf760634146108ea578063d1fa9cad14610871578063d9f8a4e2146108ff578063dd9dd68814610914578063df8de3e714610929578063dfb2866d1461094a578063e8ccd1c61461095f578063ee09637c146109c7578063f1f737ab146109e9578063f65bf87c146109fe578063fa03690414610a13578063fb32112914610a28575b600080fd5b34801561029f57600080fd5b506102a8610a49565b60408051918252519081900360200190f35b6102a8600160a060020a0360043516600160e060020a031960243516610a4f565b3480156102e757600080fd5b506102fc600160a060020a03600435166111c3565b604080519115158252519081900360200190f35b34801561031c57600080fd5b506102fc600160a060020a03600435166111d8565b34801561033d57600080fd5b506102a8611217565b34801561035257600080fd5b5061035e600435611226565b60408051600160a060020a039092168252519081900360200190f35b34801561038657600080fd5b506102a861124e565b34801561039b57600080fd5b506102a8600160e060020a03196004351660243560443561125d565b3480156103c357600080fd5b506102a8600435602435611648565b3480156103de57600080fd5b506102a8611671565b3480156103f357600080fd5b5061035e611677565b34801561040857600080fd5b5061041e600160e060020a03196004351661168f565b60408051600160e060020a03199095168552600160a060020a039093166020850152838301919091526060830152519081900360800190f35b34801561046357600080fd5b506102a8600160e060020a0319600435166024356116c9565b34801561048857600080fd5b506104946004356116f5565b60408051600160a060020a03909316835260208301919091528051918290030190f35b3480156104c357600080fd5b506104d260043560243561172b565b005b3480156104e057600080fd5b506102a861176c565b3480156104f557600080fd5b506104d2600435600160a060020a0360243516611797565b34801561051957600080fd5b506102a8611880565b34801561052e57600080fd5b506102a8611886565b34801561054357600080fd5b506102a861188c565b34801561055857600080fd5b5061035e611892565b34801561056d57600080fd5b506102a8600160a060020a03600435166118a1565b34801561058e57600080fd5b506104d2600160a060020a03600435166118b3565b3480156105af57600080fd5b506104d26119da565b3480156105c457600080fd5b506102a8611a23565b3480156105d957600080fd5b506102a8611a28565b3480156105ee57600080fd5b506102a8611a2f565b34801561060357600080fd5b506102fc600160a060020a0360043516611a3e565b34801561062457600080fd5b506102a8611a81565b34801561063957600080fd5b506102a8600160a060020a0360043516611a87565b34801561065a57600080fd5b5061035e611a99565b34801561066f57600080fd5b50610678611aa8565b60408051600160e060020a03199092168252519081900360200190f35b3480156106a157600080fd5b506106b7600160e060020a031960043516611b39565b60408051600160e060020a03199094168452602084019290925282820152519081900360600190f35b3480156106ec57600080fd5b5061035e600435611b61565b34801561070457600080fd5b5061035e611b6f565b34801561071957600080fd5b5061073a600160a060020a0360043516602435604435606435608435611b7e565b6040805160208082528351818301528351919283929083019185019080838360005b8381101561077457818101518382015260200161075c565b50505050905090810190601f1680156107a15780820380516001836020036101000a031916815260200191505b509250505060405180910390f35b3480156107bb57600080fd5b50610678611dca565b6102a8600160a060020a0360043516611f3b565b3480156107e457600080fd5b506102a861211b565b3480156107f957600080fd5b506102a8612121565b34801561080e57600080fd5b50610678600160a060020a0360043516612127565b34801561082f57600080fd5b506108386121cc565b6040518082600481111561084857fe5b60ff16815260200191505060405180910390f35b34801561086857600080fd5b506108386121d5565b34801561087d57600080fd5b506102a8612255565b34801561089257600080fd5b506040805160206004602480358281013584810280870186019097528086526102a8968435600160e060020a0319169636966044959194909101929182918501908490808284375094975061225a9650505050505050565b3480156108f657600080fd5b5061035e61243b565b34801561090b57600080fd5b506102a861244a565b34801561092057600080fd5b506102a861250a565b34801561093557600080fd5b506104d2600160a060020a036004351661252c565b34801561095657600080fd5b506102a8612782565b34801561096b57600080fd5b50610981600160e060020a031960043516612788565b60408051600160e060020a03199097168752600160a060020a039095166020870152858501939093526060850191909152608084015260a0830152519081900360c00190f35b3480156109d357600080fd5b506102fc600160e060020a0319600435166127cc565b3480156109f557600080fd5b506102a8612c15565b348015610a0a57600080fd5b506102a8612c1a565b348015610a1f57600080fd5b506102a8612c20565b348015610a3457600080fd5b506104d2600160a060020a0360043516612c2e565b600d5481565b600080600080610a5d612e3f565b349350600360009054906101000a9004600160a060020a0316600160a060020a031663053f14da6040518163ffffffff1660e060020a028152600401602060405180830381600087803b158015610ab357600080fd5b505af1158015610ac7573d6000803e3d6000fd5b505050506040513d6020811015610add57600080fd5b50516008546004549194509003841115610afb576008546004540393505b83610b0588611f3b565b14610b0f57600080fd5b600160a060020a0387168152346020820181905291508282811515610b3057fe5b336000818152600f6020908152604080832080549690950490950190935560168054600181018255915284517fd833147d7dc355ba459fc788f669e58cfaf9dc25ddcd0702e87d69c7b51242896002909202918201805473ffffffffffffffffffffffffffffffffffffffff1916600160a060020a03909216919091179055848301517fd833147d7dc355ba459fc788f669e58cfaf9dc25ddcd0702e87d69c7b512428a909101558251600160e060020a03198a1681529182015280820184905290517fd0ea45955ff6d9ae1d964ca3279eed0f08617f1f1201611bfb2d5efaaaf12dd7916060908290030190a1600160e060020a031980871660008181526012602052604090205460e060020a029091161415610f6857600160e060020a03198616600081815260126020908152604082206001818101805482019055600282018054880190556003820180549182018155845291832090910185905591905260040154610ca0908390611648565b600160e060020a03198716600090815260126020526040902060058101805490920190915560040154610cd4908390611648565b600e80549091019055600c546a017d2a320dd745550000001115610ef557600160e060020a031986166000908152601360205260409020600190810180549091019055670de0b6b3a76400003410801590610d3757506729a2241af62c00003411155b15610dbf57600160e060020a03198616600081815260136020818152604080842087855260038101835281852068056bc75e2d6310000090819055948690529282526002909201805484019055600c80549093019092558051928352339183019190915281810184905251600080516020612e858339815191529181900360600190a1610ef5565b6729a2241af62c000034118015610dde57506753444835ec5800003411155b15610e6657600160e060020a031986166000818152601360208181526040808420878552600381018352818520681b1ae4d6e2ef50000090819055948690529282526002909201805484019055600c80549093019092558051928352339183019190915281810184905251600080516020612e858339815191529181900360600190a1610ef5565b6753444835ec580000341115610ef557600160e060020a031986166000818152601360208181526040808420878552600381018352818520683635c9adc5dea0000090819055948690529282526002909201805484019055600c80549093019092558051928352339183019190915281810184905251600080516020612e858339815191529181900360600190a15b600160e060020a03198616600081815260126020908152604091829020548251938452600160a060020a036401000000009091041690830152818101849052517f1bbad3ec2950e7a72214d38589df066a71b1dd23bf7a28f54482f992ea66ad0b9181900360600190a1600194506111b9565b600160e060020a031980871660008181526013602052604090205460e060020a02909116148015610fa557506a017d2a320dd74555000000600c54105b156111b957600160e060020a031986166000908152601360205260409020600190810180549091019055670de0b6b3a76400003410801590610fef57506729a2241af62c00003411155b1561107b57600160e060020a03198616600081815260136020818152604080842087855260038101835281852068056bc75e2d6310000090819055948690529282526002909201805484019055600c80549093019092558051928352339183019190915281810184905251600080516020612e858339815191529181900360600190a1600294506111b9565b6729a2241af62c00003411801561109a57506753444835ec5800003411155b1561112657600160e060020a031986166000818152601360208181526040808420878552600381018352818520681b1ae4d6e2ef50000090819055948690529282526002909201805484019055600c80549093019092558051928352339183019190915281810184905251600080516020612e858339815191529181900360600190a1600294506111b9565b6753444835ec5800003411156111b957600160e060020a031986166000818152601360208181526040808420878552600381018352818520683635c9adc5dea0000090819055948690529282526002909201805484019055600c80549093019092558051928352339183019190915281810184905251600080516020612e858339815191529181900360600190a1600294505b5050505092915050565b60156020526000908152604090205460ff1681565b600254600090600160a060020a031633146111f257600080fd5b50600160a060020a03166000908152601560205260409020805460ff19169055600190565b6a084595161401484a00000081565b601080548290811061123457fe5b600091825260209091200154600160a060020a0316905081565b6a017d2a320dd7455500000081565b600080611268612e56565b600d54692a5a058fc295ed0000001161128057600080fd5b858560005b600160e060020a031983166000908152601460205260409020600201548110156112fd57600160e060020a0319831660009081526014602052604090206002018054839190839081106112d457fe5b9060005260206000209060050201600401546000191614156112f557600080fd5b600101611285565b600160e060020a031989166000818152601460208181526040808420338552600481018352908420549490935252600201549095501561138557600160e060020a03198916600090815260146020526040902060020180548690811061135f57fe5b6000918252602090912060059091020154600160a060020a031633141561138557600080fd5b600160e060020a0319891660009081526014602052604090206001810154600290910154106113b357600080fd5b338460000190600160a060020a03169081600160a060020a0316815250508684602001906000191690816000191681525050601460008a600160e060020a031916600160e060020a03191681526020019081526020016000206006015484604001818152505060018460600190151590811515815250508784608001906000191690816000191681525050601460008a600160e060020a031916600160e060020a031916815260200190815260200160002060020180549050601460008b600160e060020a031916600160e060020a0319168152602001908152602001600020600401600033600160a060020a0316600160a060020a0316815260200190815260200160002081905550601460008a600160e060020a031916600160e060020a0319168152602001908152602001600020600201849080600181540180825580915050906001820390600052602060002090600502016000909192909190915060008201518160000160006101000a815481600160a060020a030219169083600160a060020a03160217905550602082015181600101906000191690556040820151816002015560608201518160030160006101000a81548160ff02191690831515021790555060808201518160040190600019169055505050601460008a600160e060020a031916600160e060020a031916815260200190815260200160002060060154600d600082825401925050819055507ff3de28df83f7b759b240d7e5efadffda13223c2c16d5f477504e9738ce52c7e789338a6040518084600160e060020a031916600160e060020a031916815260200183600160a060020a0316600160a060020a031681526020018260001916600019168152602001935050505060405180910390a150505050509392505050565b600061166a61166461165d8560648106612c74565b6064612c86565b83612ca2565b9392505050565b60075481565b730348b55abd6e1a99c6ebc972a6a4582ec0bceb5c81565b60136020526000908152604090208054600182015460029092015460e060020a820292640100000000909204600160a060020a0316919084565b600160e060020a0319909116600090815260136020908152604080832093835260039093019052205490565b601680548290811061170357fe5b600091825260209091206002909102018054600190910154600160a060020a03909116915082565b600054600160a060020a0316331461174257600080fd5b600180600b5460ff16600481111561175657fe5b1461176057600080fd5b50600491909155600555565b60006006544303611d4c01600554670de0b6b3a76400000281151561178d57fe5b0460010190505b90565b6002546000908190600160a060020a031633146117b357600080fd5b600954600854670de0b6b3a7640000028115156117cc57fe5b04915081600d54600c546a084595161401484a000000010103905080841015156117f557600080fd5b6001546040805160e060020a63a9059cbb028152600160a060020a038681166004830152602482018890529151919092169163a9059cbb9160448083019260209291908290030181600087803b15801561184e57600080fd5b505af1158015611862573d6000803e3d6000fd5b505050506040513d602081101561187857600080fd5b505050505050565b600c5481565b600e5481565b60065481565b600154600160a060020a031681565b600a6020526000908152604090205481565b600254600160a060020a031633146118ca57600080fd5b600080600b5460ff1660048111156118de57fe5b146118e857600080fd5b600160a060020a03821615156118fd57600080fd5b6001805473ffffffffffffffffffffffffffffffffffffffff1916600160a060020a038481169190911791829055604080517f70a0823100000000000000000000000000000000000000000000000000000000815230600482015290516a084595161401484a00000093909216916370a08231916024808201926020929091908290030181600087803b15801561199357600080fd5b505af11580156119a7573d6000803e3d6000fd5b505050506040513d60208110156119bd57600080fd5b5051146119c957600080fd5b5050600b805460ff19166001179055565b600254600160a060020a031633146119f157600080fd5b600180600b5460ff166004811115611a0557fe5b14611a0f57600080fd5b50600b805460ff1916600217905543600655565b600281565b623b538081565b6a01a784379d99db4200000081565b600254600090600160a060020a03163314611a5857600080fd5b50600160a060020a03166000908152601560205260409020805460ff1916600190811790915590565b60045481565b600f6020526000908152604090205481565b600254600160a060020a031681565b604080516c010000000000000000000000003302602080830191909152825180830360140181526034909201928390528151600093918291908401908083835b60208310611b075780518252601f199092019160209182019101611ae8565b6001836020036101000a0380198251168184511680821785525050505050509050019150506040518091039020905090565b60146020526000908152604090208054600182015460069092015460e060020a909102919083565b601180548290811061123457fe5b600054600160a060020a031681565b600254606090600090600160a060020a03163314611b9b57600080fd5b604080516c01000000000000000000000000600160a060020a038a1681026020808401919091523391909102603483015282516028818403018152604890920192839052815191929182918401908083835b60208310611c0c5780518252601f199092019160209182019101611bed565b6001836020036101000a038019825116818451168082178552505050505050905001915050604051809103902090506001851415611d1b57600160e060020a031981166000908152601260205260409020805463ffffffff191660e060020a83041777ffffffffffffffffffffffffffffffffffffffff000000001916640100000000600160a060020a038a1602178155600401869055611cac87612ccd565b506040805186815290517f9fec2c68f61f24831aba2d0778fe76e9a54f215039b50e549e0f34745bbe7dc49181900360200190a160408051808201909152601181527f706172746e6572207369676e656420757000000000000000000000000000000060208201529150611dc0565b600160e060020a03198116600090815260146020908152604091829020805463ffffffff191660e060020a850417815560018101869055600601869055815187815291517f9fec2c68f61f24831aba2d0778fe76e9a54f215039b50e549e0f34745bbe7dc49281900390910190a160408051808201909152601781527f736f6369616c2063616d706169676e2073746172746564000000000000000000602082015291505b5095945050505050565b6000806a017d2a320dd74555000000600c54101515611de857600080fd5b604080516c01000000000000000000000000330260208083019190915282518083036014018152603490920192839052815191929182918401908083835b60208310611e455780518252601f199092019160209182019101611e26565b51815160209384036101000a60001901801990921691161790526040805192909401829003909120600160e060020a031980821660008181526013909452949092205490965060e060020a0216909114159250611ea491505057600080fd5b600160e060020a03198116600081815260136020908152604091829020805477ffffffffffffffffffffffffffffffffffffffff0000000019163364010000000081029190911763ffffffff191660e060020a870417909155825193845290830152805192935083927f0b46cbed2ca40f09668847cdf0153b6c9c57e162edf9f8f8de1e2f135eefde9f9281900390910190a15090565b600080806002600b5460ff166004811115611f5257fe5b148015611f6d5750611f6261250a565b611f6a61176c565b11155b15611f7a57611f7a612e04565b6003600b5460ff166004811115611f8d57fe5b148015611fa05750623b53806007540142115b15611fb357600b805460ff191660041790555b600280600b5460ff166004811115611fc757fe5b14611fd157600080fd5b600160a060020a0385161515611fe5573394505b349350600854611ff361176c565b670de0b6b3a76400006a084595161401484a000000040203925060085460045403915082821015612022578192505b828411156120625782935084600160a060020a03166108fc8534039081150290604051600060405180830381858888f19350505050151561206257600080fd5b831580612094575060008054604051600160a060020a039091169186156108fc02918791818181858888f19350505050155b1561209e57600080fd5b600160a060020a0385166000908152600a602052604090208054850190556008805485019055828414156120d4576120d4612e04565b604080518581529051600160a060020a038716917f9c89e828e6cee6374b68147c9e753e41746aad98ba255a527a4fc0ac1868bff9919081900360200190a2505050919050565b60085481565b60095481565b604080516c01000000000000000000000000600160a060020a038416810260208084019190915233919091026034830152825160288184030181526048909201928390528151600093918291908401908083835b6020831061219a5780518252601f19909201916020918201910161217b565b5181516020939093036101000a6000190180199091169216919091179052604051920182900390912095945050505050565b600b5460ff1681565b60006002600b5460ff1660048111156121ea57fe5b14801561220557506121fa61250a565b61220261176c565b11155b1561221257612212612e04565b6003600b5460ff16600481111561222557fe5b1480156122385750623b53806007540142115b1561224b57600b805460ff191660041790555b50600b5460ff1690565b600181565b3360009081526015602052604081205481908190819060ff16151560011461228157600080fd5b600d54692a5a058fc295ed0000001161229957600080fd5b600092505b84518310156124325784838151811015156122b557fe5b6020908102909101810151600160e060020a03198816600081815260148085526040808320600160a060020a03861684526004810187529083205493909252909352600290920180549194509192508290811061230e57fe5b60009182526020808320600592830201805473ffffffffffffffffffffffffffffffffffffffff191681556001808201859055600280830186905560038301805460ff199081169091556004909301869055600160e060020a03198c1680875260148086526040808920600160a060020a038c168a52978801875288208054909516909317909355919094529290526006810154600d80549190910390550180547fe1fca9927dcfa04dc511a8afd2420f434f8adb189883c5efa7edcec94496b2ec918891859190859081106123e057fe5b60009182526020918290206004600590920201015460408051600160e060020a03199095168552600160a060020a039093169184019190915282820152519081900360600190a160019092019161229e565b50505092915050565b600354600160a060020a031681565b60006002600b5460ff16600481111561245f57fe5b14801561247a575061246f61250a565b61247761176c565b11155b1561248757612487612e04565b6003600b5460ff16600481111561249a57fe5b1480156124ad5750623b53806007540142115b156124c057600b805460ff191660041790555b6003600b5460ff1660048111156124d357fe5b14806124ef57506004600b5460ff1660048111156124ed57fe5b145b156124fd5750600954611794565b61250561176c565b905090565b6008546000906a084595161401484a00000090670de0b6b3a76400000261178d565b60007f1731fdc3bb916cb9784ad5d30a3a9c01b6f53ca830447dbfa839dfea7a699e8d6000366000369050604051808060200183815260200182810382528585828181526020019250808284376040519201829003965090945050505050a1600436148061259a5750602436145b151561260757604080517f08c379a000000000000000000000000000000000000000000000000000000000815260206004820152601060248201527f4e6f2076616c6964207061796c6f616400000000000000000000000000000000604482015290519081900360640190fd5b6002600b5460ff16600481111561261a57fe5b148015612635575061262a61250a565b61263261176c565b11155b1561264257612642612e04565b6003600b5460ff16600481111561265557fe5b1480156126685750623b53806007540142115b1561267b57600b805460ff191660041790555b600480600b5460ff16600481111561268f57fe5b1461269957600080fd5b600160a060020a03831615156126ad573392505b600954600160a060020a0384166000908152600a6020526040902054670de0b6b3a7640000028115156126dc57fe5b600160a060020a038086166000818152600a60209081526040808320839055600154815160e060020a63a9059cbb028152600481019590955296909504602484018190529451949750949092169363a9059cbb9360448084019492939192918390030190829087803b15801561275157600080fd5b505af1158015612765573d6000803e3d6000fd5b505050506040513d602081101561277b57600080fd5b5050505050565b60055481565b6012602052600090815260409020805460018201546002830154600484015460059094015460e060020a840294640100000000909404600160a060020a0316939086565b6000808080806002600b5460ff1660048111156127e557fe5b14801561280057506127f561250a565b6127fd61176c565b11155b1561280d5761280d612e04565b6003600b5460ff16600481111561282057fe5b1480156128335750623b53806007540142115b1561284657600b805460ff191660041790555b600480600b5460ff16600481111561285a57fe5b1461286457600080fd5b600160e060020a031987166000908152601460209081526040808320338452600501909152902054879060ff161561289b57600080fd5b600160e060020a0319881660009081526014602081815260408084203380865260049091018352938190205481516c0100000000000000000000000090950285840152815180860390940184526034909401908190528251939950919282918401908083835b602083106129205780518252601f199092019160209182019101612901565b51815160209384036101000a60001901801990921691161790526040805192909401829003909120600160e060020a0319808216600081815260139094529490922054909a5060e060020a02169091149250508115905061299b5750600160e060020a03198516600090815260136020526040812060020154115b15612aa657600160e060020a031985166000908152601360209081526040808320600281018054908590556001549154835160e060020a63a9059cbb028152600160a060020a03640100000000909204821660048201526024810183905293519199509091169363a9059cbb93604480850194919392918390030190829087803b158015612a2857600080fd5b505af1158015612a3c573d6000803e3d6000fd5b505050506040513d6020811015612a5257600080fd5b505060408051600160e060020a03198a16815233602082015260018183015290517f5ceaa24952cb4452b8781e57ea840571d194349b1e39d667878047b83715bab09181900360600190a160019650612c0a565b600160e060020a031988166000908152601460205260409020600201805487908110612ace57fe5b6000918252602090912060059091020154600160a060020a031633148015612b2d5750600160e060020a031988166000908152601460205260408120600201805488908110612b1957fe5b906000526020600020906005020160020154115b15612c0557600160e060020a031988166000908152601460205260409020600201805487908110612b5a57fe5b600091825260208083206002600590930201820154600160e060020a03198c16845260149091526040832090910180549195509088908110612b9857fe5b60009182526020808320600260059093020191909101929092556001546040805160e060020a63a9059cbb028152336004820152602481018890529051600160a060020a039092169363a9059cbb9360448084019492938390030190829087803b158015612a2857600080fd5b600096505b505050505050919050565b600381565b60165490565b692a5a058fc295ed00000081565b600254600160a060020a03163314612c4557600080fd5b6003805473ffffffffffffffffffffffffffffffffffffffff1916600160a060020a0392909216919091179055565b600082821115612c8057fe5b50900390565b6000808284811515612c9457fe5b0490508091505b5092915050565b600080831515612cb55760009150612c9b565b50828202828482811515612cc557fe5b041461166a57fe5b600080826040516020018082600160a060020a0316600160a060020a03166c010000000000000000000000000281526014019150506040516020818303038152906040526040518082805190602001908083835b60208310612d405780518252601f199092019160209182019101612d21565b51815160209384036101000a600019018019909216911617905260408051929094018290038220600160e060020a03198116600081815260138452869020805477ffffffffffffffffffffffffffffffffffffffff00000000191633640100000000021763ffffffff191660e060020a84041790558352600160a060020a038a169183019190915283519097508796507f0b46cbed2ca40f09668847cdf0153b6c9c57e162edf9f8f8de1e2f135eefde9f955090819003909201925050a150919050565b600b805460ff191660031790556004546008541415612e2d57612e2561176c565b600955612e39565b612e3561250a565b6009555b42600755565b604080518082019091526000808252602082015290565b6040805160a08101825260008082526020820181905291810182905260608101829052608081019190915290560000c35fb01c0d5dae78232f9ccceb19b4267e300be89df0f127816a262fd6413fa165627a7a72305820820638da6040bb4b8cfffbfbc36a22c663ff9bc50202b8d079d9ecc834655b010029",
  "source": "pragma solidity ^0.4.23;\nimport \"./DutchAuction.sol\";\nimport \"./SafeMath.sol\";\n\ncontract Dutchwrapper is DutchAuction {\n\n\n    uint constant public MAX_TOKEN_REFERRAL = 1800000 * 10**18; // 800,000 : eight hundred  thousand\n    uint constant public MAX_TOKEN_SOCIAL = 200000 * 10**18; // 200,000 : two hundred thousand\n\n    uint public claimedTokenReferral = 0; // 800,000 : eigth hundred thousand limit\n    uint public claimedSocial = 0; // 200,000 : two  hundred thousand limit\n    uint public totalEthEarnedByPartners = 0; // Partners earning\n\n\n    // 1,000,000 :  1 million: total MAX_TOKEN_REFERRAL + MAX_TOKEN_SOCIAL\n    uint constant public TOTAL_BONUS_TOKEN = 2000000 * 10**18;\n\n\n    uint constant public Partners = 1; // Distinction between promotion groups, partnership for eth\n    uint constant public Referrals = 2; // Distinction between promotion groups, referral campaign for tokens\n    uint constant public Social = 3; // Distinction between promotion groups, social giveaway bonus\n\n    uint constant public ONE = 1; // NUMBER 1\n\n    mapping (address => uint) public SuperDAOTokens; // amount of bonus Superdao Tokens earned per bidder\n    //for participation on auction based on eth bid\n\n    struct PartnerForEth {\n        bytes4 hash; // unique hash for partner\n        address addr; //address for partner\n        uint totalReferrals; // Number of reffered parties\n        uint totalContribution; // total contribution in ETH by reffered parties\n        uint[] individualContribution; // individual contribution list, number of eth per contributor\n        uint percentage; // percentage share for partner of each referral\n        uint EthEarned; // up to date total amount earned\n    }\n\n\taddress [] public PartnersList; // list of partners\n\n    //for token referal campaign\n    struct tokenForReferral {\n        bytes4 hash; // hash of this campaign\n        address addr; // address of this user\n        uint totalReferrals; // total amount of participators refered\n        uint totalTokensEarned; // total tokens earned based on referals\n        mapping(uint => uint) tokenAmountPerReferred;// Amount of tokens earned for each participator referred\n    }\n\n    address [] public TokenReferalList; // list of partners\n\n\n    //Profile for social campaign\n    struct SocialProfile{\n        address addr; // address of this user\n        bytes32 socialAction; // online location of this users social action\n        uint tokensEarned; // total tokens earned based on campaign action\n        bool approved; ///approved or not\n        bytes32 username; //social media username twitter or discord\n    }\n\n    struct TokenforSocial{\n        bytes4 hash; // campaign identifier\n        uint maxParticipators; //  maximum number of participators in this campaign\n        SocialProfile [] SocialLinkProfile; // actual profile of participator with social sharing\n        address [] profileList; // list os addresses of participators\n        mapping(address => uint) index; //address indexes\n        mapping(address => bool) disqualified; //indicate if a user is disqualified or not\n        uint tokenAmountForEach; // amount of tokens allocated to each participator\n    }\n\n    mapping(bytes4 => PartnerForEth )  public MarketingPartners;\n    mapping(bytes4 => tokenForReferral)  public TokenReferrals;\n    mapping(bytes4 => TokenforSocial )  public SocialCampaigns;\n    mapping(address => bool ) public Admins;\n\n    // statistics on the number of bidders\n    struct bidder {\n        address addr;\n        uint amount;\n    }\n\n    bidder [] public CurrentBidders; // document current bidders\n\n\n    event PartnerReferral(bytes4 _partnerHash,address _addr, uint _amount);//fired after marketing partner referral happens\n    event SocialReferral(bytes4 _campaignHash,address _addr, uint _amount);//fired when social action converts to a bid\n    event TokenReferral(bytes4 _campaignHash,address _addr, uint _amount);// fired when token referral happens\n    event BidEvent(bytes4 _hash, address _addr, uint _amount); //fired when a bid happens\n    event SetupReferal(uint _type); //fired when a referal campaign is setup\n    event ConfirmSocial(bytes4 _campaignHash, address _addr, bytes32 _userName); //fired when social promoters confirm social action\n    event AdminRemoveBatch(bytes4 _campaignHash, address _addr, bytes32 _userName); // fired when users are removed from storage\n    event ReferalSignup(bytes4 _Hash, address _addr); // fired when a token promoter signs up\n    event ClaimtokenBonus(bytes4 _Hash, address _addr, bool success); //fired when a person claims earned tokens\n\n\n\n    // check admins\n    modifier isAdmin(){\n        require(Admins[msg.sender] == true);\n        _;\n    }\n\n    //Check if a user has been disqualified by admin\n    modifier isDisqualified(bytes4 _campaignHash){\n        require(SocialCampaigns[_campaignHash].disqualified[msg.sender] == false);\n        _;\n    }\n\n    // check when dutch auction is ended and trading has started\n    modifier tradingstarted(){\n        require(stage == Stages.TradingStarted);\n        _;\n    }\n  \n\n    // uint constant public MAX_TOKEN_REFERRAL = 800000 * 10**18; // 800,000 : eight hundred  thousand\n    // uint constant public MAX_TOKEN_SOCIAL = 200000 * 10**18; // 200,000 : two hundred thousand\n    //\n    // uint public claimedTokenReferral = 0; // 800,000 : eigth hundred thousand limit\n    // uint public claimedSocial = 0; // 200,000 : two  hundred thousand limit\n\n\n    // 1,000,000 :  1 million: total MAX_TOKEN_REFERRAL + MAX_TOKEN_SOCIAL\n    // uint constant public TOTAL_BONUS_TOKEN = 1000000 * 10**18;\n\n\n    // safety check for requiring limits at maximum amount allocated for referrals\n    modifier ReferalCampaignLimit() {\n        require (claimedTokenReferral < MAX_TOKEN_REFERRAL);\n        _;\n    }\n\n    // safety check for requiring limits at maximum amount allocated for social campaign\n    modifier SocialCampaignLimit() {\n        require (claimedSocial< MAX_TOKEN_SOCIAL);\n        _;\n    }\n\n    //reject already rejistered by username\n    modifier checkSocialDuplicates(bytes4 _campaignHash, bytes32 _userName) {\n    \tfor (uint i=0; i<SocialCampaigns[_campaignHash].SocialLinkProfile.length; i++ ) {\n    \t\tif (SocialCampaigns[_campaignHash].SocialLinkProfile[i].username == _userName) {\n    \t\t\trevert();\n    \t\t}\n        }\n    \t_;\n    }\n\n    constructor  (address _pWallet, uint _ceiling, uint _priceFactor)\n        DutchAuction(_pWallet, _ceiling, _priceFactor)  public {\n    }\n\n    //set an address as admin to moderate and check social media campaigns\n    function setAdmin(address _addr) public isOwner returns (bool success){\n        Admins[_addr] = true;\n    \t\t    return true;\n    }\n\n    //remove an address from moderating and checking social media campaigns\n    function removeAdmin(address _addr) public isOwner returns (bool success){\n        Admins[_addr] = false;\n    \t\t    return true;\n    }\n\n\n    // creates either a marketing partnering for eth or a twitter retweet campaign. referal marketing in\n    // exchange for tokens are self generated in referal signup function\n\n    function setupReferal(address _addr, uint _percentage, uint _type, uint _tokenAmt, uint _numUsers)\n        public\n        isOwner\n        returns (string successmessage)\n    {\n\n        bytes4 tempHash = bytes4(keccak256(abi.encodePacked(_addr, msg.sender)));\n\n        if (_type == Partners) {\n\n            MarketingPartners[tempHash].hash = tempHash;\n            MarketingPartners[tempHash].addr = _addr;\n            MarketingPartners[tempHash].percentage = _percentage;\n            InternalReferalSignup(_addr);\n    \t\t    emit SetupReferal(_type);\n            return \"partner signed up\";\n\n        } else {\n\n            SocialCampaigns[tempHash].hash = tempHash;\n            SocialCampaigns[tempHash].maxParticipators = _numUsers;\n            SocialCampaigns[tempHash].tokenAmountForEach = _tokenAmt;\n            emit SetupReferal(_type);\n            return \"social campaign started\";\n        }\n    }\n\n    // generated hash on behalf of partners earning cash and tokensby tokens. referalcampaignlimmit modifier\n    //removed because partner signup it will fail if referal tokens are used up\n    function InternalReferalSignup(address _addr) internal returns (bytes4 referalhash) {\n        bytes4 tempHash = bytes4(keccak256(abi.encodePacked(_addr)));\n        TokenReferrals[tempHash].addr = msg.sender;\n        TokenReferrals[tempHash].hash = tempHash;\n        referalhash = tempHash;\n        emit ReferalSignup(tempHash, _addr);\n    }\n\n\n    // public self generated hash by token earning promoters\n    function referralSignup() public ReferalCampaignLimit returns (bytes4 referalhash) {\n        bytes4 tempHash = bytes4(keccak256(abi.encodePacked(msg.sender)));\n        require (tempHash != TokenReferrals[tempHash].hash); //check prevent overwriting\n        TokenReferrals[tempHash].addr = msg.sender;\n        TokenReferrals[tempHash].hash = tempHash;\n        referalhash = tempHash;\n        emit ReferalSignup(tempHash, msg.sender);\n    }\n\n\n    // Biding using a referral hash\n    function bidReferral(address _receiver, bytes4 _hash) public payable returns (uint) {\n\n        uint bidAmount = msg.value;\n        uint256 promissorytokenLastPrice = PromissoryTokenIns.lastPrice();\n\n\n        if(bidAmount > ceiling - totalReceived) {\n            bidAmount = ceiling - totalReceived;\n        }\n\n        require( bid(_receiver) == bidAmount );\n\n\t\tuint amount = msg.value;\n\t\tbidder memory _bidder;\n\t\t_bidder.addr = _receiver;\n\t\t_bidder.amount = amount;\n        SuperDAOTokens[msg.sender] += amount/promissorytokenLastPrice;\n\t\tCurrentBidders.push(_bidder);\n\n        emit BidEvent(_hash, msg.sender, amount);\n\n        if (_hash == MarketingPartners[_hash].hash) {\n\n            MarketingPartners[_hash].totalReferrals += ONE;\n            MarketingPartners[_hash].totalContribution += amount;\n            MarketingPartners[_hash].individualContribution.push(amount);\n            MarketingPartners[_hash].EthEarned += referalPercentage(amount, MarketingPartners[_hash].percentage);\n\n            totalEthEarnedByPartners += referalPercentage(amount, MarketingPartners[_hash].percentage);\n\n            if(claimedTokenReferral < MAX_TOKEN_REFERRAL){\n            TokenReferrals[_hash].totalReferrals += ONE;\n\n            if( (msg.value >= 1 ether) && (msg.value <= 3 ether) ) {\n              TokenReferrals[_hash].tokenAmountPerReferred[amount] = 100 * 10**18;\n              TokenReferrals[_hash].totalTokensEarned += 100 * 10**18;\n              claimedTokenReferral += 100 * 10**18;\n              emit TokenReferral(_hash ,msg.sender, amount);\n\n\n              } else if ((msg.value > 3 ether)&&(msg.value <= 6 ether)) {\n                  TokenReferrals[_hash].tokenAmountPerReferred[amount] = 500 * 10**18;\n                  TokenReferrals[_hash].totalTokensEarned += 500 * 10**18;\n                  claimedTokenReferral += 500 * 10**18;\n                  emit TokenReferral(_hash ,msg.sender, amount);\n\n\n                  } else if (msg.value > 6 ether) {\n                    TokenReferrals[_hash].tokenAmountPerReferred[amount] = 1000 * 10**18;\n                    TokenReferrals[_hash].totalTokensEarned += 1000 * 10**18;\n                    claimedTokenReferral += 1000 * 10**18;\n                    emit TokenReferral(_hash, msg.sender, amount);\n\n                  }\n                }\n            emit PartnerReferral(_hash, MarketingPartners[_hash].addr, amount);\n\n            return Partners;\n\n          } else if ((_hash == TokenReferrals[_hash].hash) && (claimedTokenReferral < MAX_TOKEN_REFERRAL)) {\n\n        \t\t\tTokenReferrals[_hash].totalReferrals += ONE;\n\n        \t\t\tif( (msg.value >= 1 ether) && (msg.value <= 3 ether) ) {\n        \t\t\t\tTokenReferrals[_hash].tokenAmountPerReferred[amount] = 100 * 10**18;\n        \t\t\t\tTokenReferrals[_hash].totalTokensEarned += 100 * 10**18;\n                claimedTokenReferral += 100 * 10**18;\n        \t\t\t\temit TokenReferral(_hash ,msg.sender, amount);\n        \t\t\t\treturn Referrals;\n\n        \t\t\t\t} else if ((msg.value > 3 ether)&&(msg.value <= 6 ether)) {\n        \t\t\t\t\t\tTokenReferrals[_hash].tokenAmountPerReferred[amount] = 500 * 10**18;\n        \t\t\t\t\t\tTokenReferrals[_hash].totalTokensEarned += 500 * 10**18;\n                    claimedTokenReferral += 500 * 10**18;\n        \t\t\t\t\t\temit TokenReferral(_hash ,msg.sender, amount);\n        \t\t\t\t\t\treturn Referrals;\n\n        \t\t\t\t\t\t} else if (msg.value > 6 ether) {\n        \t\t\t\t\t\t\tTokenReferrals[_hash].tokenAmountPerReferred[amount] = 1000 * 10**18;\n        \t\t\t\t\t\t\tTokenReferrals[_hash].totalTokensEarned += 1000 * 10**18;\n                      claimedTokenReferral += 1000 * 10**18;\n        \t\t\t\t\t\t\temit TokenReferral(_hash, msg.sender, amount);\n        \t\t\t\t\t\t\treturn Referrals;\n        \t\t\t\t\t\t}\n                            }\n\n\n    }\n\n\n\n\tfunction confirmSocial(bytes4 _campaignHash, bytes32 _userName, bytes32 _retweetOrdiscord) public\n\t   SocialCampaignLimit\n\t   checkSocialDuplicates(_campaignHash, _userName)\n    \treturns (uint) {\n\t\t\tuint id = SocialCampaigns[_campaignHash].index[msg.sender];\n\n            if(SocialCampaigns[_campaignHash].SocialLinkProfile.length != 0){\n                require(msg.sender != SocialCampaigns[_campaignHash].SocialLinkProfile[id].addr); //reject already rejistered\n            }\n\n\t\t\trequire(SocialCampaigns[_campaignHash].SocialLinkProfile.length < SocialCampaigns[_campaignHash].maxParticipators);// check token availability\n            SocialProfile memory tempProfile;\n\t\t\ttempProfile.addr = msg.sender;\n \t\t\ttempProfile.socialAction = _retweetOrdiscord; //store social action\n\t\t\ttempProfile.tokensEarned = SocialCampaigns[_campaignHash].tokenAmountForEach;\n\t\t\ttempProfile.approved = true;\n\t\t\ttempProfile.username = _userName;\n\t\t\tSocialCampaigns[_campaignHash].index[msg.sender] = SocialCampaigns[_campaignHash].SocialLinkProfile.length;\n            SocialCampaigns[_campaignHash].SocialLinkProfile.push(tempProfile);\n\t\t\t//SocialCampaigns[_campaignHash].disqualified[tempAddr] = false;\n\n\n\t\t\tclaimedSocial += SocialCampaigns[_campaignHash].tokenAmountForEach;\n\t\t\temit ConfirmSocial(_campaignHash, msg.sender, _userName);\n    }\n\n\n    function adminRemoveBatch(bytes4 _campaignHash, address [] _batchList) public\n        isAdmin\n        SocialCampaignLimit\n        returns (uint) {\n        \t for (uint i=0; i < _batchList.length; i++){\n        \t   address tempAddr = _batchList[i];\n        \t   uint userIndex = SocialCampaigns[_campaignHash].index[tempAddr];\n        \t   delete SocialCampaigns[_campaignHash].SocialLinkProfile[userIndex];\n        \t   SocialCampaigns[_campaignHash].disqualified[tempAddr] = true;\n        \t   claimedSocial -= SocialCampaigns[_campaignHash].tokenAmountForEach;\n        \t   emit AdminRemoveBatch(_campaignHash, tempAddr, SocialCampaigns[_campaignHash].SocialLinkProfile[userIndex].username);\n        }\n    }\n\n\n\n\tfunction referalPercentage(uint _amount, uint _percent)\n\t    public\n\t    returns (uint) {\n            return SafeMath.mul( SafeMath.div( SafeMath.sub(_amount, _amount%100), 100 ), _percent );\n\t}\n\n\n\n  function claimtokenBonus (bytes4 _campaignHash) public\n\ttimedTransitions\n\tatStage(Stages.TradingStarted)\n\tisDisqualified(_campaignHash)\n\treturns (bool success) {\n\n\t \tuint userIndex = SocialCampaigns[_campaignHash].index[msg.sender];\n        bytes4 _personalHash = bytes4(keccak256(abi.encodePacked(msg.sender)));\n\n\t\tif ((_personalHash == TokenReferrals[_personalHash].hash) && (TokenReferrals[_personalHash].totalTokensEarned > 0)){\n\n\t\t\tuint TokensToTransfer1 = TokenReferrals[_personalHash].totalTokensEarned;\n\t\t\tTokenReferrals[_personalHash].totalTokensEarned = 0;\n            KittieFightToken.transfer(TokenReferrals[_personalHash].addr , TokensToTransfer1);\n\t\t\temit ClaimtokenBonus(_campaignHash, msg.sender, true);\n\t\t\treturn true;\n\n\t  }else if((msg.sender == SocialCampaigns[_campaignHash].SocialLinkProfile[userIndex].addr) && (SocialCampaigns[_campaignHash].SocialLinkProfile[userIndex].tokensEarned > 0)){\n\n\t\tuint TokensToTransfer2 = SocialCampaigns[_campaignHash].SocialLinkProfile[userIndex].tokensEarned;\n\t\tSocialCampaigns[_campaignHash].SocialLinkProfile[userIndex].tokensEarned = 0;\n\t\tKittieFightToken.transfer(msg.sender, TokensToTransfer2);\n\t\temit ClaimtokenBonus(_campaignHash, msg.sender, true);\n\t\treturn true;\n\t\t}else return false;\n\n  }\n\n    /*\n     *  Admin transfers all unsold tokens back to token contract\n     */\n    function transferUnsoldTokens(uint _unsoldTokens, address _addr)\n        public\n        isOwner\n\n     {\n\n        uint soldTokens = totalReceived * 10**18 / finalPrice;\n        uint totalSold = (MAX_TOKENS_SOLD + claimedTokenReferral + claimedSocial)  - soldTokens;\n        \n        require (_unsoldTokens < totalSold );\n        KittieFightToken.transfer(_addr, _unsoldTokens);\n    }\n\n\n    function tokenAmountPerReferred(bytes4 _hash, uint _amount ) public view returns(uint tokenAmount) {\n        tokenAmount = TokenReferrals[_hash].tokenAmountPerReferred[_amount];\n    }\n    \n    function getCurrentBiddersCount () public view returns(uint biddersCount)  {\n        biddersCount = CurrentBidders.length;\n    }\n    \n    // helper functions  return msg.senders\n    function calculatPersonalHash() public view returns (bytes4 _hash) {\n        _hash = bytes4(keccak256(abi.encodePacked(msg.sender)));\n    }\n\n    function calculateCampaignHash(address _addr) public view returns (bytes4 _hash) {\n        _hash = bytes4(keccak256(abi.encodePacked(_addr, msg.sender)));\n    }\n\n    // Set Promissary token Instance  By Admin (Fo testing only)\n    function setPromissoryTokenInstance(address _promissoryAddr) public isOwner {\n        PromissoryTokenIns = PromissoryToken(_promissoryAddr);\n    }\n\n}\n",
  "sourcePath": "/Users/achiko/Documents/elva/projects/kittiefight/DutchAuction/contracts/Dutchwrapper.sol",
  "compiler": {
    "name": "solc",
    "version": "0.4.24+commit.e67f0147.Emscripten.clang"
  },
  "schemaVersion": "2.0.1",
  "updatedAt": "2018-11-23T15:05:06.174Z"
}