{
  "contractName": "Dutchwrapper",
  "abi": [
    {
      "constant": true,
      "inputs": [],
      "name": "claimedSocial",
      "outputs": [
        {
          "name": "",
          "type": "uint256"
        }
      ],
      "payable": false,
      "stateMutability": "view",
      "type": "function"
    },
    {
      "constant": true,
      "inputs": [
        {
          "name": "",
          "type": "address"
        }
      ],
      "name": "Admins",
      "outputs": [
        {
          "name": "",
          "type": "bool"
        }
      ],
      "payable": false,
      "stateMutability": "view",
      "type": "function"
    },
    {
      "constant": true,
      "inputs": [],
      "name": "MAX_TOKENS_SOLD",
      "outputs": [
        {
          "name": "",
          "type": "uint256"
        }
      ],
      "payable": false,
      "stateMutability": "view",
      "type": "function"
    },
    {
      "constant": true,
      "inputs": [
        {
          "name": "",
          "type": "uint256"
        }
      ],
      "name": "PartnersList",
      "outputs": [
        {
          "name": "",
          "type": "address"
        }
      ],
      "payable": false,
      "stateMutability": "view",
      "type": "function"
    },
    {
      "constant": true,
      "inputs": [],
      "name": "MAX_TOKEN_REFERRAL",
      "outputs": [
        {
          "name": "",
          "type": "uint256"
        }
      ],
      "payable": false,
      "stateMutability": "view",
      "type": "function"
    },
    {
      "constant": true,
      "inputs": [],
      "name": "endTime",
      "outputs": [
        {
          "name": "",
          "type": "uint256"
        }
      ],
      "payable": false,
      "stateMutability": "view",
      "type": "function"
    },
    {
      "constant": true,
      "inputs": [],
      "name": "promissoryAddr",
      "outputs": [
        {
          "name": "",
          "type": "address"
        }
      ],
      "payable": false,
      "stateMutability": "view",
      "type": "function"
    },
    {
      "constant": true,
      "inputs": [
        {
          "name": "",
          "type": "bytes4"
        }
      ],
      "name": "TokenReferrals",
      "outputs": [
        {
          "name": "hash",
          "type": "bytes4"
        },
        {
          "name": "addr",
          "type": "address"
        },
        {
          "name": "totalReferrals",
          "type": "uint256"
        },
        {
          "name": "totalTokensEarned",
          "type": "uint256"
        }
      ],
      "payable": false,
      "stateMutability": "view",
      "type": "function"
    },
    {
      "constant": true,
      "inputs": [
        {
          "name": "",
          "type": "uint256"
        }
      ],
      "name": "CurrentBidders",
      "outputs": [
        {
          "name": "addr",
          "type": "address"
        },
        {
          "name": "amount",
          "type": "uint256"
        }
      ],
      "payable": false,
      "stateMutability": "view",
      "type": "function"
    },
    {
      "constant": false,
      "inputs": [
        {
          "name": "_ceiling",
          "type": "uint256"
        },
        {
          "name": "_priceFactor",
          "type": "uint256"
        }
      ],
      "name": "changeSettings",
      "outputs": [],
      "payable": false,
      "stateMutability": "nonpayable",
      "type": "function"
    },
    {
      "constant": true,
      "inputs": [],
      "name": "calcTokenPrice",
      "outputs": [
        {
          "name": "",
          "type": "uint256"
        }
      ],
      "payable": false,
      "stateMutability": "view",
      "type": "function"
    },
    {
      "constant": true,
      "inputs": [],
      "name": "claimedTokenReferral",
      "outputs": [
        {
          "name": "",
          "type": "uint256"
        }
      ],
      "payable": false,
      "stateMutability": "view",
      "type": "function"
    },
    {
      "constant": true,
      "inputs": [],
      "name": "startBlock",
      "outputs": [
        {
          "name": "",
          "type": "uint256"
        }
      ],
      "payable": false,
      "stateMutability": "view",
      "type": "function"
    },
    {
      "constant": true,
      "inputs": [],
      "name": "KittieFightToken",
      "outputs": [
        {
          "name": "",
          "type": "address"
        }
      ],
      "payable": false,
      "stateMutability": "view",
      "type": "function"
    },
    {
      "constant": true,
      "inputs": [
        {
          "name": "",
          "type": "address"
        }
      ],
      "name": "bids",
      "outputs": [
        {
          "name": "",
          "type": "uint256"
        }
      ],
      "payable": false,
      "stateMutability": "view",
      "type": "function"
    },
    {
      "constant": false,
      "inputs": [
        {
          "name": "_kittieToken",
          "type": "address"
        }
      ],
      "name": "setup",
      "outputs": [],
      "payable": false,
      "stateMutability": "nonpayable",
      "type": "function"
    },
    {
      "constant": false,
      "inputs": [],
      "name": "startAuction",
      "outputs": [],
      "payable": false,
      "stateMutability": "nonpayable",
      "type": "function"
    },
    {
      "constant": true,
      "inputs": [],
      "name": "Referrals",
      "outputs": [
        {
          "name": "",
          "type": "uint256"
        }
      ],
      "payable": false,
      "stateMutability": "view",
      "type": "function"
    },
    {
      "constant": true,
      "inputs": [],
      "name": "WAITING_PERIOD",
      "outputs": [
        {
          "name": "",
          "type": "uint256"
        }
      ],
      "payable": false,
      "stateMutability": "view",
      "type": "function"
    },
    {
      "constant": true,
      "inputs": [],
      "name": "TOTAL_BONUS_TOKEN",
      "outputs": [
        {
          "name": "",
          "type": "uint256"
        }
      ],
      "payable": false,
      "stateMutability": "view",
      "type": "function"
    },
    {
      "constant": true,
      "inputs": [],
      "name": "ceiling",
      "outputs": [
        {
          "name": "",
          "type": "uint256"
        }
      ],
      "payable": false,
      "stateMutability": "view",
      "type": "function"
    },
    {
      "constant": true,
      "inputs": [
        {
          "name": "",
          "type": "address"
        }
      ],
      "name": "SuperDAOTokens",
      "outputs": [
        {
          "name": "",
          "type": "uint256"
        }
      ],
      "payable": false,
      "stateMutability": "view",
      "type": "function"
    },
    {
      "constant": true,
      "inputs": [],
      "name": "owner",
      "outputs": [
        {
          "name": "",
          "type": "address"
        }
      ],
      "payable": false,
      "stateMutability": "view",
      "type": "function"
    },
    {
      "constant": true,
      "inputs": [
        {
          "name": "",
          "type": "bytes4"
        }
      ],
      "name": "SocialCampaigns",
      "outputs": [
        {
          "name": "hash",
          "type": "bytes4"
        },
        {
          "name": "maxParticipators",
          "type": "uint256"
        },
        {
          "name": "tokenAmountForEach",
          "type": "uint256"
        }
      ],
      "payable": false,
      "stateMutability": "view",
      "type": "function"
    },
    {
      "constant": true,
      "inputs": [
        {
          "name": "",
          "type": "uint256"
        }
      ],
      "name": "TokenReferalList",
      "outputs": [
        {
          "name": "",
          "type": "address"
        }
      ],
      "payable": false,
      "stateMutability": "view",
      "type": "function"
    },
    {
      "constant": true,
      "inputs": [],
      "name": "pWallet",
      "outputs": [
        {
          "name": "",
          "type": "address"
        }
      ],
      "payable": false,
      "stateMutability": "view",
      "type": "function"
    },
    {
      "constant": false,
      "inputs": [
        {
          "name": "receiver",
          "type": "address"
        }
      ],
      "name": "bid",
      "outputs": [
        {
          "name": "amount",
          "type": "uint256"
        }
      ],
      "payable": true,
      "stateMutability": "payable",
      "type": "function"
    },
    {
      "constant": true,
      "inputs": [],
      "name": "totalReceived",
      "outputs": [
        {
          "name": "",
          "type": "uint256"
        }
      ],
      "payable": false,
      "stateMutability": "view",
      "type": "function"
    },
    {
      "constant": true,
      "inputs": [],
      "name": "finalPrice",
      "outputs": [
        {
          "name": "",
          "type": "uint256"
        }
      ],
      "payable": false,
      "stateMutability": "view",
      "type": "function"
    },
    {
      "constant": true,
      "inputs": [],
      "name": "stage",
      "outputs": [
        {
          "name": "",
          "type": "uint8"
        }
      ],
      "payable": false,
      "stateMutability": "view",
      "type": "function"
    },
    {
      "constant": false,
      "inputs": [],
      "name": "updateStage",
      "outputs": [
        {
          "name": "",
          "type": "uint8"
        }
      ],
      "payable": false,
      "stateMutability": "nonpayable",
      "type": "function"
    },
    {
      "constant": true,
      "inputs": [],
      "name": "ONE",
      "outputs": [
        {
          "name": "",
          "type": "uint256"
        }
      ],
      "payable": false,
      "stateMutability": "view",
      "type": "function"
    },
    {
      "constant": true,
      "inputs": [],
      "name": "PromissoryTokenIns",
      "outputs": [
        {
          "name": "",
          "type": "address"
        }
      ],
      "payable": false,
      "stateMutability": "view",
      "type": "function"
    },
    {
      "constant": true,
      "inputs": [],
      "name": "Partners",
      "outputs": [
        {
          "name": "",
          "type": "uint256"
        }
      ],
      "payable": false,
      "stateMutability": "view",
      "type": "function"
    },
    {
      "constant": false,
      "inputs": [],
      "name": "calcCurrentTokenPrice",
      "outputs": [
        {
          "name": "",
          "type": "uint256"
        }
      ],
      "payable": false,
      "stateMutability": "nonpayable",
      "type": "function"
    },
    {
      "constant": true,
      "inputs": [],
      "name": "calcStopPrice",
      "outputs": [
        {
          "name": "",
          "type": "uint256"
        }
      ],
      "payable": false,
      "stateMutability": "view",
      "type": "function"
    },
    {
      "constant": false,
      "inputs": [
        {
          "name": "receiver",
          "type": "address"
        }
      ],
      "name": "claimTokens",
      "outputs": [],
      "payable": false,
      "stateMutability": "nonpayable",
      "type": "function"
    },
    {
      "constant": true,
      "inputs": [],
      "name": "priceFactor",
      "outputs": [
        {
          "name": "",
          "type": "uint256"
        }
      ],
      "payable": false,
      "stateMutability": "view",
      "type": "function"
    },
    {
      "constant": true,
      "inputs": [
        {
          "name": "",
          "type": "bytes4"
        }
      ],
      "name": "MarketingPartners",
      "outputs": [
        {
          "name": "hash",
          "type": "bytes4"
        },
        {
          "name": "addr",
          "type": "address"
        },
        {
          "name": "totalReferrals",
          "type": "uint256"
        },
        {
          "name": "totalContribution",
          "type": "uint256"
        },
        {
          "name": "percentage",
          "type": "uint256"
        },
        {
          "name": "EthEarned",
          "type": "uint256"
        }
      ],
      "payable": false,
      "stateMutability": "view",
      "type": "function"
    },
    {
      "constant": true,
      "inputs": [],
      "name": "Social",
      "outputs": [
        {
          "name": "",
          "type": "uint256"
        }
      ],
      "payable": false,
      "stateMutability": "view",
      "type": "function"
    },
    {
      "constant": true,
      "inputs": [],
      "name": "MAX_TOKEN_SOCIAL",
      "outputs": [
        {
          "name": "",
          "type": "uint256"
        }
      ],
      "payable": false,
      "stateMutability": "view",
      "type": "function"
    },
    {
      "inputs": [
        {
          "name": "_pWallet",
          "type": "address"
        },
        {
          "name": "_ceiling",
          "type": "uint256"
        },
        {
          "name": "_priceFactor",
          "type": "uint256"
        }
      ],
      "payable": false,
      "stateMutability": "nonpayable",
      "type": "constructor"
    },
    {
      "anonymous": false,
      "inputs": [
        {
          "indexed": false,
          "name": "_partnerHash",
          "type": "bytes4"
        },
        {
          "indexed": false,
          "name": "_addr",
          "type": "address"
        },
        {
          "indexed": false,
          "name": "_amount",
          "type": "uint256"
        }
      ],
      "name": "PartnerReferral",
      "type": "event"
    },
    {
      "anonymous": false,
      "inputs": [
        {
          "indexed": false,
          "name": "_campaignHash",
          "type": "bytes4"
        },
        {
          "indexed": false,
          "name": "_addr",
          "type": "address"
        },
        {
          "indexed": false,
          "name": "_amount",
          "type": "uint256"
        }
      ],
      "name": "SocialReferral",
      "type": "event"
    },
    {
      "anonymous": false,
      "inputs": [
        {
          "indexed": false,
          "name": "_campaignHash",
          "type": "bytes4"
        },
        {
          "indexed": false,
          "name": "_addr",
          "type": "address"
        },
        {
          "indexed": false,
          "name": "_amount",
          "type": "uint256"
        }
      ],
      "name": "TokenReferral",
      "type": "event"
    },
    {
      "anonymous": false,
      "inputs": [
        {
          "indexed": false,
          "name": "_hash",
          "type": "bytes4"
        },
        {
          "indexed": false,
          "name": "_addr",
          "type": "address"
        },
        {
          "indexed": false,
          "name": "_amount",
          "type": "uint256"
        }
      ],
      "name": "BidEvent",
      "type": "event"
    },
    {
      "anonymous": false,
      "inputs": [
        {
          "indexed": false,
          "name": "_type",
          "type": "uint256"
        }
      ],
      "name": "SetupReferal",
      "type": "event"
    },
    {
      "anonymous": false,
      "inputs": [
        {
          "indexed": false,
          "name": "_campaignHash",
          "type": "bytes4"
        },
        {
          "indexed": false,
          "name": "_addr",
          "type": "address"
        },
        {
          "indexed": false,
          "name": "_userName",
          "type": "bytes32"
        }
      ],
      "name": "ConfirmSocial",
      "type": "event"
    },
    {
      "anonymous": false,
      "inputs": [
        {
          "indexed": false,
          "name": "_campaignHash",
          "type": "bytes4"
        },
        {
          "indexed": false,
          "name": "_addr",
          "type": "address"
        },
        {
          "indexed": false,
          "name": "_userName",
          "type": "bytes32"
        }
      ],
      "name": "AdminRemoveBatch",
      "type": "event"
    },
    {
      "anonymous": false,
      "inputs": [
        {
          "indexed": false,
          "name": "_Hash",
          "type": "bytes4"
        },
        {
          "indexed": false,
          "name": "_addr",
          "type": "address"
        }
      ],
      "name": "ReferalSignup",
      "type": "event"
    },
    {
      "anonymous": false,
      "inputs": [
        {
          "indexed": false,
          "name": "_Hash",
          "type": "bytes4"
        },
        {
          "indexed": false,
          "name": "_addr",
          "type": "address"
        },
        {
          "indexed": false,
          "name": "success",
          "type": "bool"
        }
      ],
      "name": "ClaimtokenBonus",
      "type": "event"
    },
    {
      "anonymous": false,
      "inputs": [
        {
          "indexed": true,
          "name": "sender",
          "type": "address"
        },
        {
          "indexed": false,
          "name": "amount",
          "type": "uint256"
        }
      ],
      "name": "BidSubmission",
      "type": "event"
    },
    {
      "anonymous": false,
      "inputs": [
        {
          "indexed": false,
          "name": "_data",
          "type": "bytes"
        },
        {
          "indexed": false,
          "name": "_lengt",
          "type": "uint256"
        }
      ],
      "name": "logPayload",
      "type": "event"
    },
    {
      "constant": false,
      "inputs": [
        {
          "name": "_addr",
          "type": "address"
        }
      ],
      "name": "setAdmin",
      "outputs": [
        {
          "name": "success",
          "type": "bool"
        }
      ],
      "payable": false,
      "stateMutability": "nonpayable",
      "type": "function"
    },
    {
      "constant": false,
      "inputs": [
        {
          "name": "_addr",
          "type": "address"
        }
      ],
      "name": "removeAdmin",
      "outputs": [
        {
          "name": "success",
          "type": "bool"
        }
      ],
      "payable": false,
      "stateMutability": "nonpayable",
      "type": "function"
    },
    {
      "constant": false,
      "inputs": [
        {
          "name": "_addr",
          "type": "address"
        },
        {
          "name": "_percentage",
          "type": "uint256"
        },
        {
          "name": "_type",
          "type": "uint256"
        },
        {
          "name": "_tokenAmt",
          "type": "uint256"
        },
        {
          "name": "_numUsers",
          "type": "uint256"
        }
      ],
      "name": "setupReferal",
      "outputs": [
        {
          "name": "successmessage",
          "type": "string"
        }
      ],
      "payable": false,
      "stateMutability": "nonpayable",
      "type": "function"
    },
    {
      "constant": false,
      "inputs": [],
      "name": "referralSignup",
      "outputs": [
        {
          "name": "referalhash",
          "type": "bytes4"
        }
      ],
      "payable": false,
      "stateMutability": "nonpayable",
      "type": "function"
    },
    {
      "constant": false,
      "inputs": [
        {
          "name": "_receiver",
          "type": "address"
        },
        {
          "name": "_hash",
          "type": "bytes4"
        }
      ],
      "name": "bidReferral",
      "outputs": [
        {
          "name": "",
          "type": "uint256"
        }
      ],
      "payable": true,
      "stateMutability": "payable",
      "type": "function"
    },
    {
      "constant": false,
      "inputs": [
        {
          "name": "_campaignHash",
          "type": "bytes4"
        },
        {
          "name": "_userName",
          "type": "bytes32"
        },
        {
          "name": "_retweetOrdiscord",
          "type": "bytes32"
        }
      ],
      "name": "confirmSocial",
      "outputs": [
        {
          "name": "",
          "type": "uint256"
        }
      ],
      "payable": false,
      "stateMutability": "nonpayable",
      "type": "function"
    },
    {
      "constant": false,
      "inputs": [
        {
          "name": "_campaignHash",
          "type": "bytes4"
        },
        {
          "name": "_batchList",
          "type": "address[]"
        }
      ],
      "name": "adminRemoveBatch",
      "outputs": [
        {
          "name": "",
          "type": "uint256"
        }
      ],
      "payable": false,
      "stateMutability": "nonpayable",
      "type": "function"
    },
    {
      "constant": false,
      "inputs": [
        {
          "name": "_amount",
          "type": "uint256"
        },
        {
          "name": "_percent",
          "type": "uint256"
        }
      ],
      "name": "referalPercentage",
      "outputs": [
        {
          "name": "",
          "type": "uint256"
        }
      ],
      "payable": false,
      "stateMutability": "nonpayable",
      "type": "function"
    },
    {
      "constant": false,
      "inputs": [
        {
          "name": "_campaignHash",
          "type": "bytes4"
        }
      ],
      "name": "claimtokenBonus",
      "outputs": [
        {
          "name": "success",
          "type": "bool"
        }
      ],
      "payable": false,
      "stateMutability": "nonpayable",
      "type": "function"
    },
    {
      "constant": false,
      "inputs": [
        {
          "name": "_unsoldTokens",
          "type": "uint256"
        },
        {
          "name": "_addr",
          "type": "address"
        }
      ],
      "name": "transferUnsoldTokens",
      "outputs": [],
      "payable": false,
      "stateMutability": "nonpayable",
      "type": "function"
    },
    {
      "constant": true,
      "inputs": [],
      "name": "getCurrentBiddersCount",
      "outputs": [
        {
          "name": "biddersCount",
          "type": "uint256"
        }
      ],
      "payable": false,
      "stateMutability": "view",
      "type": "function"
    },
    {
      "constant": true,
      "inputs": [],
      "name": "calculatPersonalHash",
      "outputs": [
        {
          "name": "_hash",
          "type": "bytes4"
        }
      ],
      "payable": false,
      "stateMutability": "view",
      "type": "function"
    },
    {
      "constant": true,
      "inputs": [
        {
          "name": "_addr",
          "type": "address"
        }
      ],
      "name": "calculateCampaignHash",
      "outputs": [
        {
          "name": "_hash",
          "type": "bytes4"
        }
      ],
      "payable": false,
      "stateMutability": "view",
      "type": "function"
    },
    {
      "constant": false,
      "inputs": [
        {
          "name": "_promissoryAddr",
          "type": "address"
        }
      ],
      "name": "setPromissoryTokenInstance",
      "outputs": [],
      "payable": false,
      "stateMutability": "nonpayable",
      "type": "function"
    }
  ],
  "bytecode": "0x60806040526000600c556000600d5534801561001a57600080fd5b5060405160608062002eef833981016040908152815160208301519190920151828282600160a060020a0383161580610051575081155b8061005a575080155b1561006457600080fd5b60028054600160a060020a03199081163317909155600380548216730348b55abd6e1a99c6ebc972a6a4582ec0bceb5c17905560008054600160a060020a039590951694909116939093178355600491909155600555600b805460ff19169055612e179350839250620000d89150396000f3006080604052600436106102785763ffffffff60e060020a60003504166212fb9b811461027d5780630d894db0146102a45780630ec6d58a146102c55780631785f53c146102fa57806317f5de951461031b5780631ef554a31461033057806320269ed11461036457806320eb5fb814610379578063310477f9146103a15780633197cbb6146103bc57806333a42d10146103d15780633455b088146103e657806335d005b81461044157806336d02c941461047c57806339f64b5214610499578063401260da146104ae578063406faf82146104d257806348cd4cb1146104e75780635fcee458146104fc57806362ea82db1461051157806366d38203146105325780636b64c769146105535780636f20befd146105685780636f85c7e41461057d578063701a1f0c14610592578063704b6c02146105a7578063753ed1bd146105c85780637ae4d728146105dd5780638da5cb5b146105fe5780638fdd817c14610613578063921096b51461064557806394aa3b2d146106905780639866845d146106a85780639b44d39a146106bd5780639b6a1af01461075f5780639cf5453d14610774578063a3c2c46214610788578063a6b513ee1461079d578063bb07ca7f146107b2578063c040e6b8146107d3578063c062f5781461080c578063c2ee3a0814610821578063c813a04914610836578063cf7606341461089a578063d1fa9cad14610821578063d9f8a4e2146108af578063dd9dd688146108c4578063df8de3e7146108d9578063dfb2866d146108fa578063e8ccd1c61461090f578063ee09637c14610977578063f1f737ab14610999578063f65bf87c146109ae578063fa036904146109c3578063fb321129146109d8575b600080fd5b34801561028957600080fd5b506102926109f9565b60408051918252519081900360200190f35b610292600160a060020a0360043516600160e060020a0319602435166109ff565b3480156102d157600080fd5b506102e6600160a060020a0360043516611159565b604080519115158252519081900360200190f35b34801561030657600080fd5b506102e6600160a060020a036004351661116e565b34801561032757600080fd5b506102926111ad565b34801561033c57600080fd5b506103486004356111bc565b60408051600160a060020a039092168252519081900360200190f35b34801561037057600080fd5b506102926111e4565b34801561038557600080fd5b50610292600160e060020a0319600435166024356044356111f3565b3480156103ad57600080fd5b506102926004356024356115df565b3480156103c857600080fd5b50610292611608565b3480156103dd57600080fd5b5061034861160e565b3480156103f257600080fd5b50610408600160e060020a031960043516611626565b60408051600160e060020a03199095168552600160a060020a039093166020850152838301919091526060830152519081900360800190f35b34801561044d57600080fd5b50610459600435611660565b60408051600160a060020a03909316835260208301919091528051918290030190f35b34801561048857600080fd5b50610497600435602435611696565b005b3480156104a557600080fd5b506102926116d7565b3480156104ba57600080fd5b50610497600435600160a060020a0360243516611702565b3480156104de57600080fd5b50610292611804565b3480156104f357600080fd5b5061029261180a565b34801561050857600080fd5b50610348611810565b34801561051d57600080fd5b50610292600160a060020a036004351661181f565b34801561053e57600080fd5b50610497600160a060020a0360043516611831565b34801561055f57600080fd5b50610497611958565b34801561057457600080fd5b506102926119a1565b34801561058957600080fd5b506102926119a6565b34801561059e57600080fd5b506102926119ad565b3480156105b357600080fd5b506102e6600160a060020a03600435166119bc565b3480156105d457600080fd5b506102926119ff565b3480156105e957600080fd5b50610292600160a060020a0360043516611a05565b34801561060a57600080fd5b50610348611a17565b34801561061f57600080fd5b50610628611a26565b60408051600160e060020a03199092168252519081900360200190f35b34801561065157600080fd5b50610667600160e060020a031960043516611ab7565b60408051600160e060020a03199094168452602084019290925282820152519081900360600190f35b34801561069c57600080fd5b50610348600435611adf565b3480156106b457600080fd5b50610348611aed565b3480156106c957600080fd5b506106ea600160a060020a0360043516602435604435606435608435611afc565b6040805160208082528351818301528351919283929083019185019080838360005b8381101561072457818101518382015260200161070c565b50505050905090810190601f1680156107515780820380516001836020036101000a031916815260200191505b509250505060405180910390f35b34801561076b57600080fd5b50610628611d48565b610292600160a060020a0360043516611e81565b34801561079457600080fd5b50610292612061565b3480156107a957600080fd5b50610292612067565b3480156107be57600080fd5b50610628600160a060020a036004351661206d565b3480156107df57600080fd5b506107e8612112565b604051808260048111156107f857fe5b60ff16815260200191505060405180910390f35b34801561081857600080fd5b506107e861211b565b34801561082d57600080fd5b5061029261219b565b34801561084257600080fd5b50604080516020600460248035828101358481028087018601909752808652610292968435600160e060020a031916963696604495919490910192918291850190849080828437509497506121a09650505050505050565b3480156108a657600080fd5b50610348612381565b3480156108bb57600080fd5b50610292612390565b3480156108d057600080fd5b50610292612450565b3480156108e557600080fd5b50610497600160a060020a0360043516612472565b34801561090657600080fd5b506102926126c8565b34801561091b57600080fd5b50610931600160e060020a0319600435166126ce565b60408051600160e060020a03199097168752600160a060020a039095166020870152858501939093526060850191909152608084015260a0830152519081900360c00190f35b34801561098357600080fd5b506102e6600160e060020a031960043516612712565b3480156109a557600080fd5b50610292612b5c565b3480156109ba57600080fd5b50610292612b61565b3480156109cf57600080fd5b50610292612b67565b3480156109e457600080fd5b50610497600160a060020a0360043516612b75565b600d5481565b600080600080610a0d612d86565b349350600360009054906101000a9004600160a060020a0316600160a060020a031663053f14da6040518163ffffffff1660e060020a028152600401602060405180830381600087803b158015610a6357600080fd5b505af1158015610a77573d6000803e3d6000fd5b505050506040513d6020811015610a8d57600080fd5b50516008546004549194509003841115610aab576008546004540393505b83610ab588611e81565b14610abf57600080fd5b600160a060020a0387168152346020820181905291508282811515610ae057fe5b336000818152600e6020908152604080832080549690950490950190935560158054600181018255915284517f55f448fdea98c4d29eb340757ef0a66cd03dbb9538908a6a81d96026b71ec4756002909202918201805473ffffffffffffffffffffffffffffffffffffffff1916600160a060020a03909216919091179055848301517f55f448fdea98c4d29eb340757ef0a66cd03dbb9538908a6a81d96026b71ec476909101558251600160e060020a03198a1681529182015280820184905290517fd0ea45955ff6d9ae1d964ca3279eed0f08617f1f1201611bfb2d5efaaaf12dd7916060908290030190a1600160e060020a031980871660008181526011602052604090205460e060020a029091161415610efe57600160e060020a03198616600081815260116020908152604082206001818101805482019055600282018054880190556003820180549182018155845291832090910185905591905260040154610c509083906115df565b600160e060020a03198716600090815260116020526040902060050180549091019055600c546a017d2a320dd745550000001115610e8b57600160e060020a031986166000908152601260205260409020600190810180549091019055670de0b6b3a76400003410801590610ccd57506729a2241af62c00003411155b15610d5557600160e060020a03198616600081815260126020818152604080842087855260038101835281852068056bc75e2d6310000090819055948690529282526002909201805484019055600c80549093019092558051928352339183019190915281810184905251600080516020612dcc8339815191529181900360600190a1610e8b565b6729a2241af62c000034118015610d7457506753444835ec5800003411155b15610dfc57600160e060020a031986166000818152601260208181526040808420878552600381018352818520681b1ae4d6e2ef50000090819055948690529282526002909201805484019055600c80549093019092558051928352339183019190915281810184905251600080516020612dcc8339815191529181900360600190a1610e8b565b6753444835ec580000341115610e8b57600160e060020a031986166000818152601260208181526040808420878552600381018352818520683635c9adc5dea0000090819055948690529282526002909201805484019055600c80549093019092558051928352339183019190915281810184905251600080516020612dcc8339815191529181900360600190a15b600160e060020a03198616600081815260116020908152604091829020548251938452600160a060020a036401000000009091041690830152818101849052517f1bbad3ec2950e7a72214d38589df066a71b1dd23bf7a28f54482f992ea66ad0b9181900360600190a16001945061114f565b600160e060020a031980871660008181526012602052604090205460e060020a02909116148015610f3b57506a017d2a320dd74555000000600c54105b1561114f57600160e060020a031986166000908152601260205260409020600190810180549091019055670de0b6b3a76400003410801590610f8557506729a2241af62c00003411155b1561101157600160e060020a03198616600081815260126020818152604080842087855260038101835281852068056bc75e2d6310000090819055948690529282526002909201805484019055600c80549093019092558051928352339183019190915281810184905251600080516020612dcc8339815191529181900360600190a16002945061114f565b6729a2241af62c00003411801561103057506753444835ec5800003411155b156110bc57600160e060020a031986166000818152601260208181526040808420878552600381018352818520681b1ae4d6e2ef50000090819055948690529282526002909201805484019055600c80549093019092558051928352339183019190915281810184905251600080516020612dcc8339815191529181900360600190a16002945061114f565b6753444835ec58000034111561114f57600160e060020a031986166000818152601260208181526040808420878552600381018352818520683635c9adc5dea0000090819055948690529282526002909201805484019055600c80549093019092558051928352339183019190915281810184905251600080516020612dcc8339815191529181900360600190a1600294505b5050505092915050565b60146020526000908152604090205460ff1681565b600254600090600160a060020a0316331461118857600080fd5b50600160a060020a03166000908152601460205260409020805460ff19169055600190565b6a084595161401484a00000081565b600f8054829081106111ca57fe5b600091825260209091200154600160a060020a0316905081565b6a017d2a320dd7455500000081565b6000806111fe612d9d565b600d54692a5a058fc295ed0000001161121657600080fd5b858560005b600160e060020a0319831660009081526013602052604090206002015481101561129357600160e060020a03198316600090815260136020526040902060020180548391908390811061126a57fe5b90600052602060002090600502016004015460001916141561128b57600080fd5b60010161121b565b600160e060020a031989166000818152601360208181526040808420338552600481018352908420549490935252600201549095501561131b57600160e060020a0319891660009081526013602052604090206002018054869081106112f557fe5b6000918252602090912060059091020154600160a060020a031633141561131b57600080fd5b600160e060020a0319891660009081526013602052604090206001810154600290910154111561134a57600080fd5b338460000190600160a060020a03169081600160a060020a0316815250508684602001906000191690816000191681525050601360008a600160e060020a031916600160e060020a03191681526020019081526020016000206006015484604001818152505060018460600190151590811515815250508784608001906000191690816000191681525050601360008a600160e060020a031916600160e060020a0319168152602001908152602001600020600201849080600181540180825580915050906001820390600052602060002090600502016000909192909190915060008201518160000160006101000a815481600160a060020a030219169083600160a060020a03160217905550602082015181600101906000191690556040820151816002015560608201518160030160006101000a81548160ff02191690831515021790555060808201518160040190600019169055505050601360008a600160e060020a031916600160e060020a031916815260200190815260200160002060020180549050601360008b600160e060020a031916600160e060020a0319168152602001908152602001600020600401600033600160a060020a0316600160a060020a0316815260200190815260200160002081905550601360008a600160e060020a031916600160e060020a031916815260200190815260200160002060060154600d600082825401925050819055507ff3de28df83f7b759b240d7e5efadffda13223c2c16d5f477504e9738ce52c7e789338a6040518084600160e060020a031916600160e060020a031916815260200183600160a060020a0316600160a060020a031681526020018260001916600019168152602001935050505060405180910390a150505050509392505050565b60006116016115fb6115f48560648106612bbb565b6064612bcd565b83612be9565b9392505050565b60075481565b730348b55abd6e1a99c6ebc972a6a4582ec0bceb5c81565b60126020526000908152604090208054600182015460029092015460e060020a820292640100000000909204600160a060020a0316919084565b601580548290811061166e57fe5b600091825260209091206002909102018054600190910154600160a060020a03909116915082565b600054600160a060020a031633146116ad57600080fd5b600180600b5460ff1660048111156116c157fe5b146116cb57600080fd5b50600491909155600555565b60006006544303611d4c01600554670de0b6b3a7640000028115156116f857fe5b0460010190505b90565b600254600090600160a060020a0316331461171c57600080fd5b600480600b5460ff16600481111561173057fe5b1461173a57600080fd5b600954600854670de0b6b3a76400000281151561175357fe5b04915081600d54600c546a084595161401484a0000000101038410151561177957600080fd5b6001546040805160e060020a63a9059cbb028152600160a060020a038681166004830152602482018890529151919092169163a9059cbb9160448083019260209291908290030181600087803b1580156117d257600080fd5b505af11580156117e6573d6000803e3d6000fd5b505050506040513d60208110156117fc57600080fd5b505050505050565b600c5481565b60065481565b600154600160a060020a031681565b600a6020526000908152604090205481565b600254600160a060020a0316331461184857600080fd5b600080600b5460ff16600481111561185c57fe5b1461186657600080fd5b600160a060020a038216151561187b57600080fd5b6001805473ffffffffffffffffffffffffffffffffffffffff1916600160a060020a038481169190911791829055604080517f70a0823100000000000000000000000000000000000000000000000000000000815230600482015290516a084595161401484a00000093909216916370a08231916024808201926020929091908290030181600087803b15801561191157600080fd5b505af1158015611925573d6000803e3d6000fd5b505050506040513d602081101561193b57600080fd5b50511461194757600080fd5b5050600b805460ff19166001179055565b600254600160a060020a0316331461196f57600080fd5b600180600b5460ff16600481111561198357fe5b1461198d57600080fd5b50600b805460ff1916600217905543600655565b600281565b623b538081565b6a01a784379d99db4200000081565b600254600090600160a060020a031633146119d657600080fd5b50600160a060020a03166000908152601460205260409020805460ff1916600190811790915590565b60045481565b600e6020526000908152604090205481565b600254600160a060020a031681565b604080516c010000000000000000000000003302602080830191909152825180830360140181526034909201928390528151600093918291908401908083835b60208310611a855780518252601f199092019160209182019101611a66565b6001836020036101000a0380198251168184511680821785525050505050509050019150506040518091039020905090565b60136020526000908152604090208054600182015460069092015460e060020a909102919083565b60108054829081106111ca57fe5b600054600160a060020a031681565b600254606090600090600160a060020a03163314611b1957600080fd5b604080516c01000000000000000000000000600160a060020a038a1681026020808401919091523391909102603483015282516028818403018152604890920192839052815191929182918401908083835b60208310611b8a5780518252601f199092019160209182019101611b6b565b6001836020036101000a038019825116818451168082178552505050505050905001915050604051809103902090506001851415611c9957600160e060020a031981166000908152601160205260409020805463ffffffff191660e060020a83041777ffffffffffffffffffffffffffffffffffffffff000000001916640100000000600160a060020a038a1602178155600401869055611c2a87612c14565b506040805186815290517f9fec2c68f61f24831aba2d0778fe76e9a54f215039b50e549e0f34745bbe7dc49181900360200190a160408051808201909152601181527f706172746e6572207369676e656420757000000000000000000000000000000060208201529150611d3e565b600160e060020a03198116600090815260136020908152604091829020805463ffffffff191660e060020a850417815560018101869055600601869055815187815291517f9fec2c68f61f24831aba2d0778fe76e9a54f215039b50e549e0f34745bbe7dc49281900390910190a160408051808201909152601781527f736f6369616c2063616d706169676e2073746172746564000000000000000000602082015291505b5095945050505050565b6000806a017d2a320dd74555000000600c54101515611d6657600080fd5b604080516c01000000000000000000000000330260208083019190915282518083036014018152603490920192839052815191929182918401908083835b60208310611dc35780518252601f199092019160209182019101611da4565b51815160209384036101000a600019018019909216911617905260408051929094018290038220600160e060020a03198116600081815260128452869020805477ffffffffffffffffffffffffffffffffffffffff0000000019163364010000000081029190911763ffffffff191660e060020a8504179091559084529183019190915283519097508796507f0b46cbed2ca40f09668847cdf0153b6c9c57e162edf9f8f8de1e2f135eefde9f955090819003909201925050a15090565b600080806002600b5460ff166004811115611e9857fe5b148015611eb35750611ea8612450565b611eb06116d7565b11155b15611ec057611ec0612d4b565b6003600b5460ff166004811115611ed357fe5b148015611ee65750623b53806007540142115b15611ef957600b805460ff191660041790555b600280600b5460ff166004811115611f0d57fe5b14611f1757600080fd5b600160a060020a0385161515611f2b573394505b349350600854611f396116d7565b670de0b6b3a76400006a084595161401484a000000040203925060085460045403915082821015611f68578192505b82841115611fa85782935084600160a060020a03166108fc8534039081150290604051600060405180830381858888f193505050501515611fa857600080fd5b831580611fda575060008054604051600160a060020a039091169186156108fc02918791818181858888f19350505050155b15611fe457600080fd5b600160a060020a0385166000908152600a6020526040902080548501905560088054850190558284141561201a5761201a612d4b565b604080518581529051600160a060020a038716917f9c89e828e6cee6374b68147c9e753e41746aad98ba255a527a4fc0ac1868bff9919081900360200190a2505050919050565b60085481565b60095481565b604080516c01000000000000000000000000600160a060020a038416810260208084019190915233919091026034830152825160288184030181526048909201928390528151600093918291908401908083835b602083106120e05780518252601f1990920191602091820191016120c1565b5181516020939093036101000a6000190180199091169216919091179052604051920182900390912095945050505050565b600b5460ff1681565b60006002600b5460ff16600481111561213057fe5b14801561214b5750612140612450565b6121486116d7565b11155b1561215857612158612d4b565b6003600b5460ff16600481111561216b57fe5b14801561217e5750623b53806007540142115b1561219157600b805460ff191660041790555b50600b5460ff1690565b600181565b3360009081526014602052604081205481908190819060ff1615156001146121c757600080fd5b600d54692a5a058fc295ed000000116121df57600080fd5b600092505b84518310156123785784838151811015156121fb57fe5b6020908102909101810151600160e060020a03198816600081815260138085526040808320600160a060020a03861684526004810187529083205493909252909352600290920180549194509192508290811061225457fe5b60009182526020808320600592830201805473ffffffffffffffffffffffffffffffffffffffff191681556001808201859055600280830186905560038301805460ff199081169091556004909301869055600160e060020a03198c1680875260138086526040808920600160a060020a038c168a52978801875288208054909516909317909355919094529290526006810154600d80549190910390550180547fe1fca9927dcfa04dc511a8afd2420f434f8adb189883c5efa7edcec94496b2ec9188918591908590811061232657fe5b60009182526020918290206004600590920201015460408051600160e060020a03199095168552600160a060020a039093169184019190915282820152519081900360600190a16001909201916121e4565b50505092915050565b600354600160a060020a031681565b60006002600b5460ff1660048111156123a557fe5b1480156123c057506123b5612450565b6123bd6116d7565b11155b156123cd576123cd612d4b565b6003600b5460ff1660048111156123e057fe5b1480156123f35750623b53806007540142115b1561240657600b805460ff191660041790555b6003600b5460ff16600481111561241957fe5b148061243557506004600b5460ff16600481111561243357fe5b145b1561244357506009546116ff565b61244b6116d7565b905090565b6008546000906a084595161401484a00000090670de0b6b3a7640000026116f8565b60007f1731fdc3bb916cb9784ad5d30a3a9c01b6f53ca830447dbfa839dfea7a699e8d6000366000369050604051808060200183815260200182810382528585828181526020019250808284376040519201829003965090945050505050a160043614806124e05750602436145b151561254d57604080517f08c379a000000000000000000000000000000000000000000000000000000000815260206004820152601060248201527f4e6f2076616c6964207061796c6f616400000000000000000000000000000000604482015290519081900360640190fd5b6002600b5460ff16600481111561256057fe5b14801561257b5750612570612450565b6125786116d7565b11155b1561258857612588612d4b565b6003600b5460ff16600481111561259b57fe5b1480156125ae5750623b53806007540142115b156125c157600b805460ff191660041790555b600480600b5460ff1660048111156125d557fe5b146125df57600080fd5b600160a060020a03831615156125f3573392505b600954600160a060020a0384166000908152600a6020526040902054670de0b6b3a76400000281151561262257fe5b600160a060020a038086166000818152600a60209081526040808320839055600154815160e060020a63a9059cbb028152600481019590955296909504602484018190529451949750949092169363a9059cbb9360448084019492939192918390030190829087803b15801561269757600080fd5b505af11580156126ab573d6000803e3d6000fd5b505050506040513d60208110156126c157600080fd5b5050505050565b60055481565b6011602052600090815260409020805460018201546002830154600484015460059094015460e060020a840294640100000000909404600160a060020a0316939086565b6000808080806002600b5460ff16600481111561272b57fe5b148015612746575061273b612450565b6127436116d7565b11155b1561275357612753612d4b565b6003600b5460ff16600481111561276657fe5b1480156127795750623b53806007540142115b1561278c57600b805460ff191660041790555b600480600b5460ff1660048111156127a057fe5b146127aa57600080fd5b600160e060020a031987166000908152601360209081526040808320338452600501909152902054879060ff16156127e157600080fd5b600160e060020a0319881660009081526013602090815260408083203380855260049091018352928190205481516c010000000000000000000000009094028484015281518085036014018152603490940191829052835190995090918291908401908083835b602083106128675780518252601f199092019160209182019101612848565b51815160209384036101000a60001901801990921691161790526040805192909401829003909120600160e060020a0319808216600081815260129094529490922054909a5060e060020a0216909114925050811590506128e25750600160e060020a03198516600090815260126020526040812060020154115b156129ed57600160e060020a031985166000908152601260209081526040808320600281018054908590556001549154835160e060020a63a9059cbb028152600160a060020a03640100000000909204821660048201526024810183905293519199509091169363a9059cbb93604480850194919392918390030190829087803b15801561296f57600080fd5b505af1158015612983573d6000803e3d6000fd5b505050506040513d602081101561299957600080fd5b505060408051600160e060020a03198a16815233602082015260018183015290517f5ceaa24952cb4452b8781e57ea840571d194349b1e39d667878047b83715bab09181900360600190a160019650612b51565b600160e060020a031988166000908152601360205260409020600201805487908110612a1557fe5b6000918252602090912060059091020154600160a060020a031633148015612a745750600160e060020a031988166000908152601360205260408120600201805488908110612a6057fe5b906000526020600020906005020160020154115b15612b4c57600160e060020a031988166000908152601360205260409020600201805487908110612aa157fe5b600091825260208083206002600590930201820154600160e060020a03198c16845260139091526040832090910180549195509088908110612adf57fe5b60009182526020808320600260059093020191909101929092556001546040805160e060020a63a9059cbb028152336004820152602481018890529051600160a060020a039092169363a9059cbb9360448084019492938390030190829087803b15801561296f57600080fd5b600096505b505050505050919050565b600381565b60155490565b692a5a058fc295ed00000081565b600254600160a060020a03163314612b8c57600080fd5b6003805473ffffffffffffffffffffffffffffffffffffffff1916600160a060020a0392909216919091179055565b600082821115612bc757fe5b50900390565b6000808284811515612bdb57fe5b0490508091505b5092915050565b600080831515612bfc5760009150612be2565b50828202828482811515612c0c57fe5b041461160157fe5b600080826040516020018082600160a060020a0316600160a060020a03166c010000000000000000000000000281526014019150506040516020818303038152906040526040518082805190602001908083835b60208310612c875780518252601f199092019160209182019101612c68565b51815160209384036101000a600019018019909216911617905260408051929094018290038220600160e060020a03198116600081815260128452869020805477ffffffffffffffffffffffffffffffffffffffff00000000191633640100000000021763ffffffff191660e060020a84041790558352600160a060020a038a169183019190915283519097508796507f0b46cbed2ca40f09668847cdf0153b6c9c57e162edf9f8f8de1e2f135eefde9f955090819003909201925050a150919050565b600b805460ff191660031790556004546008541415612d7457612d6c6116d7565b600955612d80565b612d7c612450565b6009555b42600755565b604080518082019091526000808252602082015290565b6040805160a08101825260008082526020820181905291810182905260608101829052608081019190915290560000c35fb01c0d5dae78232f9ccceb19b4267e300be89df0f127816a262fd6413fa165627a7a723058203017718c2934a961955fb95cf53151517ea93ec3bc17343a6771ba86835d01360029",
  "source": "pragma solidity ^0.4.23;\n\nlibrary SafeMath {\n\n  function mul(uint256 a, uint256 b) internal pure returns (uint256) {\n    if (a == 0) {\n      return 0;\n    }\n    uint256 c = a * b;\n    assert(c / a == b);\n    return c;\n  }\n\n  function div(uint256 a, uint256 b) internal pure returns (uint256) {\n    // assert(b > 0); // Solidity automatically throws when dividing by 0\n    uint256 c = a / b;\n    // assert(a == b * c + a % b); // There is no case in which this doesn't hold\n    return c;\n  }\n\n  function sub(uint256 a, uint256 b) internal pure returns (uint256) {\n    assert(b <= a);\n    return a - b;\n  }\n\n  function add(uint256 a, uint256 b) internal pure returns (uint256) {\n    uint256 c = a + b;\n    assert(c >= a);\n    return c;\n  }\n}\n\ninterface Token {\n    function transfer(address to, uint256 value) external returns (bool success);\n    function transferFrom(address from, address to, uint256 value) external returns (bool success);\n    function approve(address spender, uint256 value) external returns (bool success);\n\n    // This is not an abstract function, because solc won't recognize generated getter functions for public variables as functions.\n    function totalSupply() external constant returns (uint256 supply);\n    function balanceOf(address owner) external constant returns (uint256 balance);\n    function allowance(address owner, address spender) external constant returns (uint256 remaining);\n\n    event Transfer(address indexed from, address indexed to, uint256 value);\n    event Approval(address indexed owner, address indexed spender, uint256 value);\n}\ninterface PromissoryToken {\n\n\tfunction claim() payable external;\n\tfunction lastPrice() external returns(uint256);\n}\n\ncontract DutchAuction {\n\n    /*\n     *  Events\n     */\n    event BidSubmission(address indexed sender, uint256 amount);\n    event logPayload(bytes _data, uint _lengt);\n\n    /*\n     *  Constants\n     */\n    uint constant public MAX_TOKENS_SOLD = 10000000 * 10**18; // 10M\n    uint constant public WAITING_PERIOD = 45 days;\n\n    /*\n     *  Storage\n     */\n\n\n    address public pWallet;\n    Token public KittieFightToken;\n    address public owner;\n    PromissoryToken public PromissoryTokenIns; \n    address constant public promissoryAddr = 0x0348B55AbD6E1A99C6EBC972A6A4582Ec0bcEb5c;\n    uint public ceiling;\n    uint public priceFactor;\n    uint public startBlock;\n    uint public endTime;\n    uint public totalReceived;\n    uint public finalPrice;\n    mapping (address => uint) public bids;\n    Stages public stage;\n\n    /*\n     *  Enums\n     */\n    enum Stages {\n        AuctionDeployed,\n        AuctionSetUp,\n        AuctionStarted,\n        AuctionEnded,\n        TradingStarted\n    }\n\n    /*\n     *  Modifiers\n     */\n    modifier atStage(Stages _stage) {\n        require(stage == _stage);\n            // Contract not in expected state\n        _;\n    }\n\n    modifier isOwner() {\n        require(msg.sender == owner);\n            // Only owner is allowed to proceed\n        _;\n    }\n\n    modifier isWallet() {\n         require(msg.sender == address(pWallet));\n            // Only wallet is allowed to proceed\n        _;\n    }\n\n    modifier isValidPayload() {\n        emit logPayload(msg.data, msg.data.length);\n        require(msg.data.length == 4 || msg.data.length == 36, \"No valid payload\");\n        _;\n    }\n\n    modifier timedTransitions() {\n        if (stage == Stages.AuctionStarted && calcTokenPrice() <= calcStopPrice())\n            finalizeAuction();\n        if (stage == Stages.AuctionEnded && now > endTime + WAITING_PERIOD)\n            stage = Stages.TradingStarted;\n        _;\n    }\n\n    /*\n     *  Public functions\n     */\n    /// @dev Contract constructor function sets owner.\n    /// @param _pWallet KittieFight promissory wallet.\n    /// @param _ceiling Auction ceiling.\n    /// @param _priceFactor Auction price factor.\n    constructor(address _pWallet, uint _ceiling, uint _priceFactor)\n        public\n    {\n        if (_pWallet == 0 || _ceiling == 0 || _priceFactor == 0)\n            // Arguments are null.\n            revert();\n        owner = msg.sender;\n        PromissoryTokenIns = PromissoryToken(promissoryAddr);\n        pWallet = _pWallet;\n        ceiling = _ceiling;\n        priceFactor = _priceFactor;\n        stage = Stages.AuctionDeployed;\n    }\n\n    /// @dev Setup function sets external contracts' addresses.\n    /// @param _kittieToken  token address.\n    function setup(address _kittieToken)\n        public\n        isOwner\n        atStage(Stages.AuctionDeployed)\n    {\n        if (_kittieToken == 0)\n            // Argument is null.\n            revert();\n        KittieFightToken = Token(_kittieToken);\n        // Validate token balance\n        if (KittieFightToken.balanceOf(this) != MAX_TOKENS_SOLD)\n            revert();\n        stage = Stages.AuctionSetUp;\n    }\n\n    /// @dev Starts auction and sets startBlock.\n    function startAuction()\n        public\n        isOwner\n        atStage(Stages.AuctionSetUp)\n    {\n        stage = Stages.AuctionStarted;\n        startBlock = block.number;\n    }\n\n    /// @dev Changes auction ceiling and start price factor before auction is started.\n    /// @param _ceiling Updated auction ceiling.\n    /// @param _priceFactor Updated start price factor.\n    function changeSettings(uint _ceiling, uint _priceFactor)\n        public\n        isWallet\n        atStage(Stages.AuctionSetUp)\n    {\n        ceiling = _ceiling;\n        priceFactor = _priceFactor;\n    }\n\n    /// @dev Calculates current token price.\n    /// @return Returns token price.\n    function calcCurrentTokenPrice()\n        public\n        timedTransitions\n        returns (uint)\n    {\n        if (stage == Stages.AuctionEnded || stage == Stages.TradingStarted)\n            return finalPrice;\n        return calcTokenPrice();\n    }\n\n    /// @dev Returns correct stage, even if a function with timedTransitions modifier has not yet been called yet.\n    /// @return Returns current auction stage.\n    function updateStage()\n        public\n        timedTransitions\n        returns (Stages)\n    {\n        return stage;\n    }\n\n    /// @dev Allows to send a bid to the auction.\n    /// @param receiver Bid will be assigned to this address if set.\n    function bid(address receiver)\n        public\n        payable\n        //isValidPayload\n        timedTransitions\n        atStage(Stages.AuctionStarted)\n        returns (uint amount)\n    {\n        // If a bid is done on behalf of a user via ShapeShift, the receiver address is set.\n        if (receiver == 0)\n            receiver = msg.sender;\n        amount = msg.value;\n        // Prevent that more than 90% of tokens are sold. Only relevant if cap not reached.\n        uint maxWei = (MAX_TOKENS_SOLD / 10**18) * calcTokenPrice() - totalReceived;\n        uint maxWeiBasedOnTotalReceived = ceiling - totalReceived;\n        if (maxWeiBasedOnTotalReceived < maxWei)\n            maxWei = maxWeiBasedOnTotalReceived;\n        // Only invest maximum possible amount.\n        if (amount > maxWei) {\n            amount = maxWei;\n            // Send change back to receiver address. In case of a ShapeShift bid the user receives the change back directly.\n            if (!receiver.send(msg.value - amount))\n                // Sending failed\n                revert();\n        }\n        // Forward funding to ether pWallet\n        if (amount == 0 || !address(pWallet).send(amount))\n            // No amount sent or sending failed\n            revert();\n        bids[receiver] += amount;\n        totalReceived += amount;\n        if (maxWei == amount)\n            // When maxWei is equal to the big amount the auction is ended and finalizeAuction is triggered.\n            finalizeAuction();\n        emit BidSubmission(receiver, amount);\n    }\n\n    /// @dev Claims tokens for bidder after auction.\n    /// @param receiver Tokens will be assigned to this address if set.\n    function claimTokens(address receiver)\n        public\n        isValidPayload\n        timedTransitions\n        atStage(Stages.TradingStarted)\n    {\n        if (receiver == 0)\n            receiver = msg.sender;\n        uint tokenCount = bids[receiver] * 10**18 / finalPrice;\n        bids[receiver] = 0;\n        KittieFightToken.transfer(receiver, tokenCount);\n    }\n\n    /// @dev Calculates stop price.\n    /// @return Returns stop price.\n    function calcStopPrice()\n        view\n        public\n        returns (uint)\n    {\n        return totalReceived * 10**18 / MAX_TOKENS_SOLD + 1;\n    }\n\n    /// @dev Calculates token price.\n    /// @return Returns token price.\n    function calcTokenPrice()\n        view\n        public\n        returns (uint)\n    {\n        return priceFactor * 10**18 / (block.number - startBlock + 7500) + 1;\n    }\n\n    /*\n     *  Private functions\n     */\n    function finalizeAuction()\n        private\n    {\n        stage = Stages.AuctionEnded;\n\n        if (totalReceived == ceiling)\n            finalPrice = calcTokenPrice();\n        else\n            finalPrice = calcStopPrice();\n\n        endTime = now;\n    }\n\n\n}\n\ncontract Dutchwrapper is DutchAuction {\n\n\n    uint constant public MAX_TOKEN_REFERRAL = 1800000 * 10**18; // 800,000 : eight hundred  thousand\n    uint constant public MAX_TOKEN_SOCIAL = 200000 * 10**18; // 200,000 : two hundred thousand\n\n    uint public claimedTokenReferral = 0; // 800,000 : eigth hundred thousand limit\n    uint public claimedSocial = 0; // 200,000 : two  hundred thousand limit\n\n\n    // 1,000,000 :  1 million: total MAX_TOKEN_REFERRAL + MAX_TOKEN_SOCIAL\n    uint constant public TOTAL_BONUS_TOKEN = 2000000 * 10**18;\n\n\n    uint constant public Partners = 1; // Distinction between promotion groups, partnership for eth\n    uint constant public Referrals = 2; // Distinction between promotion groups, referral campaign for tokens\n    uint constant public Social = 3; // Distinction between promotion groups, social giveaway bonus\n\n    uint constant public ONE = 1; // NUMBER 1\n\n    mapping (address => uint) public SuperDAOTokens; // amount of bonus Superdao Tokens earned per bidder\n    //for participation on auction based on eth bid\n\n    struct PartnerForEth {\n        bytes4 hash; // unique hash for partner\n        address addr; //address for partner\n        uint totalReferrals; // Number of reffered parties\n        uint totalContribution; // total contribution in ETH by reffered parties\n        uint[] individualContribution; // individual contribution list, number of eth per contributor\n        uint percentage; // percentage share for partner of each referral\n        uint EthEarned; // up to date total amount earned\n    }\n\n\taddress [] public PartnersList; // list of partners\n\n    //for token referal campaign\n    struct tokenForReferral {\n        bytes4 hash; // hash of this campaign\n        address addr; // address of this user\n        uint totalReferrals; // total amount of participators refered\n        uint totalTokensEarned; // total tokens earned based on referals\n        mapping(uint => uint) tokenAmountPerReferred;// Amount of tokens earned for each participator referred\n    }\n\n    address [] public TokenReferalList; // list of partners\n\n\n    //Profile for social campaign\n    struct SocialProfile{\n        address addr; // address of this user\n        bytes32 socialAction; // online location of this users social action\n        uint tokensEarned; // total tokens earned based on campaign action\n        bool approved; ///approved or not\n        bytes32 username; //social media username twitter or discord\n    }\n\n    struct TokenforSocial{\n        bytes4 hash; // campaign identifier\n        uint maxParticipators; //  maximum number of participators in this campaign\n        SocialProfile [] SocialLinkProfile; // actual profile of participator with social sharing\n        address [] profileList; // list os addresses of participators\n        mapping(address => uint) index; //address indexes\n        mapping(address => bool) disqualified; //indicate if a user is disqualified or not\n        uint tokenAmountForEach; // amount of tokens allocated to each participator\n    }\n\n    mapping(bytes4 => PartnerForEth )  public MarketingPartners;\n    mapping(bytes4 => tokenForReferral)  public TokenReferrals;\n    mapping(bytes4 => TokenforSocial )  public SocialCampaigns;\n    mapping(address => bool ) public Admins;\n\n    // statistics on the number of bidders\n    struct bidder {\n        address addr;\n        uint amount;\n    }\n\n    bidder [] public CurrentBidders; // document current bidders\n\n\n    event PartnerReferral(bytes4 _partnerHash,address _addr, uint _amount);//fired after marketing partner referral happens\n    event SocialReferral(bytes4 _campaignHash,address _addr, uint _amount);//fired when social action converts to a bid\n    event TokenReferral(bytes4 _campaignHash,address _addr, uint _amount);// fired when token referral happens\n    event BidEvent(bytes4 _hash, address _addr, uint _amount); //fired when a bid happens\n    event SetupReferal(uint _type); //fired when a referal campaign is setup\n    event ConfirmSocial(bytes4 _campaignHash, address _addr, bytes32 _userName); //fired when social promoters confirm social action\n    event AdminRemoveBatch(bytes4 _campaignHash, address _addr, bytes32 _userName); // fired when users are removed from storage\n    event ReferalSignup(bytes4 _Hash, address _addr); // fired when a token promoter signs up\n    event ClaimtokenBonus(bytes4 _Hash, address _addr, bool success); //fired when a person claims earned tokens\n\n\n\n    // check admins\n    modifier isAdmin(){\n        require(Admins[msg.sender] == true);\n        _;\n    }\n\n    //Check if a user has been disqualified by admin\n    modifier isDisqualified(bytes4 _campaignHash){\n        require(SocialCampaigns[_campaignHash].disqualified[msg.sender] == false);\n        _;\n    }\n\n    // check when dutch auction is ended and trading has started\n    modifier tradingstarted(){\n        require(stage == Stages.TradingStarted);\n        _;\n    }\n\n    // let only partner or owner check\n    modifier onlyMarketingPartners(bytes4 _hash) {\n        require((msg.sender == owner) || ((msg.sender == MarketingPartners[_hash].addr) && ( _hash == MarketingPartners[_hash].hash)));\n            // Only owner or partner is allowed to proceed\n        _;\n    }\n\n\n    // uint constant public MAX_TOKEN_REFERRAL = 800000 * 10**18; // 800,000 : eight hundred  thousand\n    // uint constant public MAX_TOKEN_SOCIAL = 200000 * 10**18; // 200,000 : two hundred thousand\n    //\n    // uint public claimedTokenReferral = 0; // 800,000 : eigth hundred thousand limit\n    // uint public claimedSocial = 0; // 200,000 : two  hundred thousand limit\n\n\n    // 1,000,000 :  1 million: total MAX_TOKEN_REFERRAL + MAX_TOKEN_SOCIAL\n    // uint constant public TOTAL_BONUS_TOKEN = 1000000 * 10**18;\n\n\n    // safety check for requiring limits at maximum amount allocated for referrals\n    modifier ReferalCampaignLimit() {\n        require (claimedTokenReferral < MAX_TOKEN_REFERRAL);\n        _;\n    }\n\n    // safety check for requiring limits at maximum amount allocated for social campaign\n    modifier SocialCampaignLimit() {\n        require (claimedSocial< MAX_TOKEN_SOCIAL);\n        _;\n    }\n\n    //reject already rejistered by username\n    modifier checkSocialDuplicates(bytes4 _campaignHash, bytes32 _userName) {\n    \tfor (uint i=0; i<SocialCampaigns[_campaignHash].SocialLinkProfile.length; i++ ) {\n    \t\tif (SocialCampaigns[_campaignHash].SocialLinkProfile[i].username == _userName) {\n    \t\t\trevert();\n    \t\t}\n        }\n    \t_;\n    }\n\n    constructor  (address _pWallet, uint _ceiling, uint _priceFactor)\n        DutchAuction(_pWallet, _ceiling, _priceFactor)  public {\n    }\n\n    //set an address as admin to moderate and check social media campaigns\n    function setAdmin(address _addr) public isOwner returns (bool success){\n        Admins[_addr] = true;\n    \t\t    return true;\n    }\n\n    //remove an address from moderating and checking social media campaigns\n    function removeAdmin(address _addr) public isOwner returns (bool success){\n        Admins[_addr] = false;\n    \t\t    return true;\n    }\n\n\n    // creates either a marketing partnering for eth or a twitter retweet campaign. referal marketing in\n    // exchange for tokens are self generated in referal signup function\n\n    function setupReferal(address _addr, uint _percentage, uint _type, uint _tokenAmt, uint _numUsers)\n        public\n        isOwner\n        returns (string successmessage)\n    {\n\n        bytes4 tempHash = bytes4(keccak256(abi.encodePacked(_addr, msg.sender)));\n\n        if (_type == Partners) {\n\n            MarketingPartners[tempHash].hash = tempHash;\n            MarketingPartners[tempHash].addr = _addr;\n            MarketingPartners[tempHash].percentage = _percentage;\n            InternalReferalSignup(_addr);\n    \t\t    emit SetupReferal(_type);\n            return \"partner signed up\";\n\n        } else {\n\n            SocialCampaigns[tempHash].hash = tempHash;\n            SocialCampaigns[tempHash].maxParticipators = _numUsers;\n            SocialCampaigns[tempHash].tokenAmountForEach = _tokenAmt;\n            emit SetupReferal(_type);\n            return \"social campaign started\";\n        }\n    }\n\n    // generated hash on behalf of partners earning cash and tokensby tokens. referalcampaignlimmit modifier\n    //removed because partner signup it will fail if referal tokens are used up\n    function InternalReferalSignup(address _addr) internal returns (bytes4 referalhash) {\n        bytes4 tempHash = bytes4(keccak256(abi.encodePacked(_addr)));\n        TokenReferrals[tempHash].addr = msg.sender;\n        TokenReferrals[tempHash].hash = tempHash;\n        referalhash = tempHash;\n        emit ReferalSignup(tempHash, _addr);\n    }\n\n\n    // public self generated hash by token earning promoters\n    function referralSignup() public ReferalCampaignLimit returns (bytes4 referalhash) {\n        bytes4 tempHash = bytes4(keccak256(abi.encodePacked(msg.sender)));\n        TokenReferrals[tempHash].addr = msg.sender;\n        TokenReferrals[tempHash].hash = tempHash;\n        referalhash = tempHash;\n        emit ReferalSignup(tempHash, msg.sender);\n    }\n\n\n    // Biding using a referral hash\n    function bidReferral(address _receiver, bytes4 _hash) public payable returns (uint) {\n\n        uint bidAmount = msg.value;\n        uint256 promissorytokenLastPrice = PromissoryTokenIns.lastPrice();\n\n\n        if(bidAmount > ceiling - totalReceived) {\n            bidAmount = ceiling - totalReceived;\n        }\n\n        require( bid(_receiver) == bidAmount );\n\n\t\tuint amount = msg.value;\n\t\tbidder memory _bidder;\n\t\t_bidder.addr = _receiver;\n\t\t_bidder.amount = amount;\n        SuperDAOTokens[msg.sender] += amount/promissorytokenLastPrice;\n\t\tCurrentBidders.push(_bidder);\n\n        emit BidEvent(_hash, msg.sender, amount);\n\n        if (_hash == MarketingPartners[_hash].hash) {\n\n            MarketingPartners[_hash].totalReferrals += ONE;\n            MarketingPartners[_hash].totalContribution += amount;\n            MarketingPartners[_hash].individualContribution.push(amount);\n            MarketingPartners[_hash].EthEarned += referalPercentage(amount, MarketingPartners[_hash].percentage);\n\n            if(claimedTokenReferral < MAX_TOKEN_REFERRAL){\n            TokenReferrals[_hash].totalReferrals += ONE;\n\n            if( (msg.value >= 1 ether) && (msg.value <= 3 ether) ) {\n              TokenReferrals[_hash].tokenAmountPerReferred[amount] = 100 * 10**18;\n              TokenReferrals[_hash].totalTokensEarned += 100 * 10**18;\n              claimedTokenReferral += 100 * 10**18;\n              emit TokenReferral(_hash ,msg.sender, amount);\n\n\n              } else if ((msg.value > 3 ether)&&(msg.value <= 6 ether)) {\n                  TokenReferrals[_hash].tokenAmountPerReferred[amount] = 500 * 10**18;\n                  TokenReferrals[_hash].totalTokensEarned += 500 * 10**18;\n                  claimedTokenReferral += 500 * 10**18;\n                  emit TokenReferral(_hash ,msg.sender, amount);\n\n\n                  } else if (msg.value > 6 ether) {\n                    TokenReferrals[_hash].tokenAmountPerReferred[amount] = 1000 * 10**18;\n                    TokenReferrals[_hash].totalTokensEarned += 1000 * 10**18;\n                    claimedTokenReferral += 1000 * 10**18;\n                    emit TokenReferral(_hash, msg.sender, amount);\n\n                  }\n                }\n            emit PartnerReferral(_hash, MarketingPartners[_hash].addr, amount);\n\n            return Partners;\n\n          } else if ((_hash == TokenReferrals[_hash].hash) && (claimedTokenReferral < MAX_TOKEN_REFERRAL)) {\n\n        \t\t\tTokenReferrals[_hash].totalReferrals += ONE;\n\n        \t\t\tif( (msg.value >= 1 ether) && (msg.value <= 3 ether) ) {\n        \t\t\t\tTokenReferrals[_hash].tokenAmountPerReferred[amount] = 100 * 10**18;\n        \t\t\t\tTokenReferrals[_hash].totalTokensEarned += 100 * 10**18;\n                claimedTokenReferral += 100 * 10**18;\n        \t\t\t\temit TokenReferral(_hash ,msg.sender, amount);\n        \t\t\t\treturn Referrals;\n\n        \t\t\t\t} else if ((msg.value > 3 ether)&&(msg.value <= 6 ether)) {\n        \t\t\t\t\t\tTokenReferrals[_hash].tokenAmountPerReferred[amount] = 500 * 10**18;\n        \t\t\t\t\t\tTokenReferrals[_hash].totalTokensEarned += 500 * 10**18;\n                    claimedTokenReferral += 500 * 10**18;\n        \t\t\t\t\t\temit TokenReferral(_hash ,msg.sender, amount);\n        \t\t\t\t\t\treturn Referrals;\n\n        \t\t\t\t\t\t} else if (msg.value > 6 ether) {\n        \t\t\t\t\t\t\tTokenReferrals[_hash].tokenAmountPerReferred[amount] = 1000 * 10**18;\n        \t\t\t\t\t\t\tTokenReferrals[_hash].totalTokensEarned += 1000 * 10**18;\n                      claimedTokenReferral += 1000 * 10**18;\n        \t\t\t\t\t\t\temit TokenReferral(_hash, msg.sender, amount);\n        \t\t\t\t\t\t\treturn Referrals;\n        \t\t\t\t\t\t}\n                            }\n\n\n    }\n\n\n\n\tfunction confirmSocial(bytes4 _campaignHash, bytes32 _userName, bytes32 _retweetOrdiscord) public\n\t   SocialCampaignLimit\n\t   checkSocialDuplicates(_campaignHash, _userName)\n    \treturns (uint) {\n\t\t\tuint id = SocialCampaigns[_campaignHash].index[msg.sender];\n\n            if(SocialCampaigns[_campaignHash].SocialLinkProfile.length != 0){\n                require(msg.sender != SocialCampaigns[_campaignHash].SocialLinkProfile[id].addr); //reject already rejistered\n            }\n\n\t\t\trequire(SocialCampaigns[_campaignHash].SocialLinkProfile.length <= SocialCampaigns[_campaignHash].maxParticipators);// check token availability\n            SocialProfile memory tempProfile;\n\t\t\ttempProfile.addr = msg.sender;\n \t\t\ttempProfile.socialAction = _retweetOrdiscord; //store social action\n\t\t\ttempProfile.tokensEarned = SocialCampaigns[_campaignHash].tokenAmountForEach;\n\t\t\ttempProfile.approved = true;\n\t\t\ttempProfile.username = _userName;\n\t\t\tSocialCampaigns[_campaignHash].SocialLinkProfile.push(tempProfile);\n\t\t\tSocialCampaigns[_campaignHash].index[msg.sender] = SocialCampaigns[_campaignHash].SocialLinkProfile.length;\n\t\t\t//SocialCampaigns[_campaignHash].disqualified[tempAddr] = false;\n\n\n\t\t\tclaimedSocial += SocialCampaigns[_campaignHash].tokenAmountForEach;\n\t\t\temit ConfirmSocial(_campaignHash, msg.sender, _userName);\n    }\n\n\n    function adminRemoveBatch(bytes4 _campaignHash, address [] _batchList) public\n        isAdmin\n        SocialCampaignLimit\n        returns (uint) {\n        \t for (uint i=0; i < _batchList.length; i++){\n        \t   address tempAddr = _batchList[i];\n        \t   uint userIndex = SocialCampaigns[_campaignHash].index[tempAddr];\n        \t   delete SocialCampaigns[_campaignHash].SocialLinkProfile[userIndex];\n        \t   SocialCampaigns[_campaignHash].disqualified[tempAddr] = true;\n        \t   claimedSocial -= SocialCampaigns[_campaignHash].tokenAmountForEach;\n        \t   emit AdminRemoveBatch(_campaignHash, tempAddr, SocialCampaigns[_campaignHash].SocialLinkProfile[userIndex].username);\n        }\n    }\n\n\n\n\tfunction referalPercentage(uint _amount, uint _percent)\n\t    public\n\t    returns (uint) {\n            return SafeMath.mul( SafeMath.div( SafeMath.sub(_amount, _amount%100), 100 ), _percent );\n\t}\n\n\n\n  function claimtokenBonus (bytes4 _campaignHash) public\n\ttimedTransitions\n\tatStage(Stages.TradingStarted)\n\tisDisqualified(_campaignHash)\n\treturns (bool success) {\n\n\t \tuint userIndex = SocialCampaigns[_campaignHash].index[msg.sender];\n        bytes4 _personalHash = bytes4(keccak256(abi.encodePacked(msg.sender)));\n\n\t\tif ((_personalHash == TokenReferrals[_personalHash].hash) && (TokenReferrals[_personalHash].totalTokensEarned > 0)){\n\n\t\t\tuint TokensToTransfer1 = TokenReferrals[_personalHash].totalTokensEarned;\n\t\t\tTokenReferrals[_personalHash].totalTokensEarned = 0;\n            KittieFightToken.transfer(TokenReferrals[_personalHash].addr , TokensToTransfer1);\n\t\t\temit ClaimtokenBonus(_campaignHash, msg.sender, true);\n\t\t\treturn true;\n\n\t  }else if((msg.sender == SocialCampaigns[_campaignHash].SocialLinkProfile[userIndex].addr) && (SocialCampaigns[_campaignHash].SocialLinkProfile[userIndex].tokensEarned > 0)){\n\n\t\tuint TokensToTransfer2 = SocialCampaigns[_campaignHash].SocialLinkProfile[userIndex].tokensEarned;\n\t\tSocialCampaigns[_campaignHash].SocialLinkProfile[userIndex].tokensEarned = 0;\n\t\tKittieFightToken.transfer(msg.sender, TokensToTransfer2);\n\t\temit ClaimtokenBonus(_campaignHash, msg.sender, true);\n\t\treturn true;\n\t\t}else return false;\n\n  }\n\n    /*\n     *  Admin transfers all unsold tokens back to token contract\n     */\n    function transferUnsoldTokens(uint _unsoldTokens, address _addr)\n        public\n        isOwner\n        atStage(Stages.TradingStarted)\n\n     {\n\n        uint soldTokens = totalReceived * 10**18 / finalPrice;\n        require (_unsoldTokens < (MAX_TOKENS_SOLD + claimedTokenReferral + claimedSocial) - soldTokens);\n        KittieFightToken.transfer(_addr, _unsoldTokens);\n    }\n\n\n    // function getTokenforSocial (bytes4 _hash) public view returns (bool res)  {\n    // }\n    \n\n    function getCurrentBiddersCount () public view returns(uint biddersCount)  {\n        biddersCount = CurrentBidders.length;\n    }\n    \n\n    // helper functions  return msg.senders\n    function calculatPersonalHash() public view returns (bytes4 _hash) {\n        _hash = bytes4(keccak256(abi.encodePacked(msg.sender)));\n    }\n\n    function calculateCampaignHash(address _addr) public view returns (bytes4 _hash) {\n        _hash = bytes4(keccak256(abi.encodePacked(_addr, msg.sender)));\n    }\n\n    // Set Promissary token Instance  By Admin (Fo testing only)\n    function setPromissoryTokenInstance(address _promissoryAddr) public isOwner {\n        PromissoryTokenIns = PromissoryToken(_promissoryAddr);\n    }\n  \n\n}\n\n",
  "sourcePath": "/Users/achiko/Documents/elva/projects/kittiefight/DutchAuction/contracts/contracts-flattened/Dutchwrapper-flattened.sol",
  "compiler": {
    "name": "solc",
    "version": "0.4.24+commit.e67f0147.Emscripten.clang"
  },
  "schemaVersion": "2.0.1",
  "updatedAt": "2018-11-16T14:02:09.261Z"
}