{
  "contractName": "DutchAuction",
  "abi": [
    {
      "constant": true,
      "inputs": [],
      "name": "MAX_TOKENS_SOLD",
      "outputs": [
        {
          "name": "",
          "type": "uint256"
        }
      ],
      "payable": false,
      "stateMutability": "view",
      "type": "function"
    },
    {
      "constant": true,
      "inputs": [],
      "name": "endTime",
      "outputs": [
        {
          "name": "",
          "type": "uint256"
        }
      ],
      "payable": false,
      "stateMutability": "view",
      "type": "function"
    },
    {
      "constant": true,
      "inputs": [],
      "name": "promissoryAddr",
      "outputs": [
        {
          "name": "",
          "type": "address"
        }
      ],
      "payable": false,
      "stateMutability": "view",
      "type": "function"
    },
    {
      "constant": true,
      "inputs": [],
      "name": "startBlock",
      "outputs": [
        {
          "name": "",
          "type": "uint256"
        }
      ],
      "payable": false,
      "stateMutability": "view",
      "type": "function"
    },
    {
      "constant": true,
      "inputs": [],
      "name": "KittieFightToken",
      "outputs": [
        {
          "name": "",
          "type": "address"
        }
      ],
      "payable": false,
      "stateMutability": "view",
      "type": "function"
    },
    {
      "constant": true,
      "inputs": [
        {
          "name": "",
          "type": "address"
        }
      ],
      "name": "bids",
      "outputs": [
        {
          "name": "",
          "type": "uint256"
        }
      ],
      "payable": false,
      "stateMutability": "view",
      "type": "function"
    },
    {
      "constant": true,
      "inputs": [],
      "name": "WAITING_PERIOD",
      "outputs": [
        {
          "name": "",
          "type": "uint256"
        }
      ],
      "payable": false,
      "stateMutability": "view",
      "type": "function"
    },
    {
      "constant": true,
      "inputs": [],
      "name": "ceiling",
      "outputs": [
        {
          "name": "",
          "type": "uint256"
        }
      ],
      "payable": false,
      "stateMutability": "view",
      "type": "function"
    },
    {
      "constant": true,
      "inputs": [],
      "name": "owner",
      "outputs": [
        {
          "name": "",
          "type": "address"
        }
      ],
      "payable": false,
      "stateMutability": "view",
      "type": "function"
    },
    {
      "constant": true,
      "inputs": [],
      "name": "pWallet",
      "outputs": [
        {
          "name": "",
          "type": "address"
        }
      ],
      "payable": false,
      "stateMutability": "view",
      "type": "function"
    },
    {
      "constant": true,
      "inputs": [],
      "name": "totalReceived",
      "outputs": [
        {
          "name": "",
          "type": "uint256"
        }
      ],
      "payable": false,
      "stateMutability": "view",
      "type": "function"
    },
    {
      "constant": true,
      "inputs": [],
      "name": "finalPrice",
      "outputs": [
        {
          "name": "",
          "type": "uint256"
        }
      ],
      "payable": false,
      "stateMutability": "view",
      "type": "function"
    },
    {
      "constant": true,
      "inputs": [],
      "name": "stage",
      "outputs": [
        {
          "name": "",
          "type": "uint8"
        }
      ],
      "payable": false,
      "stateMutability": "view",
      "type": "function"
    },
    {
      "constant": true,
      "inputs": [],
      "name": "PromissoryTokenIns",
      "outputs": [
        {
          "name": "",
          "type": "address"
        }
      ],
      "payable": false,
      "stateMutability": "view",
      "type": "function"
    },
    {
      "constant": true,
      "inputs": [],
      "name": "priceFactor",
      "outputs": [
        {
          "name": "",
          "type": "uint256"
        }
      ],
      "payable": false,
      "stateMutability": "view",
      "type": "function"
    },
    {
      "inputs": [
        {
          "name": "_pWallet",
          "type": "address"
        },
        {
          "name": "_ceiling",
          "type": "uint256"
        },
        {
          "name": "_priceFactor",
          "type": "uint256"
        }
      ],
      "payable": false,
      "stateMutability": "nonpayable",
      "type": "constructor"
    },
    {
      "anonymous": false,
      "inputs": [
        {
          "indexed": true,
          "name": "sender",
          "type": "address"
        },
        {
          "indexed": false,
          "name": "amount",
          "type": "uint256"
        }
      ],
      "name": "BidSubmission",
      "type": "event"
    },
    {
      "anonymous": false,
      "inputs": [
        {
          "indexed": false,
          "name": "_data",
          "type": "bytes"
        },
        {
          "indexed": false,
          "name": "_lengt",
          "type": "uint256"
        }
      ],
      "name": "logPayload",
      "type": "event"
    },
    {
      "constant": false,
      "inputs": [
        {
          "name": "_kittieToken",
          "type": "address"
        }
      ],
      "name": "setup",
      "outputs": [],
      "payable": false,
      "stateMutability": "nonpayable",
      "type": "function"
    },
    {
      "constant": false,
      "inputs": [],
      "name": "startAuction",
      "outputs": [],
      "payable": false,
      "stateMutability": "nonpayable",
      "type": "function"
    },
    {
      "constant": false,
      "inputs": [
        {
          "name": "_ceiling",
          "type": "uint256"
        },
        {
          "name": "_priceFactor",
          "type": "uint256"
        }
      ],
      "name": "changeSettings",
      "outputs": [],
      "payable": false,
      "stateMutability": "nonpayable",
      "type": "function"
    },
    {
      "constant": false,
      "inputs": [],
      "name": "calcCurrentTokenPrice",
      "outputs": [
        {
          "name": "",
          "type": "uint256"
        }
      ],
      "payable": false,
      "stateMutability": "nonpayable",
      "type": "function"
    },
    {
      "constant": false,
      "inputs": [],
      "name": "updateStage",
      "outputs": [
        {
          "name": "",
          "type": "uint8"
        }
      ],
      "payable": false,
      "stateMutability": "nonpayable",
      "type": "function"
    },
    {
      "constant": false,
      "inputs": [
        {
          "name": "receiver",
          "type": "address"
        }
      ],
      "name": "bid",
      "outputs": [
        {
          "name": "amount",
          "type": "uint256"
        }
      ],
      "payable": true,
      "stateMutability": "payable",
      "type": "function"
    },
    {
      "constant": false,
      "inputs": [
        {
          "name": "receiver",
          "type": "address"
        }
      ],
      "name": "claimTokens",
      "outputs": [],
      "payable": false,
      "stateMutability": "nonpayable",
      "type": "function"
    },
    {
      "constant": true,
      "inputs": [],
      "name": "calcStopPrice",
      "outputs": [
        {
          "name": "",
          "type": "uint256"
        }
      ],
      "payable": false,
      "stateMutability": "view",
      "type": "function"
    },
    {
      "constant": true,
      "inputs": [],
      "name": "calcTokenPrice",
      "outputs": [
        {
          "name": "",
          "type": "uint256"
        }
      ],
      "payable": false,
      "stateMutability": "view",
      "type": "function"
    }
  ],
  "bytecode": "0x608060405234801561001057600080fd5b50604051606080610d17833981016040908152815160208301519190920151600160a060020a0383161580610043575081155b8061004c575080155b1561005657600080fd5b60028054600160a060020a03199081163317909155600380548216730348b55abd6e1a99c6ebc972a6a4582ec0bceb5c17905560008054600160a060020a039590951694909116939093178355600491909155600555600b805460ff19169055610c519081906100c690396000f30060806040526004361061013d5763ffffffff7c010000000000000000000000000000000000000000000000000000000060003504166317f5de9581146101425780633197cbb61461016957806333a42d101461017e57806336d02c94146101af57806339f64b52146101cc57806348cd4cb1146101e15780635fcee458146101f657806362ea82db1461020b57806366d382031461022c5780636b64c7691461024d5780636f85c7e414610262578063753ed1bd146102775780638da5cb5b1461028c5780639866845d146102a15780639cf5453d146102b6578063a3c2c462146102ca578063a6b513ee146102df578063c040e6b8146102f4578063c062f5781461032d578063cf76063414610342578063d9f8a4e214610357578063dd9dd6881461036c578063df8de3e714610381578063dfb2866d146103a2575b600080fd5b34801561014e57600080fd5b506101576103b7565b60408051918252519081900360200190f35b34801561017557600080fd5b506101576103c6565b34801561018a57600080fd5b506101936103cc565b60408051600160a060020a039092168252519081900360200190f35b3480156101bb57600080fd5b506101ca6004356024356103e4565b005b3480156101d857600080fd5b50610157610425565b3480156101ed57600080fd5b50610157610450565b34801561020257600080fd5b50610193610456565b34801561021757600080fd5b50610157600160a060020a0360043516610465565b34801561023857600080fd5b506101ca600160a060020a0360043516610477565b34801561025957600080fd5b506101ca61059e565b34801561026e57600080fd5b506101576105e7565b34801561028357600080fd5b506101576105ee565b34801561029857600080fd5b506101936105f4565b3480156102ad57600080fd5b50610193610603565b610157600160a060020a0360043516610612565b3480156102d657600080fd5b506101576107f2565b3480156102eb57600080fd5b506101576107f8565b34801561030057600080fd5b506103096107fe565b6040518082600481111561031957fe5b60ff16815260200191505060405180910390f35b34801561033957600080fd5b50610309610807565b34801561034e57600080fd5b50610193610887565b34801561036357600080fd5b50610157610896565b34801561037857600080fd5b50610157610956565b34801561038d57600080fd5b506101ca600160a060020a0360043516610978565b3480156103ae57600080fd5b50610157610be4565b6a084595161401484a00000081565b60075481565b730348b55abd6e1a99c6ebc972a6a4582ec0bceb5c81565b600054600160a060020a031633146103fb57600080fd5b600180600b5460ff16600481111561040f57fe5b1461041957600080fd5b50600491909155600555565b60006006544303611d4c01600554670de0b6b3a76400000281151561044657fe5b0460010190505b90565b60065481565b600154600160a060020a031681565b600a6020526000908152604090205481565b600254600160a060020a0316331461048e57600080fd5b600080600b5460ff1660048111156104a257fe5b146104ac57600080fd5b600160a060020a03821615156104c157600080fd5b6001805473ffffffffffffffffffffffffffffffffffffffff1916600160a060020a038481169190911791829055604080517f70a0823100000000000000000000000000000000000000000000000000000000815230600482015290516a084595161401484a00000093909216916370a08231916024808201926020929091908290030181600087803b15801561055757600080fd5b505af115801561056b573d6000803e3d6000fd5b505050506040513d602081101561058157600080fd5b50511461058d57600080fd5b5050600b805460ff19166001179055565b600254600160a060020a031633146105b557600080fd5b600180600b5460ff1660048111156105c957fe5b146105d357600080fd5b50600b805460ff1916600217905543600655565b623b538081565b60045481565b600254600160a060020a031681565b600054600160a060020a031681565b600080806002600b5460ff16600481111561062957fe5b1480156106445750610639610956565b610641610425565b11155b1561065157610651610bea565b6003600b5460ff16600481111561066457fe5b1480156106775750623b53806007540142115b1561068a57600b805460ff191660041790555b600280600b5460ff16600481111561069e57fe5b146106a857600080fd5b600160a060020a03851615156106bc573394505b3493506008546106ca610425565b670de0b6b3a76400006a084595161401484a0000000402039250600854600454039150828210156106f9578192505b828411156107395782935084600160a060020a03166108fc8534039081150290604051600060405180830381858888f19350505050151561073957600080fd5b83158061076b575060008054604051600160a060020a039091169186156108fc02918791818181858888f19350505050155b1561077557600080fd5b600160a060020a0385166000908152600a602052604090208054850190556008805485019055828414156107ab576107ab610bea565b604080518581529051600160a060020a038716917f9c89e828e6cee6374b68147c9e753e41746aad98ba255a527a4fc0ac1868bff9919081900360200190a2505050919050565b60085481565b60095481565b600b5460ff1681565b60006002600b5460ff16600481111561081c57fe5b148015610837575061082c610956565b610834610425565b11155b1561084457610844610bea565b6003600b5460ff16600481111561085757fe5b14801561086a5750623b53806007540142115b1561087d57600b805460ff191660041790555b50600b5460ff1690565b600354600160a060020a031681565b60006002600b5460ff1660048111156108ab57fe5b1480156108c657506108bb610956565b6108c3610425565b11155b156108d3576108d3610bea565b6003600b5460ff1660048111156108e657fe5b1480156108f95750623b53806007540142115b1561090c57600b805460ff191660041790555b6003600b5460ff16600481111561091f57fe5b148061093b57506004600b5460ff16600481111561093957fe5b145b15610949575060095461044d565b610951610425565b905090565b6008546000906a084595161401484a00000090670de0b6b3a764000002610446565b60007f1731fdc3bb916cb9784ad5d30a3a9c01b6f53ca830447dbfa839dfea7a699e8d6000366000369050604051808060200183815260200182810382528585828181526020019250808284376040519201829003965090945050505050a160043614806109e65750602436145b1515610a5357604080517f08c379a000000000000000000000000000000000000000000000000000000000815260206004820152601060248201527f4e6f2076616c6964207061796c6f616400000000000000000000000000000000604482015290519081900360640190fd5b6002600b5460ff166004811115610a6657fe5b148015610a815750610a76610956565b610a7e610425565b11155b15610a8e57610a8e610bea565b6003600b5460ff166004811115610aa157fe5b148015610ab45750623b53806007540142115b15610ac757600b805460ff191660041790555b600480600b5460ff166004811115610adb57fe5b14610ae557600080fd5b600160a060020a0383161515610af9573392505b600954600160a060020a0384166000908152600a6020526040902054670de0b6b3a764000002811515610b2857fe5b600160a060020a038086166000818152600a6020908152604080832083905560015481517fa9059cbb000000000000000000000000000000000000000000000000000000008152600481019590955296909504602484018190529451949750949092169363a9059cbb9360448084019492939192918390030190829087803b158015610bb357600080fd5b505af1158015610bc7573d6000803e3d6000fd5b505050506040513d6020811015610bdd57600080fd5b5050505050565b60055481565b600b805460ff191660031790556004546008541415610c1357610c0b610425565b600955610c1f565b610c1b610956565b6009555b426007555600a165627a7a723058204cc645f298a57f79374d999a335553099783726fb7321397f254de3a28ab970a0029",
  "source": "pragma solidity ^0.4.23;\n\nimport \"./Interfaces/InterfaceToken.sol\";\nimport \"./Interfaces/PromissoryContract.sol\";\n\n//\n/// @title Dutch auction contract - from gnosis, see source : https://github.com/maurelian/dutch-auction\n/// improved with latest solidity syntax\ncontract DutchAuction {\n\n    /*\n     *  Events\n     */\n    event BidSubmission(address indexed sender, uint256 amount);\n    event logPayload(bytes _data, uint _lengt);\n\n    /*\n     *  Constants\n     */\n    uint constant public MAX_TOKENS_SOLD = 10000000 * 10**18; // 10M\n    uint constant public WAITING_PERIOD = 45 days;\n\n    /*\n     *  Storage\n     */\n\n\n    address public pWallet;\n    Token public KittieFightToken;\n    address public owner;\n    PromissoryToken public PromissoryTokenIns; \n    address constant public promissoryAddr = 0x0348B55AbD6E1A99C6EBC972A6A4582Ec0bcEb5c;\n    uint public ceiling;\n    uint public priceFactor;\n    uint public startBlock;\n    uint public endTime;\n    uint public totalReceived;\n    uint public finalPrice;\n    mapping (address => uint) public bids;\n    Stages public stage;\n\n    /*\n     *  Enums\n     */\n    enum Stages {\n        AuctionDeployed,\n        AuctionSetUp,\n        AuctionStarted,\n        AuctionEnded,\n        TradingStarted\n    }\n\n    /*\n     *  Modifiers\n     */\n    modifier atStage(Stages _stage) {\n        require(stage == _stage);\n            // Contract not in expected state\n        _;\n    }\n\n    modifier isOwner() {\n        require(msg.sender == owner);\n            // Only owner is allowed to proceed\n        _;\n    }\n\n    modifier isWallet() {\n         require(msg.sender == address(pWallet));\n            // Only wallet is allowed to proceed\n        _;\n    }\n\n    modifier isValidPayload() {\n        emit logPayload(msg.data, msg.data.length);\n        require(msg.data.length == 4 || msg.data.length == 36, \"No valid payload\");\n        _;\n    }\n\n    modifier timedTransitions() {\n        if (stage == Stages.AuctionStarted && calcTokenPrice() <= calcStopPrice())\n            finalizeAuction();\n        if (stage == Stages.AuctionEnded && now > endTime + WAITING_PERIOD)\n            stage = Stages.TradingStarted;\n        _;\n    }\n\n    /*\n     *  Public functions\n     */\n    /// @dev Contract constructor function sets owner.\n    /// @param _pWallet KittieFight promissory wallet.\n    /// @param _ceiling Auction ceiling.\n    /// @param _priceFactor Auction price factor.\n    constructor(address _pWallet, uint _ceiling, uint _priceFactor)\n        public\n    {\n        if (_pWallet == 0 || _ceiling == 0 || _priceFactor == 0)\n            // Arguments are null.\n            revert();\n        owner = msg.sender;\n        PromissoryTokenIns = PromissoryToken(promissoryAddr);\n        pWallet = _pWallet;\n        ceiling = _ceiling;\n        priceFactor = _priceFactor;\n        stage = Stages.AuctionDeployed;\n    }\n\n    /// @dev Setup function sets external contracts' addresses.\n    /// @param _kittieToken  token address.\n    function setup(address _kittieToken)\n        public\n        isOwner\n        atStage(Stages.AuctionDeployed)\n    {\n        if (_kittieToken == 0)\n            // Argument is null.\n            revert();\n        KittieFightToken = Token(_kittieToken);\n        // Validate token balance\n        if (KittieFightToken.balanceOf(this) != MAX_TOKENS_SOLD)\n            revert();\n        stage = Stages.AuctionSetUp;\n    }\n\n    /// @dev Starts auction and sets startBlock.\n    function startAuction()\n        public\n        isOwner\n        atStage(Stages.AuctionSetUp)\n    {\n        stage = Stages.AuctionStarted;\n        startBlock = block.number;\n    }\n\n    /// @dev Changes auction ceiling and start price factor before auction is started.\n    /// @param _ceiling Updated auction ceiling.\n    /// @param _priceFactor Updated start price factor.\n    function changeSettings(uint _ceiling, uint _priceFactor)\n        public\n        isWallet\n        atStage(Stages.AuctionSetUp)\n    {\n        ceiling = _ceiling;\n        priceFactor = _priceFactor;\n    }\n\n    /// @dev Calculates current token price.\n    /// @return Returns token price.\n    function calcCurrentTokenPrice()\n        public\n        timedTransitions\n        returns (uint)\n    {\n        if (stage == Stages.AuctionEnded || stage == Stages.TradingStarted)\n            return finalPrice;\n        return calcTokenPrice();\n    }\n\n    /// @dev Returns correct stage, even if a function with timedTransitions modifier has not yet been called yet.\n    /// @return Returns current auction stage.\n    function updateStage()\n        public\n        timedTransitions\n        returns (Stages)\n    {\n        return stage;\n    }\n\n    /// @dev Allows to send a bid to the auction.\n    /// @param receiver Bid will be assigned to this address if set.\n    function bid(address receiver)\n        public\n        payable\n        //isValidPayload\n        timedTransitions\n        atStage(Stages.AuctionStarted)\n        returns (uint amount)\n    {\n        // If a bid is done on behalf of a user via ShapeShift, the receiver address is set.\n        if (receiver == 0)\n            receiver = msg.sender;\n        amount = msg.value;\n        // Prevent that more than 90% of tokens are sold. Only relevant if cap not reached.\n        uint maxWei = (MAX_TOKENS_SOLD / 10**18) * calcTokenPrice() - totalReceived;\n        uint maxWeiBasedOnTotalReceived = ceiling - totalReceived;\n        if (maxWeiBasedOnTotalReceived < maxWei)\n            maxWei = maxWeiBasedOnTotalReceived;\n        // Only invest maximum possible amount.\n        if (amount > maxWei) {\n            amount = maxWei;\n            // Send change back to receiver address. In case of a ShapeShift bid the user receives the change back directly.\n            if (!receiver.send(msg.value - amount))\n                // Sending failed\n                revert();\n        }\n        // Forward funding to ether pWallet\n        if (amount == 0 || !address(pWallet).send(amount))\n            // No amount sent or sending failed\n            revert();\n        bids[receiver] += amount;\n        totalReceived += amount;\n        if (maxWei == amount)\n            // When maxWei is equal to the big amount the auction is ended and finalizeAuction is triggered.\n            finalizeAuction();\n        emit BidSubmission(receiver, amount);\n    }\n\n    /// @dev Claims tokens for bidder after auction.\n    /// @param receiver Tokens will be assigned to this address if set.\n    function claimTokens(address receiver)\n        public\n        isValidPayload\n        timedTransitions\n        atStage(Stages.TradingStarted)\n    {\n        if (receiver == 0)\n            receiver = msg.sender;\n        uint tokenCount = bids[receiver] * 10**18 / finalPrice;\n        bids[receiver] = 0;\n        KittieFightToken.transfer(receiver, tokenCount);\n    }\n\n    /// @dev Calculates stop price.\n    /// @return Returns stop price.\n    function calcStopPrice()\n        view\n        public\n        returns (uint)\n    {\n        return totalReceived * 10**18 / MAX_TOKENS_SOLD + 1;\n    }\n\n    /// @dev Calculates token price.\n    /// @return Returns token price.\n    function calcTokenPrice()\n        view\n        public\n        returns (uint)\n    {\n        return priceFactor * 10**18 / (block.number - startBlock + 7500) + 1;\n    }\n\n    /*\n     *  Private functions\n     */\n    function finalizeAuction()\n        private\n    {\n        stage = Stages.AuctionEnded;\n\n        if (totalReceived == ceiling)\n            finalPrice = calcTokenPrice();\n        else\n            finalPrice = calcStopPrice();\n\n        endTime = now;\n    }\n\n\n}\n",
  "sourcePath": "/Users/achiko/Documents/elva/projects/kittiefight/KittieSITE/contracts/DutchAuction.sol",
  "compiler": {
    "name": "solc",
    "version": "0.4.24+commit.e67f0147.Emscripten.clang"
  },
  "schemaVersion": "2.0.1",
  "updatedAt": "2018-11-10T19:19:48.025Z"
}