{
  "contractName": "Dutchwrapper",
  "abi": [
    {
      "constant": true,
      "inputs": [],
      "name": "oneHundred",
      "outputs": [
        {
          "name": "",
          "type": "uint256"
        }
      ],
      "payable": false,
      "stateMutability": "view",
      "type": "function"
    },
    {
      "constant": true,
      "inputs": [
        {
          "name": "",
          "type": "address"
        }
      ],
      "name": "Admins",
      "outputs": [
        {
          "name": "",
          "type": "bool"
        }
      ],
      "payable": false,
      "stateMutability": "view",
      "type": "function"
    },
    {
      "constant": true,
      "inputs": [],
      "name": "MAX_TOKENS_SOLD",
      "outputs": [
        {
          "name": "",
          "type": "uint256"
        }
      ],
      "payable": false,
      "stateMutability": "view",
      "type": "function"
    },
    {
      "constant": true,
      "inputs": [
        {
          "name": "",
          "type": "uint256"
        }
      ],
      "name": "PartnersList",
      "outputs": [
        {
          "name": "",
          "type": "address"
        }
      ],
      "payable": false,
      "stateMutability": "view",
      "type": "function"
    },
    {
      "constant": true,
      "inputs": [],
      "name": "MAX_TOKEN_REFERRAL",
      "outputs": [
        {
          "name": "",
          "type": "uint256"
        }
      ],
      "payable": false,
      "stateMutability": "view",
      "type": "function"
    },
    {
      "constant": true,
      "inputs": [],
      "name": "thirty",
      "outputs": [
        {
          "name": "",
          "type": "uint256"
        }
      ],
      "payable": false,
      "stateMutability": "view",
      "type": "function"
    },
    {
      "constant": true,
      "inputs": [],
      "name": "endTime",
      "outputs": [
        {
          "name": "",
          "type": "uint256"
        }
      ],
      "payable": false,
      "stateMutability": "view",
      "type": "function"
    },
    {
      "constant": true,
      "inputs": [],
      "name": "promissoryAddr",
      "outputs": [
        {
          "name": "",
          "type": "address"
        }
      ],
      "payable": false,
      "stateMutability": "view",
      "type": "function"
    },
    {
      "constant": true,
      "inputs": [
        {
          "name": "",
          "type": "bytes4"
        }
      ],
      "name": "TokenReferrals",
      "outputs": [
        {
          "name": "hash",
          "type": "bytes4"
        },
        {
          "name": "addr",
          "type": "address"
        },
        {
          "name": "totalReferrals",
          "type": "uint256"
        },
        {
          "name": "totalTokensEarned",
          "type": "uint256"
        }
      ],
      "payable": false,
      "stateMutability": "view",
      "type": "function"
    },
    {
      "constant": true,
      "inputs": [
        {
          "name": "",
          "type": "uint256"
        }
      ],
      "name": "CurrentBidders",
      "outputs": [
        {
          "name": "addr",
          "type": "address"
        },
        {
          "name": "amount",
          "type": "uint256"
        }
      ],
      "payable": false,
      "stateMutability": "view",
      "type": "function"
    },
    {
      "constant": false,
      "inputs": [
        {
          "name": "_ceiling",
          "type": "uint256"
        },
        {
          "name": "_priceFactor",
          "type": "uint256"
        }
      ],
      "name": "changeSettings",
      "outputs": [],
      "payable": false,
      "stateMutability": "nonpayable",
      "type": "function"
    },
    {
      "constant": true,
      "inputs": [],
      "name": "calcTokenPrice",
      "outputs": [
        {
          "name": "",
          "type": "uint256"
        }
      ],
      "payable": false,
      "stateMutability": "view",
      "type": "function"
    },
    {
      "constant": true,
      "inputs": [
        {
          "name": "",
          "type": "uint256"
        }
      ],
      "name": "topAddrHashes",
      "outputs": [
        {
          "name": "",
          "type": "bytes4"
        }
      ],
      "payable": false,
      "stateMutability": "view",
      "type": "function"
    },
    {
      "constant": true,
      "inputs": [],
      "name": "claimedTokenReferral",
      "outputs": [
        {
          "name": "",
          "type": "uint256"
        }
      ],
      "payable": false,
      "stateMutability": "view",
      "type": "function"
    },
    {
      "constant": true,
      "inputs": [],
      "name": "totalEthEarnedByPartners",
      "outputs": [
        {
          "name": "",
          "type": "uint256"
        }
      ],
      "payable": false,
      "stateMutability": "view",
      "type": "function"
    },
    {
      "constant": true,
      "inputs": [],
      "name": "startBlock",
      "outputs": [
        {
          "name": "",
          "type": "uint256"
        }
      ],
      "payable": false,
      "stateMutability": "view",
      "type": "function"
    },
    {
      "constant": true,
      "inputs": [],
      "name": "KittieFightToken",
      "outputs": [
        {
          "name": "",
          "type": "address"
        }
      ],
      "payable": false,
      "stateMutability": "view",
      "type": "function"
    },
    {
      "constant": true,
      "inputs": [
        {
          "name": "",
          "type": "address"
        }
      ],
      "name": "bids",
      "outputs": [
        {
          "name": "",
          "type": "uint256"
        }
      ],
      "payable": false,
      "stateMutability": "view",
      "type": "function"
    },
    {
      "constant": false,
      "inputs": [
        {
          "name": "_kittieToken",
          "type": "address"
        }
      ],
      "name": "setup",
      "outputs": [],
      "payable": false,
      "stateMutability": "nonpayable",
      "type": "function"
    },
    {
      "constant": true,
      "inputs": [],
      "name": "residualToken",
      "outputs": [
        {
          "name": "",
          "type": "uint256"
        }
      ],
      "payable": false,
      "stateMutability": "view",
      "type": "function"
    },
    {
      "constant": false,
      "inputs": [],
      "name": "startAuction",
      "outputs": [],
      "payable": false,
      "stateMutability": "nonpayable",
      "type": "function"
    },
    {
      "constant": true,
      "inputs": [],
      "name": "Referrals",
      "outputs": [
        {
          "name": "",
          "type": "uint256"
        }
      ],
      "payable": false,
      "stateMutability": "view",
      "type": "function"
    },
    {
      "constant": true,
      "inputs": [],
      "name": "WAITING_PERIOD",
      "outputs": [
        {
          "name": "",
          "type": "uint256"
        }
      ],
      "payable": false,
      "stateMutability": "view",
      "type": "function"
    },
    {
      "constant": true,
      "inputs": [],
      "name": "TOTAL_BONUS_TOKEN",
      "outputs": [
        {
          "name": "",
          "type": "uint256"
        }
      ],
      "payable": false,
      "stateMutability": "view",
      "type": "function"
    },
    {
      "constant": true,
      "inputs": [],
      "name": "bidderBonus",
      "outputs": [
        {
          "name": "",
          "type": "bool"
        }
      ],
      "payable": false,
      "stateMutability": "view",
      "type": "function"
    },
    {
      "constant": true,
      "inputs": [],
      "name": "twoHundred",
      "outputs": [
        {
          "name": "",
          "type": "uint256"
        }
      ],
      "payable": false,
      "stateMutability": "view",
      "type": "function"
    },
    {
      "constant": true,
      "inputs": [],
      "name": "ceiling",
      "outputs": [
        {
          "name": "",
          "type": "uint256"
        }
      ],
      "payable": false,
      "stateMutability": "view",
      "type": "function"
    },
    {
      "constant": true,
      "inputs": [
        {
          "name": "",
          "type": "address"
        }
      ],
      "name": "SuperDAOTokens",
      "outputs": [
        {
          "name": "",
          "type": "uint256"
        }
      ],
      "payable": false,
      "stateMutability": "view",
      "type": "function"
    },
    {
      "constant": true,
      "inputs": [
        {
          "name": "",
          "type": "uint256"
        }
      ],
      "name": "topReferredNum",
      "outputs": [
        {
          "name": "",
          "type": "uint256"
        }
      ],
      "payable": false,
      "stateMutability": "view",
      "type": "function"
    },
    {
      "constant": true,
      "inputs": [],
      "name": "owner",
      "outputs": [
        {
          "name": "",
          "type": "address"
        }
      ],
      "payable": false,
      "stateMutability": "view",
      "type": "function"
    },
    {
      "constant": true,
      "inputs": [
        {
          "name": "",
          "type": "uint256"
        }
      ],
      "name": "TokenReferalList",
      "outputs": [
        {
          "name": "",
          "type": "address"
        }
      ],
      "payable": false,
      "stateMutability": "view",
      "type": "function"
    },
    {
      "constant": true,
      "inputs": [],
      "name": "pWallet",
      "outputs": [
        {
          "name": "",
          "type": "address"
        }
      ],
      "payable": false,
      "stateMutability": "view",
      "type": "function"
    },
    {
      "constant": false,
      "inputs": [
        {
          "name": "receiver",
          "type": "address"
        }
      ],
      "name": "bid",
      "outputs": [
        {
          "name": "amount",
          "type": "uint256"
        }
      ],
      "payable": true,
      "stateMutability": "payable",
      "type": "function"
    },
    {
      "constant": true,
      "inputs": [],
      "name": "totalReceived",
      "outputs": [
        {
          "name": "",
          "type": "uint256"
        }
      ],
      "payable": false,
      "stateMutability": "view",
      "type": "function"
    },
    {
      "constant": true,
      "inputs": [],
      "name": "finalPrice",
      "outputs": [
        {
          "name": "",
          "type": "uint256"
        }
      ],
      "payable": false,
      "stateMutability": "view",
      "type": "function"
    },
    {
      "constant": true,
      "inputs": [],
      "name": "stage",
      "outputs": [
        {
          "name": "",
          "type": "uint8"
        }
      ],
      "payable": false,
      "stateMutability": "view",
      "type": "function"
    },
    {
      "constant": false,
      "inputs": [],
      "name": "updateStage",
      "outputs": [
        {
          "name": "",
          "type": "uint8"
        }
      ],
      "payable": false,
      "stateMutability": "nonpayable",
      "type": "function"
    },
    {
      "constant": true,
      "inputs": [],
      "name": "ONE",
      "outputs": [
        {
          "name": "",
          "type": "uint256"
        }
      ],
      "payable": false,
      "stateMutability": "view",
      "type": "function"
    },
    {
      "constant": true,
      "inputs": [],
      "name": "fiveHundred",
      "outputs": [
        {
          "name": "",
          "type": "uint256"
        }
      ],
      "payable": false,
      "stateMutability": "view",
      "type": "function"
    },
    {
      "constant": true,
      "inputs": [],
      "name": "PromissoryTokenIns",
      "outputs": [
        {
          "name": "",
          "type": "address"
        }
      ],
      "payable": false,
      "stateMutability": "view",
      "type": "function"
    },
    {
      "constant": true,
      "inputs": [],
      "name": "Partners",
      "outputs": [
        {
          "name": "",
          "type": "uint256"
        }
      ],
      "payable": false,
      "stateMutability": "view",
      "type": "function"
    },
    {
      "constant": false,
      "inputs": [],
      "name": "calcCurrentTokenPrice",
      "outputs": [
        {
          "name": "",
          "type": "uint256"
        }
      ],
      "payable": false,
      "stateMutability": "nonpayable",
      "type": "function"
    },
    {
      "constant": true,
      "inputs": [],
      "name": "calcStopPrice",
      "outputs": [
        {
          "name": "",
          "type": "uint256"
        }
      ],
      "payable": false,
      "stateMutability": "view",
      "type": "function"
    },
    {
      "constant": false,
      "inputs": [
        {
          "name": "receiver",
          "type": "address"
        }
      ],
      "name": "claimTokens",
      "outputs": [],
      "payable": false,
      "stateMutability": "nonpayable",
      "type": "function"
    },
    {
      "constant": true,
      "inputs": [],
      "name": "priceFactor",
      "outputs": [
        {
          "name": "",
          "type": "uint256"
        }
      ],
      "payable": false,
      "stateMutability": "view",
      "type": "function"
    },
    {
      "constant": true,
      "inputs": [
        {
          "name": "",
          "type": "bytes4"
        }
      ],
      "name": "MarketingPartners",
      "outputs": [
        {
          "name": "hash",
          "type": "bytes4"
        },
        {
          "name": "addr",
          "type": "address"
        },
        {
          "name": "totalReferrals",
          "type": "uint256"
        },
        {
          "name": "totalContribution",
          "type": "uint256"
        },
        {
          "name": "percentage",
          "type": "uint256"
        },
        {
          "name": "EthEarned",
          "type": "uint256"
        }
      ],
      "payable": false,
      "stateMutability": "view",
      "type": "function"
    },
    {
      "constant": true,
      "inputs": [],
      "name": "sixHundred",
      "outputs": [
        {
          "name": "",
          "type": "uint256"
        }
      ],
      "payable": false,
      "stateMutability": "view",
      "type": "function"
    },
    {
      "constant": true,
      "inputs": [],
      "name": "oneThousand",
      "outputs": [
        {
          "name": "",
          "type": "uint256"
        }
      ],
      "payable": false,
      "stateMutability": "view",
      "type": "function"
    },
    {
      "inputs": [
        {
          "name": "_pWallet",
          "type": "address"
        },
        {
          "name": "_ceiling",
          "type": "uint256"
        },
        {
          "name": "_priceFactor",
          "type": "uint256"
        }
      ],
      "payable": false,
      "stateMutability": "nonpayable",
      "type": "constructor"
    },
    {
      "anonymous": false,
      "inputs": [
        {
          "indexed": false,
          "name": "topAddrHashes",
          "type": "bytes4[20]"
        }
      ],
      "name": "topAddrHashesUpdate",
      "type": "event"
    },
    {
      "anonymous": false,
      "inputs": [
        {
          "indexed": false,
          "name": "topNumArray",
          "type": "uint256[20]"
        }
      ],
      "name": "topNumbersUpdate",
      "type": "event"
    },
    {
      "anonymous": false,
      "inputs": [
        {
          "indexed": false,
          "name": "_partnerHash",
          "type": "bytes4"
        },
        {
          "indexed": false,
          "name": "_addr",
          "type": "address"
        },
        {
          "indexed": false,
          "name": "_amount",
          "type": "uint256"
        }
      ],
      "name": "PartnerReferral",
      "type": "event"
    },
    {
      "anonymous": false,
      "inputs": [
        {
          "indexed": false,
          "name": "_campaignHash",
          "type": "bytes4"
        },
        {
          "indexed": false,
          "name": "_addr",
          "type": "address"
        },
        {
          "indexed": false,
          "name": "_amount",
          "type": "uint256"
        }
      ],
      "name": "TokenReferral",
      "type": "event"
    },
    {
      "anonymous": false,
      "inputs": [
        {
          "indexed": false,
          "name": "_hash",
          "type": "bytes4"
        },
        {
          "indexed": false,
          "name": "_addr",
          "type": "address"
        },
        {
          "indexed": false,
          "name": "_amount",
          "type": "uint256"
        }
      ],
      "name": "BidEvent",
      "type": "event"
    },
    {
      "anonymous": false,
      "inputs": [
        {
          "indexed": false,
          "name": "_type",
          "type": "uint256"
        }
      ],
      "name": "SetupReferal",
      "type": "event"
    },
    {
      "anonymous": false,
      "inputs": [
        {
          "indexed": false,
          "name": "_Hash",
          "type": "bytes4"
        },
        {
          "indexed": false,
          "name": "_addr",
          "type": "address"
        }
      ],
      "name": "ReferalSignup",
      "type": "event"
    },
    {
      "anonymous": false,
      "inputs": [
        {
          "indexed": false,
          "name": "_Hash",
          "type": "bytes4"
        },
        {
          "indexed": false,
          "name": "_addr",
          "type": "address"
        },
        {
          "indexed": false,
          "name": "success",
          "type": "bool"
        }
      ],
      "name": "ClaimtokenBonus",
      "type": "event"
    },
    {
      "anonymous": false,
      "inputs": [
        {
          "indexed": true,
          "name": "sender",
          "type": "address"
        },
        {
          "indexed": false,
          "name": "amount",
          "type": "uint256"
        }
      ],
      "name": "BidSubmission",
      "type": "event"
    },
    {
      "anonymous": false,
      "inputs": [
        {
          "indexed": false,
          "name": "_data",
          "type": "bytes"
        },
        {
          "indexed": false,
          "name": "_lengt",
          "type": "uint256"
        }
      ],
      "name": "logPayload",
      "type": "event"
    },
    {
      "constant": false,
      "inputs": [
        {
          "name": "_addr",
          "type": "address"
        },
        {
          "name": "_percentage",
          "type": "uint256"
        }
      ],
      "name": "setupReferal",
      "outputs": [
        {
          "name": "successmessage",
          "type": "string"
        }
      ],
      "payable": false,
      "stateMutability": "nonpayable",
      "type": "function"
    },
    {
      "constant": false,
      "inputs": [],
      "name": "referralSignup",
      "outputs": [
        {
          "name": "referalhash",
          "type": "bytes4"
        }
      ],
      "payable": false,
      "stateMutability": "nonpayable",
      "type": "function"
    },
    {
      "constant": false,
      "inputs": [
        {
          "name": "_receiver",
          "type": "address"
        },
        {
          "name": "_hash",
          "type": "bytes4"
        }
      ],
      "name": "bidReferral",
      "outputs": [
        {
          "name": "",
          "type": "uint256"
        }
      ],
      "payable": true,
      "stateMutability": "payable",
      "type": "function"
    },
    {
      "constant": false,
      "inputs": [],
      "name": "claimtokenBonus",
      "outputs": [
        {
          "name": "success",
          "type": "bool"
        }
      ],
      "payable": false,
      "stateMutability": "nonpayable",
      "type": "function"
    },
    {
      "constant": false,
      "inputs": [
        {
          "name": "_campaignHash",
          "type": "bytes4"
        }
      ],
      "name": "claimCampaignTokenBonus",
      "outputs": [
        {
          "name": "success",
          "type": "bool"
        }
      ],
      "payable": false,
      "stateMutability": "nonpayable",
      "type": "function"
    },
    {
      "constant": false,
      "inputs": [
        {
          "name": "_unsoldTokens",
          "type": "uint256"
        },
        {
          "name": "_addr",
          "type": "address"
        }
      ],
      "name": "transferUnsoldTokens",
      "outputs": [],
      "payable": false,
      "stateMutability": "nonpayable",
      "type": "function"
    },
    {
      "constant": true,
      "inputs": [
        {
          "name": "_hash",
          "type": "bytes4"
        },
        {
          "name": "_amount",
          "type": "uint256"
        }
      ],
      "name": "tokenAmountPerReferred",
      "outputs": [
        {
          "name": "tokenAmount",
          "type": "uint256"
        }
      ],
      "payable": false,
      "stateMutability": "view",
      "type": "function"
    },
    {
      "constant": true,
      "inputs": [],
      "name": "getCurrentBiddersCount",
      "outputs": [
        {
          "name": "biddersCount",
          "type": "uint256"
        }
      ],
      "payable": false,
      "stateMutability": "view",
      "type": "function"
    },
    {
      "constant": true,
      "inputs": [],
      "name": "calculatPersonalHash",
      "outputs": [
        {
          "name": "_hash",
          "type": "bytes4"
        }
      ],
      "payable": false,
      "stateMutability": "view",
      "type": "function"
    },
    {
      "constant": true,
      "inputs": [
        {
          "name": "_addr",
          "type": "address"
        }
      ],
      "name": "calculatPersonalHashByAddress",
      "outputs": [
        {
          "name": "_hash",
          "type": "bytes4"
        }
      ],
      "payable": false,
      "stateMutability": "view",
      "type": "function"
    },
    {
      "constant": true,
      "inputs": [
        {
          "name": "_addr",
          "type": "address"
        }
      ],
      "name": "calculateCampaignHash",
      "outputs": [
        {
          "name": "_hash",
          "type": "bytes4"
        }
      ],
      "payable": false,
      "stateMutability": "view",
      "type": "function"
    },
    {
      "constant": true,
      "inputs": [],
      "name": "getTop20Reffered",
      "outputs": [
        {
          "name": "",
          "type": "uint256[20]"
        }
      ],
      "payable": false,
      "stateMutability": "view",
      "type": "function"
    },
    {
      "constant": true,
      "inputs": [],
      "name": "getTop20Addr",
      "outputs": [
        {
          "name": "",
          "type": "bytes4[20]"
        }
      ],
      "payable": false,
      "stateMutability": "view",
      "type": "function"
    },
    {
      "constant": true,
      "inputs": [
        {
          "name": "_hash",
          "type": "bytes4"
        }
      ],
      "name": "getAddress",
      "outputs": [
        {
          "name": "",
          "type": "address"
        }
      ],
      "payable": false,
      "stateMutability": "view",
      "type": "function"
    },
    {
      "constant": true,
      "inputs": [
        {
          "name": "_tokenRefferralBonus",
          "type": "uint256"
        },
        {
          "name": "_bidderBonusAmount",
          "type": "uint256"
        }
      ],
      "name": "bonusChecker",
      "outputs": [
        {
          "name": "",
          "type": "bool"
        }
      ],
      "payable": false,
      "stateMutability": "view",
      "type": "function"
    },
    {
      "constant": false,
      "inputs": [
        {
          "name": "_promissoryAddr",
          "type": "address"
        }
      ],
      "name": "setPromissoryTokenInstance",
      "outputs": [],
      "payable": false,
      "stateMutability": "nonpayable",
      "type": "function"
    }
  ],
  "bytecode": "0x60806040526000600c819055600d556029805460ff1916600117905534801561002757600080fd5b5060405160608062003356833981016040908152815160208301519190920151828282600160a060020a038316158061005e575081155b80610067575080155b1561007157600080fd5b60028054600160a060020a03199081163317909155600380548216730348b55abd6e1a99c6ebc972a6a4582ec0bceb5c17905560008054600160a060020a039590951694909116939093178355600491909155600555600b805460ff191690556132719350839250620000e59150396000f3006080604052600436106102dc5763ffffffff60e060020a6000350416630a6184ce81146102e15780630d894db0146103085780630ec6d58a1461032957806317f5de951461035e5780631ef554a31461037357806320269ed1146103a757806324ace287146103bc5780633197cbb6146103d157806333a42d10146103e65780633455b088146103fb57806334b102fb1461045657806335d005b81461047b57806336d02c94146104b657806339f64b52146104d35780633fb73c61146104e8578063401260da1461051d578063406faf8214610541578063442b38551461055657806348cd4cb11461056b578063552aaedb146105805780635fcee458146105a257806362ea82db146105b757806366d38203146105d85780636a8810f9146105f95780636b64c7691461060e5780636f20befd146106235780636f85c7e414610638578063701a1f0c146103a757806370c1204d1461064d57806371754a731461066257806371b7716014610683578063753ed1bd146106985780637ae4d728146106ad5780637bce3bb2146106ce578063814a884b1461071c5780638da5cb5b146107345780638fdd817c1461074957806394aa3b2d1461075e5780639866845d146107765780639b6a1af01461078b5780639cf5453d146107a0578063a3c2c462146107b4578063a6b513ee146107c9578063b8d7a794146107de578063bb07ca7f146107f9578063c040e6b81461081a578063c062f57814610853578063c2ee3a0814610868578063caf2f5fe1461087d578063cf76063414610892578063d048d7b4146108a7578063d1fa9cad14610868578063d9f8a4e2146108bc578063dd9dd688146108d1578063df8de3e7146108e6578063dfb2866d14610907578063e8ccd1c61461091c578063eaa48abe14610984578063ecb9a4a214610999578063eef506da14610a32578063ef96b2aa14610a47578063f65bf87c14610a69578063fb32112914610a7e578063fcfbf7f714610a9f575b600080fd5b3480156102ed57600080fd5b506102f6610ab4565b60408051918252519081900360200190f35b6102f6600160a060020a0360043516600160e060020a031960243516610ac1565b34801561033557600080fd5b5061034a600160a060020a0360043516611650565b604080519115158252519081900360200190f35b34801561036a57600080fd5b506102f6611665565b34801561037f57600080fd5b5061038b600435611674565b60408051600160a060020a039092168252519081900360200190f35b3480156103b357600080fd5b506102f661169c565b3480156103c857600080fd5b506102f66116ab565b3480156103dd57600080fd5b506102f66116b8565b3480156103f257600080fd5b5061038b6116be565b34801561040757600080fd5b5061041d600160e060020a0319600435166116d6565b60408051600160e060020a03199095168552600160a060020a039093166020850152838301919091526060830152519081900360800190f35b34801561046257600080fd5b506102f6600160e060020a031960043516602435611710565b34801561048757600080fd5b5061049360043561173c565b60408051600160a060020a03909316835260208301919091528051918290030190f35b3480156104c257600080fd5b506104d1600435602435611772565b005b3480156104df57600080fd5b506102f66117b3565b3480156104f457600080fd5b506105006004356117de565b60408051600160e060020a03199092168252519081900360200190f35b34801561052957600080fd5b506104d1600435600160a060020a036024351661180b565b34801561054d57600080fd5b506102f66118f0565b34801561056257600080fd5b506102f66118f6565b34801561057757600080fd5b506102f66118fc565b34801561058c57600080fd5b5061038b600160e060020a031960043516611902565b3480156105ae57600080fd5b5061038b61192f565b3480156105c357600080fd5b506102f6600160a060020a036004351661193e565b3480156105e457600080fd5b506104d1600160a060020a0360043516611950565b34801561060557600080fd5b506102f6611a77565b34801561061a57600080fd5b506104d1611a7d565b34801561062f57600080fd5b506102f6611ac6565b34801561064457600080fd5b506102f6611acb565b34801561065957600080fd5b5061034a611ad2565b34801561066e57600080fd5b50610500600160a060020a0360043516611adb565b34801561068f57600080fd5b506102f6611b7f565b3480156106a457600080fd5b506102f6611b8c565b3480156106b957600080fd5b506102f6600160a060020a0360043516611b92565b3480156106da57600080fd5b506106e3611ba4565b604051808261028080838360005b838110156107095781810151838201526020016106f1565b5050505090500191505060405180910390f35b34801561072857600080fd5b506102f6600435611be0565b34801561074057600080fd5b5061038b611bf4565b34801561075557600080fd5b50610500611c03565b34801561076a57600080fd5b5061038b600435611c94565b34801561078257600080fd5b5061038b611ca2565b34801561079757600080fd5b50610500611cb1565b6102f6600160a060020a0360043516611e22565b3480156107c057600080fd5b506102f6612002565b3480156107d557600080fd5b506102f6612008565b3480156107ea57600080fd5b5061034a60043560243561200e565b34801561080557600080fd5b50610500600160a060020a036004351661203a565b34801561082657600080fd5b5061082f6120ac565b6040518082600481111561083f57fe5b60ff16815260200191505060405180910390f35b34801561085f57600080fd5b5061082f6120b5565b34801561087457600080fd5b506102f6612135565b34801561088957600080fd5b506102f661213a565b34801561089e57600080fd5b5061038b612147565b3480156108b357600080fd5b506106e3612156565b3480156108c857600080fd5b506102f66121d6565b3480156108dd57600080fd5b506102f6612296565b3480156108f257600080fd5b506104d1600160a060020a03600435166122b8565b34801561091357600080fd5b506102f661250e565b34801561092857600080fd5b5061093e600160e060020a031960043516612514565b60408051600160e060020a03199097168752600160a060020a039095166020870152858501939093526060850191909152608084015260a0830152519081900360c00190f35b34801561099057600080fd5b5061034a612558565b3480156109a557600080fd5b506109bd600160a060020a036004351660243561275c565b6040805160208082528351818301528351919283929083019185019080838360005b838110156109f75781810151838201526020016109df565b50505050905090810190601f168015610a245780820380516001836020036101000a031916815260200191505b509250505060405180910390f35b348015610a3e57600080fd5b506102f66128f4565b348015610a5357600080fd5b5061034a600160e060020a031960043516612901565b348015610a7557600080fd5b506102f6612b11565b348015610a8a57600080fd5b506104d1600160a060020a0360043516612b17565b348015610aab57600080fd5b506102f6612b5d565b68056bc75e2d6310000081565b600080600080610acf6131ee565b349350600360009054906101000a9004600160a060020a0316600160a060020a031663053f14da6040518163ffffffff1660e060020a028152600401602060405180830381600087803b158015610b2557600080fd5b505af1158015610b39573d6000803e3d6000fd5b505050506040513d6020811015610b4f57600080fd5b50516008546004549194509003841115610b6d576008546004540393505b83610b7788611e22565b14610b8157600080fd5b600160a060020a0387168152346020820181905291508282811515610ba257fe5b336000818152600f60209081526040808320805496909504909501909355602d8054600181018255915284517f4a2cc91ee622da3bc833a54c37ffcb6f3ec23b7793efc5eaf5e71b7b406c5c066002909202918201805473ffffffffffffffffffffffffffffffffffffffff1916600160a060020a03909216919091179055848301517f4a2cc91ee622da3bc833a54c37ffcb6f3ec23b7793efc5eaf5e71b7b406c5c07909101558251600160e060020a03198a1681529182015280820184905290517fd0ea45955ff6d9ae1d964ca3279eed0f08617f1f1201611bfb2d5efaaaf12dd7916060908290030190a1600160e060020a03198087166000818152602a602052604090205460e060020a0290911614156111ee57600160e060020a031986166000818152602a6020908152604082206001818101805482019055600282018054880190556003820180549182018155845291832090910185905591905260040154610d12908390612b6a565b600160e060020a031987166000908152602a6020526040902060058101805490920190915560040154610d46908390612b6a565b600d80549091019055670de0b6b3a76400003410801590610d6f57506729a2241af62c00003411155b8015610d82575060295460ff1615156001145b15610ec157610da368056bc75e2d631000006801a055690d9db8000061200e565b1515610dcb57610dc568056bc75e2d631000006801a055690d9db80000612b8c565b50611646565b600160e060020a031986166000908152602b602052604090206001908101805490910190819055610dfc9087612bad565b600160e060020a031986166000818152602b6020818152604080842087855260038101835290842068056bc75e2d6310000090819055949093525260020180549091019055610e536801a055690d9db80000612e36565b1515600114610e7457600c805468056bc75e2d631000000190819055610e84565b68070c1cc73b00c80000600c8190555b5060408051600160e060020a03198816815233602082015280820184905290516000805160206132268339815191529181900360600190a161117b565b6729a2241af62c000034118015610ee057506753444835ec5800003411155b8015610ef3575060295460ff1615156001145b1561102857610f14681b1ae4d6e2ef500000680ad78ebc5ac620000061200e565b1515610f3657610dc5681b1ae4d6e2ef500000680ad78ebc5ac6200000612b8c565b600160e060020a031986166000908152602b602052604090206001908101805490910190819055610f679087612bad565b600160e060020a031986166000818152602b60208181526040808420878552600381018352908420681b1ae4d6e2ef50000090819055949093525260020180549091019055610fbe680ad78ebc5ac6200000612e36565b1515600114610fdf57600c8054681b1ae4d6e2ef5000000190819055610e84565b6825f273933db5700000600c5560408051600160e060020a03198816815233602082015280820184905290516000805160206132268339815191529181900360600190a161117b565b6753444835ec58000034118015611046575060295460ff1615156001145b1561117b57611067683635c9adc5dea00000682086ac35105260000061200e565b151561108957610dc5683635c9adc5dea00000682086ac351052600000612b8c565b600160e060020a031986166000908152602b6020526040902060019081018054909101908190556110ba9087612bad565b600160e060020a031986166000818152602b60208181526040808420878552600381018352908420683635c9adc5dea0000090819055949093525260020180549091019055611111682086ac351052600000612e36565b151560011461113257600c8054683635c9adc5dea000000190819055611142565b6856bc75e2d631000000600c8190555b5060408051600160e060020a03198816815233602082015280820184905290516000805160206132268339815191529181900360600190a15b600160e060020a031986166000818152602a6020908152604091829020548251938452600160a060020a036401000000009091041690830152818101849052517f1bbad3ec2950e7a72214d38589df066a71b1dd23bf7a28f54482f992ea66ad0b9181900360600190a160019450611646565b600160e060020a03198087166000818152602b602052604090205460e060020a02909116141561164657670de0b6b3a7640000341015801561123857506729a2241af62c00003411155b801561124b575060295460ff1615156001145b156113885761126c68056bc75e2d631000006801a055690d9db8000061200e565b151561128e57610dc568056bc75e2d631000006801a055690d9db80000612b8c565b600160e060020a031986166000908152602b6020526040902060019081018054909101908190556112bf9087612bad565b600160e060020a031986166000818152602b6020818152604080842087855260038101835290842068056bc75e2d63100000908190559490935252600201805490910190556113166801a055690d9db80000612e36565b151560011461133757600c805468056bc75e2d631000000190819055611347565b68070c1cc73b00c80000600c8190555b5060408051600160e060020a03198816815233602082015280820184905290516000805160206132268339815191529181900360600190a160029450611646565b6729a2241af62c0000341180156113a757506753444835ec5800003411155b80156113ba575060295460ff1615156001145b156114f3576113db681b1ae4d6e2ef500000680ad78ebc5ac620000061200e565b15156113fd57610dc5681b1ae4d6e2ef500000680ad78ebc5ac6200000612b8c565b600160e060020a031986166000908152602b60205260409020600190810180549091019081905561142e9087612bad565b600160e060020a031986166000818152602b60208181526040808420878552600381018352908420681b1ae4d6e2ef50000090819055949093525260020180549091019055611485680ad78ebc5ac6200000612e36565b15156001146114a657600c8054681b1ae4d6e2ef5000000190819055611347565b6825f273933db5700000600c5560408051600160e060020a03198816815233602082015280820184905290516000805160206132268339815191529181900360600190a160029450611646565b6753444835ec58000034118015611511575060295460ff1615156001145b1561164657611532683635c9adc5dea00000682086ac35105260000061200e565b151561155457610dc5683635c9adc5dea00000682086ac351052600000612b8c565b600160e060020a031986166000908152602b6020526040902060019081018054909101908190556115859087612bad565b600160e060020a031986166000818152602b60208181526040808420878552600381018352908420683635c9adc5dea00000908190559490935252600201805490910190556115dc682086ac351052600000612e36565b15156001146115fd57600c8054683635c9adc5dea000000190819055611347565b6856bc75e2d631000000600c5560408051600160e060020a03198816815233602082015280820184905290516000805160206132268339815191529181900360600190a1600294505b5050505092915050565b602c6020526000908152604090205460ff1681565b6a084595161401484a00000081565b601080548290811061168257fe5b600091825260209091200154600160a060020a0316905081565b6a01a784379d99db4200000081565b6801a055690d9db8000081565b60075481565b730348b55abd6e1a99c6ebc972a6a4582ec0bceb5c81565b602b6020526000908152604090208054600182015460029092015460e060020a820292640100000000909204600160a060020a0316919084565b600160e060020a03199091166000908152602b6020908152604080832093835260039093019052205490565b602d80548290811061174a57fe5b600091825260209091206002909102018054600190910154600160a060020a03909116915082565b600054600160a060020a0316331461178957600080fd5b600180600b5460ff16600481111561179d57fe5b146117a757600080fd5b50600491909155600555565b60006006544303611d4c01600554670de0b6b3a7640000028115156117d457fe5b0460010190505b90565b601281601481106117eb57fe5b60089182820401919006600402915054906101000a900460e060020a0281565b6002546000908190600160a060020a0316331461182757600080fd5b600954600854670de0b6b3a76400000281151561184057fe5b04915081600c546a084595161401484a00000001039050808410151561186557600080fd5b6001546040805160e060020a63a9059cbb028152600160a060020a038681166004830152602482018890529151919092169163a9059cbb9160448083019260209291908290030181600087803b1580156118be57600080fd5b505af11580156118d2573d6000803e3d6000fd5b505050506040513d60208110156118e857600080fd5b505050505050565b600c5481565b600d5481565b60065481565b600160e060020a0319166000908152602b60205260409020546401000000009004600160a060020a031690565b600154600160a060020a031681565b600a6020526000908152604090205481565b600254600160a060020a0316331461196757600080fd5b600080600b5460ff16600481111561197b57fe5b1461198557600080fd5b600160a060020a038216151561199a57600080fd5b6001805473ffffffffffffffffffffffffffffffffffffffff1916600160a060020a038481169190911791829055604080517f70a0823100000000000000000000000000000000000000000000000000000000815230600482015290516a084595161401484a00000093909216916370a08231916024808201926020929091908290030181600087803b158015611a3057600080fd5b505af1158015611a44573d6000803e3d6000fd5b505050506040513d6020811015611a5a57600080fd5b505114611a6657600080fd5b5050600b805460ff19166001179055565b600e5481565b600254600160a060020a03163314611a9457600080fd5b600180600b5460ff166004811115611aa857fe5b14611ab257600080fd5b50600b805460ff1916600217905543600655565b600281565b623b538081565b60295460ff1681565b6000816040516020018082600160a060020a0316600160a060020a03166c010000000000000000000000000281526014019150506040516020818303038152906040526040518082805190602001908083835b60208310611b4d5780518252601f199092019160209182019101611b2e565b5181516020939093036101000a6000190180199091169216919091179052604051920182900390912095945050505050565b680ad78ebc5ac620000081565b60045481565b600f6020526000908152604090205481565b611bac613205565b604080516102808101918290529060159060149082845b815481526020019060010190808311611bc3575050505050905090565b60158160148110611bed57fe5b0154905081565b600254600160a060020a031681565b604080516c010000000000000000000000003302602080830191909152825180830360140181526034909201928390528151600093918291908401908083835b60208310611c625780518252601f199092019160209182019101611c43565b6001836020036101000a0380198251168184511680821785525050505050509050019150506040518091039020905090565b601180548290811061168257fe5b600054600160a060020a031681565b6000806a01a784379d99db42000000600c54101515611ccf57600080fd5b604080516c01000000000000000000000000330260208083019190915282518083036014018152603490920192839052815191929182918401908083835b60208310611d2c5780518252601f199092019160209182019101611d0d565b51815160209384036101000a60001901801990921691161790526040805192909401829003909120600160e060020a03198082166000818152602b909452949092205490965060e060020a0216909114159250611d8b91505057600080fd5b600160e060020a031981166000818152602b6020908152604091829020805477ffffffffffffffffffffffffffffffffffffffff0000000019163364010000000081029190911763ffffffff191660e060020a870417909155825193845290830152805192935083927f0b46cbed2ca40f09668847cdf0153b6c9c57e162edf9f8f8de1e2f135eefde9f9281900390910190a15090565b600080806002600b5460ff166004811115611e3957fe5b148015611e545750611e49612296565b611e516117b3565b11155b15611e6157611e61612ece565b6003600b5460ff166004811115611e7457fe5b148015611e875750623b53806007540142115b15611e9a57600b805460ff191660041790555b600280600b5460ff166004811115611eae57fe5b14611eb857600080fd5b600160a060020a0385161515611ecc573394505b349350600854611eda6117b3565b670de0b6b3a76400006a084595161401484a000000040203925060085460045403915082821015611f09578192505b82841115611f495782935084600160a060020a03166108fc8534039081150290604051600060405180830381858888f193505050501515611f4957600080fd5b831580611f7b575060008054604051600160a060020a039091169186156108fc02918791818181858888f19350505050155b15611f8557600080fd5b600160a060020a0385166000908152600a60205260409020805485019055600880548501905582841415611fbb57611fbb612ece565b604080518581529051600160a060020a038716917f9c89e828e6cee6374b68147c9e753e41746aad98ba255a527a4fc0ac1868bff9919081900360200190a2505050919050565b60085481565b60095481565b60006a01a784379d99db42000000600c54838501011115612030576000612033565b60015b9392505050565b604080516c01000000000000000000000000600160a060020a0384168102602080840191909152339190910260348301528251602881840301815260489092019283905281516000939182919084019080838360208310611b4d5780518252601f199092019160209182019101611b2e565b600b5460ff1681565b60006002600b5460ff1660048111156120ca57fe5b1480156120e557506120da612296565b6120e26117b3565b11155b156120f2576120f2612ece565b6003600b5460ff16600481111561210557fe5b1480156121185750623b53806007540142115b1561212b57600b805460ff191660041790555b50600b5460ff1690565b600181565b681b1ae4d6e2ef50000081565b600354600160a060020a031681565b61215e613205565b6040805161028081019182905290601290601490826000855b82829054906101000a900460e060020a027bffffffffffffffffffffffffffffffffffffffffffffffffffffffff1916815260200190600401906020826003010492830192600103820291508084116121775790505050505050905090565b60006002600b5460ff1660048111156121eb57fe5b14801561220657506121fb612296565b6122036117b3565b11155b1561221357612213612ece565b6003600b5460ff16600481111561222657fe5b1480156122395750623b53806007540142115b1561224c57600b805460ff191660041790555b6003600b5460ff16600481111561225f57fe5b148061227b57506004600b5460ff16600481111561227957fe5b145b1561228957506009546117db565b6122916117b3565b905090565b6008546000906a084595161401484a00000090670de0b6b3a7640000026117d4565b60007f1731fdc3bb916cb9784ad5d30a3a9c01b6f53ca830447dbfa839dfea7a699e8d6000366000369050604051808060200183815260200182810382528585828181526020019250808284376040519201829003965090945050505050a160043614806123265750602436145b151561239357604080517f08c379a000000000000000000000000000000000000000000000000000000000815260206004820152601060248201527f4e6f2076616c6964207061796c6f616400000000000000000000000000000000604482015290519081900360640190fd5b6002600b5460ff1660048111156123a657fe5b1480156123c157506123b6612296565b6123be6117b3565b11155b156123ce576123ce612ece565b6003600b5460ff1660048111156123e157fe5b1480156123f45750623b53806007540142115b1561240757600b805460ff191660041790555b600480600b5460ff16600481111561241b57fe5b1461242557600080fd5b600160a060020a0383161515612439573392505b600954600160a060020a0384166000908152600a6020526040902054670de0b6b3a76400000281151561246857fe5b600160a060020a038086166000818152600a60209081526040808320839055600154815160e060020a63a9059cbb028152600481019590955296909504602484018190529451949750949092169363a9059cbb9360448084019492939192918390030190829087803b1580156124dd57600080fd5b505af11580156124f1573d6000803e3d6000fd5b505050506040513d602081101561250757600080fd5b5050505050565b60055481565b602a602052600090815260409020805460018201546002830154600484015460059094015460e060020a840294640100000000909404600160a060020a0316939086565b6000806000336040516020018082600160a060020a0316600160a060020a03166c010000000000000000000000000281526014019150506040516020818303038152906040526040518082805190602001908083835b602083106125cd5780518252601f1990920191602091820191016125ae565b51815160209384036101000a60001901801990921691161790526040805192909401829003909120600160e060020a03198082166000818152602b909452949092205490975060e060020a0216909114925050811590506126485750600160e060020a031982166000908152602b6020526040812060020154115b156127525750600160e060020a031981166000908152602b60209081526040808320600281018054908590556001549154835160e060020a63a9059cbb028152600160a060020a0364010000000090920482166004820152602481018390529351919592169363a9059cbb93604480820194929392918390030190829087803b1580156126d457600080fd5b505af11580156126e8573d6000803e3d6000fd5b505050506040513d60208110156126fe57600080fd5b505060408051600160e060020a03198416815233602082015260018183015290517f5ceaa24952cb4452b8781e57ea840571d194349b1e39d667878047b83715bab09181900360600190a160019250612757565b600092505b505090565b600254606090600090600160a060020a0316331461277957600080fd5b604080516c01000000000000000000000000600160a060020a03871681026020808401919091523391909102603483015282516028818403018152604890920192839052815191929182918401908083835b602083106127ea5780518252601f1990920191602091820191016127cb565b51815160209384036101000a60001901801990921691161790526040805192909401829003909120600160e060020a031981166000908152602a909252929020805463ffffffff191660e060020a84041777ffffffffffffffffffffffffffffffffffffffff000000001916640100000000600160a060020a038b1602178155600401879055509250612881915082905085612f09565b50604080516001815290517f9fec2c68f61f24831aba2d0778fe76e9a54f215039b50e549e0f34745bbe7dc49181900360200190a160408051808201909152601181527f706172746e6572207369676e6564207570000000000000000000000000000000602082015291505b5092915050565b682086ac35105260000081565b600254604080516c01000000000000000000000000338102602080840191909152600160a060020a03909416026034820152815160288183030181526048909101918290528051600093849384939290918291908401908083835b6020831061297b5780518252601f19909201916020918201910161295c565b51815160209384036101000a60001901801990921691161790526040805192909401829003909120600160e060020a03198a81166000908152602b909352939091205490965060e060020a02821691861691909114925050811590506129fb5750600160e060020a031984166000908152602b6020526040812060020154115b15612b055750600160e060020a031983166000908152602b60209081526040808320600281018054908590556001549154835160e060020a63a9059cbb028152600160a060020a0364010000000090920482166004820152602481018390529351919592169363a9059cbb93604480820194929392918390030190829087803b158015612a8757600080fd5b505af1158015612a9b573d6000803e3d6000fd5b505050506040513d6020811015612ab157600080fd5b505060408051600160e060020a03198616815233602082015260018183015290517f5ceaa24952cb4452b8781e57ea840571d194349b1e39d667878047b83715bab09181900360600190a160019250612b0a565b600092505b5050919050565b602d5490565b600254600160a060020a03163314612b2e57600080fd5b6003805473ffffffffffffffffffffffffffffffffffffffff1916600160a060020a0392909216919091179055565b683635c9adc5dea0000081565b6000612033612b86612b7f8560648106612fa8565b6064612fba565b83612fd1565b600c54828201016a01a784379d99db4200000003600e556060612033612ffc565b6000805b6014821015612be0578360158360148110612bc857fe5b01541015612bd557612be0565b600190910190612bb1565b6014821015612e3057600160e060020a0319831660128360148110612c0157fe5b600891828204019190066004029054906101000a900460e060020a027bffffffffffffffffffffffffffffffffffffffffffffffffffffffff1916141515612cef575060135b81811115612cef576015600019820160148110612c6057fe5b01546012600019830160148110612c7357fe5b600891828204019190066004029054906101000a900460e060020a02601583601481101515612c9e57fe5b01600060128560148110612cae57fe5b60088104909101805460e060020a90950460046007909316929092026101000a91820263ffffffff9092021990941617909255919091555060001901612c47565b838360158460148110612cfe57fe5b01600060128660148110612d0e57fe5b600891828204019190066004028491906101000a81548163ffffffff021916908360e060020a90040217905550839190505550507fb840a7a69c476d062e9d6b3750e48e703effc4f88d8795b2d39055b2700468776012604051808260148015612dd2576020028201916000905b82829054906101000a900460e060020a027bffffffffffffffffffffffffffffffffffffffffffffffffffffffff191681526020019060040190602082600301049283019260010382029150808411612d7c5790505b505091505060405180910390a16040517f5dbdb92bbfe4feb2ce743467a0046a6dd48137a502e995c1ee814b38ee29ed5290601590610280810182825b815481526020019060010190808311612e0f57505091505060405180910390a15b50505050565b6000806000612e43611c03565b600160e060020a03198082166000818152602b602052604090205492945060e060020a909202161415612e9b57600160e060020a031982166000908152602b6020526040902060020180548501905560019250612b0a565b612ea4336130b7565b600160e060020a031981166000908152602b60205260409020600201859055600193509050612b0a565b600b805460ff191660031790556004546008541415612ef757612eef6117b3565b600955612f03565b612eff612296565b6009555b42600755565b600160e060020a031982166000818152602b6020908152604091829020805477ffffffffffffffffffffffffffffffffffffffff000000001916640100000000600160a060020a0387169081029190911763ffffffff191660e060020a880417909155825193845290830152805184927f0b46cbed2ca40f09668847cdf0153b6c9c57e162edf9f8f8de1e2f135eefde9f92908290030190a192915050565b600082821115612fb457fe5b50900390565b6000808284811515612fc857fe5b04949350505050565b600080831515612fe457600091506128ed565b50828202828482811515612ff457fe5b041461203357fe5b60295460609060ff16151560011461307557604080517f08c379a000000000000000000000000000000000000000000000000000000000815260206004820152600f60248201527f6e6f206d6f726520626f6e757365730000000000000000000000000000000000604482015290519081900360640190fd5b506029805460ff1916905560408051808201909152601081527f746f6b656e732065786861757374656400000000000000000000000000000000602082015290565b600080826040516020018082600160a060020a0316600160a060020a03166c010000000000000000000000000281526014019150506040516020818303038152906040526040518082805190602001908083835b6020831061312a5780518252601f19909201916020918201910161310b565b51815160209384036101000a600019018019909216911617905260408051929094018290038220600160e060020a031981166000818152602b8452869020805477ffffffffffffffffffffffffffffffffffffffff00000000191633640100000000021763ffffffff191660e060020a84041790558352600160a060020a038a169183019190915283519097508796507f0b46cbed2ca40f09668847cdf0153b6c9c57e162edf9f8f8de1e2f135eefde9f955090819003909201925050a150919050565b604080518082019091526000808252602082015290565b610280604051908101604052806014906020820280388339509192915050560000c35fb01c0d5dae78232f9ccceb19b4267e300be89df0f127816a262fd6413fa165627a7a723058204ffc1e2136183499dd2dc8055db0b26d93745b9017b623346afb675391173a9d0029",
  "source": "pragma solidity ^0.4.23;\nimport \"./DutchAuction.sol\";\nimport \"./SafeMath.sol\";\n\ncontract Dutchwrapper is DutchAuction {\n\n\n    uint constant public MAX_TOKEN_REFERRAL = 2000000 * 10**18; // One Million and eight hundred  thousand\n\n    uint public claimedTokenReferral = 0; // 800,000 : eigth hundred thousand limit\n    uint public totalEthEarnedByPartners = 0; // Partners earning\n\n\n    // 2,000,000 :  2 million: total MAX_TOKEN_REFERRAL\n    uint constant public TOTAL_BONUS_TOKEN = 2000000 * 10**18;\n\n\n    uint constant public Partners = 1; // Distinction between promotion groups, partnership for eth\n    uint constant public Referrals = 2; // Distinction between promotion groups, referral campaign for tokens\n    \n\n    uint constant public ONE = 1; // NUMBER 1\n\n    // various reward levels\n    uint constant public thirty = 30 * 10**18; // thirty tokens awarded to bidder when earned\n    uint constant public twoHundred = 200 * 10**18; // two hundred tokens awarded to bidder when earned\n    uint constant public sixHundred = 600 * 10**18; // six hundred tokens awarded to bidder when earned\n\n    uint constant public oneHundred = 100 * 10**18; // one hundred tokens awarded to refferer when earned\n    uint constant public fiveHundred = 500 * 10**18; // five hundred tokens awarded to refferer when earned\n    uint constant public oneThousand = 1000 * 10**18; // one thousand tokens awarded to refferer when earned\n    uint public residualToken; // variable tracking number of tokens left at near complete token exhaustion\n\n    mapping (address => uint) public SuperDAOTokens; // amount of bonus Superdao Tokens earned per bidder\n    //for participation on auction based on eth bid\n\n    struct PartnerForEth {\n        bytes4 hash; // unique hash for partner\n        address addr; //address for partner\n        uint totalReferrals; // Number of reffered parties\n        uint totalContribution; // total contribution in ETH by reffered parties\n        uint[] individualContribution; // individual contribution list, number of eth per contributor\n        uint percentage; // percentage share for partner of each referral\n        uint EthEarned; // up to date total amount earned\n    }\n\n\taddress [] public PartnersList; // list of partners\n\n    //for token referal campaign\n    struct tokenForReferral {\n        bytes4 hash; // hash of this campaign\n        address addr; // address of this user\n        uint totalReferrals; // total amount of participators refered\n        uint totalTokensEarned; // total tokens earned based on referals\n        mapping(uint => uint) tokenAmountPerReferred;// Amount of tokens earned for each participator referred\n    }\n\n     address [] public TokenReferalList; // list of partners\n\n     bytes4 [20] public topAddrHashes; // display top 20 refferers address hashes\n     uint [20] public topReferredNum; // display number of bidders reffered by top 20 refferers\n\n    event topAddrHashesUpdate(bytes4 [20] topAddrHashes); // log display top 20 refferers address hashes ( see function orderTop20 )\n    event topNumbersUpdate(uint[20] topNumArray);  // log number of bidders reffered by top 20 refferers (( see function orderTop20 )\n    bool public bidderBonus = true; // bolean bonus indicator for both refferers and bidders\n\n    mapping(bytes4 => PartnerForEth )  public MarketingPartners;\n    mapping(bytes4 => tokenForReferral)  public TokenReferrals;\n    mapping(address => bool ) public Admins;\n\n    // statistics on the number of bidders\n    struct bidder {\n        address addr;\n        uint amount;\n    }\n\n    bidder [] public CurrentBidders; // document current bidders\n\n\n    event PartnerReferral(bytes4 _partnerHash,address _addr, uint _amount);//fired after marketing partner referral happens\n    event TokenReferral(bytes4 _campaignHash,address _addr, uint _amount);// fired when token referral happens\n    event BidEvent(bytes4 _hash, address _addr, uint _amount); //fired when a bid happens\n    event SetupReferal(uint _type); //fired when a referal campaign is setup\n    event ReferalSignup(bytes4 _Hash, address _addr); // fired when a token promoter signs up\n    event ClaimtokenBonus(bytes4 _Hash, address _addr, bool success); //fired when a person claims earned tokens\n\n\n\n    // check when dutch auction is ended and trading has started\n    modifier tradingstarted(){\n        require(stage == Stages.TradingStarted);\n        _;\n    }\n\n    // uint constant public MAX_TOKEN_REFERRAL = 1800000 * 10**18; // 1 800,000 : one million and eight hundred  thousand    \n    // uint public claimedTokenReferral = 0; // 800,000 : eigth hundred thousand limit\n\n    // safety check for requiring limits at maximum amount allocated for referrals\n    modifier ReferalCampaignLimit() {\n        require (claimedTokenReferral < MAX_TOKEN_REFERRAL);\n        _;\n    }\n\n\n    constructor  (address _pWallet, uint _ceiling, uint _priceFactor)\n        DutchAuction(_pWallet, _ceiling, _priceFactor)  public {\n    }\n\n\n    // creates either a marketing partnering for eth or a twitter retweet campaign. referal marketing in\n    // exchange for tokens are self generated in referal signup function\n\n    function setupReferal(address _addr, uint _percentage)\n        public\n        isOwner\n        returns (string successmessage) \n    {\n\n            bytes4 tempHash = bytes4(keccak256(abi.encodePacked(_addr, msg.sender)));\n\n            MarketingPartners[tempHash].hash = tempHash;\n            MarketingPartners[tempHash].addr = _addr;\n            MarketingPartners[tempHash].percentage = _percentage;\n\n            InternalReferalSignupByhash(tempHash, _addr);\n\n    \t\temit SetupReferal(1); // Marketin partners\n            return \"partner signed up\";\n    }\n\n    // generated hash on behalf of partners earning cash and tokensby tokens. referalcampaignlimmit modifier\n    //removed because partner signup it will fail if referal tokens are used up\n    function InternalReferalSignup(address _addr) internal returns (bytes4 referalhash) {\n        \n        bytes4 tempHash = bytes4(keccak256(abi.encodePacked(_addr)));\n        TokenReferrals[tempHash].addr = msg.sender;\n        TokenReferrals[tempHash].hash = tempHash;\n        referalhash = tempHash;\n        emit ReferalSignup(tempHash, _addr);\n    }\n\n    //\n    function InternalReferalSignupByhash(bytes4 _hash, address _addr) internal returns (bytes4 referalhash) {\n        TokenReferrals[_hash].addr = _addr;\n        TokenReferrals[_hash].hash = _hash;\n        referalhash = _hash;\n        emit ReferalSignup(_hash, _addr);\n    }\n\n\n    // public self generated hash by token earning promoters\n    function referralSignup() public ReferalCampaignLimit returns (bytes4 referalhash) {\n        bytes4 tempHash = bytes4(keccak256(abi.encodePacked(msg.sender)));\n        require (tempHash != TokenReferrals[tempHash].hash); //check prevent overwriting\n        TokenReferrals[tempHash].addr = msg.sender;\n        TokenReferrals[tempHash].hash = tempHash;\n        referalhash = tempHash;\n        emit ReferalSignup(tempHash, msg.sender);\n    }\n\n\n    // Biding using a referral hash\n    function bidReferral(address _receiver, bytes4 _hash) public payable returns (uint) {\n\n        uint bidAmount = msg.value;\n        uint256 promissorytokenLastPrice = PromissoryTokenIns.lastPrice();\n\n\n        if(bidAmount > ceiling - totalReceived) {\n            bidAmount = ceiling - totalReceived;\n        }\n\n        require( bid(_receiver) == bidAmount );\n\n    \t\tuint amount = msg.value;\n    \t\tbidder memory _bidder;\n    \t\t_bidder.addr = _receiver;\n    \t\t_bidder.amount = amount;\n            SuperDAOTokens[msg.sender] += amount/promissorytokenLastPrice;\n    \t\tCurrentBidders.push(_bidder);\n\n        emit BidEvent(_hash, msg.sender, amount);\n\n        if (_hash == MarketingPartners[_hash].hash) {\n\n            MarketingPartners[_hash].totalReferrals += ONE;\n            MarketingPartners[_hash].totalContribution += amount;\n            MarketingPartners[_hash].individualContribution.push(amount);\n            MarketingPartners[_hash].EthEarned += referalPercentage(amount, MarketingPartners[_hash].percentage);\n\n            totalEthEarnedByPartners += referalPercentage(amount, MarketingPartners[_hash].percentage);\n\n            if( (msg.value >= 1 ether) && (msg.value <= 3 ether) && (bidderBonus == true)) {\n             if(bonusChecker(oneHundred, thirty) == false){\n                    discontinueBonus(oneHundred, thirty);\n                    return;\n                    }\n              TokenReferrals[_hash].totalReferrals += ONE;\n              orderTop20(TokenReferrals[_hash].totalReferrals, _hash);\n              TokenReferrals[_hash].tokenAmountPerReferred[amount] = oneHundred;\n              TokenReferrals[_hash].totalTokensEarned += oneHundred;\n              bidderEarnings (thirty) == true ? claimedTokenReferral = oneHundred + thirty : claimedTokenReferral += oneHundred;\n              emit TokenReferral(_hash ,msg.sender, amount);\n\n\n              } else if ((msg.value > 3 ether)&&(msg.value <= 6 ether) && (bidderBonus == true)) {\n                   if(bonusChecker(fiveHundred, twoHundred) == false){\n                    discontinueBonus(fiveHundred, twoHundred);\n                    return;\n                    }\n                  TokenReferrals[_hash].totalReferrals += ONE;\n                  orderTop20(TokenReferrals[_hash].totalReferrals, _hash);\n                  TokenReferrals[_hash].tokenAmountPerReferred[amount] = fiveHundred;\n                  TokenReferrals[_hash].totalTokensEarned += fiveHundred;\n                  bidderEarnings (twoHundred) == true ? claimedTokenReferral = fiveHundred + twoHundred : claimedTokenReferral += fiveHundred;\n                  emit TokenReferral(_hash ,msg.sender, amount);\n\n\n                  } else if ((msg.value > 6 ether) && (bidderBonus == true)) {\n                    if(bonusChecker(oneThousand, sixHundred) == false){\n                    discontinueBonus(oneThousand, sixHundred);\n                    return;\n                    }\n                    TokenReferrals[_hash].totalReferrals += ONE;\n                    orderTop20(TokenReferrals[_hash].totalReferrals, _hash);\n                    TokenReferrals[_hash].tokenAmountPerReferred[amount] = oneThousand;\n                    TokenReferrals[_hash].totalTokensEarned += oneThousand;\n                    bidderEarnings (sixHundred) == true ? claimedTokenReferral = oneThousand + sixHundred : claimedTokenReferral += oneThousand;\n                    emit TokenReferral(_hash, msg.sender, amount);\n\n                  }\n\n            emit PartnerReferral(_hash, MarketingPartners[_hash].addr, amount);\n\n            return Partners;\n\n          } else if (_hash == TokenReferrals[_hash].hash){\n\n        \t\t\tif( (msg.value >= 1 ether) && (msg.value <= 3 ether) && (bidderBonus == true) ) {\n        \t\t\t    if(bonusChecker(oneHundred, thirty) == false){\n                            discontinueBonus(oneHundred, thirty);\n                                return;\n                            }\n                            TokenReferrals[_hash].totalReferrals += ONE;\n                            orderTop20(TokenReferrals[_hash].totalReferrals, _hash);\n            \t\t\t\tTokenReferrals[_hash].tokenAmountPerReferred[amount] = oneHundred;\n            \t\t\t\tTokenReferrals[_hash].totalTokensEarned += oneHundred;\n                            bidderEarnings (thirty) == true ? claimedTokenReferral = oneHundred + thirty : claimedTokenReferral += oneHundred;\n            \t\t\t\temit TokenReferral(_hash ,msg.sender, amount);\n            \t\t\t\treturn Referrals;\n\n        \t\t\t\t} else if ((msg.value > 3 ether)&&(msg.value <= 6 ether) && (bidderBonus == true)) {\n        \t\t\t\t    if(bonusChecker(fiveHundred, twoHundred) == false){\n                                discontinueBonus(fiveHundred, twoHundred);\n                                return;\n                                }\n                                TokenReferrals[_hash].totalReferrals += ONE;\n                                orderTop20(TokenReferrals[_hash].totalReferrals, _hash);\n        \t\t\t\t\t\tTokenReferrals[_hash].tokenAmountPerReferred[amount] = fiveHundred;\n        \t\t\t\t\t\tTokenReferrals[_hash].totalTokensEarned += fiveHundred;\n                                bidderEarnings (twoHundred) == true ? claimedTokenReferral = fiveHundred + twoHundred : claimedTokenReferral += fiveHundred;\n        \t\t\t\t\t\temit TokenReferral(_hash ,msg.sender, amount);\n        \t\t\t\t\t\treturn Referrals;\n\n        \t\t\t\t\t\t} else if ((msg.value > 6 ether) && (bidderBonus == true)) {\n        \t\t\t\t\t\t    if(bonusChecker(oneThousand, sixHundred) == false){\n                                     discontinueBonus(oneThousand, sixHundred);\n                                     return;\n                                    }\n                                    TokenReferrals[_hash].totalReferrals += ONE;\n                                    orderTop20(TokenReferrals[_hash].totalReferrals, _hash);\n        \t\t\t\t\t\t\tTokenReferrals[_hash].tokenAmountPerReferred[amount] = oneThousand;\n        \t\t\t\t\t\t\tTokenReferrals[_hash].totalTokensEarned += oneThousand;\n        \t\t\t\t\t\t\tbidderEarnings (sixHundred) == true ? claimedTokenReferral = oneThousand + sixHundred : claimedTokenReferral += oneThousand;\n        \t\t\t\t\t\t\temit TokenReferral(_hash, msg.sender, amount);\n        \t\t\t\t\t\t\treturn Referrals;\n        \t\t\t\t\t\t}\n                        }\n    }\n\n\n\tfunction referalPercentage(uint _amount, uint _percent)\n\t    internal\n\t    pure\n\t    returns (uint) {\n            return SafeMath.mul( SafeMath.div( SafeMath.sub(_amount, _amount%100), 100 ), _percent );\n\t}\n\n\n    function claimtokenBonus () public returns(bool success)  {\n\n        bytes4 _personalHash = bytes4(keccak256(abi.encodePacked(msg.sender)));\n        \n        if ((_personalHash == TokenReferrals[_personalHash].hash) \n                && (TokenReferrals[_personalHash].totalTokensEarned > 0)) {\n\n            uint TokensToTransfer1 = TokenReferrals[_personalHash].totalTokensEarned;\n            TokenReferrals[_personalHash].totalTokensEarned = 0;\n            KittieFightToken.transfer(TokenReferrals[_personalHash].addr , TokensToTransfer1);\n            emit ClaimtokenBonus(_personalHash, msg.sender, true);\n         \n            return true;\n\n        } else {\n\n            return false;\n       }\n    }\n\n\n    function claimCampaignTokenBonus(bytes4 _campaignHash) public returns(bool success)  {\n        \n        bytes4 _marketingCampaignHash = bytes4(keccak256(abi.encodePacked(msg.sender, owner)));\n\n        if ((_marketingCampaignHash == TokenReferrals[_campaignHash].hash) \n                && (TokenReferrals[_campaignHash].totalTokensEarned > 0)) {\n\n            uint TokensToTransfer1 = TokenReferrals[_campaignHash].totalTokensEarned;\n            TokenReferrals[_campaignHash].totalTokensEarned = 0;\n            KittieFightToken.transfer(TokenReferrals[_campaignHash].addr , TokensToTransfer1);\n            emit ClaimtokenBonus(_campaignHash, msg.sender, true);\n         \n            return true;\n\n        } else {\n\n            return false;\n       }\n    }\n    \n\n    /*\n     *  Admin transfers all unsold tokens back to token contract\n     */\n    function transferUnsoldTokens(uint _unsoldTokens, address _addr)\n        public\n        isOwner\n\n     {\n\n        uint soldTokens = totalReceived * 10**18 / finalPrice;\n        uint totalSold = (MAX_TOKENS_SOLD + claimedTokenReferral)  - soldTokens;\n\n        require (_unsoldTokens < totalSold );\n        KittieFightToken.transfer(_addr, _unsoldTokens);\n    }\n\n\n    function tokenAmountPerReferred(bytes4 _hash, uint _amount ) public view returns(uint tokenAmount) {\n        tokenAmount = TokenReferrals[_hash].tokenAmountPerReferred[_amount];\n    }\n\n    function getCurrentBiddersCount () public view returns(uint biddersCount)  {\n        biddersCount = CurrentBidders.length;\n    }\n\n    // helper functions  return msg.senders hash\n    function calculatPersonalHash() public view returns (bytes4 _hash) {\n        _hash = bytes4(keccak256(abi.encodePacked(msg.sender)));\n    }\n\n    function calculatPersonalHashByAddress(address _addr) public view returns (bytes4 _hash) {\n        _hash = bytes4(keccak256(abi.encodePacked(_addr)));\n    }\n\n    function calculateCampaignHash(address _addr) public view returns (bytes4 _hash) {\n        _hash = bytes4(keccak256(abi.encodePacked(_addr, msg.sender)));\n    }\n\n    // helper functions ordering top 20 address by number of reffered bidders\n    // array of addresses and bidder numbers are logged\n    function orderTop20(uint _value, bytes4 _hash) private {\n        uint i = 0;\n        /** get the index of the current max element **/\n        for(i; i < topReferredNum.length; i++) {\n            if(topReferredNum[i] < _value) {\n                break;\n            }\n        }\n\n        if(i < topReferredNum.length)\n        {\n            if(topAddrHashes[i]!=_hash)\n            {\n                /** shift the array of one position (getting rid of the last element) **/\n                for(uint j = topReferredNum.length - 1; j > i; j--) {\n                    (topReferredNum[j], topAddrHashes[j] ) = (topReferredNum[j - 1],topAddrHashes[j - 1]);\n                }\n\n            \n            }\n            /** update the new max element **/\n            (topReferredNum[i], topAddrHashes[i]) = (_value, _hash);\n            emit topAddrHashesUpdate (topAddrHashes);\n            emit topNumbersUpdate(topReferredNum);\n        }\n\n\n\n    }\n\n    // helper functions returning top 20 leading number of reffered bidders by refferers\n    function getTop20Reffered() public view returns (uint [20]){\n      return topReferredNum;\n    }\n\n    // helper functions  top 20 refferer addresses\n    function getTop20Addr() public view returns (bytes4 [20]){\n        return topAddrHashes;\n     }\n\n    // helper functions  return msg.senders address from given hash\n    function getAddress (bytes4 _hash) public view returns (address){\n        return TokenReferrals[_hash].addr;\n    }\n\n    // helper checking existence of bidder as a token refferer\n    // creates a token refferer hash for bidder, if bidder is not already a refferer\n    // also allocates  20%, 25% or 40% (30, 200, 600 KTY tokens) discounts to bidder, based on amount bid\n    function bidderEarnings (uint _amountEarned) private returns (bool){\n\n        bytes4 bidderTemphash = calculatPersonalHash();\n\n        if ( bidderTemphash == TokenReferrals[bidderTemphash].hash){\n            TokenReferrals[bidderTemphash].totalTokensEarned += _amountEarned;\n            return true;\n        }else{\n            bytes4 newBidderHash = InternalReferalSignup(msg.sender);\n            TokenReferrals[newBidderHash].totalTokensEarned = _amountEarned;\n            return true;\n        }\n        return false;\n    }\n\n     // check if both bidder bonus and refferer bonus is avalable\n     // return true if bonus is available\n     function bonusChecker(uint _tokenRefferralBonus, uint _bidderBonusAmount) public view returns (bool){\n      return _tokenRefferralBonus + _bidderBonusAmount + claimedTokenReferral <= MAX_TOKEN_REFERRAL ? true : false;\n    }\n\n    //document actual remaining residual tokens\n    //call function to terminate bonus\n    function discontinueBonus(uint _tokenRefferralBonus, uint _bidderBonusAmount) private returns (string) {\n        residualToken = MAX_TOKEN_REFERRAL - (_tokenRefferralBonus + _bidderBonusAmount + claimedTokenReferral);\n        return setBonustoFalse();\n    }\n\n\n    // bolean bonus switcher, only called when\n    // tokens bonus availability is exhuated\n    // terminate bonus\n    function setBonustoFalse() private returns (string) {\n        require (bidderBonus == true,\"no more bonuses\");\n        bidderBonus = false;\n        return \"tokens exhausted\";\n    }\n\n    // Set Promissary token Instance  By Admin (Fo testing only)\n    function setPromissoryTokenInstance(address _promissoryAddr) public isOwner {\n        PromissoryTokenIns = PromissoryToken(_promissoryAddr);\n    }\n\n}\n",
  "sourcePath": "/Users/achiko/Documents/elva/projects/kittiefight/DutchAuction/contracts/Dutchwrapper.sol",
  "compiler": {
    "name": "solc",
    "version": "0.4.24+commit.e67f0147.Emscripten.clang"
  },
  "schemaVersion": "2.0.1",
  "updatedAt": "2018-12-18T20:40:55.471Z"
}