{
  "contractName": "DutchAuction",
  "abi": [
    {
      "constant": true,
      "inputs": [],
      "name": "MAX_TOKENS_SOLD",
      "outputs": [
        {
          "name": "",
          "type": "uint256"
        }
      ],
      "payable": false,
      "stateMutability": "view",
      "type": "function"
    },
    {
      "constant": true,
      "inputs": [],
      "name": "endTime",
      "outputs": [
        {
          "name": "",
          "type": "uint256"
        }
      ],
      "payable": false,
      "stateMutability": "view",
      "type": "function"
    },
    {
      "constant": true,
      "inputs": [],
      "name": "promissoryAddr",
      "outputs": [
        {
          "name": "",
          "type": "address"
        }
      ],
      "payable": false,
      "stateMutability": "view",
      "type": "function"
    },
    {
      "constant": true,
      "inputs": [],
      "name": "startBlock",
      "outputs": [
        {
          "name": "",
          "type": "uint256"
        }
      ],
      "payable": false,
      "stateMutability": "view",
      "type": "function"
    },
    {
      "constant": true,
      "inputs": [],
      "name": "KittieFightToken",
      "outputs": [
        {
          "name": "",
          "type": "address"
        }
      ],
      "payable": false,
      "stateMutability": "view",
      "type": "function"
    },
    {
      "constant": true,
      "inputs": [
        {
          "name": "",
          "type": "address"
        }
      ],
      "name": "bids",
      "outputs": [
        {
          "name": "",
          "type": "uint256"
        }
      ],
      "payable": false,
      "stateMutability": "view",
      "type": "function"
    },
    {
      "constant": true,
      "inputs": [],
      "name": "WAITING_PERIOD",
      "outputs": [
        {
          "name": "",
          "type": "uint256"
        }
      ],
      "payable": false,
      "stateMutability": "view",
      "type": "function"
    },
    {
      "constant": true,
      "inputs": [],
      "name": "ceiling",
      "outputs": [
        {
          "name": "",
          "type": "uint256"
        }
      ],
      "payable": false,
      "stateMutability": "view",
      "type": "function"
    },
    {
      "constant": true,
      "inputs": [],
      "name": "owner",
      "outputs": [
        {
          "name": "",
          "type": "address"
        }
      ],
      "payable": false,
      "stateMutability": "view",
      "type": "function"
    },
    {
      "constant": true,
      "inputs": [],
      "name": "pWallet",
      "outputs": [
        {
          "name": "",
          "type": "address"
        }
      ],
      "payable": false,
      "stateMutability": "view",
      "type": "function"
    },
    {
      "constant": true,
      "inputs": [],
      "name": "totalReceived",
      "outputs": [
        {
          "name": "",
          "type": "uint256"
        }
      ],
      "payable": false,
      "stateMutability": "view",
      "type": "function"
    },
    {
      "constant": true,
      "inputs": [],
      "name": "finalPrice",
      "outputs": [
        {
          "name": "",
          "type": "uint256"
        }
      ],
      "payable": false,
      "stateMutability": "view",
      "type": "function"
    },
    {
      "constant": true,
      "inputs": [],
      "name": "stage",
      "outputs": [
        {
          "name": "",
          "type": "uint8"
        }
      ],
      "payable": false,
      "stateMutability": "view",
      "type": "function"
    },
    {
      "constant": true,
      "inputs": [],
      "name": "PromissoryTokenIns",
      "outputs": [
        {
          "name": "",
          "type": "address"
        }
      ],
      "payable": false,
      "stateMutability": "view",
      "type": "function"
    },
    {
      "constant": true,
      "inputs": [],
      "name": "priceFactor",
      "outputs": [
        {
          "name": "",
          "type": "uint256"
        }
      ],
      "payable": false,
      "stateMutability": "view",
      "type": "function"
    },
    {
      "inputs": [
        {
          "name": "_pWallet",
          "type": "address"
        },
        {
          "name": "_ceiling",
          "type": "uint256"
        },
        {
          "name": "_priceFactor",
          "type": "uint256"
        }
      ],
      "payable": false,
      "stateMutability": "nonpayable",
      "type": "constructor"
    },
    {
      "anonymous": false,
      "inputs": [
        {
          "indexed": true,
          "name": "sender",
          "type": "address"
        },
        {
          "indexed": false,
          "name": "amount",
          "type": "uint256"
        }
      ],
      "name": "BidSubmission",
      "type": "event"
    },
    {
      "anonymous": false,
      "inputs": [
        {
          "indexed": false,
          "name": "_data",
          "type": "bytes"
        },
        {
          "indexed": false,
          "name": "_lengt",
          "type": "uint256"
        }
      ],
      "name": "logPayload",
      "type": "event"
    },
    {
      "constant": false,
      "inputs": [
        {
          "name": "_kittieToken",
          "type": "address"
        }
      ],
      "name": "setup",
      "outputs": [],
      "payable": false,
      "stateMutability": "nonpayable",
      "type": "function"
    },
    {
      "constant": false,
      "inputs": [],
      "name": "startAuction",
      "outputs": [],
      "payable": false,
      "stateMutability": "nonpayable",
      "type": "function"
    },
    {
      "constant": false,
      "inputs": [
        {
          "name": "_ceiling",
          "type": "uint256"
        },
        {
          "name": "_priceFactor",
          "type": "uint256"
        }
      ],
      "name": "changeSettings",
      "outputs": [],
      "payable": false,
      "stateMutability": "nonpayable",
      "type": "function"
    },
    {
      "constant": false,
      "inputs": [],
      "name": "calcCurrentTokenPrice",
      "outputs": [
        {
          "name": "",
          "type": "uint256"
        }
      ],
      "payable": false,
      "stateMutability": "nonpayable",
      "type": "function"
    },
    {
      "constant": false,
      "inputs": [],
      "name": "updateStage",
      "outputs": [
        {
          "name": "",
          "type": "uint8"
        }
      ],
      "payable": false,
      "stateMutability": "nonpayable",
      "type": "function"
    },
    {
      "constant": false,
      "inputs": [
        {
          "name": "receiver",
          "type": "address"
        }
      ],
      "name": "bid",
      "outputs": [
        {
          "name": "amount",
          "type": "uint256"
        }
      ],
      "payable": true,
      "stateMutability": "payable",
      "type": "function"
    },
    {
      "constant": false,
      "inputs": [
        {
          "name": "receiver",
          "type": "address"
        }
      ],
      "name": "claimTokens",
      "outputs": [],
      "payable": false,
      "stateMutability": "nonpayable",
      "type": "function"
    },
    {
      "constant": true,
      "inputs": [],
      "name": "calcStopPrice",
      "outputs": [
        {
          "name": "",
          "type": "uint256"
        }
      ],
      "payable": false,
      "stateMutability": "view",
      "type": "function"
    },
    {
      "constant": true,
      "inputs": [],
      "name": "calcTokenPrice",
      "outputs": [
        {
          "name": "",
          "type": "uint256"
        }
      ],
      "payable": false,
      "stateMutability": "view",
      "type": "function"
    }
  ],
  "bytecode": "0x608060405234801561001057600080fd5b50604051606080610d17833981016040908152815160208301519190920151600160a060020a0383161580610043575081155b8061004c575080155b1561005657600080fd5b60028054600160a060020a03199081163317909155600380548216730348b55abd6e1a99c6ebc972a6a4582ec0bceb5c17905560008054600160a060020a039590951694909116939093178355600491909155600555600b805460ff19169055610c519081906100c690396000f30060806040526004361061013d5763ffffffff7c010000000000000000000000000000000000000000000000000000000060003504166317f5de9581146101425780633197cbb61461016957806333a42d101461017e57806336d02c94146101af57806339f64b52146101cc57806348cd4cb1146101e15780635fcee458146101f657806362ea82db1461020b57806366d382031461022c5780636b64c7691461024d5780636f85c7e414610262578063753ed1bd146102775780638da5cb5b1461028c5780639866845d146102a15780639cf5453d146102b6578063a3c2c462146102ca578063a6b513ee146102df578063c040e6b8146102f4578063c062f5781461032d578063cf76063414610342578063d9f8a4e214610357578063dd9dd6881461036c578063df8de3e714610381578063dfb2866d146103a2575b600080fd5b34801561014e57600080fd5b506101576103b7565b60408051918252519081900360200190f35b34801561017557600080fd5b506101576103c6565b34801561018a57600080fd5b506101936103cc565b60408051600160a060020a039092168252519081900360200190f35b3480156101bb57600080fd5b506101ca6004356024356103e4565b005b3480156101d857600080fd5b50610157610425565b3480156101ed57600080fd5b50610157610450565b34801561020257600080fd5b50610193610456565b34801561021757600080fd5b50610157600160a060020a0360043516610465565b34801561023857600080fd5b506101ca600160a060020a0360043516610477565b34801561025957600080fd5b506101ca61059e565b34801561026e57600080fd5b506101576105e7565b34801561028357600080fd5b506101576105ee565b34801561029857600080fd5b506101936105f4565b3480156102ad57600080fd5b50610193610603565b610157600160a060020a0360043516610612565b3480156102d657600080fd5b506101576107f2565b3480156102eb57600080fd5b506101576107f8565b34801561030057600080fd5b506103096107fe565b6040518082600481111561031957fe5b60ff16815260200191505060405180910390f35b34801561033957600080fd5b50610309610807565b34801561034e57600080fd5b50610193610887565b34801561036357600080fd5b50610157610896565b34801561037857600080fd5b50610157610956565b34801561038d57600080fd5b506101ca600160a060020a0360043516610978565b3480156103ae57600080fd5b50610157610be4565b6a084595161401484a00000081565b60075481565b730348b55abd6e1a99c6ebc972a6a4582ec0bceb5c81565b600054600160a060020a031633146103fb57600080fd5b600180600b5460ff16600481111561040f57fe5b1461041957600080fd5b50600491909155600555565b60006006544303611d4c01600554670de0b6b3a76400000281151561044657fe5b0460010190505b90565b60065481565b600154600160a060020a031681565b600a6020526000908152604090205481565b600254600160a060020a0316331461048e57600080fd5b600080600b5460ff1660048111156104a257fe5b146104ac57600080fd5b600160a060020a03821615156104c157600080fd5b6001805473ffffffffffffffffffffffffffffffffffffffff1916600160a060020a038481169190911791829055604080517f70a0823100000000000000000000000000000000000000000000000000000000815230600482015290516a084595161401484a00000093909216916370a08231916024808201926020929091908290030181600087803b15801561055757600080fd5b505af115801561056b573d6000803e3d6000fd5b505050506040513d602081101561058157600080fd5b50511461058d57600080fd5b5050600b805460ff19166001179055565b600254600160a060020a031633146105b557600080fd5b600180600b5460ff1660048111156105c957fe5b146105d357600080fd5b50600b805460ff1916600217905543600655565b623b538081565b60045481565b600254600160a060020a031681565b600054600160a060020a031681565b600080806002600b5460ff16600481111561062957fe5b1480156106445750610639610956565b610641610425565b11155b1561065157610651610bea565b6003600b5460ff16600481111561066457fe5b1480156106775750623b53806007540142115b1561068a57600b805460ff191660041790555b600280600b5460ff16600481111561069e57fe5b146106a857600080fd5b600160a060020a03851615156106bc573394505b3493506008546106ca610425565b670de0b6b3a76400006a084595161401484a0000000402039250600854600454039150828210156106f9578192505b828411156107395782935084600160a060020a03166108fc8534039081150290604051600060405180830381858888f19350505050151561073957600080fd5b83158061076b575060008054604051600160a060020a039091169186156108fc02918791818181858888f19350505050155b1561077557600080fd5b600160a060020a0385166000908152600a602052604090208054850190556008805485019055828414156107ab576107ab610bea565b604080518581529051600160a060020a038716917f9c89e828e6cee6374b68147c9e753e41746aad98ba255a527a4fc0ac1868bff9919081900360200190a2505050919050565b60085481565b60095481565b600b5460ff1681565b60006002600b5460ff16600481111561081c57fe5b148015610837575061082c610956565b610834610425565b11155b1561084457610844610bea565b6003600b5460ff16600481111561085757fe5b14801561086a5750623b53806007540142115b1561087d57600b805460ff191660041790555b50600b5460ff1690565b600354600160a060020a031681565b60006002600b5460ff1660048111156108ab57fe5b1480156108c657506108bb610956565b6108c3610425565b11155b156108d3576108d3610bea565b6003600b5460ff1660048111156108e657fe5b1480156108f95750623b53806007540142115b1561090c57600b805460ff191660041790555b6003600b5460ff16600481111561091f57fe5b148061093b57506004600b5460ff16600481111561093957fe5b145b15610949575060095461044d565b610951610425565b905090565b6008546000906a084595161401484a00000090670de0b6b3a764000002610446565b60007f1731fdc3bb916cb9784ad5d30a3a9c01b6f53ca830447dbfa839dfea7a699e8d6000366000369050604051808060200183815260200182810382528585828181526020019250808284376040519201829003965090945050505050a160043614806109e65750602436145b1515610a5357604080517f08c379a000000000000000000000000000000000000000000000000000000000815260206004820152601060248201527f4e6f2076616c6964207061796c6f616400000000000000000000000000000000604482015290519081900360640190fd5b6002600b5460ff166004811115610a6657fe5b148015610a815750610a76610956565b610a7e610425565b11155b15610a8e57610a8e610bea565b6003600b5460ff166004811115610aa157fe5b148015610ab45750623b53806007540142115b15610ac757600b805460ff191660041790555b600480600b5460ff166004811115610adb57fe5b14610ae557600080fd5b600160a060020a0383161515610af9573392505b600954600160a060020a0384166000908152600a6020526040902054670de0b6b3a764000002811515610b2857fe5b600160a060020a038086166000818152600a6020908152604080832083905560015481517fa9059cbb000000000000000000000000000000000000000000000000000000008152600481019590955296909504602484018190529451949750949092169363a9059cbb9360448084019492939192918390030190829087803b158015610bb357600080fd5b505af1158015610bc7573d6000803e3d6000fd5b505050506040513d6020811015610bdd57600080fd5b5050505050565b60055481565b600b805460ff191660031790556004546008541415610c1357610c0b610425565b600955610c1f565b610c1b610956565b6009555b426007555600a165627a7a723058200295d9d7b239be9656c405abe4d1ed71eefbbeab03647aa8628546561edfab070029",
  "source": "pragma solidity ^0.4.23;\n\nlibrary SafeMath {\n\n  function mul(uint256 a, uint256 b) internal pure returns (uint256) {\n    if (a == 0) {\n      return 0;\n    }\n    uint256 c = a * b;\n    assert(c / a == b);\n    return c;\n  }\n\n  function div(uint256 a, uint256 b) internal pure returns (uint256) {\n    // assert(b > 0); // Solidity automatically throws when dividing by 0\n    uint256 c = a / b;\n    // assert(a == b * c + a % b); // There is no case in which this doesn't hold\n    return c;\n  }\n\n  function sub(uint256 a, uint256 b) internal pure returns (uint256) {\n    assert(b <= a);\n    return a - b;\n  }\n\n  function add(uint256 a, uint256 b) internal pure returns (uint256) {\n    uint256 c = a + b;\n    assert(c >= a);\n    return c;\n  }\n}\n\ninterface Token {\n    function transfer(address to, uint256 value) external returns (bool success);\n    function transferFrom(address from, address to, uint256 value) external returns (bool success);\n    function approve(address spender, uint256 value) external returns (bool success);\n\n    // This is not an abstract function, because solc won't recognize generated getter functions for public variables as functions.\n    function totalSupply() external constant returns (uint256 supply);\n    function balanceOf(address owner) external constant returns (uint256 balance);\n    function allowance(address owner, address spender) external constant returns (uint256 remaining);\n\n    event Transfer(address indexed from, address indexed to, uint256 value);\n    event Approval(address indexed owner, address indexed spender, uint256 value);\n}\ninterface PromissoryToken {\n\n\tfunction claim() payable external;\n\tfunction lastPrice() external returns(uint256);\n}\n\ncontract DutchAuction {\n\n    /*\n     *  Events\n     */\n    event BidSubmission(address indexed sender, uint256 amount);\n    event logPayload(bytes _data, uint _lengt);\n\n    /*\n     *  Constants\n     */\n    uint constant public MAX_TOKENS_SOLD = 10000000 * 10**18; // 10M\n    uint constant public WAITING_PERIOD = 45 days;\n\n    /*\n     *  Storage\n     */\n\n\n    address public pWallet;\n    Token public KittieFightToken;\n    address public owner;\n    PromissoryToken public PromissoryTokenIns; \n    address constant public promissoryAddr = 0x0348B55AbD6E1A99C6EBC972A6A4582Ec0bcEb5c;\n    uint public ceiling;\n    uint public priceFactor;\n    uint public startBlock;\n    uint public endTime;\n    uint public totalReceived;\n    uint public finalPrice;\n    mapping (address => uint) public bids;\n    Stages public stage;\n\n    /*\n     *  Enums\n     */\n    enum Stages {\n        AuctionDeployed,\n        AuctionSetUp,\n        AuctionStarted,\n        AuctionEnded,\n        TradingStarted\n    }\n\n    /*\n     *  Modifiers\n     */\n    modifier atStage(Stages _stage) {\n        require(stage == _stage);\n            // Contract not in expected state\n        _;\n    }\n\n    modifier isOwner() {\n        require(msg.sender == owner);\n            // Only owner is allowed to proceed\n        _;\n    }\n\n    modifier isWallet() {\n         require(msg.sender == address(pWallet));\n            // Only wallet is allowed to proceed\n        _;\n    }\n\n    modifier isValidPayload() {\n        emit logPayload(msg.data, msg.data.length);\n        require(msg.data.length == 4 || msg.data.length == 36, \"No valid payload\");\n        _;\n    }\n\n    modifier timedTransitions() {\n        if (stage == Stages.AuctionStarted && calcTokenPrice() <= calcStopPrice())\n            finalizeAuction();\n        if (stage == Stages.AuctionEnded && now > endTime + WAITING_PERIOD)\n            stage = Stages.TradingStarted;\n        _;\n    }\n\n    /*\n     *  Public functions\n     */\n    /// @dev Contract constructor function sets owner.\n    /// @param _pWallet KittieFight promissory wallet.\n    /// @param _ceiling Auction ceiling.\n    /// @param _priceFactor Auction price factor.\n    constructor(address _pWallet, uint _ceiling, uint _priceFactor)\n        public\n    {\n        if (_pWallet == 0 || _ceiling == 0 || _priceFactor == 0)\n            // Arguments are null.\n            revert();\n        owner = msg.sender;\n        PromissoryTokenIns = PromissoryToken(promissoryAddr);\n        pWallet = _pWallet;\n        ceiling = _ceiling;\n        priceFactor = _priceFactor;\n        stage = Stages.AuctionDeployed;\n    }\n\n    /// @dev Setup function sets external contracts' addresses.\n    /// @param _kittieToken  token address.\n    function setup(address _kittieToken)\n        public\n        isOwner\n        atStage(Stages.AuctionDeployed)\n    {\n        if (_kittieToken == 0)\n            // Argument is null.\n            revert();\n        KittieFightToken = Token(_kittieToken);\n        // Validate token balance\n        if (KittieFightToken.balanceOf(this) != MAX_TOKENS_SOLD)\n            revert();\n        stage = Stages.AuctionSetUp;\n    }\n\n    /// @dev Starts auction and sets startBlock.\n    function startAuction()\n        public\n        isOwner\n        atStage(Stages.AuctionSetUp)\n    {\n        stage = Stages.AuctionStarted;\n        startBlock = block.number;\n    }\n\n    /// @dev Changes auction ceiling and start price factor before auction is started.\n    /// @param _ceiling Updated auction ceiling.\n    /// @param _priceFactor Updated start price factor.\n    function changeSettings(uint _ceiling, uint _priceFactor)\n        public\n        isWallet\n        atStage(Stages.AuctionSetUp)\n    {\n        ceiling = _ceiling;\n        priceFactor = _priceFactor;\n    }\n\n    /// @dev Calculates current token price.\n    /// @return Returns token price.\n    function calcCurrentTokenPrice()\n        public\n        timedTransitions\n        returns (uint)\n    {\n        if (stage == Stages.AuctionEnded || stage == Stages.TradingStarted)\n            return finalPrice;\n        return calcTokenPrice();\n    }\n\n    /// @dev Returns correct stage, even if a function with timedTransitions modifier has not yet been called yet.\n    /// @return Returns current auction stage.\n    function updateStage()\n        public\n        timedTransitions\n        returns (Stages)\n    {\n        return stage;\n    }\n\n    /// @dev Allows to send a bid to the auction.\n    /// @param receiver Bid will be assigned to this address if set.\n    function bid(address receiver)\n        public\n        payable\n        //isValidPayload\n        timedTransitions\n        atStage(Stages.AuctionStarted)\n        returns (uint amount)\n    {\n        // If a bid is done on behalf of a user via ShapeShift, the receiver address is set.\n        if (receiver == 0)\n            receiver = msg.sender;\n        amount = msg.value;\n        // Prevent that more than 90% of tokens are sold. Only relevant if cap not reached.\n        uint maxWei = (MAX_TOKENS_SOLD / 10**18) * calcTokenPrice() - totalReceived;\n        uint maxWeiBasedOnTotalReceived = ceiling - totalReceived;\n        if (maxWeiBasedOnTotalReceived < maxWei)\n            maxWei = maxWeiBasedOnTotalReceived;\n        // Only invest maximum possible amount.\n        if (amount > maxWei) {\n            amount = maxWei;\n            // Send change back to receiver address. In case of a ShapeShift bid the user receives the change back directly.\n            if (!receiver.send(msg.value - amount))\n                // Sending failed\n                revert();\n        }\n        // Forward funding to ether pWallet\n        if (amount == 0 || !address(pWallet).send(amount))\n            // No amount sent or sending failed\n            revert();\n        bids[receiver] += amount;\n        totalReceived += amount;\n        if (maxWei == amount)\n            // When maxWei is equal to the big amount the auction is ended and finalizeAuction is triggered.\n            finalizeAuction();\n        emit BidSubmission(receiver, amount);\n    }\n\n    /// @dev Claims tokens for bidder after auction.\n    /// @param receiver Tokens will be assigned to this address if set.\n    function claimTokens(address receiver)\n        public\n        isValidPayload\n        timedTransitions\n        atStage(Stages.TradingStarted)\n    {\n        if (receiver == 0)\n            receiver = msg.sender;\n        uint tokenCount = bids[receiver] * 10**18 / finalPrice;\n        bids[receiver] = 0;\n        KittieFightToken.transfer(receiver, tokenCount);\n    }\n\n    /// @dev Calculates stop price.\n    /// @return Returns stop price.\n    function calcStopPrice()\n        view\n        public\n        returns (uint)\n    {\n        return totalReceived * 10**18 / MAX_TOKENS_SOLD + 1;\n    }\n\n    /// @dev Calculates token price.\n    /// @return Returns token price.\n    function calcTokenPrice()\n        view\n        public\n        returns (uint)\n    {\n        return priceFactor * 10**18 / (block.number - startBlock + 7500) + 1;\n    }\n\n    /*\n     *  Private functions\n     */\n    function finalizeAuction()\n        private\n    {\n        stage = Stages.AuctionEnded;\n\n        if (totalReceived == ceiling)\n            finalPrice = calcTokenPrice();\n        else\n            finalPrice = calcStopPrice();\n\n        endTime = now;\n    }\n\n\n}\n\ncontract Dutchwrapper is DutchAuction {\n\n\n    uint constant public MAX_TOKEN_REFERRAL = 1800000 * 10**18; // 800,000 : eight hundred  thousand\n    uint constant public MAX_TOKEN_SOCIAL = 200000 * 10**18; // 200,000 : two hundred thousand\n\n    uint public claimedTokenReferral = 0; // 800,000 : eigth hundred thousand limit\n    uint public claimedSocial = 0; // 200,000 : two  hundred thousand limit\n\n\n    // 1,000,000 :  1 million: total MAX_TOKEN_REFERRAL + MAX_TOKEN_SOCIAL\n    uint constant public TOTAL_BONUS_TOKEN = 2000000 * 10**18;\n\n\n    uint constant public Partners = 1; // Distinction between promotion groups, partnership for eth\n    uint constant public Referrals = 2; // Distinction between promotion groups, referral campaign for tokens\n    uint constant public Social = 3; // Distinction between promotion groups, social giveaway bonus\n\n    uint constant public ONE = 1; // NUMBER 1\n\n    mapping (address => uint) public SuperDAOTokens; // amount of bonus Superdao Tokens earned per bidder\n    //for participation on auction based on eth bid\n\n    struct PartnerForEth {\n        bytes4 hash; // unique hash for partner\n        address addr; //address for partner\n        uint totalReferrals; // Number of reffered parties\n        uint totalContribution; // total contribution in ETH by reffered parties\n        uint[] individualContribution; // individual contribution list, number of eth per contributor\n        uint percentage; // percentage share for partner of each referral\n        uint EthEarned; // up to date total amount earned\n    }\n\n\taddress [] public PartnersList; // list of partners\n\n    //for token referal campaign\n    struct tokenForReferral {\n        bytes4 hash; // hash of this campaign\n        address addr; // address of this user\n        uint totalReferrals; // total amount of participators refered\n        uint totalTokensEarned; // total tokens earned based on referals\n        mapping(uint => uint) tokenAmountPerReferred;// Amount of tokens earned for each participator referred\n    }\n\n    address [] public TokenReferalList; // list of partners\n\n\n    //Profile for social campaign\n    struct SocialProfile{\n        address addr; // address of this user\n        bytes32 socialAction; // online location of this users social action\n        uint tokensEarned; // total tokens earned based on campaign action\n        bool approved; ///approved or not\n        bytes32 username; //social media username twitter or discord\n    }\n\n    struct TokenforSocial{\n        bytes4 hash; // campaign identifier\n        uint maxParticipators; //  maximum number of participators in this campaign\n        SocialProfile [] SocialLinkProfile; // actual profile of participator with social sharing\n        address [] profileList; // list os addresses of participators\n        mapping(address => uint) index; //address indexes\n        mapping(address => bool) disqualified; //indicate if a user is disqualified or not\n        uint tokenAmountForEach; // amount of tokens allocated to each participator\n    }\n\n    mapping(bytes4 => PartnerForEth )  public MarketingPartners;\n    mapping(bytes4 => tokenForReferral)  public TokenReferrals;\n    mapping(bytes4 => TokenforSocial )  public SocialCampaigns;\n    mapping(address => bool ) public Admins;\n\n    // statistics on the number of bidders\n    struct bidder {\n        address addr;\n        uint amount;\n    }\n\n    bidder [] public CurrentBidders; // document current bidders\n\n\n    event PartnerReferral(bytes4 _partnerHash,address _addr, uint _amount);//fired after marketing partner referral happens\n    event SocialReferral(bytes4 _campaignHash,address _addr, uint _amount);//fired when social action converts to a bid\n    event TokenReferral(bytes4 _campaignHash,address _addr, uint _amount);// fired when token referral happens\n    event BidEvent(bytes4 _hash, address _addr, uint _amount); //fired when a bid happens\n    event SetupReferal(uint _type); //fired when a referal campaign is setup\n    event ConfirmSocial(bytes4 _campaignHash, address _addr, bytes32 _userName); //fired when social promoters confirm social action\n    event AdminRemoveBatch(bytes4 _campaignHash, address _addr, bytes32 _userName); // fired when users are removed from storage\n    event ReferalSignup(bytes4 _Hash, address _addr); // fired when a token promoter signs up\n    event ClaimtokenBonus(bytes4 _Hash, address _addr, bool success); //fired when a person claims earned tokens\n\n\n\n    // check admins\n    modifier isAdmin(){\n        require(Admins[msg.sender] == true);\n        _;\n    }\n\n    //Check if a user has been disqualified by admin\n    modifier isDisqualified(bytes4 _campaignHash){\n        require(SocialCampaigns[_campaignHash].disqualified[msg.sender] == false);\n        _;\n    }\n\n    // check when dutch auction is ended and trading has started\n    modifier tradingstarted(){\n        require(stage == Stages.TradingStarted);\n        _;\n    }\n\n    // let only partner or owner check\n    modifier onlyMarketingPartners(bytes4 _hash) {\n        require((msg.sender == owner) || ((msg.sender == MarketingPartners[_hash].addr) && ( _hash == MarketingPartners[_hash].hash)));\n            // Only owner or partner is allowed to proceed\n        _;\n    }\n\n\n    // uint constant public MAX_TOKEN_REFERRAL = 800000 * 10**18; // 800,000 : eight hundred  thousand\n    // uint constant public MAX_TOKEN_SOCIAL = 200000 * 10**18; // 200,000 : two hundred thousand\n    //\n    // uint public claimedTokenReferral = 0; // 800,000 : eigth hundred thousand limit\n    // uint public claimedSocial = 0; // 200,000 : two  hundred thousand limit\n\n\n    // 1,000,000 :  1 million: total MAX_TOKEN_REFERRAL + MAX_TOKEN_SOCIAL\n    // uint constant public TOTAL_BONUS_TOKEN = 1000000 * 10**18;\n\n\n    // safety check for requiring limits at maximum amount allocated for referrals\n    modifier ReferalCampaignLimit() {\n        require (claimedTokenReferral < MAX_TOKEN_REFERRAL);\n        _;\n    }\n\n    // safety check for requiring limits at maximum amount allocated for social campaign\n    modifier SocialCampaignLimit() {\n        require (claimedSocial< MAX_TOKEN_SOCIAL);\n        _;\n    }\n\n    //reject already rejistered by username\n    modifier checkSocialDuplicates(bytes4 _campaignHash, bytes32 _userName) {\n    \tfor (uint i=0; i<SocialCampaigns[_campaignHash].SocialLinkProfile.length; i++ ) {\n    \t\tif (SocialCampaigns[_campaignHash].SocialLinkProfile[i].username == _userName) {\n    \t\t\trevert();\n    \t\t}\n        }\n    \t_;\n    }\n\n    constructor  (address _pWallet, uint _ceiling, uint _priceFactor)\n        DutchAuction(_pWallet, _ceiling, _priceFactor)  public {\n    }\n\n    //set an address as admin to moderate and check social media campaigns\n    function setAdmin(address _addr) public isOwner returns (bool success){\n        Admins[_addr] = true;\n    \t\t    return true;\n    }\n\n    //remove an address from moderating and checking social media campaigns\n    function removeAdmin(address _addr) public isOwner returns (bool success){\n        Admins[_addr] = false;\n    \t\t    return true;\n    }\n\n\n    // creates either a marketing partnering for eth or a twitter retweet campaign. referal marketing in\n    // exchange for tokens are self generated in referal signup function\n\n    function setupReferal(address _addr, uint _percentage, uint _type, uint _tokenAmt, uint _numUsers)\n        public\n        isOwner\n        returns (string successmessage)\n    {\n\n        bytes4 tempHash = bytes4(keccak256(abi.encodePacked(_addr, msg.sender)));\n\n        if (_type == Partners) {\n\n            MarketingPartners[tempHash].hash = tempHash;\n            MarketingPartners[tempHash].addr = _addr;\n            MarketingPartners[tempHash].percentage = _percentage;\n            InternalReferalSignup(_addr);\n    \t\t    emit SetupReferal(_type);\n            return \"partner signed up\";\n\n        } else {\n\n            SocialCampaigns[tempHash].hash = tempHash;\n            SocialCampaigns[tempHash].maxParticipators = _numUsers;\n            SocialCampaigns[tempHash].tokenAmountForEach = _tokenAmt;\n            emit SetupReferal(_type);\n            return \"social campaign started\";\n        }\n    }\n\n    // generated hash on behalf of partners earning cash and tokensby tokens. referalcampaignlimmit modifier\n    //removed because partner signup it will fail if referal tokens are used up\n    function InternalReferalSignup(address _addr) internal returns (bytes4 referalhash) {\n        bytes4 tempHash = bytes4(keccak256(abi.encodePacked(_addr)));\n        TokenReferrals[tempHash].addr = msg.sender;\n        TokenReferrals[tempHash].hash = tempHash;\n        referalhash = tempHash;\n        emit ReferalSignup(tempHash, _addr);\n    }\n\n\n    // public self generated hash by token earning promoters\n    function referralSignup() public ReferalCampaignLimit returns (bytes4 referalhash) {\n        bytes4 tempHash = bytes4(keccak256(abi.encodePacked(msg.sender)));\n        TokenReferrals[tempHash].addr = msg.sender;\n        TokenReferrals[tempHash].hash = tempHash;\n        referalhash = tempHash;\n        emit ReferalSignup(tempHash, msg.sender);\n    }\n\n\n    // Biding using a referral hash\n    function bidReferral(address _receiver, bytes4 _hash) public payable returns (uint) {\n\n        uint bidAmount = msg.value;\n        uint256 promissorytokenLastPrice = PromissoryTokenIns.lastPrice();\n\n\n        if(bidAmount > ceiling - totalReceived) {\n            bidAmount = ceiling - totalReceived;\n        }\n\n        require( bid(_receiver) == bidAmount );\n\n\t\tuint amount = msg.value;\n\t\tbidder memory _bidder;\n\t\t_bidder.addr = _receiver;\n\t\t_bidder.amount = amount;\n        SuperDAOTokens[msg.sender] += amount/promissorytokenLastPrice;\n\t\tCurrentBidders.push(_bidder);\n\n        emit BidEvent(_hash, msg.sender, amount);\n\n        if (_hash == MarketingPartners[_hash].hash) {\n\n            MarketingPartners[_hash].totalReferrals += ONE;\n            MarketingPartners[_hash].totalContribution += amount;\n            MarketingPartners[_hash].individualContribution.push(amount);\n            MarketingPartners[_hash].EthEarned += referalPercentage(amount, MarketingPartners[_hash].percentage);\n\n            if(claimedTokenReferral < MAX_TOKEN_REFERRAL){\n            TokenReferrals[_hash].totalReferrals += ONE;\n\n            if( (msg.value >= 1 ether) && (msg.value <= 3 ether) ) {\n              TokenReferrals[_hash].tokenAmountPerReferred[amount] = 100 * 10**18;\n              TokenReferrals[_hash].totalTokensEarned += 100 * 10**18;\n              claimedTokenReferral += 100 * 10**18;\n              emit TokenReferral(_hash ,msg.sender, amount);\n\n\n              } else if ((msg.value > 3 ether)&&(msg.value <= 6 ether)) {\n                  TokenReferrals[_hash].tokenAmountPerReferred[amount] = 500 * 10**18;\n                  TokenReferrals[_hash].totalTokensEarned += 500 * 10**18;\n                  claimedTokenReferral += 500 * 10**18;\n                  emit TokenReferral(_hash ,msg.sender, amount);\n\n\n                  } else if (msg.value > 6 ether) {\n                    TokenReferrals[_hash].tokenAmountPerReferred[amount] = 1000 * 10**18;\n                    TokenReferrals[_hash].totalTokensEarned += 1000 * 10**18;\n                    claimedTokenReferral += 1000 * 10**18;\n                    emit TokenReferral(_hash, msg.sender, amount);\n\n                  }\n                }\n            emit PartnerReferral(_hash, MarketingPartners[_hash].addr, amount);\n\n            return Partners;\n\n          } else if ((_hash == TokenReferrals[_hash].hash) && (claimedTokenReferral < MAX_TOKEN_REFERRAL)) {\n\n        \t\t\tTokenReferrals[_hash].totalReferrals += ONE;\n\n        \t\t\tif( (msg.value >= 1 ether) && (msg.value <= 3 ether) ) {\n        \t\t\t\tTokenReferrals[_hash].tokenAmountPerReferred[amount] = 100 * 10**18;\n        \t\t\t\tTokenReferrals[_hash].totalTokensEarned += 100 * 10**18;\n                claimedTokenReferral += 100 * 10**18;\n        \t\t\t\temit TokenReferral(_hash ,msg.sender, amount);\n        \t\t\t\treturn Referrals;\n\n        \t\t\t\t} else if ((msg.value > 3 ether)&&(msg.value <= 6 ether)) {\n        \t\t\t\t\t\tTokenReferrals[_hash].tokenAmountPerReferred[amount] = 500 * 10**18;\n        \t\t\t\t\t\tTokenReferrals[_hash].totalTokensEarned += 500 * 10**18;\n                    claimedTokenReferral += 500 * 10**18;\n        \t\t\t\t\t\temit TokenReferral(_hash ,msg.sender, amount);\n        \t\t\t\t\t\treturn Referrals;\n\n        \t\t\t\t\t\t} else if (msg.value > 6 ether) {\n        \t\t\t\t\t\t\tTokenReferrals[_hash].tokenAmountPerReferred[amount] = 1000 * 10**18;\n        \t\t\t\t\t\t\tTokenReferrals[_hash].totalTokensEarned += 1000 * 10**18;\n                      claimedTokenReferral += 1000 * 10**18;\n        \t\t\t\t\t\t\temit TokenReferral(_hash, msg.sender, amount);\n        \t\t\t\t\t\t\treturn Referrals;\n        \t\t\t\t\t\t}\n                            }\n\n\n    }\n\n\n\n\tfunction confirmSocial(bytes4 _campaignHash, bytes32 _userName, bytes32 _retweetOrdiscord) public\n\t   SocialCampaignLimit\n\t   checkSocialDuplicates(_campaignHash, _userName)\n    \treturns (uint) {\n\t\t\tuint id = SocialCampaigns[_campaignHash].index[msg.sender];\n\n            if(SocialCampaigns[_campaignHash].SocialLinkProfile.length != 0){\n                require(msg.sender != SocialCampaigns[_campaignHash].SocialLinkProfile[id].addr); //reject already rejistered\n            }\n\n\t\t\trequire(SocialCampaigns[_campaignHash].SocialLinkProfile.length <= SocialCampaigns[_campaignHash].maxParticipators);// check token availability\n            SocialProfile memory tempProfile;\n\t\t\ttempProfile.addr = msg.sender;\n \t\t\ttempProfile.socialAction = _retweetOrdiscord; //store social action\n\t\t\ttempProfile.tokensEarned = SocialCampaigns[_campaignHash].tokenAmountForEach;\n\t\t\ttempProfile.approved = true;\n\t\t\ttempProfile.username = _userName;\n\t\t\tSocialCampaigns[_campaignHash].SocialLinkProfile.push(tempProfile);\n\t\t\tSocialCampaigns[_campaignHash].index[msg.sender] = SocialCampaigns[_campaignHash].SocialLinkProfile.length;\n\t\t\t//SocialCampaigns[_campaignHash].disqualified[tempAddr] = false;\n\n\n\t\t\tclaimedSocial += SocialCampaigns[_campaignHash].tokenAmountForEach;\n\t\t\temit ConfirmSocial(_campaignHash, msg.sender, _userName);\n    }\n\n\n    function adminRemoveBatch(bytes4 _campaignHash, address [] _batchList) public\n        isAdmin\n        SocialCampaignLimit\n        returns (uint) {\n        \t for (uint i=0; i < _batchList.length; i++){\n        \t   address tempAddr = _batchList[i];\n        \t   uint userIndex = SocialCampaigns[_campaignHash].index[tempAddr];\n        \t   delete SocialCampaigns[_campaignHash].SocialLinkProfile[userIndex];\n        \t   SocialCampaigns[_campaignHash].disqualified[tempAddr] = true;\n        \t   claimedSocial -= SocialCampaigns[_campaignHash].tokenAmountForEach;\n        \t   emit AdminRemoveBatch(_campaignHash, tempAddr, SocialCampaigns[_campaignHash].SocialLinkProfile[userIndex].username);\n        }\n    }\n\n\n\n\tfunction referalPercentage(uint _amount, uint _percent)\n\t    public\n\t    returns (uint) {\n            return SafeMath.mul( SafeMath.div( SafeMath.sub(_amount, _amount%100), 100 ), _percent );\n\t}\n\n\n\n  function claimtokenBonus (bytes4 _campaignHash) public\n\ttimedTransitions\n\tatStage(Stages.TradingStarted)\n\tisDisqualified(_campaignHash)\n\treturns (bool success) {\n\n\t \tuint userIndex = SocialCampaigns[_campaignHash].index[msg.sender];\n        bytes4 _personalHash = bytes4(keccak256(abi.encodePacked(msg.sender)));\n\n\t\tif ((_personalHash == TokenReferrals[_personalHash].hash) && (TokenReferrals[_personalHash].totalTokensEarned > 0)){\n\n\t\t\tuint TokensToTransfer1 = TokenReferrals[_personalHash].totalTokensEarned;\n\t\t\tTokenReferrals[_personalHash].totalTokensEarned = 0;\n            KittieFightToken.transfer(TokenReferrals[_personalHash].addr , TokensToTransfer1);\n\t\t\temit ClaimtokenBonus(_campaignHash, msg.sender, true);\n\t\t\treturn true;\n\n\t  }else if((msg.sender == SocialCampaigns[_campaignHash].SocialLinkProfile[userIndex].addr) && (SocialCampaigns[_campaignHash].SocialLinkProfile[userIndex].tokensEarned > 0)){\n\n\t\tuint TokensToTransfer2 = SocialCampaigns[_campaignHash].SocialLinkProfile[userIndex].tokensEarned;\n\t\tSocialCampaigns[_campaignHash].SocialLinkProfile[userIndex].tokensEarned = 0;\n\t\tKittieFightToken.transfer(msg.sender, TokensToTransfer2);\n\t\temit ClaimtokenBonus(_campaignHash, msg.sender, true);\n\t\treturn true;\n\t\t}else return false;\n\n  }\n\n    /*\n     *  Admin transfers all unsold tokens back to token contract\n     */\n    function transferUnsoldTokens(uint _unsoldTokens, address _addr)\n        public\n        isOwner\n        atStage(Stages.TradingStarted)\n\n     {\n\n        uint soldTokens = totalReceived * 10**18 / finalPrice;\n        require (_unsoldTokens < (MAX_TOKENS_SOLD + claimedTokenReferral + claimedSocial) - soldTokens);\n        KittieFightToken.transfer(_addr, _unsoldTokens);\n    }\n\n\n    // function getTokenforSocial (bytes4 _hash) public view returns (bool res)  {\n    // }\n    \n\n    function getCurrentBiddersCount () public view returns(uint biddersCount)  {\n        biddersCount = CurrentBidders.length;\n    }\n    \n\n    // helper functions  return msg.senders\n    function calculatPersonalHash() public view returns (bytes4 _hash) {\n        _hash = bytes4(keccak256(abi.encodePacked(msg.sender)));\n    }\n\n    function calculateCampaignHash(address _addr) public view returns (bytes4 _hash) {\n        _hash = bytes4(keccak256(abi.encodePacked(_addr, msg.sender)));\n    }\n\n    // Set Promissary token Instance  By Admin (Fo testing only)\n    function setPromissoryTokenInstance(address _promissoryAddr) public isOwner {\n        PromissoryTokenIns = PromissoryToken(_promissoryAddr);\n    }\n  \n\n}\n\n",
  "sourcePath": "/Users/achiko/Documents/elva/projects/kittiefight/DutchAuction/contracts/contracts-flattened/Dutchwrapper-flattened.sol",
  "compiler": {
    "name": "solc",
    "version": "0.4.24+commit.e67f0147.Emscripten.clang"
  },
  "schemaVersion": "2.0.1",
  "updatedAt": "2018-11-16T14:02:09.245Z"
}