{
  "contractName": "ERC20Capped",
  "abi": [
    {
      "constant": false,
      "inputs": [
        {
          "name": "spender",
          "type": "address"
        },
        {
          "name": "value",
          "type": "uint256"
        }
      ],
      "name": "approve",
      "outputs": [
        {
          "name": "",
          "type": "bool"
        }
      ],
      "payable": false,
      "stateMutability": "nonpayable",
      "type": "function"
    },
    {
      "constant": true,
      "inputs": [],
      "name": "totalSupply",
      "outputs": [
        {
          "name": "",
          "type": "uint256"
        }
      ],
      "payable": false,
      "stateMutability": "view",
      "type": "function"
    },
    {
      "constant": false,
      "inputs": [
        {
          "name": "from",
          "type": "address"
        },
        {
          "name": "to",
          "type": "address"
        },
        {
          "name": "value",
          "type": "uint256"
        }
      ],
      "name": "transferFrom",
      "outputs": [
        {
          "name": "",
          "type": "bool"
        }
      ],
      "payable": false,
      "stateMutability": "nonpayable",
      "type": "function"
    },
    {
      "constant": false,
      "inputs": [
        {
          "name": "spender",
          "type": "address"
        },
        {
          "name": "addedValue",
          "type": "uint256"
        }
      ],
      "name": "increaseAllowance",
      "outputs": [
        {
          "name": "",
          "type": "bool"
        }
      ],
      "payable": false,
      "stateMutability": "nonpayable",
      "type": "function"
    },
    {
      "constant": true,
      "inputs": [
        {
          "name": "owner",
          "type": "address"
        }
      ],
      "name": "balanceOf",
      "outputs": [
        {
          "name": "",
          "type": "uint256"
        }
      ],
      "payable": false,
      "stateMutability": "view",
      "type": "function"
    },
    {
      "constant": false,
      "inputs": [
        {
          "name": "account",
          "type": "address"
        }
      ],
      "name": "addMinter",
      "outputs": [],
      "payable": false,
      "stateMutability": "nonpayable",
      "type": "function"
    },
    {
      "constant": false,
      "inputs": [],
      "name": "renounceMinter",
      "outputs": [],
      "payable": false,
      "stateMutability": "nonpayable",
      "type": "function"
    },
    {
      "constant": false,
      "inputs": [
        {
          "name": "spender",
          "type": "address"
        },
        {
          "name": "subtractedValue",
          "type": "uint256"
        }
      ],
      "name": "decreaseAllowance",
      "outputs": [
        {
          "name": "",
          "type": "bool"
        }
      ],
      "payable": false,
      "stateMutability": "nonpayable",
      "type": "function"
    },
    {
      "constant": false,
      "inputs": [
        {
          "name": "to",
          "type": "address"
        },
        {
          "name": "value",
          "type": "uint256"
        }
      ],
      "name": "transfer",
      "outputs": [
        {
          "name": "",
          "type": "bool"
        }
      ],
      "payable": false,
      "stateMutability": "nonpayable",
      "type": "function"
    },
    {
      "constant": true,
      "inputs": [
        {
          "name": "account",
          "type": "address"
        }
      ],
      "name": "isMinter",
      "outputs": [
        {
          "name": "",
          "type": "bool"
        }
      ],
      "payable": false,
      "stateMutability": "view",
      "type": "function"
    },
    {
      "constant": true,
      "inputs": [
        {
          "name": "owner",
          "type": "address"
        },
        {
          "name": "spender",
          "type": "address"
        }
      ],
      "name": "allowance",
      "outputs": [
        {
          "name": "",
          "type": "uint256"
        }
      ],
      "payable": false,
      "stateMutability": "view",
      "type": "function"
    },
    {
      "inputs": [
        {
          "name": "cap",
          "type": "uint256"
        }
      ],
      "payable": false,
      "stateMutability": "nonpayable",
      "type": "constructor"
    },
    {
      "anonymous": false,
      "inputs": [
        {
          "indexed": true,
          "name": "account",
          "type": "address"
        }
      ],
      "name": "MinterAdded",
      "type": "event"
    },
    {
      "anonymous": false,
      "inputs": [
        {
          "indexed": true,
          "name": "account",
          "type": "address"
        }
      ],
      "name": "MinterRemoved",
      "type": "event"
    },
    {
      "anonymous": false,
      "inputs": [
        {
          "indexed": true,
          "name": "from",
          "type": "address"
        },
        {
          "indexed": true,
          "name": "to",
          "type": "address"
        },
        {
          "indexed": false,
          "name": "value",
          "type": "uint256"
        }
      ],
      "name": "Transfer",
      "type": "event"
    },
    {
      "anonymous": false,
      "inputs": [
        {
          "indexed": true,
          "name": "owner",
          "type": "address"
        },
        {
          "indexed": true,
          "name": "spender",
          "type": "address"
        },
        {
          "indexed": false,
          "name": "value",
          "type": "uint256"
        }
      ],
      "name": "Approval",
      "type": "event"
    },
    {
      "constant": true,
      "inputs": [],
      "name": "cap",
      "outputs": [
        {
          "name": "",
          "type": "uint256"
        }
      ],
      "payable": false,
      "stateMutability": "view",
      "type": "function"
    },
    {
      "constant": false,
      "inputs": [
        {
          "name": "to",
          "type": "address"
        },
        {
          "name": "value",
          "type": "uint256"
        }
      ],
      "name": "mint",
      "outputs": [
        {
          "name": "",
          "type": "bool"
        }
      ],
      "payable": false,
      "stateMutability": "nonpayable",
      "type": "function"
    }
  ],
  "bytecode": "0x608060405234801561001057600080fd5b506040516020806109bd833981016040525161003433640100000000610049810204565b6000811161004157600080fd5b6004556100d2565b61006160038264010000000061083f61009882021704565b604051600160a060020a038216907f6ae172837ea30b801fbfcdd4108aa1d5bf8ff775444fd70256b44e6bf3dfc3f690600090a250565b600160a060020a03811615156100ad57600080fd5b600160a060020a0316600090815260209190915260409020805460ff19166001179055565b6108dc806100e16000396000f3006080604052600436106100c45763ffffffff7c0100000000000000000000000000000000000000000000000000000000600035041663095ea7b381146100c957806318160ddd1461010157806323b872dd14610128578063355274ea14610152578063395093511461016757806340c10f191461018b57806370a08231146101af578063983b2d56146101d057806398650275146101f3578063a457c2d714610208578063a9059cbb1461022c578063aa271e1a14610250578063dd62ed3e14610271575b600080fd5b3480156100d557600080fd5b506100ed600160a060020a0360043516602435610298565b604080519115158252519081900360200190f35b34801561010d57600080fd5b50610116610316565b60408051918252519081900360200190f35b34801561013457600080fd5b506100ed600160a060020a036004358116906024351660443561031c565b34801561015e57600080fd5b506101166103b9565b34801561017357600080fd5b506100ed600160a060020a03600435166024356103bf565b34801561019757600080fd5b506100ed600160a060020a036004351660243561046f565b3480156101bb57600080fd5b50610116600160a060020a03600435166104a8565b3480156101dc57600080fd5b506101f1600160a060020a03600435166104c3565b005b3480156101ff57600080fd5b506101f16104e3565b34801561021457600080fd5b506100ed600160a060020a03600435166024356104ee565b34801561023857600080fd5b506100ed600160a060020a0360043516602435610539565b34801561025c57600080fd5b506100ed600160a060020a036004351661054f565b34801561027d57600080fd5b50610116600160a060020a0360043581169060243516610568565b6000600160a060020a03831615156102af57600080fd5b336000818152600160209081526040808320600160a060020a03881680855290835292819020869055805186815290519293927f8c5be1e5ebec7d5bd14f71427d1e84f3dd0314c0f7b2291e5b200ac8c7c3b925929181900390910190a350600192915050565b60025490565b600160a060020a038316600090815260016020908152604080832033845290915281205482111561034c57600080fd5b600160a060020a0384166000908152600160209081526040808320338452909152902054610380908363ffffffff61059316565b600160a060020a03851660009081526001602090815260408083203384529091529020556103af8484846105aa565b5060019392505050565b60045490565b6000600160a060020a03831615156103d657600080fd5b336000908152600160209081526040808320600160a060020a038716845290915290205461040a908363ffffffff61069c16565b336000818152600160209081526040808320600160a060020a0389168085529083529281902085905580519485525191937f8c5be1e5ebec7d5bd14f71427d1e84f3dd0314c0f7b2291e5b200ac8c7c3b925929081900390910190a350600192915050565b600060045461048c83610480610316565b9063ffffffff61069c16565b111561049757600080fd5b6104a183836106ae565b9392505050565b600160a060020a031660009081526020819052604090205490565b6104cc3361054f565b15156104d757600080fd5b6104e0816106ce565b50565b6104ec33610716565b565b6000600160a060020a038316151561050557600080fd5b336000908152600160209081526040808320600160a060020a038716845290915290205461040a908363ffffffff61059316565b60006105463384846105aa565b50600192915050565b600061056260038363ffffffff61075e16565b92915050565b600160a060020a03918216600090815260016020908152604080832093909416825291909152205490565b600080838311156105a357600080fd5b5050900390565b600160a060020a0383166000908152602081905260409020548111156105cf57600080fd5b600160a060020a03821615156105e457600080fd5b600160a060020a03831660009081526020819052604090205461060d908263ffffffff61059316565b600160a060020a038085166000908152602081905260408082209390935590841681522054610642908263ffffffff61069c16565b600160a060020a038084166000818152602081815260409182902094909455805185815290519193928716927fddf252ad1be2c89b69c2b068fc378daa952ba7f163c4a11628f55a4df523b3ef92918290030190a3505050565b6000828201838110156104a157600080fd5b60006106b93361054f565b15156106c457600080fd5b6105468383610795565b6106df60038263ffffffff61083f16565b604051600160a060020a038216907f6ae172837ea30b801fbfcdd4108aa1d5bf8ff775444fd70256b44e6bf3dfc3f690600090a250565b61072760038263ffffffff61087916565b604051600160a060020a038216907fe94479a9f7e1952cc78f2d6baab678adc1b772d936c6583def489e524cb6669290600090a250565b6000600160a060020a038216151561077557600080fd5b50600160a060020a03166000908152602091909152604090205460ff1690565b600160a060020a03821615156107aa57600080fd5b6002546107bd908263ffffffff61069c16565b600255600160a060020a0382166000908152602081905260409020546107e9908263ffffffff61069c16565b600160a060020a0383166000818152602081815260408083209490945583518581529351929391927fddf252ad1be2c89b69c2b068fc378daa952ba7f163c4a11628f55a4df523b3ef9281900390910190a35050565b600160a060020a038116151561085457600080fd5b600160a060020a0316600090815260209190915260409020805460ff19166001179055565b600160a060020a038116151561088e57600080fd5b600160a060020a0316600090815260209190915260409020805460ff191690555600a165627a7a723058200ae8633cedba364b240da0fc34ad143e4df431f9ebbd25c430917f6a356cfc210029",
  "source": "pragma solidity ^0.4.24;\n\nimport \"./ERC20Mintable.sol\";\n\n/**\n * @title Capped token\n * @dev Mintable token with a token cap.\n */\ncontract ERC20Capped is ERC20Mintable {\n\n  uint256 private _cap;\n\n  constructor(uint256 cap)\n    public\n  {\n    require(cap > 0);\n    _cap = cap;\n  }\n\n  /**\n   * @return the cap for the token minting.\n   */\n  function cap() public view returns(uint256) {\n    return _cap;\n  }\n\n  /**\n   * @dev Function to mint tokens\n   * @param to The address that will receive the minted tokens.\n   * @param value The amount of tokens to mint.\n   * @return A boolean that indicates if the operation was successful.\n   */\n  function mint(\n    address to,\n    uint256 value\n  )\n    public\n    returns (bool)\n  {\n    require(totalSupply().add(value) <= _cap);\n\n    return super.mint(to, value);\n  }\n\n}\n",
  "sourcePath": "/Users/achiko/Documents/elva/projects/kittiefight/KittieSITE/contracts/openzeppelin-solidity__old/token/ERC20/ERC20Capped.sol",
  "compiler": {
    "name": "solc",
    "version": "0.4.24+commit.e67f0147.Emscripten.clang"
  },
  "schemaVersion": "2.0.1",
  "updatedAt": "2018-11-05T14:07:26.401Z"
}