{
  "contractName": "ERC721Pausable",
  "abi": [
    {
      "constant": true,
      "inputs": [
        {
          "name": "interfaceId",
          "type": "bytes4"
        }
      ],
      "name": "supportsInterface",
      "outputs": [
        {
          "name": "",
          "type": "bool"
        }
      ],
      "payable": false,
      "stateMutability": "view",
      "type": "function"
    },
    {
      "constant": true,
      "inputs": [
        {
          "name": "tokenId",
          "type": "uint256"
        }
      ],
      "name": "getApproved",
      "outputs": [
        {
          "name": "",
          "type": "address"
        }
      ],
      "payable": false,
      "stateMutability": "view",
      "type": "function"
    },
    {
      "constant": false,
      "inputs": [],
      "name": "unpause",
      "outputs": [],
      "payable": false,
      "stateMutability": "nonpayable",
      "type": "function"
    },
    {
      "constant": false,
      "inputs": [
        {
          "name": "from",
          "type": "address"
        },
        {
          "name": "to",
          "type": "address"
        },
        {
          "name": "tokenId",
          "type": "uint256"
        }
      ],
      "name": "safeTransferFrom",
      "outputs": [],
      "payable": false,
      "stateMutability": "nonpayable",
      "type": "function"
    },
    {
      "constant": true,
      "inputs": [
        {
          "name": "account",
          "type": "address"
        }
      ],
      "name": "isPauser",
      "outputs": [
        {
          "name": "",
          "type": "bool"
        }
      ],
      "payable": false,
      "stateMutability": "view",
      "type": "function"
    },
    {
      "constant": true,
      "inputs": [],
      "name": "paused",
      "outputs": [
        {
          "name": "",
          "type": "bool"
        }
      ],
      "payable": false,
      "stateMutability": "view",
      "type": "function"
    },
    {
      "constant": true,
      "inputs": [
        {
          "name": "tokenId",
          "type": "uint256"
        }
      ],
      "name": "ownerOf",
      "outputs": [
        {
          "name": "",
          "type": "address"
        }
      ],
      "payable": false,
      "stateMutability": "view",
      "type": "function"
    },
    {
      "constant": false,
      "inputs": [],
      "name": "renouncePauser",
      "outputs": [],
      "payable": false,
      "stateMutability": "nonpayable",
      "type": "function"
    },
    {
      "constant": true,
      "inputs": [
        {
          "name": "owner",
          "type": "address"
        }
      ],
      "name": "balanceOf",
      "outputs": [
        {
          "name": "",
          "type": "uint256"
        }
      ],
      "payable": false,
      "stateMutability": "view",
      "type": "function"
    },
    {
      "constant": false,
      "inputs": [
        {
          "name": "account",
          "type": "address"
        }
      ],
      "name": "addPauser",
      "outputs": [],
      "payable": false,
      "stateMutability": "nonpayable",
      "type": "function"
    },
    {
      "constant": false,
      "inputs": [],
      "name": "pause",
      "outputs": [],
      "payable": false,
      "stateMutability": "nonpayable",
      "type": "function"
    },
    {
      "constant": false,
      "inputs": [
        {
          "name": "from",
          "type": "address"
        },
        {
          "name": "to",
          "type": "address"
        },
        {
          "name": "tokenId",
          "type": "uint256"
        },
        {
          "name": "_data",
          "type": "bytes"
        }
      ],
      "name": "safeTransferFrom",
      "outputs": [],
      "payable": false,
      "stateMutability": "nonpayable",
      "type": "function"
    },
    {
      "constant": true,
      "inputs": [
        {
          "name": "owner",
          "type": "address"
        },
        {
          "name": "operator",
          "type": "address"
        }
      ],
      "name": "isApprovedForAll",
      "outputs": [
        {
          "name": "",
          "type": "bool"
        }
      ],
      "payable": false,
      "stateMutability": "view",
      "type": "function"
    },
    {
      "anonymous": false,
      "inputs": [],
      "name": "Paused",
      "type": "event"
    },
    {
      "anonymous": false,
      "inputs": [],
      "name": "Unpaused",
      "type": "event"
    },
    {
      "anonymous": false,
      "inputs": [
        {
          "indexed": true,
          "name": "account",
          "type": "address"
        }
      ],
      "name": "PauserAdded",
      "type": "event"
    },
    {
      "anonymous": false,
      "inputs": [
        {
          "indexed": true,
          "name": "account",
          "type": "address"
        }
      ],
      "name": "PauserRemoved",
      "type": "event"
    },
    {
      "anonymous": false,
      "inputs": [
        {
          "indexed": true,
          "name": "from",
          "type": "address"
        },
        {
          "indexed": true,
          "name": "to",
          "type": "address"
        },
        {
          "indexed": true,
          "name": "tokenId",
          "type": "uint256"
        }
      ],
      "name": "Transfer",
      "type": "event"
    },
    {
      "anonymous": false,
      "inputs": [
        {
          "indexed": true,
          "name": "owner",
          "type": "address"
        },
        {
          "indexed": true,
          "name": "approved",
          "type": "address"
        },
        {
          "indexed": true,
          "name": "tokenId",
          "type": "uint256"
        }
      ],
      "name": "Approval",
      "type": "event"
    },
    {
      "anonymous": false,
      "inputs": [
        {
          "indexed": true,
          "name": "owner",
          "type": "address"
        },
        {
          "indexed": true,
          "name": "operator",
          "type": "address"
        },
        {
          "indexed": false,
          "name": "approved",
          "type": "bool"
        }
      ],
      "name": "ApprovalForAll",
      "type": "event"
    },
    {
      "constant": false,
      "inputs": [
        {
          "name": "to",
          "type": "address"
        },
        {
          "name": "tokenId",
          "type": "uint256"
        }
      ],
      "name": "approve",
      "outputs": [],
      "payable": false,
      "stateMutability": "nonpayable",
      "type": "function"
    },
    {
      "constant": false,
      "inputs": [
        {
          "name": "to",
          "type": "address"
        },
        {
          "name": "approved",
          "type": "bool"
        }
      ],
      "name": "setApprovalForAll",
      "outputs": [],
      "payable": false,
      "stateMutability": "nonpayable",
      "type": "function"
    },
    {
      "constant": false,
      "inputs": [
        {
          "name": "from",
          "type": "address"
        },
        {
          "name": "to",
          "type": "address"
        },
        {
          "name": "tokenId",
          "type": "uint256"
        }
      ],
      "name": "transferFrom",
      "outputs": [],
      "payable": false,
      "stateMutability": "nonpayable",
      "type": "function"
    }
  ],
  "bytecode": "0x60806040526100367f01ffc9a700000000000000000000000000000000000000000000000000000000640100000000610089810204565b6100687f80ac58cd00000000000000000000000000000000000000000000000000000000640100000000610089810204565b61007a336401000000006100f5810204565b6006805460ff1916905561017e565b7fffffffff0000000000000000000000000000000000000000000000000000000080821614156100b857600080fd5b7fffffffff00000000000000000000000000000000000000000000000000000000166000908152602081905260409020805460ff19166001179055565b61010d600582640100000000610c6361014482021704565b604051600160a060020a038216907f6719d08c1888103bea251a4ed56406bd0c3e69723c8a1686e017e7bbe159b6f890600090a250565b600160a060020a038116151561015957600080fd5b600160a060020a0316600090815260209190915260409020805460ff19166001179055565b610d018061018d6000396000f3006080604052600436106100e55763ffffffff7c010000000000000000000000000000000000000000000000000000000060003504166301ffc9a781146100ea578063081812fc14610135578063095ea7b31461016957806323b872dd1461018f5780633f4ba83a146101b957806342842e0e146101ce57806346fbf68e146101f85780635c975abb146102195780636352211e1461022e5780636ef8d66d1461024657806370a082311461025b57806382dc1ec41461028e5780638456cb59146102af578063a22cb465146102c4578063b88d4fde146102ea578063e985e9c514610359575b600080fd5b3480156100f657600080fd5b506101217bffffffffffffffffffffffffffffffffffffffffffffffffffffffff1960043516610380565b604080519115158252519081900360200190f35b34801561014157600080fd5b5061014d6004356103b4565b60408051600160a060020a039092168252519081900360200190f35b34801561017557600080fd5b5061018d600160a060020a03600435166024356103e6565b005b34801561019b57600080fd5b5061018d600160a060020a0360043581169060243516604435610404565b3480156101c557600080fd5b5061018d610424565b3480156101da57600080fd5b5061018d600160a060020a036004358116906024351660443561047e565b34801561020457600080fd5b50610121600160a060020a036004351661049a565b34801561022557600080fd5b506101216104b3565b34801561023a57600080fd5b5061014d6004356104bc565b34801561025257600080fd5b5061018d6104e0565b34801561026757600080fd5b5061027c600160a060020a03600435166104eb565b60408051918252519081900360200190f35b34801561029a57600080fd5b5061018d600160a060020a036004351661051e565b3480156102bb57600080fd5b5061018d61053e565b3480156102d057600080fd5b5061018d600160a060020a0360043516602435151561059a565b3480156102f657600080fd5b50604080516020601f60643560048181013592830184900484028501840190955281845261018d94600160a060020a0381358116956024803590921695604435953695608494019181908401838280828437509497506105b49650505050505050565b34801561036557600080fd5b50610121600160a060020a03600435811690602435166105dc565b7bffffffffffffffffffffffffffffffffffffffffffffffffffffffff191660009081526020819052604090205460ff1690565b60006103bf8261060a565b15156103ca57600080fd5b50600090815260026020526040902054600160a060020a031690565b60065460ff16156103f657600080fd5b6104008282610627565b5050565b60065460ff161561041457600080fd5b61041f8383836106dd565b505050565b61042d3361049a565b151561043857600080fd5b60065460ff16151561044957600080fd5b6006805460ff191690556040517fa45f47fdea8a1efdd9029a5691c7f759c32b7c698632b563573e155625d1693390600090a1565b61041f83838360206040519081016040528060008152506105b4565b60006104ad60058363ffffffff61076b16565b92915050565b60065460ff1690565b600081815260016020526040812054600160a060020a03168015156104ad57600080fd5b6104e9336107a2565b565b6000600160a060020a038216151561050257600080fd5b50600160a060020a031660009081526003602052604090205490565b6105273361049a565b151561053257600080fd5b61053b816107ea565b50565b6105473361049a565b151561055257600080fd5b60065460ff161561056257600080fd5b6006805460ff191660011790556040517f9e87fac88ff661f02d44f95383c817fece4bce600a3dab7a54406878b965e75290600090a1565b60065460ff16156105aa57600080fd5b6104008282610832565b6105bf848484610404565b6105cb848484846108b6565b15156105d657600080fd5b50505050565b600160a060020a03918216600090815260046020908152604080832093909416825291909152205460ff1690565b600090815260016020526040902054600160a060020a0316151590565b6000610632826104bc565b9050600160a060020a03838116908216141561064d57600080fd5b33600160a060020a0382161480610669575061066981336105dc565b151561067457600080fd5b600082815260026020526040808220805473ffffffffffffffffffffffffffffffffffffffff1916600160a060020a0387811691821790925591518593918516917f8c5be1e5ebec7d5bd14f71427d1e84f3dd0314c0f7b2291e5b200ac8c7c3b92591a4505050565b6106e73382610a38565b15156106f257600080fd5b600160a060020a038216151561070757600080fd5b6107118382610a97565b61071b8382610b06565b6107258282610b9c565b8082600160a060020a031684600160a060020a03167fddf252ad1be2c89b69c2b068fc378daa952ba7f163c4a11628f55a4df523b3ef60405160405180910390a4505050565b6000600160a060020a038216151561078257600080fd5b50600160a060020a03166000908152602091909152604090205460ff1690565b6107b360058263ffffffff610c2c16565b604051600160a060020a038216907fcd265ebaf09df2871cc7bd4133404a235ba12eff2041bb89d9c714a2621c7c7e90600090a250565b6107fb60058263ffffffff610c6316565b604051600160a060020a038216907f6719d08c1888103bea251a4ed56406bd0c3e69723c8a1686e017e7bbe159b6f890600090a250565b600160a060020a03821633141561084857600080fd5b336000818152600460209081526040808320600160a060020a03871680855290835292819020805460ff1916861515908117909155815190815290519293927f17307eab39ab6107e8899845ad3d59bd9653f200f220920489ca2b5937696c31929181900390910190a35050565b6000806108cb85600160a060020a0316610c9d565b15156108da5760019150610a2f565b6040517f150b7a020000000000000000000000000000000000000000000000000000000081523360048201818152600160a060020a03898116602485015260448401889052608060648501908152875160848601528751918a169463150b7a0294938c938b938b93909160a490910190602085019080838360005b8381101561096d578181015183820152602001610955565b50505050905090810190601f16801561099a5780820380516001836020036101000a031916815260200191505b5095505050505050602060405180830381600087803b1580156109bc57600080fd5b505af11580156109d0573d6000803e3d6000fd5b505050506040513d60208110156109e657600080fd5b50517bffffffffffffffffffffffffffffffffffffffffffffffffffffffff1981167f150b7a020000000000000000000000000000000000000000000000000000000014925090505b50949350505050565b600080610a44836104bc565b905080600160a060020a031684600160a060020a03161480610a7f575083600160a060020a0316610a74846103b4565b600160a060020a0316145b80610a8f5750610a8f81856105dc565b949350505050565b81600160a060020a0316610aaa826104bc565b600160a060020a031614610abd57600080fd5b600081815260026020526040902054600160a060020a031615610400576000908152600260205260409020805473ffffffffffffffffffffffffffffffffffffffff1916905550565b81600160a060020a0316610b19826104bc565b600160a060020a031614610b2c57600080fd5b600160a060020a038216600090815260036020526040902054610b5690600163ffffffff610ca516565b600160a060020a03909216600090815260036020908152604080832094909455918152600190915220805473ffffffffffffffffffffffffffffffffffffffff19169055565b600081815260016020526040902054600160a060020a031615610bbe57600080fd5b6000818152600160208181526040808420805473ffffffffffffffffffffffffffffffffffffffff1916600160a060020a0388169081179091558452600390915290912054610c0c91610cbc565b600160a060020a0390921660009081526003602052604090209190915550565b600160a060020a0381161515610c4157600080fd5b600160a060020a0316600090815260209190915260409020805460ff19169055565b600160a060020a0381161515610c7857600080fd5b600160a060020a0316600090815260209190915260409020805460ff19166001179055565b6000903b1190565b60008083831115610cb557600080fd5b5050900390565b600082820183811015610cce57600080fd5b93925050505600a165627a7a72305820debe8565f17a4be2db565881fa085b1efd36a344afb1a5c7cea32d1e6dd3cda00029",
  "source": "pragma solidity ^0.4.24;\n\nimport \"./ERC721.sol\";\nimport \"../../lifecycle/Pausable.sol\";\n\n/**\n * @title ERC721 Non-Fungible Pausable token\n * @dev ERC721 modified with pausable transfers.\n **/\ncontract ERC721Pausable is ERC721, Pausable {\n  function approve(\n    address to,\n    uint256 tokenId\n  )\n    public\n    whenNotPaused\n  {\n    super.approve(to, tokenId);\n  }\n\n  function setApprovalForAll(\n    address to,\n    bool approved\n  )\n    public\n    whenNotPaused\n  {\n    super.setApprovalForAll(to, approved);\n  }\n\n  function transferFrom(\n    address from,\n    address to,\n    uint256 tokenId\n  )\n    public\n    whenNotPaused\n  {\n    super.transferFrom(from, to, tokenId);\n  }\n}\n",
  "sourcePath": "/Users/achiko/Documents/elva/projects/kittiefight/KittieSITE/contracts/openzeppelin-solidity__old/token/ERC721/ERC721Pausable.sol",
  "compiler": {
    "name": "solc",
    "version": "0.4.24+commit.e67f0147.Emscripten.clang"
  },
  "schemaVersion": "2.0.1",
  "updatedAt": "2018-11-05T14:07:26.405Z"
}