{
  "contractName": "ERC721Holder",
  "abi": [
    {
      "constant": false,
      "inputs": [
        {
          "name": "",
          "type": "address"
        },
        {
          "name": "",
          "type": "address"
        },
        {
          "name": "",
          "type": "uint256"
        },
        {
          "name": "",
          "type": "bytes"
        }
      ],
      "name": "onERC721Received",
      "outputs": [
        {
          "name": "",
          "type": "bytes4"
        }
      ],
      "payable": false,
      "stateMutability": "nonpayable",
      "type": "function"
    }
  ],
  "bytecode": "0x608060405234801561001057600080fd5b5061014b806100206000396000f3006080604052600436106100405763ffffffff7c0100000000000000000000000000000000000000000000000000000000600035041663150b7a028114610045575b600080fd5b34801561005157600080fd5b50604080516020601f6064356004818101359283018490048402850184019095528184526100c19473ffffffffffffffffffffffffffffffffffffffff81358116956024803590921695604435953695608494019181908401838280828437509497506100f69650505050505050565b604080517fffffffff000000000000000000000000000000000000000000000000000000009092168252519081900360200190f35b7f150b7a02000000000000000000000000000000000000000000000000000000009493505050505600a165627a7a72305820fb02c2cc244346332d71501335a8368fee080a8090816934ab85dbe82fedffa10029",
  "source": "pragma solidity ^0.4.24;\n\nimport \"./IERC721Receiver.sol\";\n\ncontract ERC721Holder is IERC721Receiver {\n  function onERC721Received(\n    address,\n    address,\n    uint256,\n    bytes\n  )\n    public\n    returns(bytes4)\n  {\n    return this.onERC721Received.selector;\n  }\n}\n",
  "sourcePath": "/Users/achiko/Documents/elva/projects/kittiefight/KittieSITE/contracts/openzeppelin-solidity__old/token/ERC721/ERC721Holder.sol",
  "compiler": {
    "name": "solc",
    "version": "0.4.24+commit.e67f0147.Emscripten.clang"
  },
  "schemaVersion": "2.0.1",
  "updatedAt": "2018-11-05T14:07:26.364Z"
}