{
  "contractName": "ERC865Token",
  "abi": [
    {
      "constant": false,
      "inputs": [
        {
          "name": "_spender",
          "type": "address"
        },
        {
          "name": "_value",
          "type": "uint256"
        }
      ],
      "name": "approve",
      "outputs": [
        {
          "name": "",
          "type": "bool"
        }
      ],
      "payable": false,
      "stateMutability": "nonpayable",
      "type": "function"
    },
    {
      "constant": true,
      "inputs": [],
      "name": "totalSupply",
      "outputs": [
        {
          "name": "",
          "type": "uint256"
        }
      ],
      "payable": false,
      "stateMutability": "view",
      "type": "function"
    },
    {
      "constant": false,
      "inputs": [
        {
          "name": "_from",
          "type": "address"
        },
        {
          "name": "_to",
          "type": "address"
        },
        {
          "name": "_value",
          "type": "uint256"
        }
      ],
      "name": "transferFrom",
      "outputs": [
        {
          "name": "",
          "type": "bool"
        }
      ],
      "payable": false,
      "stateMutability": "nonpayable",
      "type": "function"
    },
    {
      "constant": false,
      "inputs": [
        {
          "name": "_spender",
          "type": "address"
        },
        {
          "name": "_subtractedValue",
          "type": "uint256"
        }
      ],
      "name": "decreaseApproval",
      "outputs": [
        {
          "name": "",
          "type": "bool"
        }
      ],
      "payable": false,
      "stateMutability": "nonpayable",
      "type": "function"
    },
    {
      "constant": true,
      "inputs": [
        {
          "name": "_owner",
          "type": "address"
        }
      ],
      "name": "balanceOf",
      "outputs": [
        {
          "name": "balance",
          "type": "uint256"
        }
      ],
      "payable": false,
      "stateMutability": "view",
      "type": "function"
    },
    {
      "constant": false,
      "inputs": [
        {
          "name": "_to",
          "type": "address"
        },
        {
          "name": "_value",
          "type": "uint256"
        }
      ],
      "name": "transfer",
      "outputs": [
        {
          "name": "",
          "type": "bool"
        }
      ],
      "payable": false,
      "stateMutability": "nonpayable",
      "type": "function"
    },
    {
      "constant": false,
      "inputs": [
        {
          "name": "_spender",
          "type": "address"
        },
        {
          "name": "_addedValue",
          "type": "uint256"
        }
      ],
      "name": "increaseApproval",
      "outputs": [
        {
          "name": "",
          "type": "bool"
        }
      ],
      "payable": false,
      "stateMutability": "nonpayable",
      "type": "function"
    },
    {
      "constant": true,
      "inputs": [
        {
          "name": "_owner",
          "type": "address"
        },
        {
          "name": "_spender",
          "type": "address"
        }
      ],
      "name": "allowance",
      "outputs": [
        {
          "name": "",
          "type": "uint256"
        }
      ],
      "payable": false,
      "stateMutability": "view",
      "type": "function"
    },
    {
      "anonymous": false,
      "inputs": [
        {
          "indexed": true,
          "name": "from",
          "type": "address"
        },
        {
          "indexed": true,
          "name": "to",
          "type": "address"
        },
        {
          "indexed": true,
          "name": "delegate",
          "type": "address"
        },
        {
          "indexed": false,
          "name": "amount",
          "type": "uint256"
        },
        {
          "indexed": false,
          "name": "fee",
          "type": "uint256"
        }
      ],
      "name": "TransferPreSigned",
      "type": "event"
    },
    {
      "anonymous": false,
      "inputs": [
        {
          "indexed": true,
          "name": "from",
          "type": "address"
        },
        {
          "indexed": true,
          "name": "to",
          "type": "address"
        },
        {
          "indexed": true,
          "name": "delegate",
          "type": "address"
        },
        {
          "indexed": false,
          "name": "amount",
          "type": "uint256"
        },
        {
          "indexed": false,
          "name": "fee",
          "type": "uint256"
        }
      ],
      "name": "ApprovalPreSigned",
      "type": "event"
    },
    {
      "anonymous": false,
      "inputs": [
        {
          "indexed": true,
          "name": "owner",
          "type": "address"
        },
        {
          "indexed": true,
          "name": "spender",
          "type": "address"
        },
        {
          "indexed": false,
          "name": "value",
          "type": "uint256"
        }
      ],
      "name": "Approval",
      "type": "event"
    },
    {
      "anonymous": false,
      "inputs": [
        {
          "indexed": true,
          "name": "from",
          "type": "address"
        },
        {
          "indexed": true,
          "name": "to",
          "type": "address"
        },
        {
          "indexed": false,
          "name": "value",
          "type": "uint256"
        }
      ],
      "name": "Transfer",
      "type": "event"
    },
    {
      "constant": false,
      "inputs": [
        {
          "name": "_signature",
          "type": "bytes"
        },
        {
          "name": "_to",
          "type": "address"
        },
        {
          "name": "_value",
          "type": "uint256"
        },
        {
          "name": "_fee",
          "type": "uint256"
        },
        {
          "name": "_nonce",
          "type": "uint256"
        }
      ],
      "name": "transferPreSigned",
      "outputs": [
        {
          "name": "",
          "type": "bool"
        }
      ],
      "payable": false,
      "stateMutability": "nonpayable",
      "type": "function"
    },
    {
      "constant": false,
      "inputs": [
        {
          "name": "_signature",
          "type": "bytes"
        },
        {
          "name": "_spender",
          "type": "address"
        },
        {
          "name": "_value",
          "type": "uint256"
        },
        {
          "name": "_fee",
          "type": "uint256"
        },
        {
          "name": "_nonce",
          "type": "uint256"
        }
      ],
      "name": "approvePreSigned",
      "outputs": [
        {
          "name": "",
          "type": "bool"
        }
      ],
      "payable": false,
      "stateMutability": "nonpayable",
      "type": "function"
    },
    {
      "constant": false,
      "inputs": [
        {
          "name": "_signature",
          "type": "bytes"
        },
        {
          "name": "_spender",
          "type": "address"
        },
        {
          "name": "_addedValue",
          "type": "uint256"
        },
        {
          "name": "_fee",
          "type": "uint256"
        },
        {
          "name": "_nonce",
          "type": "uint256"
        }
      ],
      "name": "increaseApprovalPreSigned",
      "outputs": [
        {
          "name": "",
          "type": "bool"
        }
      ],
      "payable": false,
      "stateMutability": "nonpayable",
      "type": "function"
    },
    {
      "constant": false,
      "inputs": [
        {
          "name": "_signature",
          "type": "bytes"
        },
        {
          "name": "_spender",
          "type": "address"
        },
        {
          "name": "_subtractedValue",
          "type": "uint256"
        },
        {
          "name": "_fee",
          "type": "uint256"
        },
        {
          "name": "_nonce",
          "type": "uint256"
        }
      ],
      "name": "decreaseApprovalPreSigned",
      "outputs": [
        {
          "name": "",
          "type": "bool"
        }
      ],
      "payable": false,
      "stateMutability": "nonpayable",
      "type": "function"
    },
    {
      "constant": false,
      "inputs": [
        {
          "name": "_signature",
          "type": "bytes"
        },
        {
          "name": "_from",
          "type": "address"
        },
        {
          "name": "_to",
          "type": "address"
        },
        {
          "name": "_value",
          "type": "uint256"
        },
        {
          "name": "_fee",
          "type": "uint256"
        },
        {
          "name": "_nonce",
          "type": "uint256"
        }
      ],
      "name": "transferFromPreSigned",
      "outputs": [
        {
          "name": "",
          "type": "bool"
        }
      ],
      "payable": false,
      "stateMutability": "nonpayable",
      "type": "function"
    },
    {
      "constant": true,
      "inputs": [
        {
          "name": "_token",
          "type": "address"
        },
        {
          "name": "_to",
          "type": "address"
        },
        {
          "name": "_value",
          "type": "uint256"
        },
        {
          "name": "_fee",
          "type": "uint256"
        },
        {
          "name": "_nonce",
          "type": "uint256"
        }
      ],
      "name": "transferPreSignedHashing",
      "outputs": [
        {
          "name": "",
          "type": "bytes32"
        }
      ],
      "payable": false,
      "stateMutability": "pure",
      "type": "function"
    },
    {
      "constant": true,
      "inputs": [
        {
          "name": "_token",
          "type": "address"
        },
        {
          "name": "_spender",
          "type": "address"
        },
        {
          "name": "_value",
          "type": "uint256"
        },
        {
          "name": "_fee",
          "type": "uint256"
        },
        {
          "name": "_nonce",
          "type": "uint256"
        }
      ],
      "name": "approvePreSignedHashing",
      "outputs": [
        {
          "name": "",
          "type": "bytes32"
        }
      ],
      "payable": false,
      "stateMutability": "pure",
      "type": "function"
    },
    {
      "constant": true,
      "inputs": [
        {
          "name": "_token",
          "type": "address"
        },
        {
          "name": "_spender",
          "type": "address"
        },
        {
          "name": "_addedValue",
          "type": "uint256"
        },
        {
          "name": "_fee",
          "type": "uint256"
        },
        {
          "name": "_nonce",
          "type": "uint256"
        }
      ],
      "name": "increaseApprovalPreSignedHashing",
      "outputs": [
        {
          "name": "",
          "type": "bytes32"
        }
      ],
      "payable": false,
      "stateMutability": "pure",
      "type": "function"
    },
    {
      "constant": true,
      "inputs": [
        {
          "name": "_token",
          "type": "address"
        },
        {
          "name": "_spender",
          "type": "address"
        },
        {
          "name": "_subtractedValue",
          "type": "uint256"
        },
        {
          "name": "_fee",
          "type": "uint256"
        },
        {
          "name": "_nonce",
          "type": "uint256"
        }
      ],
      "name": "decreaseApprovalPreSignedHashing",
      "outputs": [
        {
          "name": "",
          "type": "bytes32"
        }
      ],
      "payable": false,
      "stateMutability": "pure",
      "type": "function"
    },
    {
      "constant": true,
      "inputs": [
        {
          "name": "_token",
          "type": "address"
        },
        {
          "name": "_from",
          "type": "address"
        },
        {
          "name": "_to",
          "type": "address"
        },
        {
          "name": "_value",
          "type": "uint256"
        },
        {
          "name": "_fee",
          "type": "uint256"
        },
        {
          "name": "_nonce",
          "type": "uint256"
        }
      ],
      "name": "transferFromPreSignedHashing",
      "outputs": [
        {
          "name": "",
          "type": "bytes32"
        }
      ],
      "payable": false,
      "stateMutability": "pure",
      "type": "function"
    },
    {
      "constant": true,
      "inputs": [
        {
          "name": "hash",
          "type": "bytes32"
        },
        {
          "name": "sig",
          "type": "bytes"
        }
      ],
      "name": "recover",
      "outputs": [
        {
          "name": "",
          "type": "address"
        }
      ],
      "payable": false,
      "stateMutability": "pure",
      "type": "function"
    }
  ],
  "bytecode": "0x608060405234801561001057600080fd5b506121e4806100206000396000f3006080604052600436106101065763ffffffff7c0100000000000000000000000000000000000000000000000000000000600035041663095ea7b3811461010b5780631296830d1461014357806315420b71146101b657806318160ddd146101f857806319045a251461020d57806323b872dd1461028757806359388d78146102b1578063617b390b146102e1578063661884631461035457806370a08231146103785780638be5278314610399578063a45f71ff1461040c578063a9059cbb1461043c578063adb8249e14610460578063b7656dc5146104d3578063bca5051514610509578063d73dd62314610586578063dd62ed3e146105aa578063f7ac9c2e146105d1575b600080fd5b34801561011757600080fd5b5061012f600160a060020a0360043516602435610601565b604080519115158252519081900360200190f35b34801561014f57600080fd5b506040805160206004803580820135601f810184900484028501840190955284845261012f94369492936024939284019190819084018382808284375094975050508335600160a060020a0316945050506020820135916040810135915060600135610655565b3480156101c257600080fd5b506101e6600160a060020a03600435811690602435166044356064356084356109ee565b60408051918252519081900360200190f35b34801561020457600080fd5b506101e6610ad2565b34801561021957600080fd5b5060408051602060046024803582810135601f810185900485028601850190965285855261026b958335953695604494919390910191908190840183828082843750949750610ad89650505050505050565b60408051600160a060020a039092168252519081900360200190f35b34801561029357600080fd5b5061012f600160a060020a0360043581169060243516604435610bad565b3480156102bd57600080fd5b506101e6600160a060020a0360043581169060243516604435606435608435610d12565b3480156102ed57600080fd5b506040805160206004803580820135601f810184900484028501840190955284845261012f94369492936024939284019190819084018382808284375094975050508335600160a060020a0316945050506020820135916040810135915060600135610dbf565b34801561036057600080fd5b5061012f600160a060020a036004351660243561112b565b34801561038457600080fd5b506101e6600160a060020a0360043516611209565b3480156103a557600080fd5b506040805160206004803580820135601f810184900484028501840190955284845261012f94369492936024939284019190819084018382808284375094975050508335600160a060020a0316945050506020820135916040810135915060600135611224565b34801561041857600080fd5b506101e6600160a060020a0360043581169060243516604435606435608435611611565b34801561044857600080fd5b5061012f600160a060020a03600435166024356116be565b34801561046c57600080fd5b506040805160206004803580820135601f810184900484028501840190955284845261012f94369492936024939284019190819084018382808284375094975050508335600160a060020a031694505050602082013591604081013591506060013561178d565b3480156104df57600080fd5b506101e6600160a060020a036004358116906024358116906044351660643560843560a435611b4f565b34801561051557600080fd5b506040805160206004803580820135601f810184900484028501840190955284845261012f94369492936024939284019190819084018382808284375094975050600160a060020a03853581169650602086013516946040810135945060608101359350608001359150611c3e9050565b34801561059257600080fd5b5061012f600160a060020a0360043516602435611ff1565b3480156105b657600080fd5b506101e6600160a060020a0360043581169060243516612078565b3480156105dd57600080fd5b506101e6600160a060020a03600435811690602435166044356064356084356120a3565b336000818152600260209081526040808320600160a060020a03871680855290835281842086905581518681529151939490939092600080516020612199833981519152928290030190a350600192915050565b60008080600160a060020a03871615156106b9576040805160e560020a62461bcd02815260206004820152601360248201527f4e6f20616464726573732070726f766964656400000000000000000000000000604482015290519081900360640190fd5b6003886040518082805190602001908083835b602083106106eb5780518252601f1990920191602091820191016106cc565b51815160209384036101000a600019018019909216911617905292019485525060405193849003019092205460ff161591506107739050576040805160e560020a62461bcd02815260206004820152600c60248201527f4e6f207369676e61747572650000000000000000000000000000000000000000604482015290519081900360640190fd5b61078030888888886109ee565b915061078c8289610ad8565b9050600160a060020a03811615156107ee576040805160e560020a62461bcd02815260206004820152601c60248201527f46726f6d2061646472657373206973206e6f742070726f766964656400000000604482015290519081900360640190fd5b600160a060020a03811660009081526020819052604090205461082990869061081d908963ffffffff61215016565b9063ffffffff61215016565b600160a060020a03808316600090815260208190526040808220939093559089168152205461085e908763ffffffff61216216565b600160a060020a038816600090815260208190526040808220929092553381522054610890908663ffffffff61216216565b60008033600160a060020a0316600160a060020a031681526020019081526020016000208190555060016003896040518082805190602001908083835b602083106108ec5780518252601f1990920191602091820191016108cd565b51815160209384036101000a6000190180199092169116179052920194855250604080519485900382018520805460ff1916961515969096179095558a84529351600160a060020a038c811695908716946000805160206121798339815191529450829003019150a36040805186815290513391600160a060020a038416916000805160206121798339815191529181900360200190a333600160a060020a031687600160a060020a031682600160a060020a03167fec5a73fd1f178be20c1bca1b406cbf4b5c20d833b66e582fc122fb4baa0fc2a48989604051808381526020018281526020019250505060405180910390a4506001979650505050505050565b604080517f48664c16000000000000000000000000000000000000000000000000000000006020808301919091526c01000000000000000000000000600160a060020a03808a16820260248501528816026038830152604c8201869052606c8201859052608c8083018590528351808403909101815260ac909201928390528151600093918291908401908083835b60208310610a9c5780518252601f199092019160209182019101610a7d565b5181516020939093036101000a600019018019909116921691909117905260405192018290039091209998505050505050505050565b60015490565b60008060008084516041141515610af25760009350610ba4565b50505060208201516040830151606084015160001a601b60ff82161015610b1757601b015b8060ff16601b14158015610b2f57508060ff16601c14155b15610b3d5760009350610ba4565b60408051600080825260208083018085528a905260ff8516838501526060830187905260808301869052925160019360a0808501949193601f19840193928390039091019190865af1158015610b97573d6000803e3d6000fd5b5050506020604051035193505b50505092915050565b6000600160a060020a0383161515610bc457600080fd5b600160a060020a038416600090815260208190526040902054821115610be957600080fd5b600160a060020a0384166000908152600260209081526040808320338452909152902054821115610c1957600080fd5b600160a060020a038416600090815260208190526040902054610c42908363ffffffff61215016565b600160a060020a038086166000908152602081905260408082209390935590851681522054610c77908363ffffffff61216216565b600160a060020a03808516600090815260208181526040808320949094559187168152600282528281203382529091522054610cb9908363ffffffff61215016565b600160a060020a0380861660008181526002602090815260408083203384528252918290209490945580518681529051928716939192600080516020612179833981519152929181900390910190a35060019392505050565b604080517f59388d78000000000000000000000000000000000000000000000000000000006020808301919091526c01000000000000000000000000600160a060020a03808a16820260248501528816026038830152604c8201869052606c8201859052608c8083018590528351808403909101815260ac9092019283905281516000939182919084019080838360208310610a9c5780518252601f199092019160209182019101610a7d565b60008080600160a060020a0387161515610e23576040805160e560020a62461bcd02815260206004820152601760248201527f5370656e646572206973206e6f742070726f7669646564000000000000000000604482015290519081900360640190fd5b6003886040518082805190602001908083835b60208310610e555780518252601f199092019160209182019101610e36565b51815160209384036101000a600019018019909216911617905292019485525060405193849003019092205460ff16159150610edd9050576040805160e560020a62461bcd02815260206004820152600c60248201527f4e6f207369676e61747572650000000000000000000000000000000000000000604482015290519081900360640190fd5b610eea30888888886120a3565b9150610ef68289610ad8565b9050600160a060020a0381161515610f58576040805160e560020a62461bcd02815260206004820152601b60248201527f46726f6d20616464726573206973206e6f742070726f76696465640000000000604482015290519081900360640190fd5b600160a060020a038082166000818152600260209081526040808320948c1683529381528382208a9055918152908190522054610f9b908663ffffffff61215016565b600160a060020a038216600090815260208190526040808220929092553381522054610fcd908663ffffffff61216216565b60008033600160a060020a0316600160a060020a031681526020019081526020016000208190555060016003896040518082805190602001908083835b602083106110295780518252601f19909201916020918201910161100a565b51815160209384036101000a6000190180199092169116179052920194855250604080519485900382018520805460ff1916961515969096179095558a84529351600160a060020a038c811695908716946000805160206121998339815191529450829003019150a36040805186815290513391600160a060020a038416916000805160206121798339815191529181900360200190a333600160a060020a031687600160a060020a031682600160a060020a03167f43a220267705e74ee2ceafd46afc841850db6f85a662189a7def697bbdd90ffb8989604051808381526020018281526020019250505060405180910390a4506001979650505050505050565b336000908152600260209081526040808320600160a060020a03861684529091528120548083111561118057336000908152600260209081526040808320600160a060020a03881684529091528120556111b5565b611190818463ffffffff61215016565b336000908152600260209081526040808320600160a060020a03891684529091529020555b336000818152600260209081526040808320600160a060020a038916808552908352928190205481519081529051929392600080516020612199833981519152929181900390910190a35060019392505050565b600160a060020a031660009081526020819052604090205490565b6000808080600160a060020a0388161515611289576040805160e560020a62461bcd02815260206004820152601f60248201527f5370656e6465722061646472657373206973206e6f742070726f766964656400604482015290519081900360640190fd5b6003896040518082805190602001908083835b602083106112bb5780518252601f19909201916020918201910161129c565b51815160209384036101000a600019018019909216911617905292019485525060405193849003019092205460ff161591506113439050576040805160e560020a62461bcd02815260206004820152600c60248201527f4e6f20736f676e61747572650000000000000000000000000000000000000000604482015290519081900360640190fd5b6113503089898989610d12565b925061135c838a610ad8565b9150600160a060020a03821615156113be576040805160e560020a62461bcd02815260206004820152601c60248201527f46726f6d2061646472657373206973206e6f742070726f766964656400000000604482015290519081900360640190fd5b50600160a060020a038082166000908152600260209081526040808320938b16835292905220548087111561141a57600160a060020a038083166000908152600260209081526040808320938c16835292905290812055611451565b61142a818863ffffffff61215016565b600160a060020a038084166000908152600260209081526040808320938d16835292905220555b600160a060020a03821660009081526020819052604090205461147a908763ffffffff61215016565b600160a060020a0383166000908152602081905260408082209290925533815220546114ac908763ffffffff61216216565b60008033600160a060020a0316600160a060020a0316815260200190815260200160002081905550600160038a6040518082805190602001908083835b602083106115085780518252601f1990920191602091820191016114e9565b51815160209384036101000a6000190180199092169116179052920194855250604080519485900382018520805460ff1916961515969096179095558b84529351600160a060020a038d811695908816946000805160206121998339815191529450829003019150a36040805187815290513391600160a060020a038516916000805160206121798339815191529181900360200190a3600160a060020a038281166000818152600260209081526040808320948d16808452948252918290205482519081529081018a90528151339493927f43a220267705e74ee2ceafd46afc841850db6f85a662189a7def697bbdd90ffb928290030190a450600198975050505050505050565b604080517fa45f71ff000000000000000000000000000000000000000000000000000000006020808301919091526c01000000000000000000000000600160a060020a03808a16820260248501528816026038830152604c8201869052606c8201859052608c8083018590528351808403909101815260ac9092019283905281516000939182919084019080838360208310610a9c5780518252601f199092019160209182019101610a7d565b6000600160a060020a03831615156116d557600080fd5b336000908152602081905260409020548211156116f157600080fd5b33600090815260208190526040902054611711908363ffffffff61215016565b3360009081526020819052604080822092909255600160a060020a03851681522054611743908363ffffffff61216216565b600160a060020a038416600081815260208181526040918290209390935580518581529051919233926000805160206121798339815191529281900390910190a350600192915050565b60008080600160a060020a03871615156117f1576040805160e560020a62461bcd02815260206004820152601f60248201527f5370656e6465722061646472657373206973206e6f742070726f766964656400604482015290519081900360640190fd5b6003886040518082805190602001908083835b602083106118235780518252601f199092019160209182019101611804565b51815160209384036101000a600019018019909216911617905292019485525060405193849003019092205460ff161591506118ab9050576040805160e560020a62461bcd02815260206004820152600c60248201527f4e6f205369676e61747572650000000000000000000000000000000000000000604482015290519081900360640190fd5b6118b83088888888611611565b91506118c48289610ad8565b9050600160a060020a0381161515611926576040805160e560020a62461bcd02815260206004820152601c60248201527f46726f6d2061646472657373206973206e6f742070726f766964656400000000604482015290519081900360640190fd5b600160a060020a038082166000908152600260209081526040808320938b168352929052205461195c908763ffffffff61216216565b600160a060020a038083166000818152600260209081526040808320948d16835293815283822094909455908152918290529020546119a1908663ffffffff61215016565b600160a060020a0382166000908152602081905260408082209290925533815220546119d3908663ffffffff61216216565b60008033600160a060020a0316600160a060020a031681526020019081526020016000208190555060016003896040518082805190602001908083835b60208310611a2f5780518252601f199092019160209182019101611a10565b51815160209384036101000a6000190180199092169116179052920194855250604080519485900382018520805460ff191696151596909617909555600160a060020a03868116600081815260028452878120928f16808252928452879020548652955190959460008051602061219983398151915294508190039091019150a36040805186815290513391600160a060020a038416916000805160206121798339815191529181900360200190a3600160a060020a038181166000818152600260209081526040808320948c16808452948252918290205482519081529081018990528151339493927f43a220267705e74ee2ceafd46afc841850db6f85a662189a7def697bbdd90ffb928290030190a4506001979650505050505050565b604080517fb7656dc5000000000000000000000000000000000000000000000000000000006020808301919091526c01000000000000000000000000600160a060020a03808b1682026024850152808a1682026038850152881602604c830152606082018690526080820185905260a08083018590528351808403909101815260c0909201928390528151600093918291908401908083835b60208310611c075780518252601f199092019160209182019101611be8565b5181516020939093036101000a600019018019909116921691909117905260405192018290039091209a9950505050505050505050565b60008080600160a060020a0387161515611ca2576040805160e560020a62461bcd02815260206004820152601860248201527f4e6f205b746f5d20616464726573732070726f76696465640000000000000000604482015290519081900360640190fd5b6003896040518082805190602001908083835b60208310611cd45780518252601f199092019160209182019101611cb5565b51815160209384036101000a600019018019909216911617905292019485525060405193849003019092205460ff16159150611d5c9050576040805160e560020a62461bcd02815260206004820152601560248201527f4e6f207369676e61747572652070726f76696465640000000000000000000000604482015290519081900360640190fd5b611d6a308989898989611b4f565b9150611d76828a610ad8565b9050600160a060020a0381161515611dd8576040805160e560020a62461bcd02815260206004820152601f60248201527f5370656e6465722061646472657373206973206e6f742070726f766964656400604482015290519081900360640190fd5b600160a060020a038816600090815260208190526040902054611e01908763ffffffff61215016565b600160a060020a03808a166000908152602081905260408082209390935590891681522054611e36908763ffffffff61216216565b600160a060020a03808916600090815260208181526040808320949094558b83168252600281528382209285168252919091522054611e7b908763ffffffff61215016565b600160a060020a03808a16600090815260026020908152604080832093861683529281528282209390935591829052902054611ebd908663ffffffff61215016565b600160a060020a038216600090815260208190526040808220929092553381522054611eef908663ffffffff61216216565b60008033600160a060020a0316600160a060020a0316815260200190815260200160002081905550600160038a6040518082805190602001908083835b60208310611f4b5780518252601f199092019160209182019101611f2c565b51815160209384036101000a6000190180199092169116179052920194855250604080519485900382018520805460ff1916961515969096179095558a84529351600160a060020a038c811695908e16946000805160206121798339815191529450829003019150a36040805186815290513391600160a060020a038416916000805160206121798339815191529181900360200190a350600198975050505050505050565b336000908152600260209081526040808320600160a060020a0386168452909152812054612025908363ffffffff61216216565b336000818152600260209081526040808320600160a060020a038916808552908352928190208590558051948552519193600080516020612199833981519152929081900390910190a350600192915050565b600160a060020a03918216600090815260026020908152604080832093909416825291909152205490565b604080517ff7ac9c2e000000000000000000000000000000000000000000000000000000006020808301919091526c01000000000000000000000000600160a060020a03808a16820260248501528816026038830152604c8201869052606c8201859052608c8083018590528351808403909101815260ac9092019283905281516000939182919084019080838360208310610a9c5780518252601f199092019160209182019101610a7d565b60008282111561215c57fe5b50900390565b60008282018381101561217157fe5b93925050505600ddf252ad1be2c89b69c2b068fc378daa952ba7f163c4a11628f55a4df523b3ef8c5be1e5ebec7d5bd14f71427d1e84f3dd0314c0f7b2291e5b200ac8c7c3b925a165627a7a7230582002411d05508b9bbf6b72b40b5168be2f3233d0a0f257ca84ccbbff594a1678730029",
  "source": "pragma solidity ^0.4.24;\ncontract ERC20Basic {\n  function totalSupply() public view returns (uint256);\n  function balanceOf(address who) public view returns (uint256);\n  function transfer(address to, uint256 value) public returns (bool);\n  event Transfer(address indexed from, address indexed to, uint256 value);\n}\n\ncontract Ownable {\n  address public owner;\n\n\n  event OwnershipTransferred(address indexed previousOwner, address indexed newOwner);\n\n\n  /**\n   * @dev The Ownable constructor sets the original `owner` of the contract to the sender\n   * account.\n   */\n  function Ownable() public {\n    owner = msg.sender;\n  }\n\n  /**\n   * @dev Throws if called by any account other than the owner.\n   */\n  modifier onlyOwner() {\n    require(msg.sender == owner);\n    _;\n  }\n\n  /**\n   * @dev Allows the current owner to transfer control of the contract to a newOwner.\n   * @param newOwner The address to transfer ownership to.\n   */\n  function transferOwnership(address newOwner) public onlyOwner {\n    require(newOwner != address(0));\n    OwnershipTransferred(owner, newOwner);\n    owner = newOwner;\n  }\n\n}\n\nlibrary SafeMath {\n\n  /**\n  * @dev Multiplies two numbers, throws on overflow.\n  */\n  function mul(uint256 a, uint256 b) internal pure returns (uint256) {\n    if (a == 0) {\n      return 0;\n    }\n    uint256 c = a * b;\n    assert(c / a == b);\n    return c;\n  }\n\n  /**\n  * @dev Integer division of two numbers, truncating the quotient.\n  */\n  function div(uint256 a, uint256 b) internal pure returns (uint256) {\n    // assert(b > 0); // Solidity automatically throws when dividing by 0\n    uint256 c = a / b;\n    // assert(a == b * c + a % b); // There is no case in which this doesn't hold\n    return c;\n  }\n\n  /**\n  * @dev Substracts two numbers, throws on overflow (i.e. if subtrahend is greater than minuend).\n  */\n  function sub(uint256 a, uint256 b) internal pure returns (uint256) {\n    assert(b <= a);\n    return a - b;\n  }\n\n  /**\n  * @dev Adds two numbers, throws on overflow.\n  */\n  function add(uint256 a, uint256 b) internal pure returns (uint256) {\n    uint256 c = a + b;\n    assert(c >= a);\n    return c;\n  }\n}\n\ncontract ERC20 is ERC20Basic {\n  function allowance(address owner, address spender) public view returns (uint256);\n  function transferFrom(address from, address to, uint256 value) public returns (bool);\n  function approve(address spender, uint256 value) public returns (bool);\n  event Approval(address indexed owner, address indexed spender, uint256 value);\n}\n\ncontract Pausable is Ownable {\n  event Pause();\n  event Unpause();\n\n  bool public paused = false;\n\n\n  /**\n   * @dev Modifier to make a function callable only when the contract is not paused.\n   */\n  modifier whenNotPaused() {\n    require(!paused);\n    _;\n  }\n\n  /**\n   * @dev Modifier to make a function callable only when the contract is paused.\n   */\n  modifier whenPaused() {\n    require(paused);\n    _;\n  }\n\n  /**\n   * @dev called by the owner to pause, triggers stopped state\n   */\n  function pause() onlyOwner whenNotPaused public {\n    paused = true;\n    Pause();\n  }\n\n  /**\n   * @dev called by the owner to unpause, returns to normal state\n   */\n  function unpause() onlyOwner whenPaused public {\n    paused = false;\n    Unpause();\n  }\n}\n\ncontract BasicToken is ERC20Basic {\n  using SafeMath for uint256;\n\n  mapping(address => uint256) balances;\n\n  uint256 totalSupply_;\n\n  /**\n  * @dev total number of tokens in existence\n  */\n  function totalSupply() public view returns (uint256) {\n    return totalSupply_;\n  }\n\n  /**\n  * @dev transfer token for a specified address\n  * @param _to The address to transfer to.\n  * @param _value The amount to be transferred.\n  */\n  function transfer(address _to, uint256 _value) public returns (bool) {\n    require(_to != address(0));\n    require(_value <= balances[msg.sender]);\n\n    // SafeMath.sub will throw if there is not enough balance.\n    balances[msg.sender] = balances[msg.sender].sub(_value);\n    balances[_to] = balances[_to].add(_value);\n    Transfer(msg.sender, _to, _value);\n    return true;\n  }\n\n  /**\n  * @dev Gets the balance of the specified address.\n  * @param _owner The address to query the the balance of.\n  * @return An uint256 representing the amount owned by the passed address.\n  */\n  function balanceOf(address _owner) public view returns (uint256 balance) {\n    return balances[_owner];\n  }\n\n}\n\ncontract ERC865 is ERC20 {\n\n    function transferPreSigned(\n        bytes _signature,\n        address _to,\n        uint256 _value,\n        uint256 _fee,\n        uint256 _nonce\n    )\n        public\n        returns (bool);\n\n    function approvePreSigned(\n        bytes _signature,\n        address _spender,\n        uint256 _value,\n        uint256 _fee,\n        uint256 _nonce\n    )\n        public\n        returns (bool);\n\n    function increaseApprovalPreSigned(\n        bytes _signature,\n        address _spender,\n        uint256 _addedValue,\n        uint256 _fee,\n        uint256 _nonce\n    )\n        public\n        returns (bool);\n\n    function decreaseApprovalPreSigned(\n        bytes _signature,\n        address _spender,\n        uint256 _subtractedValue,\n        uint256 _fee,\n        uint256 _nonce\n    )\n        public\n        returns (bool);\n\n    function transferFromPreSigned(\n        bytes _signature,\n        address _from,\n        address _to,\n        uint256 _value,\n        uint256 _fee,\n        uint256 _nonce\n    )\n        public\n        returns (bool);\n}\n\ncontract StandardToken is ERC20, BasicToken {\n\n  mapping (address => mapping (address => uint256)) internal allowed;\n\n\n  /**\n   * @dev Transfer tokens from one address to another\n   * @param _from address The address which you want to send tokens from\n   * @param _to address The address which you want to transfer to\n   * @param _value uint256 the amount of tokens to be transferred\n   */\n  function transferFrom(address _from, address _to, uint256 _value) public returns (bool) {\n    require(_to != address(0));\n    require(_value <= balances[_from]);\n    require(_value <= allowed[_from][msg.sender]);\n\n    balances[_from] = balances[_from].sub(_value);\n    balances[_to] = balances[_to].add(_value);\n    allowed[_from][msg.sender] = allowed[_from][msg.sender].sub(_value);\n    Transfer(_from, _to, _value);\n    return true;\n  }\n\n  /**\n   * @dev Approve the passed address to spend the specified amount of tokens on behalf of msg.sender.\n   *\n   * Beware that changing an allowance with this method brings the risk that someone may use both the old\n   * and the new allowance by unfortunate transaction ordering. One possible solution to mitigate this\n   * race condition is to first reduce the spender's allowance to 0 and set the desired value afterwards:\n   * https://github.com/ethereum/EIPs/issues/20#issuecomment-263524729\n   * @param _spender The address which will spend the funds.\n   * @param _value The amount of tokens to be spent.\n   */\n  function approve(address _spender, uint256 _value) public returns (bool) {\n    allowed[msg.sender][_spender] = _value;\n    Approval(msg.sender, _spender, _value);\n    return true;\n  }\n\n  /**\n   * @dev Function to check the amount of tokens that an owner allowed to a spender.\n   * @param _owner address The address which owns the funds.\n   * @param _spender address The address which will spend the funds.\n   * @return A uint256 specifying the amount of tokens still available for the spender.\n   */\n  function allowance(address _owner, address _spender) public view returns (uint256) {\n    return allowed[_owner][_spender];\n  }\n\n  /**\n   * @dev Increase the amount of tokens that an owner allowed to a spender.\n   *\n   * approve should be called when allowed[_spender] == 0. To increment\n   * allowed value is better to use this function to avoid 2 calls (and wait until\n   * the first transaction is mined)\n   * From MonolithDAO Token.sol\n   * @param _spender The address which will spend the funds.\n   * @param _addedValue The amount of tokens to increase the allowance by.\n   */\n  function increaseApproval(address _spender, uint _addedValue) public returns (bool) {\n    allowed[msg.sender][_spender] = allowed[msg.sender][_spender].add(_addedValue);\n    Approval(msg.sender, _spender, allowed[msg.sender][_spender]);\n    return true;\n  }\n\n  /**\n   * @dev Decrease the amount of tokens that an owner allowed to a spender.\n   *\n   * approve should be called when allowed[_spender] == 0. To decrement\n   * allowed value is better to use this function to avoid 2 calls (and wait until\n   * the first transaction is mined)\n   * From MonolithDAO Token.sol\n   * @param _spender The address which will spend the funds.\n   * @param _subtractedValue The amount of tokens to decrease the allowance by.\n   */\n  function decreaseApproval(address _spender, uint _subtractedValue) public returns (bool) {\n    uint oldValue = allowed[msg.sender][_spender];\n    if (_subtractedValue > oldValue) {\n      allowed[msg.sender][_spender] = 0;\n    } else {\n      allowed[msg.sender][_spender] = oldValue.sub(_subtractedValue);\n    }\n    Approval(msg.sender, _spender, allowed[msg.sender][_spender]);\n    return true;\n  }\n\n}\n\ncontract MintableToken is StandardToken, Ownable {\n  event Mint(address indexed to, uint256 amount);\n  event MintFinished();\n\n  bool public mintingFinished = false;\n\n\n  modifier canMint() {\n    require(!mintingFinished);\n    _;\n  }\n\n  /**\n   * @dev Function to mint tokens\n   * @param _to The address that will receive the minted tokens.\n   * @param _amount The amount of tokens to mint.\n   * @return A boolean that indicates if the operation was successful.\n   */\n  function mint(address _to, uint256 _amount) onlyOwner canMint public returns (bool) {\n    totalSupply_ = totalSupply_.add(_amount);\n    balances[_to] = balances[_to].add(_amount);\n    Mint(_to, _amount);\n    Transfer(address(0), _to, _amount);\n    return true;\n  }\n\n  /**\n   * @dev Function to stop minting new tokens.\n   * @return True if the operation was successful.\n   */\n  function finishMinting() onlyOwner canMint public returns (bool) {\n    mintingFinished = true;\n    MintFinished();\n    return true;\n  }\n}\n\ncontract PausableToken is StandardToken, Pausable {\n\n  function transfer(address _to, uint256 _value) public whenNotPaused returns (bool) {\n    return super.transfer(_to, _value);\n  }\n\n  function transferFrom(address _from, address _to, uint256 _value) public whenNotPaused returns (bool) {\n    return super.transferFrom(_from, _to, _value);\n  }\n\n  function approve(address _spender, uint256 _value) public whenNotPaused returns (bool) {\n    return super.approve(_spender, _value);\n  }\n\n  function increaseApproval(address _spender, uint _addedValue) public whenNotPaused returns (bool success) {\n    return super.increaseApproval(_spender, _addedValue);\n  }\n\n  function decreaseApproval(address _spender, uint _subtractedValue) public whenNotPaused returns (bool success) {\n    return super.decreaseApproval(_spender, _subtractedValue);\n  }\n}\n\ncontract ERC865Token is ERC865, StandardToken {\n\n    /* Nonces of transfers performed */\n    mapping(bytes => bool) signatures;\n\n    event TransferPreSigned(address indexed from, address indexed to, address indexed delegate, uint256 amount, uint256 fee);\n    event ApprovalPreSigned(address indexed from, address indexed to, address indexed delegate, uint256 amount, uint256 fee);\n\n    /**\n     * @notice Submit a presigned transfer\n     * @param _signature bytes The signature, issued by the owner.\n     * @param _to address The address which you want to transfer to.\n     * @param _value uint256 The amount of tokens to be transferred.\n     * @param _fee uint256 The amount of tokens paid to msg.sender, by the owner.\n     * @param _nonce uint256 Presigned transaction number.\n     */\n    function transferPreSigned(\n        bytes _signature,\n        address _to,\n        uint256 _value,\n        uint256 _fee,\n        uint256 _nonce\n    )\n        public\n        returns (bool)\n    {\n        require(_to != address(0), \"No address provided\");\n        require(signatures[_signature] == false, \"No signature\");\n\n        bytes32 hashedTx = transferPreSignedHashing(address(this), _to, _value, _fee, _nonce);\n\n        address from = recover(hashedTx, _signature);\n        require(from != address(0), \"From address is not provided\");\n\n        balances[from] = balances[from].sub(_value).sub(_fee);\n        balances[_to] = balances[_to].add(_value);\n        balances[msg.sender] = balances[msg.sender].add(_fee);\n        signatures[_signature] = true;\n\n        emit Transfer(from, _to, _value);\n        emit Transfer(from, msg.sender, _fee);\n        emit TransferPreSigned(from, _to, msg.sender, _value, _fee);\n        return true;\n    }\n\n    /**\n     * @notice Submit a presigned approval\n     * @param _signature bytes The signature, issued by the owner.\n     * @param _spender address The address which will spend the funds.\n     * @param _value uint256 The amount of tokens to allow.\n     * @param _fee uint256 The amount of tokens paid to msg.sender, by the owner.\n     * @param _nonce uint256 Presigned transaction number.\n     */\n    function approvePreSigned(\n        bytes _signature,\n        address _spender,\n        uint256 _value,\n        uint256 _fee,\n        uint256 _nonce\n    )\n        public\n        returns (bool)\n    {\n        require(_spender != address(0), \"Spender is not provided\");\n        require(signatures[_signature] == false, \"No signature\");\n\n        bytes32 hashedTx = approvePreSignedHashing(address(this), _spender, _value, _fee, _nonce);\n        address from = recover(hashedTx, _signature);\n        require(from != address(0), \"From addres is not provided\");\n\n        allowed[from][_spender] = _value;\n        balances[from] = balances[from].sub(_fee);\n        balances[msg.sender] = balances[msg.sender].add(_fee);\n        signatures[_signature] = true;\n\n        emit Approval(from, _spender, _value);\n        emit Transfer(from, msg.sender, _fee);\n        emit ApprovalPreSigned(from, _spender, msg.sender, _value, _fee);\n        return true;\n    }\n\n    /**\n     * @notice Increase the amount of tokens that an owner allowed to a spender.\n     * @param _signature bytes The signature, issued by the owner.\n     * @param _spender address The address which will spend the funds.\n     * @param _addedValue uint256 The amount of tokens to increase the allowance by.\n     * @param _fee uint256 The amount of tokens paid to msg.sender, by the owner.\n     * @param _nonce uint256 Presigned transaction number.\n     */\n    function increaseApprovalPreSigned(\n        bytes _signature,\n        address _spender,\n        uint256 _addedValue,\n        uint256 _fee,\n        uint256 _nonce\n    )\n        public\n        returns (bool)\n    {\n        require(_spender != address(0), \"Spender address is not provided\");\n        require(signatures[_signature] == false, \"No Signature\");\n\n        bytes32 hashedTx = increaseApprovalPreSignedHashing(address(this), _spender, _addedValue, _fee, _nonce);\n        address from = recover(hashedTx, _signature);\n        require(from != address(0), \"From address is not provided\");\n\n        allowed[from][_spender] = allowed[from][_spender].add(_addedValue);\n        balances[from] = balances[from].sub(_fee);\n        balances[msg.sender] = balances[msg.sender].add(_fee);\n        signatures[_signature] = true;\n\n        emit Approval(from, _spender, allowed[from][_spender]);\n        emit Transfer(from, msg.sender, _fee);\n        emit ApprovalPreSigned(from, _spender, msg.sender, allowed[from][_spender], _fee);\n        return true;\n    }\n\n    /**\n     * @notice Decrease the amount of tokens that an owner allowed to a spender.\n     * @param _signature bytes The signature, issued by the owner\n     * @param _spender address The address which will spend the funds.\n     * @param _subtractedValue uint256 The amount of tokens to decrease the allowance by.\n     * @param _fee uint256 The amount of tokens paid to msg.sender, by the owner.\n     * @param _nonce uint256 Presigned transaction number.\n     */\n    function decreaseApprovalPreSigned(\n        bytes _signature,\n        address _spender,\n        uint256 _subtractedValue,\n        uint256 _fee,\n        uint256 _nonce\n    )\n        public\n        returns (bool)\n    {\n        require(_spender != address(0), \"Spender address is not provided\");\n        require(signatures[_signature] == false, \"No sognature\");\n\n        bytes32 hashedTx = decreaseApprovalPreSignedHashing(address(this), _spender, _subtractedValue, _fee, _nonce);\n        address from = recover(hashedTx, _signature);\n        require(from != address(0), \"From address is not provided\");\n\n        uint oldValue = allowed[from][_spender];\n        if (_subtractedValue > oldValue) {\n            allowed[from][_spender] = 0;\n        } else {\n            allowed[from][_spender] = oldValue.sub(_subtractedValue);\n        }\n        balances[from] = balances[from].sub(_fee);\n        balances[msg.sender] = balances[msg.sender].add(_fee);\n        signatures[_signature] = true;\n\n        emit Approval(from, _spender, _subtractedValue);\n        emit Transfer(from, msg.sender, _fee);\n        emit ApprovalPreSigned(from, _spender, msg.sender, allowed[from][_spender], _fee);\n        return true;\n    }\n\n    /**\n     * @notice Transfer tokens from one address to another\n     * @param _signature bytes The signature, issued by the spender.\n     * @param _from address The address which you want to send tokens from.\n     * @param _to address The address which you want to transfer to.\n     * @param _value uint256 The amount of tokens to be transferred.\n     * @param _fee uint256 The amount of tokens paid to msg.sender, by the spender.\n     * @param _nonce uint256 Presigned transaction number.\n     */\n    function transferFromPreSigned(\n        bytes _signature,\n        address _from,\n        address _to,\n        uint256 _value,\n        uint256 _fee,\n        uint256 _nonce\n    )\n        public\n        returns (bool)\n    {\n        require(_to != address(0), \"No [to] address provided\");\n        require(signatures[_signature] == false, \"No signature provided\");\n\n        bytes32 hashedTx = transferFromPreSignedHashing(address(this), _from, _to, _value, _fee, _nonce);\n\n        address spender = recover(hashedTx, _signature);\n        require(spender != address(0), \"Spender address is not provided\");\n\n        balances[_from] = balances[_from].sub(_value);\n        balances[_to] = balances[_to].add(_value);\n        allowed[_from][spender] = allowed[_from][spender].sub(_value);\n\n        balances[spender] = balances[spender].sub(_fee);\n        balances[msg.sender] = balances[msg.sender].add(_fee);\n        signatures[_signature] = true;\n\n        emit Transfer(_from, _to, _value);\n        emit Transfer(spender, msg.sender, _fee);\n        return true;\n    }\n\n\n    /**\n     * @notice Hash (keccak256) of the payload used by transferPreSigned\n     * @param _token address The address of the token.\n     * @param _to address The address which you want to transfer to.\n     * @param _value uint256 The amount of tokens to be transferred.\n     * @param _fee uint256 The amount of tokens paid to msg.sender, by the owner.\n     * @param _nonce uint256 Presigned transaction number.\n     */\n    function transferPreSignedHashing(\n        address _token,\n        address _to,\n        uint256 _value,\n        uint256 _fee,\n        uint256 _nonce\n    )\n        public\n        pure\n        returns (bytes32)\n    {\n        /* \"48664c16\": transferPreSignedHashing(address,address,address,uint256,uint256,uint256) */\n        return keccak256(abi.encodePacked(bytes4(0x48664c16), _token, _to, _value, _fee, _nonce));\n    }\n\n    /**\n     * @notice Hash (keccak256) of the payload used by approvePreSigned\n     * @param _token address The address of the token\n     * @param _spender address The address which will spend the funds.\n     * @param _value uint256 The amount of tokens to allow.\n     * @param _fee uint256 The amount of tokens paid to msg.sender, by the owner.\n     * @param _nonce uint256 Presigned transaction number.\n     */\n    function approvePreSignedHashing(\n        address _token,\n        address _spender,\n        uint256 _value,\n        uint256 _fee,\n        uint256 _nonce\n    )\n        public\n        pure\n        returns (bytes32)\n    {\n        /* \"f7ac9c2e\": approvePreSignedHashing(address,address,uint256,uint256,uint256) */\n        return keccak256(abi.encodePacked(bytes4(0xf7ac9c2e), _token, _spender, _value, _fee, _nonce));\n    }\n\n    /**\n     * @notice Hash (keccak256) of the payload used by increaseApprovalPreSigned\n     * @param _token address The address of the token\n     * @param _spender address The address which will spend the funds.\n     * @param _addedValue uint256 The amount of tokens to increase the allowance by.\n     * @param _fee uint256 The amount of tokens paid to msg.sender, by the owner.\n     * @param _nonce uint256 Presigned transaction number.\n     */\n    function increaseApprovalPreSignedHashing(\n        address _token,\n        address _spender,\n        uint256 _addedValue,\n        uint256 _fee,\n        uint256 _nonce\n    )\n        public\n        pure\n        returns (bytes32)\n    {\n        /* \"a45f71ff\": increaseApprovalPreSignedHashing(address,address,uint256,uint256,uint256) */\n        return keccak256(abi.encodePacked(bytes4(0xa45f71ff), _token, _spender, _addedValue, _fee, _nonce));\n    }\n\n     /**\n      * @notice Hash (keccak256) of the payload used by decreaseApprovalPreSigned\n      * @param _token address The address of the token\n      * @param _spender address The address which will spend the funds.\n      * @param _subtractedValue uint256 The amount of tokens to decrease the allowance by.\n      * @param _fee uint256 The amount of tokens paid to msg.sender, by the owner.\n      * @param _nonce uint256 Presigned transaction number.\n      */\n    function decreaseApprovalPreSignedHashing(\n        address _token,\n        address _spender,\n        uint256 _subtractedValue,\n        uint256 _fee,\n        uint256 _nonce\n    )\n        public\n        pure\n        returns (bytes32)\n    {\n        /* \"59388d78\": decreaseApprovalPreSignedHashing(address,address,uint256,uint256,uint256) */\n        return keccak256(abi.encodePacked(bytes4(0x59388d78), _token, _spender, _subtractedValue, _fee, _nonce));\n    }\n\n    /**\n     * @notice Hash (keccak256) of the payload used by transferFromPreSigned\n     * @param _token address The address of the token\n     * @param _from address The address which you want to send tokens from.\n     * @param _to address The address which you want to transfer to.\n     * @param _value uint256 The amount of tokens to be transferred.\n     * @param _fee uint256 The amount of tokens paid to msg.sender, by the spender.\n     * @param _nonce uint256 Presigned transaction number.\n     */\n    function transferFromPreSignedHashing(\n        address _token,\n        address _from,\n        address _to,\n        uint256 _value,\n        uint256 _fee,\n        uint256 _nonce\n    )\n        public\n        pure\n        returns (bytes32)\n    {\n        /* \"b7656dc5\": transferFromPreSignedHashing(address,address,address,uint256,uint256,uint256) */\n        return keccak256(abi.encodePacked(bytes4(0xb7656dc5), _token, _from, _to, _value, _fee, _nonce));\n    }\n\n    /**\n     * @notice Recover signer address from a message by using his signature\n     * @param hash bytes32 message, the hash is the signed message. What is recovered is the signer address.\n     * @param sig bytes signature, the signature is generated using web3.eth.sign()\n     */\n    function recover(bytes32 hash, bytes sig) public pure returns (address) {\n        bytes32 r;\n        bytes32 s;\n        uint8 v;\n\n        //Check the signature length\n        if (sig.length != 65) {\n            return (address(0));\n        }\n\n        // Divide the signature in r, s and v variables\n        assembly {\n            r := mload(add(sig, 32))\n            s := mload(add(sig, 64))\n            v := byte(0, mload(add(sig, 96)))\n        }\n\n        // Version of signature should be 27 or 28, but 0 and 1 are also possible versions\n        if (v < 27) {\n            v += 27;\n        }\n\n        // If the version is correct return the signer address\n        if (v != 27 && v != 28) {\n            return (address(0));\n        } else {\n            return ecrecover(hash, v, r, s);\n        }\n    }\n}\n\ncontract CappedToken is MintableToken {\n\n  uint256 public cap;\n\n  constructor(uint256 _cap) public {\n    require(_cap > 0);\n    cap = _cap;\n  }\n\n  /**\n   * @dev Function to mint tokens\n   * @param _to The address that will receive the minted tokens.\n   * @param _amount The amount of tokens to mint.\n   * @return A boolean that indicates if the operation was successful.\n   */\n  function mint(address _to, uint256 _amount) onlyOwner canMint public returns (bool) {\n    require(totalSupply_.add(_amount) <= cap);\n\n    return super.mint(_to, _amount);\n  }\n\n}\n\ncontract KittiefightToken is ERC865Token, PausableToken, CappedToken {\n\n    /* Set the token name for display */\n    string public constant symbol = \"KTY\";\n\n    /* Set the token symbol for display */\n    string public constant name = \"Kittiefight\";\n\n    /* Set the number of decimals for display */\n    uint8 public constant decimals = 18;\n\n    /* 100 milion KTY specified */\n    uint256 public constant amountOfTokenToMint = 10**8 * 10**uint256(decimals);\n\n    /* Is crowdsale filtering non registered users. false by default */\n    bool public isTransferWhitelistOnly = false;\n\n    /* Mapping of whitelisted users */\n    mapping (address => bool) transfersWhitelist;\n\n    event UserAllowedToTransfer(address user);\n\n    event TransferWhitelistOnly(bool flag);\n\n\n    constructor() CappedToken(amountOfTokenToMint) {\n        \n    }\n\n    /**\n     * @notice Is the address allowed to transfer\n     * @return true if the sender can transfer\n     */\n    function isUserAllowedToTransfer(address _user) public constant returns (bool) {\n        require(_user != 0x0);\n        return transfersWhitelist[_user];\n    }\n\n    /**\n     * @notice Enabling / Disabling transfers of non whitelisted users\n     */\n    function setWhitelistedOnly(bool _isWhitelistOnly) onlyOwner public {\n        if (isTransferWhitelistOnly != _isWhitelistOnly) {\n            isTransferWhitelistOnly = _isWhitelistOnly;\n            TransferWhitelistOnly(_isWhitelistOnly);\n        }\n    }\n\n    /**\n     * @notice Adding a user to the whitelist\n     */\n    function whitelistUserForTransfers(address _user) onlyOwner public {\n        require(!isUserAllowedToTransfer(_user));\n        transfersWhitelist[_user] = true;\n        UserAllowedToTransfer(_user);\n    }\n\n    /**\n     * @notice Remove a user from the whitelist\n     */\n    function blacklistUserForTransfers(address _user) onlyOwner public {\n        require(isUserAllowedToTransfer(_user));\n        transfersWhitelist[_user] = false;\n        UserAllowedToTransfer(_user);\n    }\n\n    /**\n    * @notice transfer token for a specified address\n    * @param _to The address to transfer to.\n    * @param _value The amount to be transferred.\n    */\n    function transfer(address _to, uint256 _value) public returns (bool) {\n      if (isTransferWhitelistOnly) {\n        require(isUserAllowedToTransfer(msg.sender));\n      }\n      return super.transfer(_to, _value);\n    }\n\n    /**\n     * @notice Transfer tokens from one address to another\n     * @param _from address The address which you want to send tokens from\n     * @param _to address The address which you want to transfer to\n     * @param _value uint256 the amount of tokens to be transferred\n     */\n    function transferFrom(address _from, address _to, uint256 _value) public returns (bool) {\n        if (isTransferWhitelistOnly) {\n            require(isUserAllowedToTransfer(_from));\n        }\n        return super.transferFrom(_from, _to, _value);\n    }\n\n    /**\n     * @notice Submit a presigned transfer\n     * @param _signature bytes The signature, issued by the owner.\n     * @param _to address The address which you want to transfer to.\n     * @param _value uint256 The amount of tokens to be transferred.\n     * @param _fee uint256 The amount of tokens paid to msg.sender, by the owner.\n     * @param _nonce uint256 Presigned transaction number.\n     */\n    function transferPreSigned(\n        bytes _signature,\n        address _to,\n        uint256 _value,\n        uint256 _fee,\n        uint256 _nonce\n    )\n        whenNotPaused\n        public\n        returns (bool)\n    {\n        if (isTransferWhitelistOnly) {\n            bytes32 hashedTx = super.transferPreSignedHashing(address(this), _to, _value, _fee, _nonce);\n            address from = recover(hashedTx, _signature);\n            require(isUserAllowedToTransfer(from));\n        }\n        return super.transferPreSigned(_signature, _to, _value, _fee, _nonce);\n    }\n\n    /**\n     * @notice Submit a presigned approval\n     * @param _signature bytes The signature, issued by the owner.\n     * @param _spender address The address which will spend the funds.\n     * @param _value uint256 The amount of tokens to allow.\n     * @param _fee uint256 The amount of tokens paid to msg.sender, by the owner.\n     * @param _nonce uint256 Presigned transaction number.\n     */\n    function approvePreSigned(\n        bytes _signature,\n        address _spender,\n        uint256 _value,\n        uint256 _fee,\n        uint256 _nonce\n    )\n        whenNotPaused\n        public\n        returns (bool)\n    {\n        if (isTransferWhitelistOnly) {\n            bytes32 hashedTx = super.approvePreSignedHashing(address(this), _spender, _value, _fee, _nonce);\n            address from = recover(hashedTx, _signature);\n            require(isUserAllowedToTransfer(from));\n        }\n        return super.approvePreSigned(_signature, _spender, _value, _fee, _nonce);\n    }\n}\n\n",
  "sourcePath": "/Users/achiko/Documents/elva/projects/kittiefight/DutchAuction/contracts/contracts-flattened/KittiefightToken-flattened.sol",
  "compiler": {
    "name": "solc",
    "version": "0.4.24+commit.e67f0147.Emscripten.clang"
  },
  "schemaVersion": "2.0.1",
  "updatedAt": "2018-11-29T20:52:44.361Z"
}