{
  "contractName": "ERC865Token",
  "abi": [
    {
      "constant": false,
      "inputs": [
        {
          "name": "_spender",
          "type": "address"
        },
        {
          "name": "_value",
          "type": "uint256"
        }
      ],
      "name": "approve",
      "outputs": [
        {
          "name": "",
          "type": "bool"
        }
      ],
      "payable": false,
      "stateMutability": "nonpayable",
      "type": "function"
    },
    {
      "constant": true,
      "inputs": [],
      "name": "totalSupply",
      "outputs": [
        {
          "name": "",
          "type": "uint256"
        }
      ],
      "payable": false,
      "stateMutability": "view",
      "type": "function"
    },
    {
      "constant": false,
      "inputs": [
        {
          "name": "_from",
          "type": "address"
        },
        {
          "name": "_to",
          "type": "address"
        },
        {
          "name": "_value",
          "type": "uint256"
        }
      ],
      "name": "transferFrom",
      "outputs": [
        {
          "name": "",
          "type": "bool"
        }
      ],
      "payable": false,
      "stateMutability": "nonpayable",
      "type": "function"
    },
    {
      "constant": false,
      "inputs": [
        {
          "name": "_spender",
          "type": "address"
        },
        {
          "name": "_subtractedValue",
          "type": "uint256"
        }
      ],
      "name": "decreaseApproval",
      "outputs": [
        {
          "name": "",
          "type": "bool"
        }
      ],
      "payable": false,
      "stateMutability": "nonpayable",
      "type": "function"
    },
    {
      "constant": true,
      "inputs": [
        {
          "name": "_owner",
          "type": "address"
        }
      ],
      "name": "balanceOf",
      "outputs": [
        {
          "name": "balance",
          "type": "uint256"
        }
      ],
      "payable": false,
      "stateMutability": "view",
      "type": "function"
    },
    {
      "constant": false,
      "inputs": [
        {
          "name": "_to",
          "type": "address"
        },
        {
          "name": "_value",
          "type": "uint256"
        }
      ],
      "name": "transfer",
      "outputs": [
        {
          "name": "",
          "type": "bool"
        }
      ],
      "payable": false,
      "stateMutability": "nonpayable",
      "type": "function"
    },
    {
      "constant": false,
      "inputs": [
        {
          "name": "_spender",
          "type": "address"
        },
        {
          "name": "_addedValue",
          "type": "uint256"
        }
      ],
      "name": "increaseApproval",
      "outputs": [
        {
          "name": "",
          "type": "bool"
        }
      ],
      "payable": false,
      "stateMutability": "nonpayable",
      "type": "function"
    },
    {
      "constant": true,
      "inputs": [
        {
          "name": "_owner",
          "type": "address"
        },
        {
          "name": "_spender",
          "type": "address"
        }
      ],
      "name": "allowance",
      "outputs": [
        {
          "name": "",
          "type": "uint256"
        }
      ],
      "payable": false,
      "stateMutability": "view",
      "type": "function"
    },
    {
      "anonymous": false,
      "inputs": [
        {
          "indexed": true,
          "name": "from",
          "type": "address"
        },
        {
          "indexed": true,
          "name": "to",
          "type": "address"
        },
        {
          "indexed": true,
          "name": "delegate",
          "type": "address"
        },
        {
          "indexed": false,
          "name": "amount",
          "type": "uint256"
        },
        {
          "indexed": false,
          "name": "fee",
          "type": "uint256"
        }
      ],
      "name": "TransferPreSigned",
      "type": "event"
    },
    {
      "anonymous": false,
      "inputs": [
        {
          "indexed": true,
          "name": "from",
          "type": "address"
        },
        {
          "indexed": true,
          "name": "to",
          "type": "address"
        },
        {
          "indexed": true,
          "name": "delegate",
          "type": "address"
        },
        {
          "indexed": false,
          "name": "amount",
          "type": "uint256"
        },
        {
          "indexed": false,
          "name": "fee",
          "type": "uint256"
        }
      ],
      "name": "ApprovalPreSigned",
      "type": "event"
    },
    {
      "anonymous": false,
      "inputs": [
        {
          "indexed": true,
          "name": "owner",
          "type": "address"
        },
        {
          "indexed": true,
          "name": "spender",
          "type": "address"
        },
        {
          "indexed": false,
          "name": "value",
          "type": "uint256"
        }
      ],
      "name": "Approval",
      "type": "event"
    },
    {
      "anonymous": false,
      "inputs": [
        {
          "indexed": true,
          "name": "from",
          "type": "address"
        },
        {
          "indexed": true,
          "name": "to",
          "type": "address"
        },
        {
          "indexed": false,
          "name": "value",
          "type": "uint256"
        }
      ],
      "name": "Transfer",
      "type": "event"
    },
    {
      "constant": false,
      "inputs": [
        {
          "name": "_signature",
          "type": "bytes"
        },
        {
          "name": "_to",
          "type": "address"
        },
        {
          "name": "_value",
          "type": "uint256"
        },
        {
          "name": "_fee",
          "type": "uint256"
        },
        {
          "name": "_nonce",
          "type": "uint256"
        }
      ],
      "name": "transferPreSigned",
      "outputs": [
        {
          "name": "",
          "type": "bool"
        }
      ],
      "payable": false,
      "stateMutability": "nonpayable",
      "type": "function"
    },
    {
      "constant": false,
      "inputs": [
        {
          "name": "_signature",
          "type": "bytes"
        },
        {
          "name": "_spender",
          "type": "address"
        },
        {
          "name": "_value",
          "type": "uint256"
        },
        {
          "name": "_fee",
          "type": "uint256"
        },
        {
          "name": "_nonce",
          "type": "uint256"
        }
      ],
      "name": "approvePreSigned",
      "outputs": [
        {
          "name": "",
          "type": "bool"
        }
      ],
      "payable": false,
      "stateMutability": "nonpayable",
      "type": "function"
    },
    {
      "constant": false,
      "inputs": [
        {
          "name": "_signature",
          "type": "bytes"
        },
        {
          "name": "_spender",
          "type": "address"
        },
        {
          "name": "_addedValue",
          "type": "uint256"
        },
        {
          "name": "_fee",
          "type": "uint256"
        },
        {
          "name": "_nonce",
          "type": "uint256"
        }
      ],
      "name": "increaseApprovalPreSigned",
      "outputs": [
        {
          "name": "",
          "type": "bool"
        }
      ],
      "payable": false,
      "stateMutability": "nonpayable",
      "type": "function"
    },
    {
      "constant": false,
      "inputs": [
        {
          "name": "_signature",
          "type": "bytes"
        },
        {
          "name": "_spender",
          "type": "address"
        },
        {
          "name": "_subtractedValue",
          "type": "uint256"
        },
        {
          "name": "_fee",
          "type": "uint256"
        },
        {
          "name": "_nonce",
          "type": "uint256"
        }
      ],
      "name": "decreaseApprovalPreSigned",
      "outputs": [
        {
          "name": "",
          "type": "bool"
        }
      ],
      "payable": false,
      "stateMutability": "nonpayable",
      "type": "function"
    },
    {
      "constant": false,
      "inputs": [
        {
          "name": "_signature",
          "type": "bytes"
        },
        {
          "name": "_from",
          "type": "address"
        },
        {
          "name": "_to",
          "type": "address"
        },
        {
          "name": "_value",
          "type": "uint256"
        },
        {
          "name": "_fee",
          "type": "uint256"
        },
        {
          "name": "_nonce",
          "type": "uint256"
        }
      ],
      "name": "transferFromPreSigned",
      "outputs": [
        {
          "name": "",
          "type": "bool"
        }
      ],
      "payable": false,
      "stateMutability": "nonpayable",
      "type": "function"
    },
    {
      "constant": true,
      "inputs": [
        {
          "name": "_token",
          "type": "address"
        },
        {
          "name": "_to",
          "type": "address"
        },
        {
          "name": "_value",
          "type": "uint256"
        },
        {
          "name": "_fee",
          "type": "uint256"
        },
        {
          "name": "_nonce",
          "type": "uint256"
        }
      ],
      "name": "transferPreSignedHashing",
      "outputs": [
        {
          "name": "",
          "type": "bytes32"
        }
      ],
      "payable": false,
      "stateMutability": "pure",
      "type": "function"
    },
    {
      "constant": true,
      "inputs": [
        {
          "name": "_token",
          "type": "address"
        },
        {
          "name": "_spender",
          "type": "address"
        },
        {
          "name": "_value",
          "type": "uint256"
        },
        {
          "name": "_fee",
          "type": "uint256"
        },
        {
          "name": "_nonce",
          "type": "uint256"
        }
      ],
      "name": "approvePreSignedHashing",
      "outputs": [
        {
          "name": "",
          "type": "bytes32"
        }
      ],
      "payable": false,
      "stateMutability": "pure",
      "type": "function"
    },
    {
      "constant": true,
      "inputs": [
        {
          "name": "_token",
          "type": "address"
        },
        {
          "name": "_spender",
          "type": "address"
        },
        {
          "name": "_addedValue",
          "type": "uint256"
        },
        {
          "name": "_fee",
          "type": "uint256"
        },
        {
          "name": "_nonce",
          "type": "uint256"
        }
      ],
      "name": "increaseApprovalPreSignedHashing",
      "outputs": [
        {
          "name": "",
          "type": "bytes32"
        }
      ],
      "payable": false,
      "stateMutability": "pure",
      "type": "function"
    },
    {
      "constant": true,
      "inputs": [
        {
          "name": "_token",
          "type": "address"
        },
        {
          "name": "_spender",
          "type": "address"
        },
        {
          "name": "_subtractedValue",
          "type": "uint256"
        },
        {
          "name": "_fee",
          "type": "uint256"
        },
        {
          "name": "_nonce",
          "type": "uint256"
        }
      ],
      "name": "decreaseApprovalPreSignedHashing",
      "outputs": [
        {
          "name": "",
          "type": "bytes32"
        }
      ],
      "payable": false,
      "stateMutability": "pure",
      "type": "function"
    },
    {
      "constant": true,
      "inputs": [
        {
          "name": "_token",
          "type": "address"
        },
        {
          "name": "_from",
          "type": "address"
        },
        {
          "name": "_to",
          "type": "address"
        },
        {
          "name": "_value",
          "type": "uint256"
        },
        {
          "name": "_fee",
          "type": "uint256"
        },
        {
          "name": "_nonce",
          "type": "uint256"
        }
      ],
      "name": "transferFromPreSignedHashing",
      "outputs": [
        {
          "name": "",
          "type": "bytes32"
        }
      ],
      "payable": false,
      "stateMutability": "pure",
      "type": "function"
    },
    {
      "constant": true,
      "inputs": [
        {
          "name": "hash",
          "type": "bytes32"
        },
        {
          "name": "sig",
          "type": "bytes"
        }
      ],
      "name": "recover",
      "outputs": [
        {
          "name": "",
          "type": "address"
        }
      ],
      "payable": false,
      "stateMutability": "pure",
      "type": "function"
    }
  ],
  "bytecode": "0x608060405234801561001057600080fd5b506121f1806100206000396000f3fe608060405234801561001057600080fd5b50600436106101215760003560e01c806370a08231116100ad578063b7656dc511610071578063b7656dc5146106b9578063bca5051514610701578063d73dd623146107c7578063dd62ed3e146107f3578063f7ac9c2e1461082157610121565b806370a08231146104a95780638be52783146104cf578063a45f71ff1461058d578063a9059cbb146105cf578063adb8249e146105fb57610121565b806319045a25116100f457806319045a251461028057806323b872dd1461034757806359388d781461037d578063617b390b146103bf578063661884631461047d57610121565b8063095ea7b3146101265780631296830d1461016657806315420b711461022457806318160ddd14610278575b600080fd5b6101526004803603604081101561013c57600080fd5b506001600160a01b038135169060200135610863565b604080519115158252519081900360200190f35b610152600480360360a081101561017c57600080fd5b810190602081018135600160201b81111561019657600080fd5b8201836020820111156101a857600080fd5b803590602001918460018302840111600160201b831117156101c957600080fd5b91908080601f016020809104026020016040519081016040528093929190818152602001838380828437600092019190915250929550506001600160a01b0383351693505050602081013590604081013590606001356108b8565b610266600480360360a081101561023a57600080fd5b506001600160a01b03813581169160208101359091169060408101359060608101359060800135610c2b565b60408051918252519081900360200190f35b610266610c94565b61032b6004803603604081101561029657600080fd5b81359190810190604081016020820135600160201b8111156102b757600080fd5b8201836020820111156102c957600080fd5b803590602001918460018302840111600160201b831117156102ea57600080fd5b91908080601f016020809104026020016040519081016040528093929190818152602001838380828437600092019190915250929550610c9a945050505050565b604080516001600160a01b039092168252519081900360200190f35b6101526004803603606081101561035d57600080fd5b506001600160a01b03813581169160208101359091169060400135610d6b565b610266600480360360a081101561039357600080fd5b506001600160a01b03813581169160208101359091169060408101359060608101359060800135610ece565b610152600480360360a08110156103d557600080fd5b810190602081018135600160201b8111156103ef57600080fd5b82018360208201111561040157600080fd5b803590602001918460018302840111600160201b8311171561042257600080fd5b91908080601f016020809104026020016040519081016040528093929190818152602001838380828437600092019190915250929550506001600160a01b038335169350505060208101359060408101359060600135610f37565b6101526004803603604081101561049357600080fd5b506001600160a01b038135169060200135611287565b610266600480360360208110156104bf57600080fd5b50356001600160a01b0316611365565b610152600480360360a08110156104e557600080fd5b810190602081018135600160201b8111156104ff57600080fd5b82018360208201111561051157600080fd5b803590602001918460018302840111600160201b8311171561053257600080fd5b91908080601f016020809104026020016040519081016040528093929190818152602001838380828437600092019190915250929550506001600160a01b038335169350505060208101359060408101359060600135611380565b610266600480360360a08110156105a357600080fd5b506001600160a01b0381358116916020810135909116906040810135906060810135906080013561174f565b610152600480360360408110156105e557600080fd5b506001600160a01b0381351690602001356117b8565b610152600480360360a081101561061157600080fd5b810190602081018135600160201b81111561062b57600080fd5b82018360208201111561063d57600080fd5b803590602001918460018302840111600160201b8311171561065e57600080fd5b91908080601f016020809104026020016040519081016040528093929190818152602001838380828437600092019190915250929550506001600160a01b038335169350505060208101359060408101359060600135611885565b610266600480360360c08110156106cf57600080fd5b506001600160a01b03813581169160208101358216916040820135169060608101359060808101359060a00135611c2b565b610152600480360360c081101561071757600080fd5b810190602081018135600160201b81111561073157600080fd5b82018360208201111561074357600080fd5b803590602001918460018302840111600160201b8311171561076457600080fd5b91908080601f016020809104026020016040519081016040528093929190818152602001838380828437600092019190915250929550506001600160a01b0383358116945060208401351692604081013592506060810135915060800135611c99565b610152600480360360408110156107dd57600080fd5b506001600160a01b038135169060200135612039565b6102666004803603604081101561080957600080fd5b506001600160a01b03813581169160200135166120c0565b610266600480360360a081101561083757600080fd5b506001600160a01b038135811691602081013590911690604081013590606081013590608001356120eb565b3360008181526002602090815260408083206001600160a01b0387168085529083528184208690558151868152915193949093909260008051602061219d833981519152928290030190a35060015b92915050565b60006001600160a01b03851661090b576040805162461bcd60e51b8152602060048201526013602482015272139bc81859191c995cdcc81c1c9bdd9a591959606a1b604482015290519081900360640190fd5b6003866040518082805190602001908083835b6020831061093d5780518252601f19909201916020918201910161091e565b51815160209384036101000a600019018019909216911617905292019485525060405193849003019092205460ff161591506109b19050576040805162461bcd60e51b815260206004820152600c60248201526b4e6f207369676e617475726560a01b604482015290519081900360640190fd5b60006109c03087878787610c2b565b905060006109ce8289610c9a565b90506001600160a01b038116610a2b576040805162461bcd60e51b815260206004820152601c60248201527f46726f6d2061646472657373206973206e6f742070726f766964656400000000604482015290519081900360640190fd5b6001600160a01b038116600090815260208190526040902054610a66908690610a5a908963ffffffff61215416565b9063ffffffff61215416565b6001600160a01b038083166000908152602081905260408082209390935590891681522054610a9b908763ffffffff61216616565b6001600160a01b038816600090815260208190526040808220929092553381522054610acd908663ffffffff61216616565b600080336001600160a01b03166001600160a01b031681526020019081526020016000208190555060016003896040518082805190602001908083835b60208310610b295780518252601f199092019160209182019101610b0a565b51815160209384036101000a6000190180199092169116179052920194855250604080519485900382018520805460ff1916961515969096179095558a845293516001600160a01b038c8116959087169460008051602061217d8339815191529450829003019150a360408051868152905133916001600160a01b0384169160008051602061217d8339815191529181900360200190a3336001600160a01b0316876001600160a01b0316826001600160a01b03167fec5a73fd1f178be20c1bca1b406cbf4b5c20d833b66e582fc122fb4baa0fc2a48989604051808381526020018281526020019250505060405180910390a4506001979650505050505050565b60408051632433260b60e11b6020808301919091526001600160601b0319606089811b8216602485015288901b166038830152604c8201869052606c8201859052608c8083018590528351808403909101815260ac909201909252805191012095945050505050565b60015490565b6000806000808451604114610cb557600093505050506108b2565b50505060208201516040830151606084015160001a601b811015610cd757601b015b8060ff16601b14158015610cef57508060ff16601c14155b15610d0057600093505050506108b2565b6040805160008152602080820180845289905260ff8416828401526060820186905260808201859052915160019260a0808401939192601f1981019281900390910190855afa158015610d57573d6000803e3d6000fd5b5050506020604051035193505050506108b2565b60006001600160a01b038316610d8057600080fd5b6001600160a01b038416600090815260208190526040902054821115610da557600080fd5b6001600160a01b0384166000908152600260209081526040808320338452909152902054821115610dd557600080fd5b6001600160a01b038416600090815260208190526040902054610dfe908363ffffffff61215416565b6001600160a01b038086166000908152602081905260408082209390935590851681522054610e33908363ffffffff61216616565b6001600160a01b03808516600090815260208181526040808320949094559187168152600282528281203382529091522054610e75908363ffffffff61215416565b6001600160a01b038086166000818152600260209081526040808320338452825291829020949094558051868152905192871693919260008051602061217d833981519152929181900390910190a35060019392505050565b60408051630b2711af60e31b6020808301919091526001600160601b0319606089811b8216602485015288901b166038830152604c8201869052606c8201859052608c8083018590528351808403909101815260ac909201909252805191012095945050505050565b60006001600160a01b038516610f94576040805162461bcd60e51b815260206004820152601760248201527f5370656e646572206973206e6f742070726f7669646564000000000000000000604482015290519081900360640190fd5b6003866040518082805190602001908083835b60208310610fc65780518252601f199092019160209182019101610fa7565b51815160209384036101000a600019018019909216911617905292019485525060405193849003019092205460ff1615915061103a9050576040805162461bcd60e51b815260206004820152600c60248201526b4e6f207369676e617475726560a01b604482015290519081900360640190fd5b600061104930878787876120eb565b905060006110578289610c9a565b90506001600160a01b0381166110b4576040805162461bcd60e51b815260206004820152601b60248201527f46726f6d20616464726573206973206e6f742070726f76696465640000000000604482015290519081900360640190fd5b6001600160a01b038082166000818152600260209081526040808320948c1683529381528382208a90559181529081905220546110f7908663ffffffff61215416565b6001600160a01b038216600090815260208190526040808220929092553381522054611129908663ffffffff61216616565b600080336001600160a01b03166001600160a01b031681526020019081526020016000208190555060016003896040518082805190602001908083835b602083106111855780518252601f199092019160209182019101611166565b51815160209384036101000a6000190180199092169116179052920194855250604080519485900382018520805460ff1916961515969096179095558a845293516001600160a01b038c8116959087169460008051602061219d8339815191529450829003019150a360408051868152905133916001600160a01b0384169160008051602061217d8339815191529181900360200190a3336001600160a01b0316876001600160a01b0316826001600160a01b03167f43a220267705e74ee2ceafd46afc841850db6f85a662189a7def697bbdd90ffb8989604051808381526020018281526020019250505060405180910390a4506001979650505050505050565b3360009081526002602090815260408083206001600160a01b0386168452909152812054808311156112dc573360009081526002602090815260408083206001600160a01b0388168452909152812055611311565b6112ec818463ffffffff61215416565b3360009081526002602090815260408083206001600160a01b03891684529091529020555b3360008181526002602090815260408083206001600160a01b03891680855290835292819020548151908152905192939260008051602061219d833981519152929181900390910190a35060019392505050565b6001600160a01b031660009081526020819052604090205490565b60006001600160a01b0385166113dd576040805162461bcd60e51b815260206004820152601f60248201527f5370656e6465722061646472657373206973206e6f742070726f766964656400604482015290519081900360640190fd5b6003866040518082805190602001908083835b6020831061140f5780518252601f1990920191602091820191016113f0565b51815160209384036101000a600019018019909216911617905292019485525060405193849003019092205460ff161591506114839050576040805162461bcd60e51b815260206004820152600c60248201526b4e6f20736f676e617475726560a01b604482015290519081900360640190fd5b60006114923087878787610ece565b905060006114a08289610c9a565b90506001600160a01b0381166114fd576040805162461bcd60e51b815260206004820152601c60248201527f46726f6d2061646472657373206973206e6f742070726f766964656400000000604482015290519081900360640190fd5b6001600160a01b038082166000908152600260209081526040808320938b168352929052205480871115611558576001600160a01b038083166000908152600260209081526040808320938c1683529290529081205561158f565b611568818863ffffffff61215416565b6001600160a01b038084166000908152600260209081526040808320938d16835292905220555b6001600160a01b0382166000908152602081905260409020546115b8908763ffffffff61215416565b6001600160a01b0383166000908152602081905260408082209290925533815220546115ea908763ffffffff61216616565b600080336001600160a01b03166001600160a01b0316815260200190815260200160002081905550600160038a6040518082805190602001908083835b602083106116465780518252601f199092019160209182019101611627565b51815160209384036101000a6000190180199092169116179052920194855250604080519485900382018520805460ff1916961515969096179095558b845293516001600160a01b038d8116959088169460008051602061219d8339815191529450829003019150a360408051878152905133916001600160a01b0385169160008051602061217d8339815191529181900360200190a36001600160a01b038281166000818152600260209081526040808320948d16808452948252918290205482519081529081018a90528151339493927f43a220267705e74ee2ceafd46afc841850db6f85a662189a7def697bbdd90ffb928290030190a450600198975050505050505050565b6040805163a45f71ff60e01b6020808301919091526001600160601b0319606089811b8216602485015288901b166038830152604c8201869052606c8201859052608c8083018590528351808403909101815260ac909201909252805191012095945050505050565b60006001600160a01b0383166117cd57600080fd5b336000908152602081905260409020548211156117e957600080fd5b33600090815260208190526040902054611809908363ffffffff61215416565b33600090815260208190526040808220929092556001600160a01b0385168152205461183b908363ffffffff61216616565b6001600160a01b0384166000818152602081815260409182902093909355805185815290519192339260008051602061217d8339815191529281900390910190a350600192915050565b60006001600160a01b0385166118e2576040805162461bcd60e51b815260206004820152601f60248201527f5370656e6465722061646472657373206973206e6f742070726f766964656400604482015290519081900360640190fd5b6003866040518082805190602001908083835b602083106119145780518252601f1990920191602091820191016118f5565b51815160209384036101000a600019018019909216911617905292019485525060405193849003019092205460ff161591506119889050576040805162461bcd60e51b815260206004820152600c60248201526b4e6f205369676e617475726560a01b604482015290519081900360640190fd5b6000611997308787878761174f565b905060006119a58289610c9a565b90506001600160a01b038116611a02576040805162461bcd60e51b815260206004820152601c60248201527f46726f6d2061646472657373206973206e6f742070726f766964656400000000604482015290519081900360640190fd5b6001600160a01b038082166000908152600260209081526040808320938b1683529290522054611a38908763ffffffff61216616565b6001600160a01b038083166000818152600260209081526040808320948d1683529381528382209490945590815291829052902054611a7d908663ffffffff61215416565b6001600160a01b038216600090815260208190526040808220929092553381522054611aaf908663ffffffff61216616565b600080336001600160a01b03166001600160a01b031681526020019081526020016000208190555060016003896040518082805190602001908083835b60208310611b0b5780518252601f199092019160209182019101611aec565b51815160209384036101000a6000190180199092169116179052920194855250604080519485900382018520805460ff1916961515969096179095556001600160a01b03868116600081815260028452878120928f16808252928452879020548652955190959460008051602061219d83398151915294508190039091019150a360408051868152905133916001600160a01b0384169160008051602061217d8339815191529181900360200190a36001600160a01b038181166000818152600260209081526040808320948c16808452948252918290205482519081529081018990528151339493927f43a220267705e74ee2ceafd46afc841850db6f85a662189a7def697bbdd90ffb928290030190a4506001979650505050505050565b6040805163b7656dc560e01b6020808301919091526001600160601b03196060998a1b8116602484015297891b8816603883015295881b909616604c87015295850192909252608084015260a0808401919091528351808403909101815260c0909201909252805191012090565b60006001600160a01b038516611cf6576040805162461bcd60e51b815260206004820152601860248201527f4e6f205b746f5d20616464726573732070726f76696465640000000000000000604482015290519081900360640190fd5b6003876040518082805190602001908083835b60208310611d285780518252601f199092019160209182019101611d09565b51815160209384036101000a600019018019909216911617905292019485525060405193849003019092205460ff16159150611da59050576040805162461bcd60e51b8152602060048201526015602482015274139bc81cda59db985d1d5c99481c1c9bdd9a591959605a1b604482015290519081900360640190fd5b6000611db5308888888888611c2b565b90506000611dc3828a610c9a565b90506001600160a01b038116611e20576040805162461bcd60e51b815260206004820152601f60248201527f5370656e6465722061646472657373206973206e6f742070726f766964656400604482015290519081900360640190fd5b6001600160a01b038816600090815260208190526040902054611e49908763ffffffff61215416565b6001600160a01b03808a166000908152602081905260408082209390935590891681522054611e7e908763ffffffff61216616565b6001600160a01b03808916600090815260208181526040808320949094558b83168252600281528382209285168252919091522054611ec3908763ffffffff61215416565b6001600160a01b03808a16600090815260026020908152604080832093861683529281528282209390935591829052902054611f05908663ffffffff61215416565b6001600160a01b038216600090815260208190526040808220929092553381522054611f37908663ffffffff61216616565b600080336001600160a01b03166001600160a01b0316815260200190815260200160002081905550600160038a6040518082805190602001908083835b60208310611f935780518252601f199092019160209182019101611f74565b51815160209384036101000a6000190180199092169116179052920194855250604080519485900382018520805460ff1916961515969096179095558a845293516001600160a01b038c811695908e169460008051602061217d8339815191529450829003019150a360408051868152905133916001600160a01b0384169160008051602061217d8339815191529181900360200190a350600198975050505050505050565b3360009081526002602090815260408083206001600160a01b038616845290915281205461206d908363ffffffff61216616565b3360008181526002602090815260408083206001600160a01b03891680855290835292819020859055805194855251919360008051602061219d833981519152929081900390910190a350600192915050565b6001600160a01b03918216600090815260026020908152604080832093909416825291909152205490565b60408051637bd64e1760e11b6020808301919091526001600160601b0319606089811b8216602485015288901b166038830152604c8201869052606c8201859052608c8083018590528351808403909101815260ac909201909252805191012095945050505050565b60008282111561216057fe5b50900390565b60008282018381101561217557fe5b939250505056feddf252ad1be2c89b69c2b068fc378daa952ba7f163c4a11628f55a4df523b3ef8c5be1e5ebec7d5bd14f71427d1e84f3dd0314c0f7b2291e5b200ac8c7c3b925a265627a7a723058201d76f44b93bdf5805b05b6fff1b957896765f2888853e47d0c523bad0b431f0364736f6c634300050a0032",
  "source": "pragma solidity ^0.5.10;\n\nimport \"./ERC865.sol\";\nimport \"../../openzeppelin-solidity/token/ERC20/StandardToken.sol\";\n\n/**\n * @title ERC865Token Token\n *\n * ERC865Token allows users paying transfers in tokens instead of gas\n * https://github.com/ethereum/EIPs/issues/865\n *\n */\n\ncontract ERC865Token is ERC865, StandardToken {\n\n    /* Nonces of transfers performed */\n    mapping(bytes => bool) signatures;\n\n    event TransferPreSigned(address indexed from, address indexed to, address indexed delegate, uint256 amount, uint256 fee);\n    event ApprovalPreSigned(address indexed from, address indexed to, address indexed delegate, uint256 amount, uint256 fee);\n\n    /**\n     * @notice Submit a presigned transfer\n     * @param _signature bytes The signature, issued by the owner.\n     * @param _to address The address which you want to transfer to.\n     * @param _value uint256 The amount of tokens to be transferred.\n     * @param _fee uint256 The amount of tokens paid to msg.sender, by the owner.\n     * @param _nonce uint256 Presigned transaction number.\n     */\n    function transferPreSigned(\n        bytes memory _signature,\n        address _to,\n        uint256 _value,\n        uint256 _fee,\n        uint256 _nonce\n    )\n        public\n        returns (bool)\n    {\n        require(_to != address(0), \"No address provided\");\n        require(signatures[_signature] == false, \"No signature\");\n\n        bytes32 hashedTx = transferPreSignedHashing(address(this), _to, _value, _fee, _nonce);\n\n        address from = recover(hashedTx, _signature);\n        require(from != address(0), \"From address is not provided\");\n\n        balances[from] = balances[from].sub(_value).sub(_fee);\n        balances[_to] = balances[_to].add(_value);\n        balances[msg.sender] = balances[msg.sender].add(_fee);\n        signatures[_signature] = true;\n\n        emit Transfer(from, _to, _value);\n        emit Transfer(from, msg.sender, _fee);\n        emit TransferPreSigned(from, _to, msg.sender, _value, _fee);\n        return true;\n    }\n\n    /**\n     * @notice Submit a presigned approval\n     * @param _signature bytes The signature, issued by the owner.\n     * @param _spender address The address which will spend the funds.\n     * @param _value uint256 The amount of tokens to allow.\n     * @param _fee uint256 The amount of tokens paid to msg.sender, by the owner.\n     * @param _nonce uint256 Presigned transaction number.\n     */\n    function approvePreSigned(\n        bytes memory _signature,\n        address _spender,\n        uint256 _value,\n        uint256 _fee,\n        uint256 _nonce\n    )\n        public\n        returns (bool)\n    {\n        require(_spender != address(0), \"Spender is not provided\");\n        require(signatures[_signature] == false, \"No signature\");\n\n        bytes32 hashedTx = approvePreSignedHashing(address(this), _spender, _value, _fee, _nonce);\n        address from = recover(hashedTx, _signature);\n        require(from != address(0), \"From addres is not provided\");\n\n        allowed[from][_spender] = _value;\n        balances[from] = balances[from].sub(_fee);\n        balances[msg.sender] = balances[msg.sender].add(_fee);\n        signatures[_signature] = true;\n\n        emit Approval(from, _spender, _value);\n        emit Transfer(from, msg.sender, _fee);\n        emit ApprovalPreSigned(from, _spender, msg.sender, _value, _fee);\n        return true;\n    }\n\n    /**\n     * @notice Increase the amount of tokens that an owner allowed to a spender.\n     * @param _signature bytes The signature, issued by the owner.\n     * @param _spender address The address which will spend the funds.\n     * @param _addedValue uint256 The amount of tokens to increase the allowance by.\n     * @param _fee uint256 The amount of tokens paid to msg.sender, by the owner.\n     * @param _nonce uint256 Presigned transaction number.\n     */\n    function increaseApprovalPreSigned(\n        bytes memory _signature,\n        address _spender,\n        uint256 _addedValue,\n        uint256 _fee,\n        uint256 _nonce\n    )\n        public\n        returns (bool)\n    {\n        require(_spender != address(0), \"Spender address is not provided\");\n        require(signatures[_signature] == false, \"No Signature\");\n\n        bytes32 hashedTx = increaseApprovalPreSignedHashing(address(this), _spender, _addedValue, _fee, _nonce);\n        address from = recover(hashedTx, _signature);\n        require(from != address(0), \"From address is not provided\");\n\n        allowed[from][_spender] = allowed[from][_spender].add(_addedValue);\n        balances[from] = balances[from].sub(_fee);\n        balances[msg.sender] = balances[msg.sender].add(_fee);\n        signatures[_signature] = true;\n\n        emit Approval(from, _spender, allowed[from][_spender]);\n        emit Transfer(from, msg.sender, _fee);\n        emit ApprovalPreSigned(from, _spender, msg.sender, allowed[from][_spender], _fee);\n        return true;\n    }\n\n    /**\n     * @notice Decrease the amount of tokens that an owner allowed to a spender.\n     * @param _signature bytes The signature, issued by the owner\n     * @param _spender address The address which will spend the funds.\n     * @param _subtractedValue uint256 The amount of tokens to decrease the allowance by.\n     * @param _fee uint256 The amount of tokens paid to msg.sender, by the owner.\n     * @param _nonce uint256 Presigned transaction number.\n     */\n    function decreaseApprovalPreSigned(\n        bytes memory _signature,\n        address _spender,\n        uint256 _subtractedValue,\n        uint256 _fee,\n        uint256 _nonce\n    )\n        public\n        returns (bool)\n    {\n        require(_spender != address(0), \"Spender address is not provided\");\n        require(signatures[_signature] == false, \"No sognature\");\n\n        bytes32 hashedTx = decreaseApprovalPreSignedHashing(address(this), _spender, _subtractedValue, _fee, _nonce);\n        address from = recover(hashedTx, _signature);\n        require(from != address(0), \"From address is not provided\");\n\n        uint oldValue = allowed[from][_spender];\n        if (_subtractedValue > oldValue) {\n            allowed[from][_spender] = 0;\n        } else {\n            allowed[from][_spender] = oldValue.sub(_subtractedValue);\n        }\n        balances[from] = balances[from].sub(_fee);\n        balances[msg.sender] = balances[msg.sender].add(_fee);\n        signatures[_signature] = true;\n\n        emit Approval(from, _spender, _subtractedValue);\n        emit Transfer(from, msg.sender, _fee);\n        emit ApprovalPreSigned(from, _spender, msg.sender, allowed[from][_spender], _fee);\n        return true;\n    }\n\n    /**\n     * @notice Transfer tokens from one address to another\n     * @param _signature bytes The signature, issued by the spender.\n     * @param _from address The address which you want to send tokens from.\n     * @param _to address The address which you want to transfer to.\n     * @param _value uint256 The amount of tokens to be transferred.\n     * @param _fee uint256 The amount of tokens paid to msg.sender, by the spender.\n     * @param _nonce uint256 Presigned transaction number.\n     */\n    function transferFromPreSigned(\n        bytes memory _signature,\n        address _from,\n        address _to,\n        uint256 _value,\n        uint256 _fee,\n        uint256 _nonce\n    )\n        public\n        returns (bool)\n    {\n        require(_to != address(0), \"No [to] address provided\");\n        require(signatures[_signature] == false, \"No signature provided\");\n\n        bytes32 hashedTx = transferFromPreSignedHashing(address(this), _from, _to, _value, _fee, _nonce);\n\n        address spender = recover(hashedTx, _signature);\n        require(spender != address(0), \"Spender address is not provided\");\n\n        balances[_from] = balances[_from].sub(_value);\n        balances[_to] = balances[_to].add(_value);\n        allowed[_from][spender] = allowed[_from][spender].sub(_value);\n\n        balances[spender] = balances[spender].sub(_fee);\n        balances[msg.sender] = balances[msg.sender].add(_fee);\n        signatures[_signature] = true;\n\n        emit Transfer(_from, _to, _value);\n        emit Transfer(spender, msg.sender, _fee);\n        return true;\n    }\n\n\n    /**\n     * @notice Hash (keccak256) of the payload used by transferPreSigned\n     * @param _token address The address of the token.\n     * @param _to address The address which you want to transfer to.\n     * @param _value uint256 The amount of tokens to be transferred.\n     * @param _fee uint256 The amount of tokens paid to msg.sender, by the owner.\n     * @param _nonce uint256 Presigned transaction number.\n     */\n    function transferPreSignedHashing(\n        address _token,\n        address _to,\n        uint256 _value,\n        uint256 _fee,\n        uint256 _nonce\n    )\n        public\n        pure\n        returns (bytes32)\n    {\n        /* \"48664c16\": transferPreSignedHashing(address,address,address,uint256,uint256,uint256) */\n        return keccak256(abi.encodePacked(bytes4(0x48664c16), _token, _to, _value, _fee, _nonce));\n    }\n\n    /**\n     * @notice Hash (keccak256) of the payload used by approvePreSigned\n     * @param _token address The address of the token\n     * @param _spender address The address which will spend the funds.\n     * @param _value uint256 The amount of tokens to allow.\n     * @param _fee uint256 The amount of tokens paid to msg.sender, by the owner.\n     * @param _nonce uint256 Presigned transaction number.\n     */\n    function approvePreSignedHashing(\n        address _token,\n        address _spender,\n        uint256 _value,\n        uint256 _fee,\n        uint256 _nonce\n    )\n        public\n        pure\n        returns (bytes32)\n    {\n        /* \"f7ac9c2e\": approvePreSignedHashing(address,address,uint256,uint256,uint256) */\n        return keccak256(abi.encodePacked(bytes4(0xf7ac9c2e), _token, _spender, _value, _fee, _nonce));\n    }\n\n    /**\n     * @notice Hash (keccak256) of the payload used by increaseApprovalPreSigned\n     * @param _token address The address of the token\n     * @param _spender address The address which will spend the funds.\n     * @param _addedValue uint256 The amount of tokens to increase the allowance by.\n     * @param _fee uint256 The amount of tokens paid to msg.sender, by the owner.\n     * @param _nonce uint256 Presigned transaction number.\n     */\n    function increaseApprovalPreSignedHashing(\n        address _token,\n        address _spender,\n        uint256 _addedValue,\n        uint256 _fee,\n        uint256 _nonce\n    )\n        public\n        pure\n        returns (bytes32)\n    {\n        /* \"a45f71ff\": increaseApprovalPreSignedHashing(address,address,uint256,uint256,uint256) */\n        return keccak256(abi.encodePacked(bytes4(0xa45f71ff), _token, _spender, _addedValue, _fee, _nonce));\n    }\n\n     /**\n      * @notice Hash (keccak256) of the payload used by decreaseApprovalPreSigned\n      * @param _token address The address of the token\n      * @param _spender address The address which will spend the funds.\n      * @param _subtractedValue uint256 The amount of tokens to decrease the allowance by.\n      * @param _fee uint256 The amount of tokens paid to msg.sender, by the owner.\n      * @param _nonce uint256 Presigned transaction number.\n      */\n    function decreaseApprovalPreSignedHashing(\n        address _token,\n        address _spender,\n        uint256 _subtractedValue,\n        uint256 _fee,\n        uint256 _nonce\n    )\n        public\n        pure\n        returns (bytes32)\n    {\n        /* \"59388d78\": decreaseApprovalPreSignedHashing(address,address,uint256,uint256,uint256) */\n        return keccak256(abi.encodePacked(bytes4(0x59388d78), _token, _spender, _subtractedValue, _fee, _nonce));\n    }\n\n    /**\n     * @notice Hash (keccak256) of the payload used by transferFromPreSigned\n     * @param _token address The address of the token\n     * @param _from address The address which you want to send tokens from.\n     * @param _to address The address which you want to transfer to.\n     * @param _value uint256 The amount of tokens to be transferred.\n     * @param _fee uint256 The amount of tokens paid to msg.sender, by the spender.\n     * @param _nonce uint256 Presigned transaction number.\n     */\n    function transferFromPreSignedHashing(\n        address _token,\n        address _from,\n        address _to,\n        uint256 _value,\n        uint256 _fee,\n        uint256 _nonce\n    )\n        public\n        pure\n        returns (bytes32)\n    {\n        /* \"b7656dc5\": transferFromPreSignedHashing(address,address,address,uint256,uint256,uint256) */\n        return keccak256(abi.encodePacked(bytes4(0xb7656dc5), _token, _from, _to, _value, _fee, _nonce));\n    }\n\n    /**\n     * @notice Recover signer address from a message by using his signature\n     * @param hash bytes32 message, the hash is the signed message. What is recovered is the signer address.\n     * @param sig bytes signature, the signature is generated using web3.eth.sign()\n     */\n    function recover(bytes32 hash, bytes memory sig) public pure returns (address) {\n        bytes32 r;\n        bytes32 s;\n        uint8 v;\n\n        //Check the signature length\n        if (sig.length != 65) {\n            return (address(0));\n        }\n\n        // Divide the signature in r, s and v variables\n        assembly {\n            r := mload(add(sig, 32))\n            s := mload(add(sig, 64))\n            v := byte(0, mload(add(sig, 96)))\n        }\n\n        // Version of signature should be 27 or 28, but 0 and 1 are also possible versions\n        if (v < 27) {\n            v += 27;\n        }\n\n        // If the version is correct return the signer address\n        if (v != 27 && v != 28) {\n            return (address(0));\n        } else {\n            return ecrecover(hash, v, r, s);\n        }\n    }\n}\n",
  "sourcePath": "D:\\projects\\ethereum\\kittiefight\\token\\DutchAuction\\contracts\\ERC865\\token\\ERC865Token.sol",
  "compiler": {
    "name": "solc",
    "version": "0.5.10+commit.5a6ea5b1.Emscripten.clang"
  },
  "schemaVersion": "3.0.11",
  "updatedAt": "2019-07-10T18:27:32.610Z",
  "devdoc": {
    "methods": {
      "allowance(address,address)": {
        "details": "Function to check the amount of tokens that an owner allowed to a spender.",
        "params": {
          "_owner": "address The address which owns the funds.",
          "_spender": "address The address which will spend the funds."
        },
        "return": "A uint256 specifying the amount of tokens still available for the spender."
      },
      "approve(address,uint256)": {
        "details": "Approve the passed address to spend the specified amount of tokens on behalf of msg.sender.   * Beware that changing an allowance with this method brings the risk that someone may use both the old and the new allowance by unfortunate transaction ordering. One possible solution to mitigate this race condition is to first reduce the spender's allowance to 0 and set the desired value afterwards: https://github.com/ethereum/EIPs/issues/20#issuecomment-263524729",
        "params": {
          "_spender": "The address which will spend the funds.",
          "_value": "The amount of tokens to be spent."
        }
      },
      "approvePreSigned(bytes,address,uint256,uint256,uint256)": {
        "params": {
          "_fee": "uint256 The amount of tokens paid to msg.sender, by the owner.",
          "_nonce": "uint256 Presigned transaction number.",
          "_signature": "bytes The signature, issued by the owner.",
          "_spender": "address The address which will spend the funds.",
          "_value": "uint256 The amount of tokens to allow."
        }
      },
      "approvePreSignedHashing(address,address,uint256,uint256,uint256)": {
        "params": {
          "_fee": "uint256 The amount of tokens paid to msg.sender, by the owner.",
          "_nonce": "uint256 Presigned transaction number.",
          "_spender": "address The address which will spend the funds.",
          "_token": "address The address of the token",
          "_value": "uint256 The amount of tokens to allow."
        }
      },
      "balanceOf(address)": {
        "details": "Gets the balance of the specified address.",
        "params": {
          "_owner": "The address to query the the balance of."
        },
        "return": "An uint256 representing the amount owned by the passed address."
      },
      "decreaseApproval(address,uint256)": {
        "details": "Decrease the amount of tokens that an owner allowed to a spender.   * approve should be called when allowed[_spender] == 0. To decrement allowed value is better to use this function to avoid 2 calls (and wait until the first transaction is mined) From MonolithDAO Token.sol",
        "params": {
          "_spender": "The address which will spend the funds.",
          "_subtractedValue": "The amount of tokens to decrease the allowance by."
        }
      },
      "decreaseApprovalPreSigned(bytes,address,uint256,uint256,uint256)": {
        "params": {
          "_fee": "uint256 The amount of tokens paid to msg.sender, by the owner.",
          "_nonce": "uint256 Presigned transaction number.",
          "_signature": "bytes The signature, issued by the owner",
          "_spender": "address The address which will spend the funds.",
          "_subtractedValue": "uint256 The amount of tokens to decrease the allowance by."
        }
      },
      "decreaseApprovalPreSignedHashing(address,address,uint256,uint256,uint256)": {
        "params": {
          "_fee": "uint256 The amount of tokens paid to msg.sender, by the owner.",
          "_nonce": "uint256 Presigned transaction number.",
          "_spender": "address The address which will spend the funds.",
          "_subtractedValue": "uint256 The amount of tokens to decrease the allowance by.",
          "_token": "address The address of the token"
        }
      },
      "increaseApproval(address,uint256)": {
        "details": "Increase the amount of tokens that an owner allowed to a spender.   * approve should be called when allowed[_spender] == 0. To increment allowed value is better to use this function to avoid 2 calls (and wait until the first transaction is mined) From MonolithDAO Token.sol",
        "params": {
          "_addedValue": "The amount of tokens to increase the allowance by.",
          "_spender": "The address which will spend the funds."
        }
      },
      "increaseApprovalPreSigned(bytes,address,uint256,uint256,uint256)": {
        "params": {
          "_addedValue": "uint256 The amount of tokens to increase the allowance by.",
          "_fee": "uint256 The amount of tokens paid to msg.sender, by the owner.",
          "_nonce": "uint256 Presigned transaction number.",
          "_signature": "bytes The signature, issued by the owner.",
          "_spender": "address The address which will spend the funds."
        }
      },
      "increaseApprovalPreSignedHashing(address,address,uint256,uint256,uint256)": {
        "params": {
          "_addedValue": "uint256 The amount of tokens to increase the allowance by.",
          "_fee": "uint256 The amount of tokens paid to msg.sender, by the owner.",
          "_nonce": "uint256 Presigned transaction number.",
          "_spender": "address The address which will spend the funds.",
          "_token": "address The address of the token"
        }
      },
      "recover(bytes32,bytes)": {
        "params": {
          "hash": "bytes32 message, the hash is the signed message. What is recovered is the signer address.",
          "sig": "bytes signature, the signature is generated using web3.eth.sign()"
        }
      },
      "totalSupply()": {
        "details": "total number of tokens in existence"
      },
      "transfer(address,uint256)": {
        "details": "transfer token for a specified address",
        "params": {
          "_to": "The address to transfer to.",
          "_value": "The amount to be transferred."
        }
      },
      "transferFrom(address,address,uint256)": {
        "details": "Transfer tokens from one address to another",
        "params": {
          "_from": "address The address which you want to send tokens from",
          "_to": "address The address which you want to transfer to",
          "_value": "uint256 the amount of tokens to be transferred"
        }
      },
      "transferFromPreSigned(bytes,address,address,uint256,uint256,uint256)": {
        "params": {
          "_fee": "uint256 The amount of tokens paid to msg.sender, by the spender.",
          "_from": "address The address which you want to send tokens from.",
          "_nonce": "uint256 Presigned transaction number.",
          "_signature": "bytes The signature, issued by the spender.",
          "_to": "address The address which you want to transfer to.",
          "_value": "uint256 The amount of tokens to be transferred."
        }
      },
      "transferFromPreSignedHashing(address,address,address,uint256,uint256,uint256)": {
        "params": {
          "_fee": "uint256 The amount of tokens paid to msg.sender, by the spender.",
          "_from": "address The address which you want to send tokens from.",
          "_nonce": "uint256 Presigned transaction number.",
          "_to": "address The address which you want to transfer to.",
          "_token": "address The address of the token",
          "_value": "uint256 The amount of tokens to be transferred."
        }
      },
      "transferPreSigned(bytes,address,uint256,uint256,uint256)": {
        "params": {
          "_fee": "uint256 The amount of tokens paid to msg.sender, by the owner.",
          "_nonce": "uint256 Presigned transaction number.",
          "_signature": "bytes The signature, issued by the owner.",
          "_to": "address The address which you want to transfer to.",
          "_value": "uint256 The amount of tokens to be transferred."
        }
      },
      "transferPreSignedHashing(address,address,uint256,uint256,uint256)": {
        "params": {
          "_fee": "uint256 The amount of tokens paid to msg.sender, by the owner.",
          "_nonce": "uint256 Presigned transaction number.",
          "_to": "address The address which you want to transfer to.",
          "_token": "address The address of the token.",
          "_value": "uint256 The amount of tokens to be transferred."
        }
      }
    },
    "title": "ERC865Token Token * ERC865Token allows users paying transfers in tokens instead of gas https://github.com/ethereum/EIPs/issues/865 "
  },
  "userdoc": {
    "methods": {
      "approvePreSigned(bytes,address,uint256,uint256,uint256)": {
        "notice": "Submit a presigned approval"
      },
      "approvePreSignedHashing(address,address,uint256,uint256,uint256)": {
        "notice": "Hash (keccak256) of the payload used by approvePreSigned"
      },
      "decreaseApprovalPreSigned(bytes,address,uint256,uint256,uint256)": {
        "notice": "Decrease the amount of tokens that an owner allowed to a spender."
      },
      "decreaseApprovalPreSignedHashing(address,address,uint256,uint256,uint256)": {
        "notice": "Hash (keccak256) of the payload used by decreaseApprovalPreSigned"
      },
      "increaseApprovalPreSigned(bytes,address,uint256,uint256,uint256)": {
        "notice": "Increase the amount of tokens that an owner allowed to a spender."
      },
      "increaseApprovalPreSignedHashing(address,address,uint256,uint256,uint256)": {
        "notice": "Hash (keccak256) of the payload used by increaseApprovalPreSigned"
      },
      "recover(bytes32,bytes)": {
        "notice": "Recover signer address from a message by using his signature"
      },
      "transferFromPreSigned(bytes,address,address,uint256,uint256,uint256)": {
        "notice": "Transfer tokens from one address to another"
      },
      "transferFromPreSignedHashing(address,address,address,uint256,uint256,uint256)": {
        "notice": "Hash (keccak256) of the payload used by transferFromPreSigned"
      },
      "transferPreSigned(bytes,address,uint256,uint256,uint256)": {
        "notice": "Submit a presigned transfer"
      },
      "transferPreSignedHashing(address,address,uint256,uint256,uint256)": {
        "notice": "Hash (keccak256) of the payload used by transferPreSigned"
      }
    }
  }
}