{
  "contractName": "HasNoContracts",
  "abi": [
    {
      "anonymous": false,
      "inputs": [
        {
          "indexed": true,
          "internalType": "address",
          "name": "previousOwner",
          "type": "address"
        },
        {
          "indexed": true,
          "internalType": "address",
          "name": "newOwner",
          "type": "address"
        }
      ],
      "name": "OwnershipTransferred",
      "type": "event"
    },
    {
      "constant": true,
      "inputs": [],
      "name": "owner",
      "outputs": [
        {
          "internalType": "address",
          "name": "",
          "type": "address"
        }
      ],
      "payable": false,
      "stateMutability": "view",
      "type": "function"
    },
    {
      "constant": false,
      "inputs": [
        {
          "internalType": "address",
          "name": "newOwner",
          "type": "address"
        }
      ],
      "name": "transferOwnership",
      "outputs": [],
      "payable": false,
      "stateMutability": "nonpayable",
      "type": "function"
    },
    {
      "constant": false,
      "inputs": [
        {
          "internalType": "address",
          "name": "contractAddr",
          "type": "address"
        }
      ],
      "name": "reclaimContract",
      "outputs": [],
      "payable": false,
      "stateMutability": "nonpayable",
      "type": "function"
    }
  ],
  "bytecode": "0x6080604052600080546001600160a01b03191633179055610200806100256000396000f3fe608060405234801561001057600080fd5b50600436106100415760003560e01c80632aed7f3f146100465780638da5cb5b1461006e578063f2fde38b14610092575b600080fd5b61006c6004803603602081101561005c57600080fd5b50356001600160a01b03166100b8565b005b610076610137565b604080516001600160a01b039092168252519081900360200190f35b61006c600480360360208110156100a857600080fd5b50356001600160a01b0316610146565b6000546001600160a01b031633146100cf57600080fd5b600080546040805163f2fde38b60e01b81526001600160a01b039283166004820152905184939284169263f2fde38b926024808201939182900301818387803b15801561011b57600080fd5b505af115801561012f573d6000803e3d6000fd5b505050505050565b6000546001600160a01b031681565b6000546001600160a01b0316331461015d57600080fd5b6001600160a01b03811661017057600080fd5b600080546040516001600160a01b03808516939216917f8be0079c531659141344cd1fd0a4f28419497f9722a3daafe3b4186f6b6457e091a3600080546001600160a01b0319166001600160a01b039290921691909117905556fea265627a7a72315820685d996ccee3760b9f0aadc746b5709bde25517a0682ddd466bc57d3c0b3204a64736f6c634300050e0032",
  "source": "pragma solidity ^0.5.10;\n\nimport \"./Ownable.sol\";\n\n\n/**\n * @title Contracts that should not own Contracts\n * @author Remco Bloemen <remco@2π.com>\n * @dev Should contracts (anything Ownable) end up being owned by this contract, it allows the owner\n * of this contract to reclaim ownership of the contracts.\n */\ncontract HasNoContracts is Ownable {\n\n  /**\n   * @dev Reclaim ownership of Ownable contracts\n   * @param contractAddr The address of the Ownable to be reclaimed.\n   */\n  function reclaimContract(address contractAddr) external onlyOwner {\n    Ownable contractInst = Ownable(contractAddr);\n    contractInst.transferOwnership(owner);\n  }\n}\n",
  "sourcePath": "D:\\projects\\kittiefight\\token\\DutchAuction\\contracts\\openzeppelin-solidity\\ownership\\HasNoContracts.sol",
  "compiler": {
    "name": "solc",
    "version": "0.5.14+commit.01f1aaa4.Emscripten.clang"
  },
  "schemaVersion": "3.0.16",
  "updatedAt": "2019-12-09T19:32:28.896Z",
  "devdoc": {
    "author": "Remco Bloemen <remco@2π.com>",
    "details": "Should contracts (anything Ownable) end up being owned by this contract, it allows the owner of this contract to reclaim ownership of the contracts.",
    "methods": {
      "reclaimContract(address)": {
        "details": "Reclaim ownership of Ownable contracts",
        "params": {
          "contractAddr": "The address of the Ownable to be reclaimed."
        }
      },
      "transferOwnership(address)": {
        "details": "Allows the current owner to transfer control of the contract to a newOwner.",
        "params": {
          "newOwner": "The address to transfer ownership to."
        }
      }
    },
    "title": "Contracts that should not own Contracts"
  },
  "userdoc": {
    "methods": {}
  }
}