{
  "contractName": "HasNoEther",
  "abi": [
    {
      "inputs": [],
      "payable": true,
      "stateMutability": "payable",
      "type": "constructor"
    },
    {
      "anonymous": false,
      "inputs": [
        {
          "indexed": true,
          "internalType": "address",
          "name": "previousOwner",
          "type": "address"
        },
        {
          "indexed": true,
          "internalType": "address",
          "name": "newOwner",
          "type": "address"
        }
      ],
      "name": "OwnershipTransferred",
      "type": "event"
    },
    {
      "payable": false,
      "stateMutability": "nonpayable",
      "type": "fallback"
    },
    {
      "constant": true,
      "inputs": [],
      "name": "owner",
      "outputs": [
        {
          "internalType": "address",
          "name": "",
          "type": "address"
        }
      ],
      "payable": false,
      "stateMutability": "view",
      "type": "function"
    },
    {
      "constant": false,
      "inputs": [
        {
          "internalType": "address",
          "name": "newOwner",
          "type": "address"
        }
      ],
      "name": "transferOwnership",
      "outputs": [],
      "payable": false,
      "stateMutability": "nonpayable",
      "type": "function"
    },
    {
      "constant": false,
      "inputs": [],
      "name": "reclaimEther",
      "outputs": [],
      "payable": false,
      "stateMutability": "nonpayable",
      "type": "function"
    }
  ],
  "bytecode": "0x6080604052600080546001600160a01b03191633179055341561002157600080fd5b6101a6806100306000396000f3fe608060405234801561001057600080fd5b50600436106100415760003560e01c80638da5cb5b146100435780639f727c2714610067578063f2fde38b1461006f575b005b61004b610095565b604080516001600160a01b039092168252519081900360200190f35b6100416100a4565b6100416004803603602081101561008557600080fd5b50356001600160a01b03166100ec565b6000546001600160a01b031681565b6000546001600160a01b031633146100bb57600080fd5b600080546040516001600160a01b03909116914780156108fc02929091818181858888f193505050506100ea57fe5b565b6000546001600160a01b0316331461010357600080fd5b6001600160a01b03811661011657600080fd5b600080546040516001600160a01b03808516939216917f8be0079c531659141344cd1fd0a4f28419497f9722a3daafe3b4186f6b6457e091a3600080546001600160a01b0319166001600160a01b039290921691909117905556fea265627a7a72315820d67d2d3737e9ca53981e5a14327123177039c37ab010a16c656eb7075f668ef764736f6c634300050e0032",
  "source": "pragma solidity ^0.5.10;\n\nimport \"./Ownable.sol\";\n\n\n/**\n * @title Contracts that should not own Ether\n * @author Remco Bloemen <remco@2π.com>\n * @dev This tries to block incoming ether to prevent accidental loss of Ether. Should Ether end up\n * in the contract, it will allow the owner to reclaim this ether.\n * @notice Ether can still be send to this contract by:\n * calling functions labeled `payable`\n * `selfdestruct(contract_address)`\n * mining directly to the contract address\n*/\ncontract HasNoEther is Ownable {\n\n  /**\n  * @dev Constructor that rejects incoming Ether\n  * @dev The `payable` flag is added so we can access `msg.value` without compiler warning. If we\n  * leave out payable, then Solidity will allow inheriting contracts to implement a payable\n  * constructor. By doing it this way we prevent a payable constructor from working. Alternatively\n  * we could use assembly to access msg.value.\n  */\n  constructor() public payable {\n    require(msg.value == 0);\n  }\n\n  /**\n   * @dev Disallows direct send by settings a default function without the `payable` flag.\n   */\n  function() external {\n  }\n\n  /**\n   * @dev Transfer all Ether held by the contract to the owner.\n   */\n  function reclaimEther() external onlyOwner {\n    assert(address(uint160(owner)).send(address(this).balance));\n  }\n}\n",
  "sourcePath": "D:\\projects\\kittiefight\\token\\DutchAuction\\contracts\\openzeppelin-solidity\\ownership\\HasNoEther.sol",
  "compiler": {
    "name": "solc",
    "version": "0.5.14+commit.01f1aaa4.Emscripten.clang"
  },
  "schemaVersion": "3.0.16",
  "updatedAt": "2019-12-09T19:32:28.898Z",
  "devdoc": {
    "author": "Remco Bloemen <remco@2π.com>",
    "details": "This tries to block incoming ether to prevent accidental loss of Ether. Should Ether end up in the contract, it will allow the owner to reclaim this ether.",
    "methods": {
      "constructor": {
        "details": "Constructor that rejects incoming EtherThe `payable` flag is added so we can access `msg.value` without compiler warning. If we leave out payable, then Solidity will allow inheriting contracts to implement a payable constructor. By doing it this way we prevent a payable constructor from working. Alternatively we could use assembly to access msg.value."
      },
      "reclaimEther()": {
        "details": "Transfer all Ether held by the contract to the owner."
      },
      "transferOwnership(address)": {
        "details": "Allows the current owner to transfer control of the contract to a newOwner.",
        "params": {
          "newOwner": "The address to transfer ownership to."
        }
      }
    },
    "title": "Contracts that should not own Ether"
  },
  "userdoc": {
    "methods": {},
    "notice": "Ether can still be send to this contract by: calling functions labeled `payable` `selfdestruct(contract_address)` mining directly to the contract address"
  }
}