{
  "contractName": "HasNoTokens",
  "abi": [
    {
      "constant": false,
      "inputs": [
        {
          "name": "token",
          "type": "address"
        }
      ],
      "name": "reclaimToken",
      "outputs": [],
      "payable": false,
      "stateMutability": "nonpayable",
      "type": "function"
    },
    {
      "constant": true,
      "inputs": [],
      "name": "owner",
      "outputs": [
        {
          "name": "",
          "type": "address"
        }
      ],
      "payable": false,
      "stateMutability": "view",
      "type": "function"
    },
    {
      "constant": false,
      "inputs": [
        {
          "name": "newOwner",
          "type": "address"
        }
      ],
      "name": "transferOwnership",
      "outputs": [],
      "payable": false,
      "stateMutability": "nonpayable",
      "type": "function"
    },
    {
      "anonymous": false,
      "inputs": [
        {
          "indexed": true,
          "name": "previousOwner",
          "type": "address"
        },
        {
          "indexed": true,
          "name": "newOwner",
          "type": "address"
        }
      ],
      "name": "OwnershipTransferred",
      "type": "event"
    },
    {
      "constant": false,
      "inputs": [
        {
          "name": "from_",
          "type": "address"
        },
        {
          "name": "value_",
          "type": "uint256"
        },
        {
          "name": "data_",
          "type": "bytes"
        }
      ],
      "name": "tokenFallback",
      "outputs": [],
      "payable": false,
      "stateMutability": "nonpayable",
      "type": "function"
    }
  ],
  "bytecode": "0x608060405260008054600160a060020a0319163317905561035c806100256000396000f3006080604052600436106100615763ffffffff7c010000000000000000000000000000000000000000000000000000000060003504166317ffc32081146100665780638da5cb5b14610089578063c0ee0b8a146100ba578063f2fde38b146100eb575b600080fd5b34801561007257600080fd5b50610087600160a060020a036004351661010c565b005b34801561009557600080fd5b5061009e6101d8565b60408051600160a060020a039092168252519081900360200190f35b3480156100c657600080fd5b5061008760048035600160a060020a0316906024803591604435918201910135610061565b3480156100f757600080fd5b50610087600160a060020a03600435166101e7565b60008054600160a060020a0316331461012457600080fd5b604080517f70a082310000000000000000000000000000000000000000000000000000000081523060048201529051600160a060020a038416916370a082319160248083019260209291908290030181600087803b15801561018557600080fd5b505af1158015610199573d6000803e3d6000fd5b505050506040513d60208110156101af57600080fd5b50516000549091506101d490600160a060020a0384811691168363ffffffff61027b16565b5050565b600054600160a060020a031681565b600054600160a060020a031633146101fe57600080fd5b600160a060020a038116151561021357600080fd5b60008054604051600160a060020a03808516939216917f8be0079c531659141344cd1fd0a4f28419497f9722a3daafe3b4186f6b6457e091a36000805473ffffffffffffffffffffffffffffffffffffffff1916600160a060020a0392909216919091179055565b82600160a060020a031663a9059cbb83836040518363ffffffff167c01000000000000000000000000000000000000000000000000000000000281526004018083600160a060020a0316600160a060020a0316815260200182815260200192505050602060405180830381600087803b1580156102f757600080fd5b505af115801561030b573d6000803e3d6000fd5b505050506040513d602081101561032157600080fd5b5051151561032b57fe5b5050505600a165627a7a72305820c41319d00e8194ccd3f9eaa1d62b649cd7d2867dde2baa014997f6247197cb6c0029",
  "source": "pragma solidity ^0.4.18;\n\nimport \"./CanReclaimToken.sol\";\n\n\n/**\n * @title Contracts that should not own Tokens\n * @author Remco Bloemen <remco@2π.com>\n * @dev This blocks incoming ERC223 tokens to prevent accidental loss of tokens.\n * Should tokens (any ERC20Basic compatible) end up in the contract, it allows the\n * owner to reclaim the tokens.\n */\ncontract HasNoTokens is CanReclaimToken {\n\n /**\n  * @dev Reject all ERC223 compatible tokens\n  * @param from_ address The address that is transferring the tokens\n  * @param value_ uint256 the amount of the specified token\n  * @param data_ Bytes The data passed from the caller.\n  */\n  function tokenFallback(address from_, uint256 value_, bytes data_) external {\n    from_;\n    value_;\n    data_;\n    revert();\n  }\n\n}\n",
  "sourcePath": "/Users/achiko/Documents/elva/projects/kittiefight/DutchAuction/contracts/openzeppelin-solidity/ownership/HasNoTokens.sol",
  "compiler": {
    "name": "solc",
    "version": "0.4.24+commit.e67f0147.Emscripten.clang"
  },
  "schemaVersion": "2.0.1",
  "updatedAt": "2018-11-16T14:02:09.363Z"
}