{
  "contractName": "Heritable",
  "abi": [
    {
      "constant": true,
      "inputs": [],
      "name": "heartbeatTimeout",
      "outputs": [
        {
          "name": "",
          "type": "uint256"
        }
      ],
      "payable": false,
      "stateMutability": "view",
      "type": "function"
    },
    {
      "constant": true,
      "inputs": [],
      "name": "owner",
      "outputs": [
        {
          "name": "",
          "type": "address"
        }
      ],
      "payable": false,
      "stateMutability": "view",
      "type": "function"
    },
    {
      "constant": true,
      "inputs": [],
      "name": "heir",
      "outputs": [
        {
          "name": "",
          "type": "address"
        }
      ],
      "payable": false,
      "stateMutability": "view",
      "type": "function"
    },
    {
      "constant": true,
      "inputs": [],
      "name": "timeOfDeath",
      "outputs": [
        {
          "name": "",
          "type": "uint256"
        }
      ],
      "payable": false,
      "stateMutability": "view",
      "type": "function"
    },
    {
      "constant": false,
      "inputs": [
        {
          "name": "newOwner",
          "type": "address"
        }
      ],
      "name": "transferOwnership",
      "outputs": [],
      "payable": false,
      "stateMutability": "nonpayable",
      "type": "function"
    },
    {
      "inputs": [
        {
          "name": "_heartbeatTimeout",
          "type": "uint256"
        }
      ],
      "payable": false,
      "stateMutability": "nonpayable",
      "type": "constructor"
    },
    {
      "anonymous": false,
      "inputs": [
        {
          "indexed": true,
          "name": "owner",
          "type": "address"
        },
        {
          "indexed": true,
          "name": "newHeir",
          "type": "address"
        }
      ],
      "name": "HeirChanged",
      "type": "event"
    },
    {
      "anonymous": false,
      "inputs": [
        {
          "indexed": true,
          "name": "owner",
          "type": "address"
        }
      ],
      "name": "OwnerHeartbeated",
      "type": "event"
    },
    {
      "anonymous": false,
      "inputs": [
        {
          "indexed": true,
          "name": "owner",
          "type": "address"
        },
        {
          "indexed": true,
          "name": "heir",
          "type": "address"
        },
        {
          "indexed": false,
          "name": "timeOfDeath",
          "type": "uint256"
        }
      ],
      "name": "OwnerProclaimedDead",
      "type": "event"
    },
    {
      "anonymous": false,
      "inputs": [
        {
          "indexed": true,
          "name": "previousOwner",
          "type": "address"
        },
        {
          "indexed": true,
          "name": "newOwner",
          "type": "address"
        }
      ],
      "name": "HeirOwnershipClaimed",
      "type": "event"
    },
    {
      "anonymous": false,
      "inputs": [
        {
          "indexed": true,
          "name": "previousOwner",
          "type": "address"
        },
        {
          "indexed": true,
          "name": "newOwner",
          "type": "address"
        }
      ],
      "name": "OwnershipTransferred",
      "type": "event"
    },
    {
      "constant": false,
      "inputs": [
        {
          "name": "newHeir",
          "type": "address"
        }
      ],
      "name": "setHeir",
      "outputs": [],
      "payable": false,
      "stateMutability": "nonpayable",
      "type": "function"
    },
    {
      "constant": false,
      "inputs": [],
      "name": "removeHeir",
      "outputs": [],
      "payable": false,
      "stateMutability": "nonpayable",
      "type": "function"
    },
    {
      "constant": false,
      "inputs": [],
      "name": "proclaimDeath",
      "outputs": [],
      "payable": false,
      "stateMutability": "nonpayable",
      "type": "function"
    },
    {
      "constant": false,
      "inputs": [],
      "name": "heartbeat",
      "outputs": [],
      "payable": false,
      "stateMutability": "nonpayable",
      "type": "function"
    },
    {
      "constant": false,
      "inputs": [],
      "name": "claimHeirOwnership",
      "outputs": [],
      "payable": false,
      "stateMutability": "nonpayable",
      "type": "function"
    }
  ],
  "bytecode": "0x608060405234801561001057600080fd5b506040516105663803806105668339818101604052602081101561003357600080fd5b5051600080546001600160a01b03191633179055610059816001600160e01b0361005f16565b5061009c565b6000546001600160a01b0316331461007657600080fd5b6100876001600160e01b0361009516565b61009057600080fd5b600255565b6003541590565b6104bb806100ab6000396000f3fe608060405234801561001057600080fd5b506004361061009e5760003560e01c80638da5cb5b116100665780638da5cb5b146100fd57806391f2ebb814610121578063b4a8f3e614610129578063ebf88de414610131578063f2fde38b146101395761009e565b80631c921e16146100a357806323defc77146100ad57806324845131146100d35780633defb962146100db5780637bca38be146100e3575b600080fd5b6100ab61015f565b005b6100ab600480360360208110156100c357600080fd5b50356001600160a01b031661023c565b6100ab6102d1565b6100ab61034b565b6100eb61039f565b60408051918252519081900360200190f35b6101056103a5565b604080516001600160a01b039092168252519081900360200190f35b6101056103b4565b6100eb6103c3565b6100ab6103c9565b6100ab6004803603602081101561014f57600080fd5b50356001600160a01b03166103fa565b6001546001600160a01b0316331461017657600080fd5b61017e61047f565b1561018857600080fd5b6002546003540142101561019b57600080fd5b600154600080546040516001600160a01b0393841693909116917f8be0079c531659141344cd1fd0a4f28419497f9722a3daafe3b4186f6b6457e091a3600154600080546040516001600160a01b0393841693909116917f1017a357e19071e4408dbd385f24e591aa5bcee52b444dc0c8abddbe6ad29de691a3600154600080546001600160a01b0319166001600160a01b03909216919091178155600355565b6000546001600160a01b0316331461025357600080fd5b6000546001600160a01b038281169116141561026e57600080fd5b61027661034b565b600080546040516001600160a01b03808516939216917f4e6093f85fa64484abd692810d8a44d508792ff7b7a021d9fbd69fa1c6ff18a091a3600180546001600160a01b0319166001600160a01b0392909216919091179055565b6001546001600160a01b031633146102e857600080fd5b6102f061047f565b6102f957600080fd5b60015460005460035460408051918252516001600160a01b039384169392909216917f66389f1f3251c39e71cb18351daefea45bda23e98df0767266b8aed4ff9382779181900360200190a342600355565b6000546001600160a01b0316331461036257600080fd5b600080546040516001600160a01b03909116917fd40b9d9a7572411aff4bbb95ba7bd9a9d4e9b70747ec46f8fe7913c309b6845291a26000600355565b60025481565b6000546001600160a01b031681565b6001546001600160a01b031681565b60035481565b6000546001600160a01b031633146103e057600080fd5b6103e861034b565b600180546001600160a01b0319169055565b6000546001600160a01b0316331461041157600080fd5b6001600160a01b03811661042457600080fd5b600080546040516001600160a01b03808516939216917f8be0079c531659141344cd1fd0a4f28419497f9722a3daafe3b4186f6b6457e091a3600080546001600160a01b0319166001600160a01b0392909216919091179055565b600354159056fea265627a7a72305820a0e5b97db42a5a372c7b55ee34b89384398e824f1813ef9d879d3ed17c8281ba64736f6c634300050a0032",
  "source": "pragma solidity ^0.5.10;\n\n\nimport \"./Ownable.sol\";\n\n\n/**\n * @title Heritable\n * @dev The Heritable contract provides ownership transfer capabilities, in the\n * case that the current owner stops \"heartbeating\". Only the heir can pronounce the\n * owner's death.\n */\ncontract Heritable is Ownable {\n  address public heir;\n\n  // Time window the owner has to notify they are alive.\n  uint256 public heartbeatTimeout;\n\n  // Timestamp of the owner's death, as pronounced by the heir.\n  uint256 public timeOfDeath;\n\n  event HeirChanged(address indexed owner, address indexed newHeir);\n  event OwnerHeartbeated(address indexed owner);\n  event OwnerProclaimedDead(address indexed owner, address indexed heir, uint256 timeOfDeath);\n  event HeirOwnershipClaimed(address indexed previousOwner, address indexed newOwner);\n\n\n  /**\n   * @dev Throw an exception if called by any account other than the heir's.\n   */\n  modifier onlyHeir() {\n    require(msg.sender == heir);\n    _;\n  }\n\n\n  /**\n   * @notice Create a new Heritable Contract with heir address 0x0.\n   * @param _heartbeatTimeout time available for the owner to notify they are alive,\n   * before the heir can take ownership.\n   */\n  constructor(uint256 _heartbeatTimeout) public {\n    setHeartbeatTimeout(_heartbeatTimeout);\n  }\n\n  function setHeir(address newHeir) public onlyOwner {\n    require(newHeir != owner);\n    heartbeat();\n    emit HeirChanged(owner, newHeir);\n    heir = newHeir;\n  }\n\n  /**\n   * @dev set heir = 0x0\n   */\n  function removeHeir() public onlyOwner {\n    heartbeat();\n    heir = address(0);\n  }\n\n  /**\n   * @dev Heir can pronounce the owners death. To claim the ownership, they will\n   * have to wait for `heartbeatTimeout` seconds.\n   */\n  function proclaimDeath() public onlyHeir {\n    require(ownerLives());\n    emit OwnerProclaimedDead(owner, heir, timeOfDeath);\n    timeOfDeath = now;\n  }\n\n  /**\n   * @dev Owner can send a heartbeat if they were mistakenly pronounced dead.\n   */\n  function heartbeat() public onlyOwner {\n    emit OwnerHeartbeated(owner);\n    timeOfDeath = 0;\n  }\n\n  /**\n   * @dev Allows heir to transfer ownership only if heartbeat has timed out.\n   */\n  function claimHeirOwnership() public onlyHeir {\n    require(!ownerLives());\n    require(now >= timeOfDeath + heartbeatTimeout);\n    emit OwnershipTransferred(owner, heir);\n    emit HeirOwnershipClaimed(owner, heir);\n    owner = heir;\n    timeOfDeath = 0;\n  }\n\n  function setHeartbeatTimeout(uint256 newHeartbeatTimeout) internal onlyOwner {\n    require(ownerLives());\n    heartbeatTimeout = newHeartbeatTimeout;\n  }\n\n  function ownerLives() internal view returns (bool) {\n    return timeOfDeath == 0;\n  }\n}\n",
  "sourcePath": "D:/projects/ethereum/kittiefight/token/DutchAuction/contracts/openzeppelin-solidity/ownership/Heritable.sol",
  "compiler": {
    "name": "solc",
    "version": "0.5.10+commit.5a6ea5b1.Emscripten.clang"
  },
  "schemaVersion": "3.0.11",
  "updatedAt": "2019-07-09T14:07:15.556Z",
  "devdoc": {
    "details": "The Heritable contract provides ownership transfer capabilities, in the case that the current owner stops \"heartbeating\". Only the heir can pronounce the owner's death.",
    "methods": {
      "claimHeirOwnership()": {
        "details": "Allows heir to transfer ownership only if heartbeat has timed out."
      },
      "constructor": {
        "params": {
          "_heartbeatTimeout": "time available for the owner to notify they are alive, before the heir can take ownership."
        }
      },
      "heartbeat()": {
        "details": "Owner can send a heartbeat if they were mistakenly pronounced dead."
      },
      "proclaimDeath()": {
        "details": "Heir can pronounce the owners death. To claim the ownership, they will have to wait for `heartbeatTimeout` seconds."
      },
      "removeHeir()": {
        "details": "set heir = 0x0"
      },
      "transferOwnership(address)": {
        "details": "Allows the current owner to transfer control of the contract to a newOwner.",
        "params": {
          "newOwner": "The address to transfer ownership to."
        }
      }
    },
    "title": "Heritable"
  },
  "userdoc": {
    "methods": {
      "constructor": "Create a new Heritable Contract with heir address 0x0."
    }
  }
}