{
  "contractName": "Heritable",
  "abi": [
    {
      "constant": true,
      "inputs": [],
      "name": "heartbeatTimeout",
      "outputs": [
        {
          "name": "",
          "type": "uint256"
        }
      ],
      "payable": false,
      "stateMutability": "view",
      "type": "function"
    },
    {
      "constant": true,
      "inputs": [],
      "name": "owner",
      "outputs": [
        {
          "name": "",
          "type": "address"
        }
      ],
      "payable": false,
      "stateMutability": "view",
      "type": "function"
    },
    {
      "constant": true,
      "inputs": [],
      "name": "heir",
      "outputs": [
        {
          "name": "",
          "type": "address"
        }
      ],
      "payable": false,
      "stateMutability": "view",
      "type": "function"
    },
    {
      "constant": true,
      "inputs": [],
      "name": "timeOfDeath",
      "outputs": [
        {
          "name": "",
          "type": "uint256"
        }
      ],
      "payable": false,
      "stateMutability": "view",
      "type": "function"
    },
    {
      "constant": false,
      "inputs": [
        {
          "name": "newOwner",
          "type": "address"
        }
      ],
      "name": "transferOwnership",
      "outputs": [],
      "payable": false,
      "stateMutability": "nonpayable",
      "type": "function"
    },
    {
      "inputs": [
        {
          "name": "_heartbeatTimeout",
          "type": "uint256"
        }
      ],
      "payable": false,
      "stateMutability": "nonpayable",
      "type": "constructor"
    },
    {
      "anonymous": false,
      "inputs": [
        {
          "indexed": true,
          "name": "owner",
          "type": "address"
        },
        {
          "indexed": true,
          "name": "newHeir",
          "type": "address"
        }
      ],
      "name": "HeirChanged",
      "type": "event"
    },
    {
      "anonymous": false,
      "inputs": [
        {
          "indexed": true,
          "name": "owner",
          "type": "address"
        }
      ],
      "name": "OwnerHeartbeated",
      "type": "event"
    },
    {
      "anonymous": false,
      "inputs": [
        {
          "indexed": true,
          "name": "owner",
          "type": "address"
        },
        {
          "indexed": true,
          "name": "heir",
          "type": "address"
        },
        {
          "indexed": false,
          "name": "timeOfDeath",
          "type": "uint256"
        }
      ],
      "name": "OwnerProclaimedDead",
      "type": "event"
    },
    {
      "anonymous": false,
      "inputs": [
        {
          "indexed": true,
          "name": "previousOwner",
          "type": "address"
        },
        {
          "indexed": true,
          "name": "newOwner",
          "type": "address"
        }
      ],
      "name": "HeirOwnershipClaimed",
      "type": "event"
    },
    {
      "anonymous": false,
      "inputs": [
        {
          "indexed": true,
          "name": "previousOwner",
          "type": "address"
        },
        {
          "indexed": true,
          "name": "newOwner",
          "type": "address"
        }
      ],
      "name": "OwnershipTransferred",
      "type": "event"
    },
    {
      "constant": false,
      "inputs": [
        {
          "name": "newHeir",
          "type": "address"
        }
      ],
      "name": "setHeir",
      "outputs": [],
      "payable": false,
      "stateMutability": "nonpayable",
      "type": "function"
    },
    {
      "constant": false,
      "inputs": [],
      "name": "removeHeir",
      "outputs": [],
      "payable": false,
      "stateMutability": "nonpayable",
      "type": "function"
    },
    {
      "constant": false,
      "inputs": [],
      "name": "proclaimDeath",
      "outputs": [],
      "payable": false,
      "stateMutability": "nonpayable",
      "type": "function"
    },
    {
      "constant": false,
      "inputs": [],
      "name": "heartbeat",
      "outputs": [],
      "payable": false,
      "stateMutability": "nonpayable",
      "type": "function"
    },
    {
      "constant": false,
      "inputs": [],
      "name": "claimHeirOwnership",
      "outputs": [],
      "payable": false,
      "stateMutability": "nonpayable",
      "type": "function"
    }
  ],
  "bytecode": "0x608060405234801561001057600080fd5b506040516020806105e7833981016040525160008054600160a060020a031916331790556100468164010000000061004c810204565b5061008b565b600054600160a060020a0316331461006357600080fd5b610074640100000000610084810204565b151561007f57600080fd5b600255565b6003541590565b61054d8061009a6000396000f3006080604052600436106100a35763ffffffff7c01000000000000000000000000000000000000000000000000000000006000350416631c921e1681146100a857806323defc77146100bf57806324845131146100e05780633defb962146100f55780637bca38be1461010a5780638da5cb5b1461013157806391f2ebb814610162578063b4a8f3e614610177578063ebf88de41461018c578063f2fde38b146101a1575b600080fd5b3480156100b457600080fd5b506100bd6101c2565b005b3480156100cb57600080fd5b506100bd600160a060020a03600435166102ac565b3480156100ec57600080fd5b506100bd61034e565b34801561010157600080fd5b506100bd6103ca565b34801561011657600080fd5b5061011f61041e565b60408051918252519081900360200190f35b34801561013d57600080fd5b50610146610424565b60408051600160a060020a039092168252519081900360200190f35b34801561016e57600080fd5b50610146610433565b34801561018357600080fd5b5061011f610442565b34801561019857600080fd5b506100bd610448565b3480156101ad57600080fd5b506100bd600160a060020a0360043516610486565b600154600160a060020a031633146101d957600080fd5b6101e161051a565b156101eb57600080fd5b600254600354014210156101fe57600080fd5b60015460008054604051600160a060020a0393841693909116917f8be0079c531659141344cd1fd0a4f28419497f9722a3daafe3b4186f6b6457e091a360015460008054604051600160a060020a0393841693909116917f1017a357e19071e4408dbd385f24e591aa5bcee52b444dc0c8abddbe6ad29de691a36001546000805473ffffffffffffffffffffffffffffffffffffffff1916600160a060020a03909216919091178155600355565b600054600160a060020a031633146102c357600080fd5b600054600160a060020a03828116911614156102de57600080fd5b6102e66103ca565b60008054604051600160a060020a03808516939216917f4e6093f85fa64484abd692810d8a44d508792ff7b7a021d9fbd69fa1c6ff18a091a36001805473ffffffffffffffffffffffffffffffffffffffff1916600160a060020a0392909216919091179055565b600154600160a060020a0316331461036557600080fd5b61036d61051a565b151561037857600080fd5b6001546000546003546040805191825251600160a060020a039384169392909216917f66389f1f3251c39e71cb18351daefea45bda23e98df0767266b8aed4ff9382779181900360200190a342600355565b600054600160a060020a031633146103e157600080fd5b60008054604051600160a060020a03909116917fd40b9d9a7572411aff4bbb95ba7bd9a9d4e9b70747ec46f8fe7913c309b6845291a26000600355565b60025481565b600054600160a060020a031681565b600154600160a060020a031681565b60035481565b600054600160a060020a0316331461045f57600080fd5b6104676103ca565b6001805473ffffffffffffffffffffffffffffffffffffffff19169055565b600054600160a060020a0316331461049d57600080fd5b600160a060020a03811615156104b257600080fd5b60008054604051600160a060020a03808516939216917f8be0079c531659141344cd1fd0a4f28419497f9722a3daafe3b4186f6b6457e091a36000805473ffffffffffffffffffffffffffffffffffffffff1916600160a060020a0392909216919091179055565b60035415905600a165627a7a7230582085c432be23f5c2541969180dd8a61cc17133e50051d568e5be2409e2615a8de60029",
  "source": "pragma solidity ^0.4.11;\n\n\nimport \"./Ownable.sol\";\n\n\n/**\n * @title Heritable\n * @dev The Heritable contract provides ownership transfer capabilities, in the\n * case that the current owner stops \"heartbeating\". Only the heir can pronounce the\n * owner's death.\n */\ncontract Heritable is Ownable {\n  address public heir;\n\n  // Time window the owner has to notify they are alive.\n  uint256 public heartbeatTimeout;\n\n  // Timestamp of the owner's death, as pronounced by the heir.\n  uint256 public timeOfDeath;\n\n  event HeirChanged(address indexed owner, address indexed newHeir);\n  event OwnerHeartbeated(address indexed owner);\n  event OwnerProclaimedDead(address indexed owner, address indexed heir, uint256 timeOfDeath);\n  event HeirOwnershipClaimed(address indexed previousOwner, address indexed newOwner);\n\n\n  /**\n   * @dev Throw an exception if called by any account other than the heir's.\n   */\n  modifier onlyHeir() {\n    require(msg.sender == heir);\n    _;\n  }\n\n\n  /**\n   * @notice Create a new Heritable Contract with heir address 0x0.\n   * @param _heartbeatTimeout time available for the owner to notify they are alive,\n   * before the heir can take ownership.\n   */\n  function Heritable(uint256 _heartbeatTimeout) public {\n    setHeartbeatTimeout(_heartbeatTimeout);\n  }\n\n  function setHeir(address newHeir) public onlyOwner {\n    require(newHeir != owner);\n    heartbeat();\n    HeirChanged(owner, newHeir);\n    heir = newHeir;\n  }\n\n  /**\n   * @dev set heir = 0x0\n   */\n  function removeHeir() public onlyOwner {\n    heartbeat();\n    heir = 0;\n  }\n\n  /**\n   * @dev Heir can pronounce the owners death. To claim the ownership, they will\n   * have to wait for `heartbeatTimeout` seconds.\n   */\n  function proclaimDeath() public onlyHeir {\n    require(ownerLives());\n    OwnerProclaimedDead(owner, heir, timeOfDeath);\n    timeOfDeath = now;\n  }\n\n  /**\n   * @dev Owner can send a heartbeat if they were mistakenly pronounced dead.\n   */\n  function heartbeat() public onlyOwner {\n    OwnerHeartbeated(owner);\n    timeOfDeath = 0;\n  }\n\n  /**\n   * @dev Allows heir to transfer ownership only if heartbeat has timed out.\n   */\n  function claimHeirOwnership() public onlyHeir {\n    require(!ownerLives());\n    require(now >= timeOfDeath + heartbeatTimeout);\n    OwnershipTransferred(owner, heir);\n    HeirOwnershipClaimed(owner, heir);\n    owner = heir;\n    timeOfDeath = 0;\n  }\n\n  function setHeartbeatTimeout(uint256 newHeartbeatTimeout) internal onlyOwner {\n    require(ownerLives());\n    heartbeatTimeout = newHeartbeatTimeout;\n  }\n\n  function ownerLives() internal view returns (bool) {\n    return timeOfDeath == 0;\n  }\n}\n",
  "sourcePath": "/Users/achiko/Documents/elva/projects/kittiefight/KittieSITE/contracts/openzeppelin-solidity/ownership/Heritable.sol",
  "compiler": {
    "name": "solc",
    "version": "0.4.24+commit.e67f0147.Emscripten.clang"
  },
  "schemaVersion": "2.0.1",
  "updatedAt": "2018-11-05T14:07:26.242Z"
}