{
  "contractName": "KittiefightToken_with_ERC865",
  "abi": [
    {
      "inputs": [],
      "payable": false,
      "stateMutability": "nonpayable",
      "type": "constructor"
    },
    {
      "anonymous": false,
      "inputs": [
        {
          "indexed": true,
          "internalType": "address",
          "name": "owner",
          "type": "address"
        },
        {
          "indexed": true,
          "internalType": "address",
          "name": "spender",
          "type": "address"
        },
        {
          "indexed": false,
          "internalType": "uint256",
          "name": "value",
          "type": "uint256"
        }
      ],
      "name": "Approval",
      "type": "event"
    },
    {
      "anonymous": false,
      "inputs": [
        {
          "indexed": true,
          "internalType": "address",
          "name": "from",
          "type": "address"
        },
        {
          "indexed": true,
          "internalType": "address",
          "name": "to",
          "type": "address"
        },
        {
          "indexed": true,
          "internalType": "address",
          "name": "delegate",
          "type": "address"
        },
        {
          "indexed": false,
          "internalType": "uint256",
          "name": "amount",
          "type": "uint256"
        },
        {
          "indexed": false,
          "internalType": "uint256",
          "name": "fee",
          "type": "uint256"
        }
      ],
      "name": "ApprovalPreSigned",
      "type": "event"
    },
    {
      "anonymous": false,
      "inputs": [
        {
          "indexed": true,
          "internalType": "address",
          "name": "to",
          "type": "address"
        },
        {
          "indexed": false,
          "internalType": "uint256",
          "name": "amount",
          "type": "uint256"
        }
      ],
      "name": "Mint",
      "type": "event"
    },
    {
      "anonymous": false,
      "inputs": [],
      "name": "MintFinished",
      "type": "event"
    },
    {
      "anonymous": false,
      "inputs": [
        {
          "indexed": true,
          "internalType": "address",
          "name": "previousOwner",
          "type": "address"
        },
        {
          "indexed": true,
          "internalType": "address",
          "name": "newOwner",
          "type": "address"
        }
      ],
      "name": "OwnershipTransferred",
      "type": "event"
    },
    {
      "anonymous": false,
      "inputs": [],
      "name": "Pause",
      "type": "event"
    },
    {
      "anonymous": false,
      "inputs": [
        {
          "indexed": true,
          "internalType": "address",
          "name": "from",
          "type": "address"
        },
        {
          "indexed": true,
          "internalType": "address",
          "name": "to",
          "type": "address"
        },
        {
          "indexed": false,
          "internalType": "uint256",
          "name": "value",
          "type": "uint256"
        }
      ],
      "name": "Transfer",
      "type": "event"
    },
    {
      "anonymous": false,
      "inputs": [
        {
          "indexed": true,
          "internalType": "address",
          "name": "from",
          "type": "address"
        },
        {
          "indexed": true,
          "internalType": "address",
          "name": "to",
          "type": "address"
        },
        {
          "indexed": true,
          "internalType": "address",
          "name": "delegate",
          "type": "address"
        },
        {
          "indexed": false,
          "internalType": "uint256",
          "name": "amount",
          "type": "uint256"
        },
        {
          "indexed": false,
          "internalType": "uint256",
          "name": "fee",
          "type": "uint256"
        }
      ],
      "name": "TransferPreSigned",
      "type": "event"
    },
    {
      "anonymous": false,
      "inputs": [
        {
          "indexed": false,
          "internalType": "bool",
          "name": "flag",
          "type": "bool"
        }
      ],
      "name": "TransferWhitelistOnly",
      "type": "event"
    },
    {
      "anonymous": false,
      "inputs": [],
      "name": "Unpause",
      "type": "event"
    },
    {
      "anonymous": false,
      "inputs": [
        {
          "indexed": false,
          "internalType": "address",
          "name": "user",
          "type": "address"
        }
      ],
      "name": "UserAllowedToTransfer",
      "type": "event"
    },
    {
      "constant": true,
      "inputs": [
        {
          "internalType": "address",
          "name": "_owner",
          "type": "address"
        },
        {
          "internalType": "address",
          "name": "_spender",
          "type": "address"
        }
      ],
      "name": "allowance",
      "outputs": [
        {
          "internalType": "uint256",
          "name": "",
          "type": "uint256"
        }
      ],
      "payable": false,
      "stateMutability": "view",
      "type": "function"
    },
    {
      "constant": true,
      "inputs": [],
      "name": "amountOfTokenToMint",
      "outputs": [
        {
          "internalType": "uint256",
          "name": "",
          "type": "uint256"
        }
      ],
      "payable": false,
      "stateMutability": "view",
      "type": "function"
    },
    {
      "constant": false,
      "inputs": [
        {
          "internalType": "address",
          "name": "_spender",
          "type": "address"
        },
        {
          "internalType": "uint256",
          "name": "_value",
          "type": "uint256"
        }
      ],
      "name": "approve",
      "outputs": [
        {
          "internalType": "bool",
          "name": "",
          "type": "bool"
        }
      ],
      "payable": false,
      "stateMutability": "nonpayable",
      "type": "function"
    },
    {
      "constant": true,
      "inputs": [
        {
          "internalType": "address",
          "name": "_token",
          "type": "address"
        },
        {
          "internalType": "address",
          "name": "_spender",
          "type": "address"
        },
        {
          "internalType": "uint256",
          "name": "_value",
          "type": "uint256"
        },
        {
          "internalType": "uint256",
          "name": "_fee",
          "type": "uint256"
        },
        {
          "internalType": "uint256",
          "name": "_nonce",
          "type": "uint256"
        }
      ],
      "name": "approvePreSignedHashing",
      "outputs": [
        {
          "internalType": "bytes32",
          "name": "",
          "type": "bytes32"
        }
      ],
      "payable": false,
      "stateMutability": "pure",
      "type": "function"
    },
    {
      "constant": true,
      "inputs": [
        {
          "internalType": "address",
          "name": "_owner",
          "type": "address"
        }
      ],
      "name": "balanceOf",
      "outputs": [
        {
          "internalType": "uint256",
          "name": "balance",
          "type": "uint256"
        }
      ],
      "payable": false,
      "stateMutability": "view",
      "type": "function"
    },
    {
      "constant": true,
      "inputs": [],
      "name": "cap",
      "outputs": [
        {
          "internalType": "uint256",
          "name": "",
          "type": "uint256"
        }
      ],
      "payable": false,
      "stateMutability": "view",
      "type": "function"
    },
    {
      "constant": true,
      "inputs": [],
      "name": "decimals",
      "outputs": [
        {
          "internalType": "uint8",
          "name": "",
          "type": "uint8"
        }
      ],
      "payable": false,
      "stateMutability": "view",
      "type": "function"
    },
    {
      "constant": false,
      "inputs": [
        {
          "internalType": "address",
          "name": "_spender",
          "type": "address"
        },
        {
          "internalType": "uint256",
          "name": "_subtractedValue",
          "type": "uint256"
        }
      ],
      "name": "decreaseApproval",
      "outputs": [
        {
          "internalType": "bool",
          "name": "success",
          "type": "bool"
        }
      ],
      "payable": false,
      "stateMutability": "nonpayable",
      "type": "function"
    },
    {
      "constant": false,
      "inputs": [
        {
          "internalType": "bytes",
          "name": "_signature",
          "type": "bytes"
        },
        {
          "internalType": "address",
          "name": "_spender",
          "type": "address"
        },
        {
          "internalType": "uint256",
          "name": "_subtractedValue",
          "type": "uint256"
        },
        {
          "internalType": "uint256",
          "name": "_fee",
          "type": "uint256"
        },
        {
          "internalType": "uint256",
          "name": "_nonce",
          "type": "uint256"
        }
      ],
      "name": "decreaseApprovalPreSigned",
      "outputs": [
        {
          "internalType": "bool",
          "name": "",
          "type": "bool"
        }
      ],
      "payable": false,
      "stateMutability": "nonpayable",
      "type": "function"
    },
    {
      "constant": true,
      "inputs": [
        {
          "internalType": "address",
          "name": "_token",
          "type": "address"
        },
        {
          "internalType": "address",
          "name": "_spender",
          "type": "address"
        },
        {
          "internalType": "uint256",
          "name": "_subtractedValue",
          "type": "uint256"
        },
        {
          "internalType": "uint256",
          "name": "_fee",
          "type": "uint256"
        },
        {
          "internalType": "uint256",
          "name": "_nonce",
          "type": "uint256"
        }
      ],
      "name": "decreaseApprovalPreSignedHashing",
      "outputs": [
        {
          "internalType": "bytes32",
          "name": "",
          "type": "bytes32"
        }
      ],
      "payable": false,
      "stateMutability": "pure",
      "type": "function"
    },
    {
      "constant": false,
      "inputs": [],
      "name": "finishMinting",
      "outputs": [
        {
          "internalType": "bool",
          "name": "",
          "type": "bool"
        }
      ],
      "payable": false,
      "stateMutability": "nonpayable",
      "type": "function"
    },
    {
      "constant": false,
      "inputs": [
        {
          "internalType": "address",
          "name": "_spender",
          "type": "address"
        },
        {
          "internalType": "uint256",
          "name": "_addedValue",
          "type": "uint256"
        }
      ],
      "name": "increaseApproval",
      "outputs": [
        {
          "internalType": "bool",
          "name": "success",
          "type": "bool"
        }
      ],
      "payable": false,
      "stateMutability": "nonpayable",
      "type": "function"
    },
    {
      "constant": false,
      "inputs": [
        {
          "internalType": "bytes",
          "name": "_signature",
          "type": "bytes"
        },
        {
          "internalType": "address",
          "name": "_spender",
          "type": "address"
        },
        {
          "internalType": "uint256",
          "name": "_addedValue",
          "type": "uint256"
        },
        {
          "internalType": "uint256",
          "name": "_fee",
          "type": "uint256"
        },
        {
          "internalType": "uint256",
          "name": "_nonce",
          "type": "uint256"
        }
      ],
      "name": "increaseApprovalPreSigned",
      "outputs": [
        {
          "internalType": "bool",
          "name": "",
          "type": "bool"
        }
      ],
      "payable": false,
      "stateMutability": "nonpayable",
      "type": "function"
    },
    {
      "constant": true,
      "inputs": [
        {
          "internalType": "address",
          "name": "_token",
          "type": "address"
        },
        {
          "internalType": "address",
          "name": "_spender",
          "type": "address"
        },
        {
          "internalType": "uint256",
          "name": "_addedValue",
          "type": "uint256"
        },
        {
          "internalType": "uint256",
          "name": "_fee",
          "type": "uint256"
        },
        {
          "internalType": "uint256",
          "name": "_nonce",
          "type": "uint256"
        }
      ],
      "name": "increaseApprovalPreSignedHashing",
      "outputs": [
        {
          "internalType": "bytes32",
          "name": "",
          "type": "bytes32"
        }
      ],
      "payable": false,
      "stateMutability": "pure",
      "type": "function"
    },
    {
      "constant": true,
      "inputs": [],
      "name": "isTransferWhitelistOnly",
      "outputs": [
        {
          "internalType": "bool",
          "name": "",
          "type": "bool"
        }
      ],
      "payable": false,
      "stateMutability": "view",
      "type": "function"
    },
    {
      "constant": false,
      "inputs": [
        {
          "internalType": "address",
          "name": "_to",
          "type": "address"
        },
        {
          "internalType": "uint256",
          "name": "_amount",
          "type": "uint256"
        }
      ],
      "name": "mint",
      "outputs": [
        {
          "internalType": "bool",
          "name": "",
          "type": "bool"
        }
      ],
      "payable": false,
      "stateMutability": "nonpayable",
      "type": "function"
    },
    {
      "constant": true,
      "inputs": [],
      "name": "mintingFinished",
      "outputs": [
        {
          "internalType": "bool",
          "name": "",
          "type": "bool"
        }
      ],
      "payable": false,
      "stateMutability": "view",
      "type": "function"
    },
    {
      "constant": true,
      "inputs": [],
      "name": "name",
      "outputs": [
        {
          "internalType": "string",
          "name": "",
          "type": "string"
        }
      ],
      "payable": false,
      "stateMutability": "view",
      "type": "function"
    },
    {
      "constant": true,
      "inputs": [],
      "name": "owner",
      "outputs": [
        {
          "internalType": "address",
          "name": "",
          "type": "address"
        }
      ],
      "payable": false,
      "stateMutability": "view",
      "type": "function"
    },
    {
      "constant": false,
      "inputs": [],
      "name": "pause",
      "outputs": [],
      "payable": false,
      "stateMutability": "nonpayable",
      "type": "function"
    },
    {
      "constant": true,
      "inputs": [],
      "name": "paused",
      "outputs": [
        {
          "internalType": "bool",
          "name": "",
          "type": "bool"
        }
      ],
      "payable": false,
      "stateMutability": "view",
      "type": "function"
    },
    {
      "constant": true,
      "inputs": [
        {
          "internalType": "bytes32",
          "name": "hash",
          "type": "bytes32"
        },
        {
          "internalType": "bytes",
          "name": "sig",
          "type": "bytes"
        }
      ],
      "name": "recover",
      "outputs": [
        {
          "internalType": "address",
          "name": "",
          "type": "address"
        }
      ],
      "payable": false,
      "stateMutability": "pure",
      "type": "function"
    },
    {
      "constant": true,
      "inputs": [],
      "name": "symbol",
      "outputs": [
        {
          "internalType": "string",
          "name": "",
          "type": "string"
        }
      ],
      "payable": false,
      "stateMutability": "view",
      "type": "function"
    },
    {
      "constant": true,
      "inputs": [],
      "name": "totalSupply",
      "outputs": [
        {
          "internalType": "uint256",
          "name": "",
          "type": "uint256"
        }
      ],
      "payable": false,
      "stateMutability": "view",
      "type": "function"
    },
    {
      "constant": false,
      "inputs": [
        {
          "internalType": "bytes",
          "name": "_signature",
          "type": "bytes"
        },
        {
          "internalType": "address",
          "name": "_from",
          "type": "address"
        },
        {
          "internalType": "address",
          "name": "_to",
          "type": "address"
        },
        {
          "internalType": "uint256",
          "name": "_value",
          "type": "uint256"
        },
        {
          "internalType": "uint256",
          "name": "_fee",
          "type": "uint256"
        },
        {
          "internalType": "uint256",
          "name": "_nonce",
          "type": "uint256"
        }
      ],
      "name": "transferFromPreSigned",
      "outputs": [
        {
          "internalType": "bool",
          "name": "",
          "type": "bool"
        }
      ],
      "payable": false,
      "stateMutability": "nonpayable",
      "type": "function"
    },
    {
      "constant": true,
      "inputs": [
        {
          "internalType": "address",
          "name": "_token",
          "type": "address"
        },
        {
          "internalType": "address",
          "name": "_from",
          "type": "address"
        },
        {
          "internalType": "address",
          "name": "_to",
          "type": "address"
        },
        {
          "internalType": "uint256",
          "name": "_value",
          "type": "uint256"
        },
        {
          "internalType": "uint256",
          "name": "_fee",
          "type": "uint256"
        },
        {
          "internalType": "uint256",
          "name": "_nonce",
          "type": "uint256"
        }
      ],
      "name": "transferFromPreSignedHashing",
      "outputs": [
        {
          "internalType": "bytes32",
          "name": "",
          "type": "bytes32"
        }
      ],
      "payable": false,
      "stateMutability": "pure",
      "type": "function"
    },
    {
      "constant": false,
      "inputs": [
        {
          "internalType": "address",
          "name": "newOwner",
          "type": "address"
        }
      ],
      "name": "transferOwnership",
      "outputs": [],
      "payable": false,
      "stateMutability": "nonpayable",
      "type": "function"
    },
    {
      "constant": true,
      "inputs": [
        {
          "internalType": "address",
          "name": "_token",
          "type": "address"
        },
        {
          "internalType": "address",
          "name": "_to",
          "type": "address"
        },
        {
          "internalType": "uint256",
          "name": "_value",
          "type": "uint256"
        },
        {
          "internalType": "uint256",
          "name": "_fee",
          "type": "uint256"
        },
        {
          "internalType": "uint256",
          "name": "_nonce",
          "type": "uint256"
        }
      ],
      "name": "transferPreSignedHashing",
      "outputs": [
        {
          "internalType": "bytes32",
          "name": "",
          "type": "bytes32"
        }
      ],
      "payable": false,
      "stateMutability": "pure",
      "type": "function"
    },
    {
      "constant": false,
      "inputs": [],
      "name": "unpause",
      "outputs": [],
      "payable": false,
      "stateMutability": "nonpayable",
      "type": "function"
    },
    {
      "constant": true,
      "inputs": [
        {
          "internalType": "address",
          "name": "_user",
          "type": "address"
        }
      ],
      "name": "isUserAllowedToTransfer",
      "outputs": [
        {
          "internalType": "bool",
          "name": "",
          "type": "bool"
        }
      ],
      "payable": false,
      "stateMutability": "view",
      "type": "function"
    },
    {
      "constant": false,
      "inputs": [
        {
          "internalType": "bool",
          "name": "_isWhitelistOnly",
          "type": "bool"
        }
      ],
      "name": "setWhitelistedOnly",
      "outputs": [],
      "payable": false,
      "stateMutability": "nonpayable",
      "type": "function"
    },
    {
      "constant": false,
      "inputs": [
        {
          "internalType": "address",
          "name": "_user",
          "type": "address"
        }
      ],
      "name": "whitelistUserForTransfers",
      "outputs": [],
      "payable": false,
      "stateMutability": "nonpayable",
      "type": "function"
    },
    {
      "constant": false,
      "inputs": [
        {
          "internalType": "address",
          "name": "_user",
          "type": "address"
        }
      ],
      "name": "blacklistUserForTransfers",
      "outputs": [],
      "payable": false,
      "stateMutability": "nonpayable",
      "type": "function"
    },
    {
      "constant": false,
      "inputs": [
        {
          "internalType": "address",
          "name": "_to",
          "type": "address"
        },
        {
          "internalType": "uint256",
          "name": "_value",
          "type": "uint256"
        }
      ],
      "name": "transfer",
      "outputs": [
        {
          "internalType": "bool",
          "name": "",
          "type": "bool"
        }
      ],
      "payable": false,
      "stateMutability": "nonpayable",
      "type": "function"
    },
    {
      "constant": false,
      "inputs": [
        {
          "internalType": "address",
          "name": "_from",
          "type": "address"
        },
        {
          "internalType": "address",
          "name": "_to",
          "type": "address"
        },
        {
          "internalType": "uint256",
          "name": "_value",
          "type": "uint256"
        }
      ],
      "name": "transferFrom",
      "outputs": [
        {
          "internalType": "bool",
          "name": "",
          "type": "bool"
        }
      ],
      "payable": false,
      "stateMutability": "nonpayable",
      "type": "function"
    },
    {
      "constant": false,
      "inputs": [
        {
          "internalType": "bytes",
          "name": "_signature",
          "type": "bytes"
        },
        {
          "internalType": "address",
          "name": "_to",
          "type": "address"
        },
        {
          "internalType": "uint256",
          "name": "_value",
          "type": "uint256"
        },
        {
          "internalType": "uint256",
          "name": "_fee",
          "type": "uint256"
        },
        {
          "internalType": "uint256",
          "name": "_nonce",
          "type": "uint256"
        }
      ],
      "name": "transferPreSigned",
      "outputs": [
        {
          "internalType": "bool",
          "name": "",
          "type": "bool"
        }
      ],
      "payable": false,
      "stateMutability": "nonpayable",
      "type": "function"
    },
    {
      "constant": false,
      "inputs": [
        {
          "internalType": "bytes",
          "name": "_signature",
          "type": "bytes"
        },
        {
          "internalType": "address",
          "name": "_spender",
          "type": "address"
        },
        {
          "internalType": "uint256",
          "name": "_value",
          "type": "uint256"
        },
        {
          "internalType": "uint256",
          "name": "_fee",
          "type": "uint256"
        },
        {
          "internalType": "uint256",
          "name": "_nonce",
          "type": "uint256"
        }
      ],
      "name": "approvePreSigned",
      "outputs": [
        {
          "internalType": "bool",
          "name": "",
          "type": "bool"
        }
      ],
      "payable": false,
      "stateMutability": "nonpayable",
      "type": "function"
    }
  ],
  "bytecode": "0x60806040526004805461ffff60a01b191690556006805460ff1916905534801561002857600080fd5b50600480546001600160a01b031916331790556a52b7d2dcc80cd2e4000000600555612c98806100596000396000f3fe608060405234801561001057600080fd5b50600436106102275760003560e01c80636618846311610130578063a45f71ff116100b8578063d73dd6231161007c578063d73dd62314610a51578063dd62ed3e14610a7d578063f2fde38b14610aab578063f7ac9c2e14610ad1578063fb37baa114610b1357610227565b8063a45f71ff14610817578063a9059cbb14610859578063adb8249e14610885578063b7656dc514610943578063bca505151461098b57610227565b80638be52783116100ff5780638be52783146107045780638da5cb5b146107c257806395d89b41146107ca578063a157696b146107d2578063a25b9384146107f157610227565b806366188463146106a257806370a08231146106ce5780637d64bcb4146106f45780638456cb59146106fc57610227565b80632b2be309116101b357806340c10f191161018257806340c10f19146105665780635478bc6b1461059257806359388d781461059a5780635c975abb146105dc578063617b390b146105e457610227565b80632b2be30914610530578063313ce56714610538578063355274ea146105565780633f4ba83a1461055e57610227565b806315420b71116101fa57806315420b71146103af57806318160ddd1461040357806319045a251461040b57806323b872dd146104d2578063260d387b1461050857610227565b806305d2035b1461022c57806306fdde0314610248578063095ea7b3146102c55780631296830d146102f1575b600080fd5b610234610b39565b604080519115158252519081900360200190f35b610250610b49565b6040805160208082528351818301528351919283929083019185019080838360005b8381101561028a578181015183820152602001610272565b50505050905090810190601f1680156102b75780820380516001836020036101000a031916815260200191505b509250505060405180910390f35b610234600480360360408110156102db57600080fd5b506001600160a01b038135169060200135610b70565b610234600480360360a081101561030757600080fd5b810190602081018135600160201b81111561032157600080fd5b82018360208201111561033357600080fd5b803590602001918460018302840111600160201b8311171561035457600080fd5b91908080601f016020809104026020016040519081016040528093929190818152602001838380828437600092019190915250929550506001600160a01b038335169350505060208101359060408101359060600135610b9d565b6103f1600480360360a08110156103c557600080fd5b506001600160a01b03813581169160208101359091169060408101359060608101359060800135610c0d565b60408051918252519081900360200190f35b6103f1610c76565b6104b66004803603604081101561042157600080fd5b81359190810190604081016020820135600160201b81111561044257600080fd5b82018360208201111561045457600080fd5b803590602001918460018302840111600160201b8311171561047557600080fd5b91908080601f016020809104026020016040519081016040528093929190818152602001838380828437600092019190915250929550610c7c945050505050565b604080516001600160a01b039092168252519081900360200190f35b610234600480360360608110156104e857600080fd5b506001600160a01b03813581169160208101359091169060400135610c97565b61052e6004803603602081101561051e57600080fd5b50356001600160a01b0316610cca565b005b610234610d4b565b610540610d54565b6040805160ff9092168252519081900360200190f35b6103f1610d59565b61052e610d5f565b6102346004803603604081101561057c57600080fd5b506001600160a01b038135169060200135610dc4565b6103f1610e20565b6103f1600480360360a08110156105b057600080fd5b506001600160a01b03813581169160208101359091169060408101359060608101359060800135610e2f565b610234610e98565b610234600480360360a08110156105fa57600080fd5b810190602081018135600160201b81111561061457600080fd5b82018360208201111561062657600080fd5b803590602001918460018302840111600160201b8311171561064757600080fd5b91908080601f016020809104026020016040519081016040528093929190818152602001838380828437600092019190915250929550506001600160a01b038335169350505060208101359060408101359060600135610ea8565b610234600480360360408110156106b857600080fd5b506001600160a01b038135169060200135610f0e565b6103f1600480360360208110156106e457600080fd5b50356001600160a01b0316610f32565b610234610f4d565b61052e610fc0565b610234600480360360a081101561071a57600080fd5b810190602081018135600160201b81111561073457600080fd5b82018360208201111561074657600080fd5b803590602001918460018302840111600160201b8311171561076757600080fd5b91908080601f016020809104026020016040519081016040528093929190818152602001838380828437600092019190915250929550506001600160a01b03833516935050506020810135906040810135906060013561102c565b6104b66113fb565b61025061140a565b61052e600480360360208110156107e857600080fd5b50351515611429565b6102346004803603602081101561080757600080fd5b50356001600160a01b0316611498565b6103f1600480360360a081101561082d57600080fd5b506001600160a01b038135811691602081013590911690604081013590606081013590608001356114cc565b6102346004803603604081101561086f57600080fd5b506001600160a01b038135169060200135611535565b610234600480360360a081101561089b57600080fd5b810190602081018135600160201b8111156108b557600080fd5b8201836020820111156108c757600080fd5b803590602001918460018302840111600160201b831117156108e857600080fd5b91908080601f016020809104026020016040519081016040528093929190818152602001838380828437600092019190915250929550506001600160a01b03833516935050506020810135906040810135906060013561155f565b6103f1600480360360c081101561095957600080fd5b506001600160a01b03813581169160208101358216916040820135169060608101359060808101359060a00135611905565b610234600480360360c08110156109a157600080fd5b810190602081018135600160201b8111156109bb57600080fd5b8201836020820111156109cd57600080fd5b803590602001918460018302840111600160201b831117156109ee57600080fd5b91908080601f016020809104026020016040519081016040528093929190818152602001838380828437600092019190915250929550506001600160a01b0383358116945060208401351692604081013592506060810135915060800135611973565b61023460048036036040811015610a6757600080fd5b506001600160a01b038135169060200135611d13565b6103f160048036036040811015610a9357600080fd5b506001600160a01b0381358116916020013516611d37565b61052e60048036036020811015610ac157600080fd5b50356001600160a01b0316611d62565b6103f1600480360360a0811015610ae757600080fd5b506001600160a01b03813581169160208101359091169060408101359060608101359060800135611de8565b61052e60048036036020811015610b2957600080fd5b50356001600160a01b0316611e51565b600454600160a81b900460ff1681565b6040518060400160405280600b81526020016a12da5d1d1a59599a59da1d60aa1b81525081565b600454600090600160a01b900460ff1615610b8a57600080fd5b610b948383611ed6565b90505b92915050565b600454600090600160a01b900460ff1615610bb757600080fd5b60065460ff1615610bf6576000610bd13087878787610c0d565b90506000610bdf8289610c7c565b9050610bea81611498565b610bf357600080fd5b50505b610c038686868686611f2a565b9695505050505050565b60408051632433260b60e11b6020808301919091526001600160601b0319606089811b8216602485015288901b166038830152604c8201869052606c8201859052608c8083018590528351808403909101815260ac909201909252805191012095945050505050565b60015490565b6000610b9482610c8b8561229d565b9063ffffffff6122ee16565b60065460009060ff1615610cb757610cae84611498565b610cb757600080fd5b610cc28484846123dc565b949350505050565b6004546001600160a01b03163314610ce157600080fd5b610cea81611498565b610cf357600080fd5b6001600160a01b038116600081815260076020908152604091829020805460ff19169055815192835290517fad88aec34f4861d5a8a34d064eba1c3ce7222a541db6a6cfbcef0e6aa0dac53c9281900390910190a150565b60065460ff1681565b601281565b60055481565b6004546001600160a01b03163314610d7657600080fd5b600454600160a01b900460ff16610d8c57600080fd5b6004805460ff60a01b191690556040517f7805862f689e2f13df9f062ff482ad3ad112aca9e0847911ed832e158c525b3390600090a1565b6004546000906001600160a01b03163314610dde57600080fd5b600454600160a81b900460ff1615610df557600080fd5b600554600154610e0b908463ffffffff61240116565b1115610e1657600080fd5b610b948383612410565b6a52b7d2dcc80cd2e400000081565b60408051630b2711af60e31b6020808301919091526001600160601b0319606089811b8216602485015288901b166038830152604c8201869052606c8201859052608c8083018590528351808403909101815260ac909201909252805191012095945050505050565b600454600160a01b900460ff1681565b600454600090600160a01b900460ff1615610ec257600080fd5b60065460ff1615610f01576000610edc3087878787611de8565b90506000610eea8289610c7c565b9050610ef581611498565b610efe57600080fd5b50505b610c038686868686612508565b600454600090600160a01b900460ff1615610f2857600080fd5b610b948383612858565b6001600160a01b031660009081526020819052604090205490565b6004546000906001600160a01b03163314610f6757600080fd5b600454600160a81b900460ff1615610f7e57600080fd5b6004805460ff60a81b1916600160a81b1790556040517fae5184fba832cb2b1f702aca6117b8d265eaf03ad33eb133f19dde0f5920fa0890600090a150600190565b6004546001600160a01b03163314610fd757600080fd5b600454600160a01b900460ff1615610fee57600080fd5b6004805460ff60a01b1916600160a01b1790556040517f6985a02210a168e66602d3235cb6db0e70f92b3ba4d376a33c0f3d9434bff62590600090a1565b60006001600160a01b038516611089576040805162461bcd60e51b815260206004820152601f60248201527f5370656e6465722061646472657373206973206e6f742070726f766964656400604482015290519081900360640190fd5b6003866040518082805190602001908083835b602083106110bb5780518252601f19909201916020918201910161109c565b51815160209384036101000a600019018019909216911617905292019485525060405193849003019092205460ff1615915061112f9050576040805162461bcd60e51b815260206004820152600c60248201526b4e6f20736f676e617475726560a01b604482015290519081900360640190fd5b600061113e3087878787610e2f565b9050600061114c8289610c7c565b90506001600160a01b0381166111a9576040805162461bcd60e51b815260206004820152601c60248201527f46726f6d2061646472657373206973206e6f742070726f766964656400000000604482015290519081900360640190fd5b6001600160a01b038082166000908152600260209081526040808320938b168352929052205480871115611204576001600160a01b038083166000908152600260209081526040808320938c1683529290529081205561123b565b611214818863ffffffff61293616565b6001600160a01b038084166000908152600260209081526040808320938d16835292905220555b6001600160a01b038216600090815260208190526040902054611264908763ffffffff61293616565b6001600160a01b038316600090815260208190526040808220929092553381522054611296908763ffffffff61240116565b600080336001600160a01b03166001600160a01b0316815260200190815260200160002081905550600160038a6040518082805190602001908083835b602083106112f25780518252601f1990920191602091820191016112d3565b51815160209384036101000a6000190180199092169116179052920194855250604080519485900382018520805460ff1916961515969096179095558b845293516001600160a01b038d81169590881694600080516020612c448339815191529450829003019150a360408051878152905133916001600160a01b03851691600080516020612c248339815191529181900360200190a36001600160a01b038281166000818152600260209081526040808320948d16808452948252918290205482519081529081018a90528151339493927f43a220267705e74ee2ceafd46afc841850db6f85a662189a7def697bbdd90ffb928290030190a450600198975050505050505050565b6004546001600160a01b031681565b604051806040016040528060038152602001624b545960e81b81525081565b6004546001600160a01b0316331461144057600080fd5b60065460ff16151581151514611495576006805482151560ff19909116811790915560408051918252517f757db31e37ddce6c8bda07399e53891f513ac7cacd86ae8f781bab706c74d45f9181900360200190a15b50565b60006001600160a01b0382166114ad57600080fd5b506001600160a01b031660009081526007602052604090205460ff1690565b6040805163a45f71ff60e01b6020808301919091526001600160601b0319606089811b8216602485015288901b166038830152604c8201869052606c8201859052608c8083018590528351808403909101815260ac909201909252805191012095945050505050565b60065460009060ff16156115555761154c33611498565b61155557600080fd5b610b948383612948565b60006001600160a01b0385166115bc576040805162461bcd60e51b815260206004820152601f60248201527f5370656e6465722061646472657373206973206e6f742070726f766964656400604482015290519081900360640190fd5b6003866040518082805190602001908083835b602083106115ee5780518252601f1990920191602091820191016115cf565b51815160209384036101000a600019018019909216911617905292019485525060405193849003019092205460ff161591506116629050576040805162461bcd60e51b815260206004820152600c60248201526b4e6f205369676e617475726560a01b604482015290519081900360640190fd5b600061167130878787876114cc565b9050600061167f8289610c7c565b90506001600160a01b0381166116dc576040805162461bcd60e51b815260206004820152601c60248201527f46726f6d2061646472657373206973206e6f742070726f766964656400000000604482015290519081900360640190fd5b6001600160a01b038082166000908152600260209081526040808320938b1683529290522054611712908763ffffffff61240116565b6001600160a01b038083166000818152600260209081526040808320948d1683529381528382209490945590815291829052902054611757908663ffffffff61293616565b6001600160a01b038216600090815260208190526040808220929092553381522054611789908663ffffffff61240116565b600080336001600160a01b03166001600160a01b031681526020019081526020016000208190555060016003896040518082805190602001908083835b602083106117e55780518252601f1990920191602091820191016117c6565b51815160209384036101000a6000190180199092169116179052920194855250604080519485900382018520805460ff1916961515969096179095556001600160a01b03868116600081815260028452878120928f168082529284528790205486529551909594600080516020612c4483398151915294508190039091019150a360408051868152905133916001600160a01b03841691600080516020612c248339815191529181900360200190a36001600160a01b038181166000818152600260209081526040808320948c16808452948252918290205482519081529081018990528151339493927f43a220267705e74ee2ceafd46afc841850db6f85a662189a7def697bbdd90ffb928290030190a4506001979650505050505050565b6040805163b7656dc560e01b6020808301919091526001600160601b03196060998a1b8116602484015297891b8816603883015295881b909616604c87015295850192909252608084015260a0808401919091528351808403909101815260c0909201909252805191012090565b60006001600160a01b0385166119d0576040805162461bcd60e51b815260206004820152601860248201527f4e6f205b746f5d20616464726573732070726f76696465640000000000000000604482015290519081900360640190fd5b6003876040518082805190602001908083835b60208310611a025780518252601f1990920191602091820191016119e3565b51815160209384036101000a600019018019909216911617905292019485525060405193849003019092205460ff16159150611a7f9050576040805162461bcd60e51b8152602060048201526015602482015274139bc81cda59db985d1d5c99481c1c9bdd9a591959605a1b604482015290519081900360640190fd5b6000611a8f308888888888611905565b90506000611a9d828a610c7c565b90506001600160a01b038116611afa576040805162461bcd60e51b815260206004820152601f60248201527f5370656e6465722061646472657373206973206e6f742070726f766964656400604482015290519081900360640190fd5b6001600160a01b038816600090815260208190526040902054611b23908763ffffffff61293616565b6001600160a01b03808a166000908152602081905260408082209390935590891681522054611b58908763ffffffff61240116565b6001600160a01b03808916600090815260208181526040808320949094558b83168252600281528382209285168252919091522054611b9d908763ffffffff61293616565b6001600160a01b03808a16600090815260026020908152604080832093861683529281528282209390935591829052902054611bdf908663ffffffff61293616565b6001600160a01b038216600090815260208190526040808220929092553381522054611c11908663ffffffff61240116565b600080336001600160a01b03166001600160a01b0316815260200190815260200160002081905550600160038a6040518082805190602001908083835b60208310611c6d5780518252601f199092019160209182019101611c4e565b51815160209384036101000a6000190180199092169116179052920194855250604080519485900382018520805460ff1916961515969096179095558a845293516001600160a01b038c811695908e1694600080516020612c248339815191529450829003019150a360408051868152905133916001600160a01b03841691600080516020612c248339815191529181900360200190a350600198975050505050505050565b600454600090600160a01b900460ff1615611d2d57600080fd5b610b94838361296c565b6001600160a01b03918216600090815260026020908152604080832093909416825291909152205490565b6004546001600160a01b03163314611d7957600080fd5b6001600160a01b038116611d8c57600080fd5b6004546040516001600160a01b038084169216907f8be0079c531659141344cd1fd0a4f28419497f9722a3daafe3b4186f6b6457e090600090a3600480546001600160a01b0319166001600160a01b0392909216919091179055565b60408051637bd64e1760e11b6020808301919091526001600160601b0319606089811b8216602485015288901b166038830152604c8201869052606c8201859052608c8083018590528351808403909101815260ac909201909252805191012095945050505050565b6004546001600160a01b03163314611e6857600080fd5b611e7181611498565b15611e7b57600080fd5b6001600160a01b038116600081815260076020908152604091829020805460ff19166001179055815192835290517fad88aec34f4861d5a8a34d064eba1c3ce7222a541db6a6cfbcef0e6aa0dac53c9281900390910190a150565b3360008181526002602090815260408083206001600160a01b03871680855290835281842086905581518681529151939490939092600080516020612c44833981519152928290030190a350600192915050565b60006001600160a01b038516611f7d576040805162461bcd60e51b8152602060048201526013602482015272139bc81859191c995cdcc81c1c9bdd9a591959606a1b604482015290519081900360640190fd5b6003866040518082805190602001908083835b60208310611faf5780518252601f199092019160209182019101611f90565b51815160209384036101000a600019018019909216911617905292019485525060405193849003019092205460ff161591506120239050576040805162461bcd60e51b815260206004820152600c60248201526b4e6f207369676e617475726560a01b604482015290519081900360640190fd5b60006120323087878787610c0d565b905060006120408289610c7c565b90506001600160a01b03811661209d576040805162461bcd60e51b815260206004820152601c60248201527f46726f6d2061646472657373206973206e6f742070726f766964656400000000604482015290519081900360640190fd5b6001600160a01b0381166000908152602081905260409020546120d89086906120cc908963ffffffff61293616565b9063ffffffff61293616565b6001600160a01b03808316600090815260208190526040808220939093559089168152205461210d908763ffffffff61240116565b6001600160a01b03881660009081526020819052604080822092909255338152205461213f908663ffffffff61240116565b600080336001600160a01b03166001600160a01b031681526020019081526020016000208190555060016003896040518082805190602001908083835b6020831061219b5780518252601f19909201916020918201910161217c565b51815160209384036101000a6000190180199092169116179052920194855250604080519485900382018520805460ff1916961515969096179095558a845293516001600160a01b038c81169590871694600080516020612c248339815191529450829003019150a360408051868152905133916001600160a01b03841691600080516020612c248339815191529181900360200190a3336001600160a01b0316876001600160a01b0316826001600160a01b03167fec5a73fd1f178be20c1bca1b406cbf4b5c20d833b66e582fc122fb4baa0fc2a48989604051808381526020018281526020019250505060405180910390a4506001979650505050505050565b604080517f19457468657265756d205369676e6564204d6573736167653a0a333200000000602080830191909152603c8083019490945282518083039094018452605c909101909152815191012090565b6000815160411461230157506000610b97565b60208201516040830151606084015160001a7f7fffffffffffffffffffffffffffffff5d576e7357a4501ddfe92f46681b20a08211156123475760009350505050610b97565b8060ff16601b1415801561235f57508060ff16601c14155b156123705760009350505050610b97565b6040805160008152602080820180845289905260ff8416828401526060820186905260808201859052915160019260a0808401939192601f1981019281900390910190855afa1580156123c7573d6000803e3d6000fd5b5050604051601f190151979650505050505050565b600454600090600160a01b900460ff16156123f657600080fd5b610cc28484846129f3565b600082820183811015610b9457fe5b6004546000906001600160a01b0316331461242a57600080fd5b600454600160a81b900460ff161561244157600080fd5b600154612454908363ffffffff61240116565b6001556001600160a01b038316600090815260208190526040902054612480908363ffffffff61240116565b6001600160a01b03841660008181526020818152604091829020939093558051858152905191927f0f6798a560793a54c3bcfe86a93cde1e73087d944c0ea20544137d412139688592918290030190a26040805183815290516001600160a01b03851691600091600080516020612c248339815191529181900360200190a350600192915050565b60006001600160a01b038516612565576040805162461bcd60e51b815260206004820152601760248201527f5370656e646572206973206e6f742070726f7669646564000000000000000000604482015290519081900360640190fd5b6003866040518082805190602001908083835b602083106125975780518252601f199092019160209182019101612578565b51815160209384036101000a600019018019909216911617905292019485525060405193849003019092205460ff1615915061260b9050576040805162461bcd60e51b815260206004820152600c60248201526b4e6f207369676e617475726560a01b604482015290519081900360640190fd5b600061261a3087878787611de8565b905060006126288289610c7c565b90506001600160a01b038116612685576040805162461bcd60e51b815260206004820152601b60248201527f46726f6d20616464726573206973206e6f742070726f76696465640000000000604482015290519081900360640190fd5b6001600160a01b038082166000818152600260209081526040808320948c1683529381528382208a90559181529081905220546126c8908663ffffffff61293616565b6001600160a01b0382166000908152602081905260408082209290925533815220546126fa908663ffffffff61240116565b600080336001600160a01b03166001600160a01b031681526020019081526020016000208190555060016003896040518082805190602001908083835b602083106127565780518252601f199092019160209182019101612737565b51815160209384036101000a6000190180199092169116179052920194855250604080519485900382018520805460ff1916961515969096179095558a845293516001600160a01b038c81169590871694600080516020612c448339815191529450829003019150a360408051868152905133916001600160a01b03841691600080516020612c248339815191529181900360200190a3336001600160a01b0316876001600160a01b0316826001600160a01b03167f43a220267705e74ee2ceafd46afc841850db6f85a662189a7def697bbdd90ffb8989604051808381526020018281526020019250505060405180910390a4506001979650505050505050565b3360009081526002602090815260408083206001600160a01b0386168452909152812054808311156128ad573360009081526002602090815260408083206001600160a01b03881684529091528120556128e2565b6128bd818463ffffffff61293616565b3360009081526002602090815260408083206001600160a01b03891684529091529020555b3360008181526002602090815260408083206001600160a01b038916808552908352928190205481519081529051929392600080516020612c44833981519152929181900390910190a35060019392505050565b60008282111561294257fe5b50900390565b600454600090600160a01b900460ff161561296257600080fd5b610b948383612b56565b3360009081526002602090815260408083206001600160a01b03861684529091528120546129a0908363ffffffff61240116565b3360008181526002602090815260408083206001600160a01b038916808552908352928190208590558051948552519193600080516020612c44833981519152929081900390910190a350600192915050565b60006001600160a01b038316612a0857600080fd5b6001600160a01b038416600090815260208190526040902054821115612a2d57600080fd5b6001600160a01b0384166000908152600260209081526040808320338452909152902054821115612a5d57600080fd5b6001600160a01b038416600090815260208190526040902054612a86908363ffffffff61293616565b6001600160a01b038086166000908152602081905260408082209390935590851681522054612abb908363ffffffff61240116565b6001600160a01b03808516600090815260208181526040808320949094559187168152600282528281203382529091522054612afd908363ffffffff61293616565b6001600160a01b0380861660008181526002602090815260408083203384528252918290209490945580518681529051928716939192600080516020612c24833981519152929181900390910190a35060019392505050565b60006001600160a01b038316612b6b57600080fd5b33600090815260208190526040902054821115612b8757600080fd5b33600090815260208190526040902054612ba7908363ffffffff61293616565b33600090815260208190526040808220929092556001600160a01b03851681522054612bd9908363ffffffff61240116565b6001600160a01b03841660008181526020818152604091829020939093558051858152905191923392600080516020612c248339815191529281900390910190a35060019291505056feddf252ad1be2c89b69c2b068fc378daa952ba7f163c4a11628f55a4df523b3ef8c5be1e5ebec7d5bd14f71427d1e84f3dd0314c0f7b2291e5b200ac8c7c3b925a265627a7a723158204074262216abefdcff3b6d7fde5074c4b6f631d3ac01283940b765e7ccdd34bb64736f6c634300050d0032",
  "source": "pragma solidity ^0.5.10;\n\nimport \"../../openzeppelin-solidity/token/ERC20/PausableToken.sol\";\nimport \"../../openzeppelin-solidity/token/ERC20/CappedToken.sol\";\nimport \"./ERC865Token.sol\";\n\n/**\n * @title Kittiefight Token\n * @dev ERC20 Token (KTY)\n *\n * KTY are divisible by 1e18 base\n *\n * KTY are displayed using 18 decimal places of precision.\n *\n * 100 milion KTY (total supply)\n *\n */\n\ncontract KittiefightToken_with_ERC865 is ERC865Token, PausableToken, CappedToken {\n\n    /* Set the token name for display */\n    string public constant symbol = \"KTY\";\n\n    /* Set the token symbol for display */\n    string public constant name = \"Kittiefight\";\n\n    /* Set the number of decimals for display */\n    uint8 public constant decimals = 18;\n\n    /* 100 milion KTY specified */\n    uint256 public constant amountOfTokenToMint = 10**8 * 10**uint256(decimals);\n\n    /* Is crowdsale filtering non registered users. false by default */\n    bool public isTransferWhitelistOnly = false;\n\n    /* Mapping of whitelisted users */\n    mapping (address => bool) transfersWhitelist;\n\n    event UserAllowedToTransfer(address user);\n\n    event TransferWhitelistOnly(bool flag);\n\n\n    constructor() CappedToken(amountOfTokenToMint) public {\n        \n    }\n\n    /**\n     * @notice Is the address allowed to transfer\n     * @return true if the sender can transfer\n     */\n    function isUserAllowedToTransfer(address _user) public view returns (bool) {\n        require(_user != address(0));\n        return transfersWhitelist[_user];\n    }\n\n    /**\n     * @notice Enabling / Disabling transfers of non whitelisted users\n     */\n    function setWhitelistedOnly(bool _isWhitelistOnly) onlyOwner public {\n        if (isTransferWhitelistOnly != _isWhitelistOnly) {\n            isTransferWhitelistOnly = _isWhitelistOnly;\n            emit TransferWhitelistOnly(_isWhitelistOnly);\n        }\n    }\n\n    /**\n     * @notice Adding a user to the whitelist\n     */\n    function whitelistUserForTransfers(address _user) onlyOwner public {\n        require(!isUserAllowedToTransfer(_user));\n        transfersWhitelist[_user] = true;\n        emit UserAllowedToTransfer(_user);\n    }\n\n    /**\n     * @notice Remove a user from the whitelist\n     */\n    function blacklistUserForTransfers(address _user) onlyOwner public {\n        require(isUserAllowedToTransfer(_user));\n        transfersWhitelist[_user] = false;\n        emit UserAllowedToTransfer(_user);\n    }\n\n    /**\n    * @notice transfer token for a specified address\n    * @param _to The address to transfer to.\n    * @param _value The amount to be transferred.\n    */\n    function transfer(address _to, uint256 _value) public returns (bool) {\n      if (isTransferWhitelistOnly) {\n        require(isUserAllowedToTransfer(msg.sender));\n      }\n      return super.transfer(_to, _value);\n    }\n\n    /**\n     * @notice Transfer tokens from one address to another\n     * @param _from address The address which you want to send tokens from\n     * @param _to address The address which you want to transfer to\n     * @param _value uint256 the amount of tokens to be transferred\n     */\n    function transferFrom(address _from, address _to, uint256 _value) public returns (bool) {\n        if (isTransferWhitelistOnly) {\n            require(isUserAllowedToTransfer(_from));\n        }\n        return super.transferFrom(_from, _to, _value);\n    }\n\n    /**\n     * @notice Submit a presigned transfer\n     * @param _signature bytes The signature, issued by the owner.\n     * @param _to address The address which you want to transfer to.\n     * @param _value uint256 The amount of tokens to be transferred.\n     * @param _fee uint256 The amount of tokens paid to msg.sender, by the owner.\n     * @param _nonce uint256 Presigned transaction number.\n     */\n    function transferPreSigned(\n        bytes memory _signature,\n        address _to,\n        uint256 _value,\n        uint256 _fee,\n        uint256 _nonce\n    )\n        whenNotPaused\n        public\n        returns (bool)\n    {\n        if (isTransferWhitelistOnly) {\n            bytes32 hashedTx = super.transferPreSignedHashing(address(this), _to, _value, _fee, _nonce);\n            address from = recover(hashedTx, _signature);\n            require(isUserAllowedToTransfer(from));\n        }\n        return super.transferPreSigned(_signature, _to, _value, _fee, _nonce);\n    }\n\n    /**\n     * @notice Submit a presigned approval\n     * @param _signature bytes The signature, issued by the owner.\n     * @param _spender address The address which will spend the funds.\n     * @param _value uint256 The amount of tokens to allow.\n     * @param _fee uint256 The amount of tokens paid to msg.sender, by the owner.\n     * @param _nonce uint256 Presigned transaction number.\n     */\n    function approvePreSigned(\n        bytes memory _signature,\n        address _spender,\n        uint256 _value,\n        uint256 _fee,\n        uint256 _nonce\n    )\n        whenNotPaused\n        public\n        returns (bool)\n    {\n        if (isTransferWhitelistOnly) {\n            bytes32 hashedTx = super.approvePreSignedHashing(address(this), _spender, _value, _fee, _nonce);\n            address from = recover(hashedTx, _signature);\n            require(isUserAllowedToTransfer(from));\n        }\n        return super.approvePreSigned(_signature, _spender, _value, _fee, _nonce);\n    }\n}\n",
  "sourcePath": "D:/projects/kittiefight/token/DutchAuction/contracts/ERC865/token/KittiefightToken_with_ERC865.sol",
  "compiler": {
    "name": "solc",
    "version": "0.5.13+commit.5b0b510c.Emscripten.clang"
  },
  "schemaVersion": "3.0.16",
  "updatedAt": "2019-11-20T23:53:24.270Z",
  "devdoc": {
    "details": "ERC20 Token (KTY) * KTY are divisible by 1e18 base * KTY are displayed using 18 decimal places of precision. * 100 milion KTY (total supply) ",
    "methods": {
      "allowance(address,address)": {
        "details": "Function to check the amount of tokens that an owner allowed to a spender.",
        "params": {
          "_owner": "address The address which owns the funds.",
          "_spender": "address The address which will spend the funds."
        },
        "return": "A uint256 specifying the amount of tokens still available for the spender."
      },
      "approvePreSigned(bytes,address,uint256,uint256,uint256)": {
        "params": {
          "_fee": "uint256 The amount of tokens paid to msg.sender, by the owner.",
          "_nonce": "uint256 Presigned transaction number.",
          "_signature": "bytes The signature, issued by the owner.",
          "_spender": "address The address which will spend the funds.",
          "_value": "uint256 The amount of tokens to allow."
        }
      },
      "approvePreSignedHashing(address,address,uint256,uint256,uint256)": {
        "params": {
          "_fee": "uint256 The amount of tokens paid to msg.sender, by the owner.",
          "_nonce": "uint256 Presigned transaction number.",
          "_spender": "address The address which will spend the funds.",
          "_token": "address The address of the token",
          "_value": "uint256 The amount of tokens to allow."
        }
      },
      "balanceOf(address)": {
        "details": "Gets the balance of the specified address.",
        "params": {
          "_owner": "The address to query the the balance of."
        },
        "return": "An uint256 representing the amount owned by the passed address."
      },
      "decreaseApprovalPreSigned(bytes,address,uint256,uint256,uint256)": {
        "params": {
          "_fee": "uint256 The amount of tokens paid to msg.sender, by the owner.",
          "_nonce": "uint256 Presigned transaction number.",
          "_signature": "bytes The signature, issued by the owner",
          "_spender": "address The address which will spend the funds.",
          "_subtractedValue": "uint256 The amount of tokens to decrease the allowance by."
        }
      },
      "decreaseApprovalPreSignedHashing(address,address,uint256,uint256,uint256)": {
        "params": {
          "_fee": "uint256 The amount of tokens paid to msg.sender, by the owner.",
          "_nonce": "uint256 Presigned transaction number.",
          "_spender": "address The address which will spend the funds.",
          "_subtractedValue": "uint256 The amount of tokens to decrease the allowance by.",
          "_token": "address The address of the token"
        }
      },
      "finishMinting()": {
        "details": "Function to stop minting new tokens.",
        "return": "True if the operation was successful."
      },
      "increaseApprovalPreSigned(bytes,address,uint256,uint256,uint256)": {
        "params": {
          "_addedValue": "uint256 The amount of tokens to increase the allowance by.",
          "_fee": "uint256 The amount of tokens paid to msg.sender, by the owner.",
          "_nonce": "uint256 Presigned transaction number.",
          "_signature": "bytes The signature, issued by the owner.",
          "_spender": "address The address which will spend the funds."
        }
      },
      "increaseApprovalPreSignedHashing(address,address,uint256,uint256,uint256)": {
        "params": {
          "_addedValue": "uint256 The amount of tokens to increase the allowance by.",
          "_fee": "uint256 The amount of tokens paid to msg.sender, by the owner.",
          "_nonce": "uint256 Presigned transaction number.",
          "_spender": "address The address which will spend the funds.",
          "_token": "address The address of the token"
        }
      },
      "isUserAllowedToTransfer(address)": {
        "return": "true if the sender can transfer"
      },
      "mint(address,uint256)": {
        "details": "Function to mint tokens",
        "params": {
          "_amount": "The amount of tokens to mint.",
          "_to": "The address that will receive the minted tokens."
        },
        "return": "A boolean that indicates if the operation was successful."
      },
      "pause()": {
        "details": "called by the owner to pause, triggers stopped state"
      },
      "recover(bytes32,bytes)": {
        "params": {
          "hash": "bytes32 message, the hash is the signed message. What is recovered is the signer address.",
          "sig": "bytes signature, the signature is generated using web3.eth.sign()"
        }
      },
      "totalSupply()": {
        "details": "total number of tokens in existence"
      },
      "transfer(address,uint256)": {
        "params": {
          "_to": "The address to transfer to.",
          "_value": "The amount to be transferred."
        }
      },
      "transferFrom(address,address,uint256)": {
        "params": {
          "_from": "address The address which you want to send tokens from",
          "_to": "address The address which you want to transfer to",
          "_value": "uint256 the amount of tokens to be transferred"
        }
      },
      "transferFromPreSigned(bytes,address,address,uint256,uint256,uint256)": {
        "params": {
          "_fee": "uint256 The amount of tokens paid to msg.sender, by the spender.",
          "_from": "address The address which you want to send tokens from.",
          "_nonce": "uint256 Presigned transaction number.",
          "_signature": "bytes The signature, issued by the spender.",
          "_to": "address The address which you want to transfer to.",
          "_value": "uint256 The amount of tokens to be transferred."
        }
      },
      "transferFromPreSignedHashing(address,address,address,uint256,uint256,uint256)": {
        "params": {
          "_fee": "uint256 The amount of tokens paid to msg.sender, by the spender.",
          "_from": "address The address which you want to send tokens from.",
          "_nonce": "uint256 Presigned transaction number.",
          "_to": "address The address which you want to transfer to.",
          "_token": "address The address of the token",
          "_value": "uint256 The amount of tokens to be transferred."
        }
      },
      "transferOwnership(address)": {
        "details": "Allows the current owner to transfer control of the contract to a newOwner.",
        "params": {
          "newOwner": "The address to transfer ownership to."
        }
      },
      "transferPreSigned(bytes,address,uint256,uint256,uint256)": {
        "params": {
          "_fee": "uint256 The amount of tokens paid to msg.sender, by the owner.",
          "_nonce": "uint256 Presigned transaction number.",
          "_signature": "bytes The signature, issued by the owner.",
          "_to": "address The address which you want to transfer to.",
          "_value": "uint256 The amount of tokens to be transferred."
        }
      },
      "transferPreSignedHashing(address,address,uint256,uint256,uint256)": {
        "params": {
          "_fee": "uint256 The amount of tokens paid to msg.sender, by the owner.",
          "_nonce": "uint256 Presigned transaction number.",
          "_to": "address The address which you want to transfer to.",
          "_token": "address The address of the token.",
          "_value": "uint256 The amount of tokens to be transferred."
        }
      },
      "unpause()": {
        "details": "called by the owner to unpause, returns to normal state"
      }
    },
    "title": "Kittiefight Token"
  },
  "userdoc": {
    "methods": {
      "approvePreSigned(bytes,address,uint256,uint256,uint256)": {
        "notice": "Submit a presigned approval"
      },
      "approvePreSignedHashing(address,address,uint256,uint256,uint256)": {
        "notice": "Hash (keccak256) of the payload used by approvePreSigned"
      },
      "blacklistUserForTransfers(address)": {
        "notice": "Remove a user from the whitelist"
      },
      "decreaseApprovalPreSigned(bytes,address,uint256,uint256,uint256)": {
        "notice": "Decrease the amount of tokens that an owner allowed to a spender."
      },
      "decreaseApprovalPreSignedHashing(address,address,uint256,uint256,uint256)": {
        "notice": "Hash (keccak256) of the payload used by decreaseApprovalPreSigned"
      },
      "increaseApprovalPreSigned(bytes,address,uint256,uint256,uint256)": {
        "notice": "Increase the amount of tokens that an owner allowed to a spender."
      },
      "increaseApprovalPreSignedHashing(address,address,uint256,uint256,uint256)": {
        "notice": "Hash (keccak256) of the payload used by increaseApprovalPreSigned"
      },
      "isUserAllowedToTransfer(address)": {
        "notice": "Is the address allowed to transfer"
      },
      "recover(bytes32,bytes)": {
        "notice": "Recover signer address from a message by using his signature"
      },
      "setWhitelistedOnly(bool)": {
        "notice": "Enabling / Disabling transfers of non whitelisted users"
      },
      "transfer(address,uint256)": {
        "notice": "transfer token for a specified address"
      },
      "transferFrom(address,address,uint256)": {
        "notice": "Transfer tokens from one address to another"
      },
      "transferFromPreSigned(bytes,address,address,uint256,uint256,uint256)": {
        "notice": "Transfer tokens from one address to another"
      },
      "transferFromPreSignedHashing(address,address,address,uint256,uint256,uint256)": {
        "notice": "Hash (keccak256) of the payload used by transferFromPreSigned"
      },
      "transferPreSigned(bytes,address,uint256,uint256,uint256)": {
        "notice": "Submit a presigned transfer"
      },
      "transferPreSignedHashing(address,address,uint256,uint256,uint256)": {
        "notice": "Hash (keccak256) of the payload used by transferPreSigned"
      },
      "whitelistUserForTransfers(address)": {
        "notice": "Adding a user to the whitelist"
      }
    }
  }
}