{
  "contractName": "KittiefightToken",
  "abi": [
    {
      "constant": true,
      "inputs": [],
      "name": "mintingFinished",
      "outputs": [
        {
          "name": "",
          "type": "bool"
        }
      ],
      "payable": false,
      "stateMutability": "view",
      "type": "function"
    },
    {
      "constant": true,
      "inputs": [],
      "name": "name",
      "outputs": [
        {
          "name": "",
          "type": "string"
        }
      ],
      "payable": false,
      "stateMutability": "view",
      "type": "function"
    },
    {
      "constant": false,
      "inputs": [
        {
          "name": "_spender",
          "type": "address"
        },
        {
          "name": "_value",
          "type": "uint256"
        }
      ],
      "name": "approve",
      "outputs": [
        {
          "name": "",
          "type": "bool"
        }
      ],
      "payable": false,
      "stateMutability": "nonpayable",
      "type": "function"
    },
    {
      "constant": true,
      "inputs": [
        {
          "name": "_token",
          "type": "address"
        },
        {
          "name": "_to",
          "type": "address"
        },
        {
          "name": "_value",
          "type": "uint256"
        },
        {
          "name": "_fee",
          "type": "uint256"
        },
        {
          "name": "_nonce",
          "type": "uint256"
        }
      ],
      "name": "transferPreSignedHashing",
      "outputs": [
        {
          "name": "",
          "type": "bytes32"
        }
      ],
      "payable": false,
      "stateMutability": "pure",
      "type": "function"
    },
    {
      "constant": true,
      "inputs": [],
      "name": "totalSupply",
      "outputs": [
        {
          "name": "",
          "type": "uint256"
        }
      ],
      "payable": false,
      "stateMutability": "view",
      "type": "function"
    },
    {
      "constant": true,
      "inputs": [
        {
          "name": "hash",
          "type": "bytes32"
        },
        {
          "name": "sig",
          "type": "bytes"
        }
      ],
      "name": "recover",
      "outputs": [
        {
          "name": "",
          "type": "address"
        }
      ],
      "payable": false,
      "stateMutability": "pure",
      "type": "function"
    },
    {
      "constant": true,
      "inputs": [],
      "name": "isTransferWhitelistOnly",
      "outputs": [
        {
          "name": "",
          "type": "bool"
        }
      ],
      "payable": false,
      "stateMutability": "view",
      "type": "function"
    },
    {
      "constant": true,
      "inputs": [],
      "name": "decimals",
      "outputs": [
        {
          "name": "",
          "type": "uint8"
        }
      ],
      "payable": false,
      "stateMutability": "view",
      "type": "function"
    },
    {
      "constant": false,
      "inputs": [],
      "name": "unpause",
      "outputs": [],
      "payable": false,
      "stateMutability": "nonpayable",
      "type": "function"
    },
    {
      "constant": false,
      "inputs": [
        {
          "name": "_to",
          "type": "address"
        },
        {
          "name": "_amount",
          "type": "uint256"
        }
      ],
      "name": "mint",
      "outputs": [
        {
          "name": "",
          "type": "bool"
        }
      ],
      "payable": false,
      "stateMutability": "nonpayable",
      "type": "function"
    },
    {
      "constant": true,
      "inputs": [],
      "name": "amountOfTokenToMint",
      "outputs": [
        {
          "name": "",
          "type": "uint256"
        }
      ],
      "payable": false,
      "stateMutability": "view",
      "type": "function"
    },
    {
      "constant": true,
      "inputs": [
        {
          "name": "_token",
          "type": "address"
        },
        {
          "name": "_spender",
          "type": "address"
        },
        {
          "name": "_subtractedValue",
          "type": "uint256"
        },
        {
          "name": "_fee",
          "type": "uint256"
        },
        {
          "name": "_nonce",
          "type": "uint256"
        }
      ],
      "name": "decreaseApprovalPreSignedHashing",
      "outputs": [
        {
          "name": "",
          "type": "bytes32"
        }
      ],
      "payable": false,
      "stateMutability": "pure",
      "type": "function"
    },
    {
      "constant": true,
      "inputs": [],
      "name": "paused",
      "outputs": [
        {
          "name": "",
          "type": "bool"
        }
      ],
      "payable": false,
      "stateMutability": "view",
      "type": "function"
    },
    {
      "constant": false,
      "inputs": [
        {
          "name": "_spender",
          "type": "address"
        },
        {
          "name": "_subtractedValue",
          "type": "uint256"
        }
      ],
      "name": "decreaseApproval",
      "outputs": [
        {
          "name": "success",
          "type": "bool"
        }
      ],
      "payable": false,
      "stateMutability": "nonpayable",
      "type": "function"
    },
    {
      "constant": true,
      "inputs": [
        {
          "name": "_owner",
          "type": "address"
        }
      ],
      "name": "balanceOf",
      "outputs": [
        {
          "name": "balance",
          "type": "uint256"
        }
      ],
      "payable": false,
      "stateMutability": "view",
      "type": "function"
    },
    {
      "constant": false,
      "inputs": [],
      "name": "finishMinting",
      "outputs": [
        {
          "name": "",
          "type": "bool"
        }
      ],
      "payable": false,
      "stateMutability": "nonpayable",
      "type": "function"
    },
    {
      "constant": false,
      "inputs": [],
      "name": "pause",
      "outputs": [],
      "payable": false,
      "stateMutability": "nonpayable",
      "type": "function"
    },
    {
      "constant": false,
      "inputs": [
        {
          "name": "_signature",
          "type": "bytes"
        },
        {
          "name": "_spender",
          "type": "address"
        },
        {
          "name": "_subtractedValue",
          "type": "uint256"
        },
        {
          "name": "_fee",
          "type": "uint256"
        },
        {
          "name": "_nonce",
          "type": "uint256"
        }
      ],
      "name": "decreaseApprovalPreSigned",
      "outputs": [
        {
          "name": "",
          "type": "bool"
        }
      ],
      "payable": false,
      "stateMutability": "nonpayable",
      "type": "function"
    },
    {
      "constant": true,
      "inputs": [],
      "name": "owner",
      "outputs": [
        {
          "name": "",
          "type": "address"
        }
      ],
      "payable": false,
      "stateMutability": "view",
      "type": "function"
    },
    {
      "constant": true,
      "inputs": [],
      "name": "symbol",
      "outputs": [
        {
          "name": "",
          "type": "string"
        }
      ],
      "payable": false,
      "stateMutability": "view",
      "type": "function"
    },
    {
      "constant": true,
      "inputs": [
        {
          "name": "_token",
          "type": "address"
        },
        {
          "name": "_spender",
          "type": "address"
        },
        {
          "name": "_addedValue",
          "type": "uint256"
        },
        {
          "name": "_fee",
          "type": "uint256"
        },
        {
          "name": "_nonce",
          "type": "uint256"
        }
      ],
      "name": "increaseApprovalPreSignedHashing",
      "outputs": [
        {
          "name": "",
          "type": "bytes32"
        }
      ],
      "payable": false,
      "stateMutability": "pure",
      "type": "function"
    },
    {
      "constant": false,
      "inputs": [
        {
          "name": "_signature",
          "type": "bytes"
        },
        {
          "name": "_spender",
          "type": "address"
        },
        {
          "name": "_addedValue",
          "type": "uint256"
        },
        {
          "name": "_fee",
          "type": "uint256"
        },
        {
          "name": "_nonce",
          "type": "uint256"
        }
      ],
      "name": "increaseApprovalPreSigned",
      "outputs": [
        {
          "name": "",
          "type": "bool"
        }
      ],
      "payable": false,
      "stateMutability": "nonpayable",
      "type": "function"
    },
    {
      "constant": true,
      "inputs": [
        {
          "name": "_token",
          "type": "address"
        },
        {
          "name": "_from",
          "type": "address"
        },
        {
          "name": "_to",
          "type": "address"
        },
        {
          "name": "_value",
          "type": "uint256"
        },
        {
          "name": "_fee",
          "type": "uint256"
        },
        {
          "name": "_nonce",
          "type": "uint256"
        }
      ],
      "name": "transferFromPreSignedHashing",
      "outputs": [
        {
          "name": "",
          "type": "bytes32"
        }
      ],
      "payable": false,
      "stateMutability": "pure",
      "type": "function"
    },
    {
      "constant": false,
      "inputs": [
        {
          "name": "_signature",
          "type": "bytes"
        },
        {
          "name": "_from",
          "type": "address"
        },
        {
          "name": "_to",
          "type": "address"
        },
        {
          "name": "_value",
          "type": "uint256"
        },
        {
          "name": "_fee",
          "type": "uint256"
        },
        {
          "name": "_nonce",
          "type": "uint256"
        }
      ],
      "name": "transferFromPreSigned",
      "outputs": [
        {
          "name": "",
          "type": "bool"
        }
      ],
      "payable": false,
      "stateMutability": "nonpayable",
      "type": "function"
    },
    {
      "constant": false,
      "inputs": [
        {
          "name": "_spender",
          "type": "address"
        },
        {
          "name": "_addedValue",
          "type": "uint256"
        }
      ],
      "name": "increaseApproval",
      "outputs": [
        {
          "name": "success",
          "type": "bool"
        }
      ],
      "payable": false,
      "stateMutability": "nonpayable",
      "type": "function"
    },
    {
      "constant": true,
      "inputs": [
        {
          "name": "_owner",
          "type": "address"
        },
        {
          "name": "_spender",
          "type": "address"
        }
      ],
      "name": "allowance",
      "outputs": [
        {
          "name": "",
          "type": "uint256"
        }
      ],
      "payable": false,
      "stateMutability": "view",
      "type": "function"
    },
    {
      "constant": false,
      "inputs": [
        {
          "name": "newOwner",
          "type": "address"
        }
      ],
      "name": "transferOwnership",
      "outputs": [],
      "payable": false,
      "stateMutability": "nonpayable",
      "type": "function"
    },
    {
      "constant": true,
      "inputs": [
        {
          "name": "_token",
          "type": "address"
        },
        {
          "name": "_spender",
          "type": "address"
        },
        {
          "name": "_value",
          "type": "uint256"
        },
        {
          "name": "_fee",
          "type": "uint256"
        },
        {
          "name": "_nonce",
          "type": "uint256"
        }
      ],
      "name": "approvePreSignedHashing",
      "outputs": [
        {
          "name": "",
          "type": "bytes32"
        }
      ],
      "payable": false,
      "stateMutability": "pure",
      "type": "function"
    },
    {
      "anonymous": false,
      "inputs": [
        {
          "indexed": false,
          "name": "user",
          "type": "address"
        }
      ],
      "name": "UserAllowedToTransfer",
      "type": "event"
    },
    {
      "anonymous": false,
      "inputs": [
        {
          "indexed": false,
          "name": "flag",
          "type": "bool"
        }
      ],
      "name": "TransferWhitelistOnly",
      "type": "event"
    },
    {
      "anonymous": false,
      "inputs": [
        {
          "indexed": true,
          "name": "to",
          "type": "address"
        },
        {
          "indexed": false,
          "name": "amount",
          "type": "uint256"
        }
      ],
      "name": "Mint",
      "type": "event"
    },
    {
      "anonymous": false,
      "inputs": [],
      "name": "MintFinished",
      "type": "event"
    },
    {
      "anonymous": false,
      "inputs": [],
      "name": "Pause",
      "type": "event"
    },
    {
      "anonymous": false,
      "inputs": [],
      "name": "Unpause",
      "type": "event"
    },
    {
      "anonymous": false,
      "inputs": [
        {
          "indexed": true,
          "name": "previousOwner",
          "type": "address"
        },
        {
          "indexed": true,
          "name": "newOwner",
          "type": "address"
        }
      ],
      "name": "OwnershipTransferred",
      "type": "event"
    },
    {
      "anonymous": false,
      "inputs": [
        {
          "indexed": true,
          "name": "from",
          "type": "address"
        },
        {
          "indexed": true,
          "name": "to",
          "type": "address"
        },
        {
          "indexed": true,
          "name": "delegate",
          "type": "address"
        },
        {
          "indexed": false,
          "name": "amount",
          "type": "uint256"
        },
        {
          "indexed": false,
          "name": "fee",
          "type": "uint256"
        }
      ],
      "name": "TransferPreSigned",
      "type": "event"
    },
    {
      "anonymous": false,
      "inputs": [
        {
          "indexed": true,
          "name": "from",
          "type": "address"
        },
        {
          "indexed": true,
          "name": "to",
          "type": "address"
        },
        {
          "indexed": true,
          "name": "delegate",
          "type": "address"
        },
        {
          "indexed": false,
          "name": "amount",
          "type": "uint256"
        },
        {
          "indexed": false,
          "name": "fee",
          "type": "uint256"
        }
      ],
      "name": "ApprovalPreSigned",
      "type": "event"
    },
    {
      "anonymous": false,
      "inputs": [
        {
          "indexed": true,
          "name": "owner",
          "type": "address"
        },
        {
          "indexed": true,
          "name": "spender",
          "type": "address"
        },
        {
          "indexed": false,
          "name": "value",
          "type": "uint256"
        }
      ],
      "name": "Approval",
      "type": "event"
    },
    {
      "anonymous": false,
      "inputs": [
        {
          "indexed": true,
          "name": "from",
          "type": "address"
        },
        {
          "indexed": true,
          "name": "to",
          "type": "address"
        },
        {
          "indexed": false,
          "name": "value",
          "type": "uint256"
        }
      ],
      "name": "Transfer",
      "type": "event"
    },
    {
      "constant": true,
      "inputs": [
        {
          "name": "_user",
          "type": "address"
        }
      ],
      "name": "isUserAllowedToTransfer",
      "outputs": [
        {
          "name": "",
          "type": "bool"
        }
      ],
      "payable": false,
      "stateMutability": "view",
      "type": "function"
    },
    {
      "constant": false,
      "inputs": [
        {
          "name": "_isWhitelistOnly",
          "type": "bool"
        }
      ],
      "name": "setWhitelistedOnly",
      "outputs": [],
      "payable": false,
      "stateMutability": "nonpayable",
      "type": "function"
    },
    {
      "constant": false,
      "inputs": [
        {
          "name": "_user",
          "type": "address"
        }
      ],
      "name": "whitelistUserForTransfers",
      "outputs": [],
      "payable": false,
      "stateMutability": "nonpayable",
      "type": "function"
    },
    {
      "constant": false,
      "inputs": [
        {
          "name": "_user",
          "type": "address"
        }
      ],
      "name": "blacklistUserForTransfers",
      "outputs": [],
      "payable": false,
      "stateMutability": "nonpayable",
      "type": "function"
    },
    {
      "constant": false,
      "inputs": [
        {
          "name": "_to",
          "type": "address"
        },
        {
          "name": "_value",
          "type": "uint256"
        }
      ],
      "name": "transfer",
      "outputs": [
        {
          "name": "",
          "type": "bool"
        }
      ],
      "payable": false,
      "stateMutability": "nonpayable",
      "type": "function"
    },
    {
      "constant": false,
      "inputs": [
        {
          "name": "_from",
          "type": "address"
        },
        {
          "name": "_to",
          "type": "address"
        },
        {
          "name": "_value",
          "type": "uint256"
        }
      ],
      "name": "transferFrom",
      "outputs": [
        {
          "name": "",
          "type": "bool"
        }
      ],
      "payable": false,
      "stateMutability": "nonpayable",
      "type": "function"
    },
    {
      "constant": false,
      "inputs": [
        {
          "name": "_signature",
          "type": "bytes"
        },
        {
          "name": "_to",
          "type": "address"
        },
        {
          "name": "_value",
          "type": "uint256"
        },
        {
          "name": "_fee",
          "type": "uint256"
        },
        {
          "name": "_nonce",
          "type": "uint256"
        }
      ],
      "name": "transferPreSigned",
      "outputs": [
        {
          "name": "",
          "type": "bool"
        }
      ],
      "payable": false,
      "stateMutability": "nonpayable",
      "type": "function"
    },
    {
      "constant": false,
      "inputs": [
        {
          "name": "_signature",
          "type": "bytes"
        },
        {
          "name": "_spender",
          "type": "address"
        },
        {
          "name": "_value",
          "type": "uint256"
        },
        {
          "name": "_fee",
          "type": "uint256"
        },
        {
          "name": "_nonce",
          "type": "uint256"
        }
      ],
      "name": "approvePreSigned",
      "outputs": [
        {
          "name": "",
          "type": "bool"
        }
      ],
      "payable": false,
      "stateMutability": "nonpayable",
      "type": "function"
    }
  ],
  "bytecode": "0x608060405260048054600160b860020a03191633179055612cc1806100256000396000f3006080604052600436106101c15763ffffffff7c010000000000000000000000000000000000000000000000000000000060003504166305d2035b81146101c657806306fdde03146101ef578063095ea7b3146102795780631296830d1461029d57806315420b711461031057806318160ddd1461035257806319045a251461036757806323b872dd146103e1578063260d387b1461040b5780632b2be3091461042e578063313ce567146104435780633f4ba83a1461046e57806340c10f19146104835780635478bc6b146104a757806359388d78146104bc5780635c975abb146104ec578063617b390b14610501578063661884631461057457806370a08231146105985780637d64bcb4146105b95780638456cb59146105ce5780638be52783146105e35780638da5cb5b1461065657806395d89b411461066b578063a157696b14610680578063a25b93841461069a578063a45f71ff146106bb578063a9059cbb146106eb578063adb8249e1461070f578063b7656dc514610782578063bca50515146107b8578063d73dd62314610835578063dd62ed3e14610859578063f2fde38b14610880578063f7ac9c2e146108a1578063fb37baa1146108d1575b600080fd5b3480156101d257600080fd5b506101db6108f2565b604080519115158252519081900360200190f35b3480156101fb57600080fd5b50610204610914565b6040805160208082528351818301528351919283929083019185019080838360005b8381101561023e578181015183820152602001610226565b50505050905090810190601f16801561026b5780820380516001836020036101000a031916815260200191505b509250505060405180910390f35b34801561028557600080fd5b506101db600160a060020a036004351660243561094b565b3480156102a957600080fd5b506040805160206004803580820135601f81018490048402850184019095528484526101db94369492936024939284019190819084018382808284375094975050508335600160a060020a0316945050506020820135916040810135915060600135610976565b34801561031c57600080fd5b50610340600160a060020a03600435811690602435166044356064356084356109ee565b60408051918252519081900360200190f35b34801561035e57600080fd5b50610340610ad2565b34801561037357600080fd5b5060408051602060046024803582810135601f81018590048502860185019096528585526103c5958335953695604494919390910191908190840183828082843750949750610ad89650505050505050565b60408051600160a060020a039092168252519081900360200190f35b3480156103ed57600080fd5b506101db600160a060020a0360043581169060243516604435610bad565b34801561041757600080fd5b5061042c600160a060020a0360043516610be9565b005b34801561043a57600080fd5b506101db610c6c565b34801561044f57600080fd5b50610458610c7c565b6040805160ff9092168252519081900360200190f35b34801561047a57600080fd5b5061042c610c81565b34801561048f57600080fd5b506101db600160a060020a0360043516602435610cf9565b3480156104b357600080fd5b50610340610e03565b3480156104c857600080fd5b50610340600160a060020a0360043581169060243516604435606435608435610e12565b3480156104f857600080fd5b506101db610ebf565b34801561050d57600080fd5b506040805160206004803580820135601f81018490048402850184019095528484526101db94369492936024939284019190819084018382808284375094975050508335600160a060020a0316945050506020820135916040810135915060600135610ecf565b34801561058057600080fd5b506101db600160a060020a0360043516602435610f3b565b3480156105a457600080fd5b50610340600160a060020a0360043516610f5f565b3480156105c557600080fd5b506101db610f7a565b3480156105da57600080fd5b5061042c611023565b3480156105ef57600080fd5b506040805160206004803580820135601f81018490048402850184019095528484526101db94369492936024939284019190819084018382808284375094975050508335600160a060020a03169450505060208201359160408101359150606001356110a0565b34801561066257600080fd5b506103c561148d565b34801561067757600080fd5b5061020461149c565b34801561068c57600080fd5b5061042c60043515156114d3565b3480156106a657600080fd5b506101db600160a060020a0360043516611569565b3480156106c757600080fd5b50610340600160a060020a036004358116906024351660443560643560843561159f565b3480156106f757600080fd5b506101db600160a060020a036004351660243561164c565b34801561071b57600080fd5b506040805160206004803580820135601f81018490048402850184019095528484526101db94369492936024939284019190819084018382808284375094975050508335600160a060020a031694505050602082013591604081013591506060013561167f565b34801561078e57600080fd5b50610340600160a060020a036004358116906024358116906044351660643560843560a435611a41565b3480156107c457600080fd5b506040805160206004803580820135601f81018490048402850184019095528484526101db94369492936024939284019190819084018382808284375094975050600160a060020a03853581169650602086013516946040810135945060608101359350608001359150611b309050565b34801561084157600080fd5b506101db600160a060020a0360043516602435611ee3565b34801561086557600080fd5b50610340600160a060020a0360043581169060243516611f07565b34801561088c57600080fd5b5061042c600160a060020a0360043516611f32565b3480156108ad57600080fd5b50610340600160a060020a0360043581169060243516604435606435608435611fc7565b3480156108dd57600080fd5b5061042c600160a060020a0360043516612074565b6004547501000000000000000000000000000000000000000000900460ff1681565b60408051808201909152601181527f4b6974746965666967687420546f6b656e000000000000000000000000000000602082015281565b60045460009060a060020a900460ff161561096557600080fd5b61096f83836120f9565b9392505050565b6004546000908190819060a060020a900460ff161561099457600080fd5b60045460b060020a900460ff16156109d5576109b330888888886109ee565b91506109bf8289610ad8565b90506109ca81611569565b15156109d557600080fd5b6109e2888888888861214d565b98975050505050505050565b604080517f48664c16000000000000000000000000000000000000000000000000000000006020808301919091526c01000000000000000000000000600160a060020a03808a16820260248501528816026038830152604c8201869052606c8201859052608c8083018590528351808403909101815260ac909201928390528151600093918291908401908083835b60208310610a9c5780518252601f199092019160209182019101610a7d565b5181516020939093036101000a600019018019909116921691909117905260405192018290039091209998505050505050505050565b60015490565b60008060008084516041141515610af25760009350610ba4565b50505060208201516040830151606084015160001a601b60ff82161015610b1757601b015b8060ff16601b14158015610b2f57508060ff16601c14155b15610b3d5760009350610ba4565b60408051600080825260208083018085528a905260ff8516838501526060830187905260808301869052925160019360a0808501949193601f19840193928390039091019190865af1158015610b97573d6000803e3d6000fd5b5050506020604051035193505b50505092915050565b60045460009060b060020a900460ff1615610bd657610bcb84611569565b1515610bd657600080fd5b610be18484846124e6565b949350505050565b600454600160a060020a03163314610c0057600080fd5b610c0981611569565b1515610c1457600080fd5b600160a060020a038116600081815260056020908152604091829020805460ff19169055815192835290517fad88aec34f4861d5a8a34d064eba1c3ce7222a541db6a6cfbcef0e6aa0dac53c9281900390910190a150565b60045460b060020a900460ff1681565b601281565b600454600160a060020a03163314610c9857600080fd5b60045460a060020a900460ff161515610cb057600080fd5b6004805474ff0000000000000000000000000000000000000000191690556040517f7805862f689e2f13df9f062ff482ad3ad112aca9e0847911ed832e158c525b3390600090a1565b600454600090600160a060020a03163314610d1357600080fd5b6004547501000000000000000000000000000000000000000000900460ff1615610d3c57600080fd5b600154610d4f908363ffffffff61250b16565b600155600160a060020a038316600090815260208190526040902054610d7b908363ffffffff61250b16565b600160a060020a03841660008181526020818152604091829020939093558051858152905191927f0f6798a560793a54c3bcfe86a93cde1e73087d944c0ea20544137d412139688592918290030190a2604080518381529051600160a060020a03851691600091600080516020612c568339815191529181900360200190a350600192915050565b6a52b7d2dcc80cd2e400000081565b604080517f59388d78000000000000000000000000000000000000000000000000000000006020808301919091526c01000000000000000000000000600160a060020a03808a16820260248501528816026038830152604c8201869052606c8201859052608c8083018590528351808403909101815260ac9092019283905281516000939182919084019080838360208310610a9c5780518252601f199092019160209182019101610a7d565b60045460a060020a900460ff1681565b6004546000908190819060a060020a900460ff1615610eed57600080fd5b60045460b060020a900460ff1615610f2e57610f0c3088888888611fc7565b9150610f188289610ad8565b9050610f2381611569565b1515610f2e57600080fd5b6109e2888888888861251a565b60045460009060a060020a900460ff1615610f5557600080fd5b61096f8383612886565b600160a060020a031660009081526020819052604090205490565b600454600090600160a060020a03163314610f9457600080fd5b6004547501000000000000000000000000000000000000000000900460ff1615610fbd57600080fd5b6004805475ff000000000000000000000000000000000000000000191675010000000000000000000000000000000000000000001790556040517fae5184fba832cb2b1f702aca6117b8d265eaf03ad33eb133f19dde0f5920fa0890600090a150600190565b600454600160a060020a0316331461103a57600080fd5b60045460a060020a900460ff161561105157600080fd5b6004805474ff0000000000000000000000000000000000000000191660a060020a1790556040517f6985a02210a168e66602d3235cb6db0e70f92b3ba4d376a33c0f3d9434bff62590600090a1565b6000808080600160a060020a0388161515611105576040805160e560020a62461bcd02815260206004820152601f60248201527f5370656e6465722061646472657373206973206e6f742070726f766964656400604482015290519081900360640190fd5b6003896040518082805190602001908083835b602083106111375780518252601f199092019160209182019101611118565b51815160209384036101000a600019018019909216911617905292019485525060405193849003019092205460ff161591506111bf9050576040805160e560020a62461bcd02815260206004820152600c60248201527f4e6f20736f676e61747572650000000000000000000000000000000000000000604482015290519081900360640190fd5b6111cc3089898989610e12565b92506111d8838a610ad8565b9150600160a060020a038216151561123a576040805160e560020a62461bcd02815260206004820152601c60248201527f46726f6d2061646472657373206973206e6f742070726f766964656400000000604482015290519081900360640190fd5b50600160a060020a038082166000908152600260209081526040808320938b16835292905220548087111561129657600160a060020a038083166000908152600260209081526040808320938c168352929052908120556112cd565b6112a6818863ffffffff61296416565b600160a060020a038084166000908152600260209081526040808320938d16835292905220555b600160a060020a0382166000908152602081905260409020546112f6908763ffffffff61296416565b600160a060020a038316600090815260208190526040808220929092553381522054611328908763ffffffff61250b16565b60008033600160a060020a0316600160a060020a0316815260200190815260200160002081905550600160038a6040518082805190602001908083835b602083106113845780518252601f199092019160209182019101611365565b51815160209384036101000a6000190180199092169116179052920194855250604080519485900382018520805460ff1916961515969096179095558b84529351600160a060020a038d81169590881694600080516020612c768339815191529450829003019150a36040805187815290513391600160a060020a03851691600080516020612c568339815191529181900360200190a3600160a060020a038281166000818152600260209081526040808320948d16808452948252918290205482519081529081018a90528151339493927f43a220267705e74ee2ceafd46afc841850db6f85a662189a7def697bbdd90ffb928290030190a450600198975050505050505050565b600454600160a060020a031681565b60408051808201909152600381527f4b54590000000000000000000000000000000000000000000000000000000000602082015281565b600454600160a060020a031633146114ea57600080fd5b60045460ff60b060020a90910416151581151514611566576004805482151560b060020a810276ff00000000000000000000000000000000000000000000199092169190911790915560408051918252517f757db31e37ddce6c8bda07399e53891f513ac7cacd86ae8f781bab706c74d45f9181900360200190a15b50565b6000600160a060020a038216151561158057600080fd5b50600160a060020a031660009081526005602052604090205460ff1690565b604080517fa45f71ff000000000000000000000000000000000000000000000000000000006020808301919091526c01000000000000000000000000600160a060020a03808a16820260248501528816026038830152604c8201869052606c8201859052608c8083018590528351808403909101815260ac9092019283905281516000939182919084019080838360208310610a9c5780518252601f199092019160209182019101610a7d565b60045460009060b060020a900460ff16156116755761166a33611569565b151561167557600080fd5b61096f8383612976565b60008080600160a060020a03871615156116e3576040805160e560020a62461bcd02815260206004820152601f60248201527f5370656e6465722061646472657373206973206e6f742070726f766964656400604482015290519081900360640190fd5b6003886040518082805190602001908083835b602083106117155780518252601f1990920191602091820191016116f6565b51815160209384036101000a600019018019909216911617905292019485525060405193849003019092205460ff1615915061179d9050576040805160e560020a62461bcd02815260206004820152600c60248201527f4e6f205369676e61747572650000000000000000000000000000000000000000604482015290519081900360640190fd5b6117aa308888888861159f565b91506117b68289610ad8565b9050600160a060020a0381161515611818576040805160e560020a62461bcd02815260206004820152601c60248201527f46726f6d2061646472657373206973206e6f742070726f766964656400000000604482015290519081900360640190fd5b600160a060020a038082166000908152600260209081526040808320938b168352929052205461184e908763ffffffff61250b16565b600160a060020a038083166000818152600260209081526040808320948d1683529381528382209490945590815291829052902054611893908663ffffffff61296416565b600160a060020a0382166000908152602081905260408082209290925533815220546118c5908663ffffffff61250b16565b60008033600160a060020a0316600160a060020a031681526020019081526020016000208190555060016003896040518082805190602001908083835b602083106119215780518252601f199092019160209182019101611902565b51815160209384036101000a6000190180199092169116179052920194855250604080519485900382018520805460ff191696151596909617909555600160a060020a03868116600081815260028452878120928f168082529284528790205486529551909594600080516020612c7683398151915294508190039091019150a36040805186815290513391600160a060020a03841691600080516020612c568339815191529181900360200190a3600160a060020a038181166000818152600260209081526040808320948c16808452948252918290205482519081529081018990528151339493927f43a220267705e74ee2ceafd46afc841850db6f85a662189a7def697bbdd90ffb928290030190a4506001979650505050505050565b604080517fb7656dc5000000000000000000000000000000000000000000000000000000006020808301919091526c01000000000000000000000000600160a060020a03808b1682026024850152808a1682026038850152881602604c830152606082018690526080820185905260a08083018590528351808403909101815260c0909201928390528151600093918291908401908083835b60208310611af95780518252601f199092019160209182019101611ada565b5181516020939093036101000a600019018019909116921691909117905260405192018290039091209a9950505050505050505050565b60008080600160a060020a0387161515611b94576040805160e560020a62461bcd02815260206004820152601860248201527f4e6f205b746f5d20616464726573732070726f76696465640000000000000000604482015290519081900360640190fd5b6003896040518082805190602001908083835b60208310611bc65780518252601f199092019160209182019101611ba7565b51815160209384036101000a600019018019909216911617905292019485525060405193849003019092205460ff16159150611c4e9050576040805160e560020a62461bcd02815260206004820152601560248201527f4e6f207369676e61747572652070726f76696465640000000000000000000000604482015290519081900360640190fd5b611c5c308989898989611a41565b9150611c68828a610ad8565b9050600160a060020a0381161515611cca576040805160e560020a62461bcd02815260206004820152601f60248201527f5370656e6465722061646472657373206973206e6f742070726f766964656400604482015290519081900360640190fd5b600160a060020a038816600090815260208190526040902054611cf3908763ffffffff61296416565b600160a060020a03808a166000908152602081905260408082209390935590891681522054611d28908763ffffffff61250b16565b600160a060020a03808916600090815260208181526040808320949094558b83168252600281528382209285168252919091522054611d6d908763ffffffff61296416565b600160a060020a03808a16600090815260026020908152604080832093861683529281528282209390935591829052902054611daf908663ffffffff61296416565b600160a060020a038216600090815260208190526040808220929092553381522054611de1908663ffffffff61250b16565b60008033600160a060020a0316600160a060020a0316815260200190815260200160002081905550600160038a6040518082805190602001908083835b60208310611e3d5780518252601f199092019160209182019101611e1e565b51815160209384036101000a6000190180199092169116179052920194855250604080519485900382018520805460ff1916961515969096179095558a84529351600160a060020a038c811695908e1694600080516020612c568339815191529450829003019150a36040805186815290513391600160a060020a03841691600080516020612c568339815191529181900360200190a350600198975050505050505050565b60045460009060a060020a900460ff1615611efd57600080fd5b61096f838361299a565b600160a060020a03918216600090815260026020908152604080832093909416825291909152205490565b600454600160a060020a03163314611f4957600080fd5b600160a060020a0381161515611f5e57600080fd5b600454604051600160a060020a038084169216907f8be0079c531659141344cd1fd0a4f28419497f9722a3daafe3b4186f6b6457e090600090a36004805473ffffffffffffffffffffffffffffffffffffffff1916600160a060020a0392909216919091179055565b604080517ff7ac9c2e000000000000000000000000000000000000000000000000000000006020808301919091526c01000000000000000000000000600160a060020a03808a16820260248501528816026038830152604c8201869052606c8201859052608c8083018590528351808403909101815260ac9092019283905281516000939182919084019080838360208310610a9c5780518252601f199092019160209182019101610a7d565b600454600160a060020a0316331461208b57600080fd5b61209481611569565b1561209e57600080fd5b600160a060020a038116600081815260056020908152604091829020805460ff19166001179055815192835290517fad88aec34f4861d5a8a34d064eba1c3ce7222a541db6a6cfbcef0e6aa0dac53c9281900390910190a150565b336000818152600260209081526040808320600160a060020a03871680855290835281842086905581518681529151939490939092600080516020612c76833981519152928290030190a350600192915050565b60008080600160a060020a03871615156121b1576040805160e560020a62461bcd02815260206004820152601360248201527f4e6f20616464726573732070726f766964656400000000000000000000000000604482015290519081900360640190fd5b6003886040518082805190602001908083835b602083106121e35780518252601f1990920191602091820191016121c4565b51815160209384036101000a600019018019909216911617905292019485525060405193849003019092205460ff1615915061226b9050576040805160e560020a62461bcd02815260206004820152600c60248201527f4e6f207369676e61747572650000000000000000000000000000000000000000604482015290519081900360640190fd5b61227830888888886109ee565b91506122848289610ad8565b9050600160a060020a03811615156122e6576040805160e560020a62461bcd02815260206004820152601c60248201527f46726f6d2061646472657373206973206e6f742070726f766964656400000000604482015290519081900360640190fd5b600160a060020a038116600090815260208190526040902054612321908690612315908963ffffffff61296416565b9063ffffffff61296416565b600160a060020a038083166000908152602081905260408082209390935590891681522054612356908763ffffffff61250b16565b600160a060020a038816600090815260208190526040808220929092553381522054612388908663ffffffff61250b16565b60008033600160a060020a0316600160a060020a031681526020019081526020016000208190555060016003896040518082805190602001908083835b602083106123e45780518252601f1990920191602091820191016123c5565b51815160209384036101000a6000190180199092169116179052920194855250604080519485900382018520805460ff1916961515969096179095558a84529351600160a060020a038c81169590871694600080516020612c568339815191529450829003019150a36040805186815290513391600160a060020a03841691600080516020612c568339815191529181900360200190a333600160a060020a031687600160a060020a031682600160a060020a03167fec5a73fd1f178be20c1bca1b406cbf4b5c20d833b66e582fc122fb4baa0fc2a48989604051808381526020018281526020019250505060405180910390a4506001979650505050505050565b60045460009060a060020a900460ff161561250057600080fd5b610be1848484612a21565b60008282018381101561096f57fe5b60008080600160a060020a038716151561257e576040805160e560020a62461bcd02815260206004820152601760248201527f5370656e646572206973206e6f742070726f7669646564000000000000000000604482015290519081900360640190fd5b6003886040518082805190602001908083835b602083106125b05780518252601f199092019160209182019101612591565b51815160209384036101000a600019018019909216911617905292019485525060405193849003019092205460ff161591506126389050576040805160e560020a62461bcd02815260206004820152600c60248201527f4e6f207369676e61747572650000000000000000000000000000000000000000604482015290519081900360640190fd5b6126453088888888611fc7565b91506126518289610ad8565b9050600160a060020a03811615156126b3576040805160e560020a62461bcd02815260206004820152601b60248201527f46726f6d20616464726573206973206e6f742070726f76696465640000000000604482015290519081900360640190fd5b600160a060020a038082166000818152600260209081526040808320948c1683529381528382208a90559181529081905220546126f6908663ffffffff61296416565b600160a060020a038216600090815260208190526040808220929092553381522054612728908663ffffffff61250b16565b60008033600160a060020a0316600160a060020a031681526020019081526020016000208190555060016003896040518082805190602001908083835b602083106127845780518252601f199092019160209182019101612765565b51815160209384036101000a6000190180199092169116179052920194855250604080519485900382018520805460ff1916961515969096179095558a84529351600160a060020a038c81169590871694600080516020612c768339815191529450829003019150a36040805186815290513391600160a060020a03841691600080516020612c568339815191529181900360200190a333600160a060020a031687600160a060020a031682600160a060020a03167f43a220267705e74ee2ceafd46afc841850db6f85a662189a7def697bbdd90ffb8989604051808381526020018281526020019250505060405180910390a4506001979650505050505050565b336000908152600260209081526040808320600160a060020a0386168452909152812054808311156128db57336000908152600260209081526040808320600160a060020a0388168452909152812055612910565b6128eb818463ffffffff61296416565b336000908152600260209081526040808320600160a060020a03891684529091529020555b336000818152600260209081526040808320600160a060020a038916808552908352928190205481519081529051929392600080516020612c76833981519152929181900390910190a35060019392505050565b60008282111561297057fe5b50900390565b60045460009060a060020a900460ff161561299057600080fd5b61096f8383612b86565b336000908152600260209081526040808320600160a060020a03861684529091528120546129ce908363ffffffff61250b16565b336000818152600260209081526040808320600160a060020a038916808552908352928190208590558051948552519193600080516020612c76833981519152929081900390910190a350600192915050565b6000600160a060020a0383161515612a3857600080fd5b600160a060020a038416600090815260208190526040902054821115612a5d57600080fd5b600160a060020a0384166000908152600260209081526040808320338452909152902054821115612a8d57600080fd5b600160a060020a038416600090815260208190526040902054612ab6908363ffffffff61296416565b600160a060020a038086166000908152602081905260408082209390935590851681522054612aeb908363ffffffff61250b16565b600160a060020a03808516600090815260208181526040808320949094559187168152600282528281203382529091522054612b2d908363ffffffff61296416565b600160a060020a0380861660008181526002602090815260408083203384528252918290209490945580518681529051928716939192600080516020612c56833981519152929181900390910190a35060019392505050565b6000600160a060020a0383161515612b9d57600080fd5b33600090815260208190526040902054821115612bb957600080fd5b33600090815260208190526040902054612bd9908363ffffffff61296416565b3360009081526020819052604080822092909255600160a060020a03851681522054612c0b908363ffffffff61250b16565b600160a060020a03841660008181526020818152604091829020939093558051858152905191923392600080516020612c568339815191529281900390910190a3506001929150505600ddf252ad1be2c89b69c2b068fc378daa952ba7f163c4a11628f55a4df523b3ef8c5be1e5ebec7d5bd14f71427d1e84f3dd0314c0f7b2291e5b200ac8c7c3b925a165627a7a72305820e2aff726e46fc1eddcf4be8a6a088a7c49974bcc2abccacf0e695a6c375978450029",
  "source": "pragma solidity ^0.4.24;\n\nimport \"../../openzeppelin-solidity/token/ERC20/PausableToken.sol\";\nimport \"../../openzeppelin-solidity/token/ERC20/MintableToken.sol\";\nimport \"./ERC865Token.sol\";\n\n/**\n * @title Kittiefight Token\n * @dev ERC20 Token (KTY)\n *\n * KTY are divisible by 1e18 base\n *\n * KTY are displayed using 18 decimal places of precision.\n *\n * 100 milion KTY (total supply)\n *\n */\n\ncontract KittiefightToken is ERC865Token, PausableToken, MintableToken {\n\n    /* Set the token name for display */\n    string public constant symbol = \"KTY\";\n\n    /* Set the token symbol for display */\n    string public constant name = \"Kittiefight Token\";\n\n    /* Set the number of decimals for display */\n    uint8 public constant decimals = 18;\n\n    /* 100 milion KTY specified */\n    uint256 public constant amountOfTokenToMint = 10**8 * 10**uint256(decimals);\n\n    /* Is crowdsale filtering non registered users. false by default */\n    bool public isTransferWhitelistOnly = false;\n\n    /* Mapping of whitelisted users */\n    mapping (address => bool) transfersWhitelist;\n\n    event UserAllowedToTransfer(address user);\n\n    event TransferWhitelistOnly(bool flag);\n\n    /**\n     * @notice Is the address allowed to transfer\n     * @return true if the sender can transfer\n     */\n    function isUserAllowedToTransfer(address _user) public constant returns (bool) {\n        require(_user != 0x0);\n        return transfersWhitelist[_user];\n    }\n\n    /**\n     * @notice Enabling / Disabling transfers of non whitelisted users\n     */\n    function setWhitelistedOnly(bool _isWhitelistOnly) onlyOwner public {\n        if (isTransferWhitelistOnly != _isWhitelistOnly) {\n            isTransferWhitelistOnly = _isWhitelistOnly;\n            TransferWhitelistOnly(_isWhitelistOnly);\n        }\n    }\n\n    /**\n     * @notice Adding a user to the whitelist\n     */\n    function whitelistUserForTransfers(address _user) onlyOwner public {\n        require(!isUserAllowedToTransfer(_user));\n        transfersWhitelist[_user] = true;\n        UserAllowedToTransfer(_user);\n    }\n\n    /**\n     * @notice Remove a user from the whitelist\n     */\n    function blacklistUserForTransfers(address _user) onlyOwner public {\n        require(isUserAllowedToTransfer(_user));\n        transfersWhitelist[_user] = false;\n        UserAllowedToTransfer(_user);\n    }\n\n    /**\n    * @notice transfer token for a specified address\n    * @param _to The address to transfer to.\n    * @param _value The amount to be transferred.\n    */\n    function transfer(address _to, uint256 _value) public returns (bool) {\n      if (isTransferWhitelistOnly) {\n        require(isUserAllowedToTransfer(msg.sender));\n      }\n      return super.transfer(_to, _value);\n    }\n\n    /**\n     * @notice Transfer tokens from one address to another\n     * @param _from address The address which you want to send tokens from\n     * @param _to address The address which you want to transfer to\n     * @param _value uint256 the amount of tokens to be transferred\n     */\n    function transferFrom(address _from, address _to, uint256 _value) public returns (bool) {\n        if (isTransferWhitelistOnly) {\n            require(isUserAllowedToTransfer(_from));\n        }\n        return super.transferFrom(_from, _to, _value);\n    }\n\n    /**\n     * @notice Submit a presigned transfer\n     * @param _signature bytes The signature, issued by the owner.\n     * @param _to address The address which you want to transfer to.\n     * @param _value uint256 The amount of tokens to be transferred.\n     * @param _fee uint256 The amount of tokens paid to msg.sender, by the owner.\n     * @param _nonce uint256 Presigned transaction number.\n     */\n    function transferPreSigned(\n        bytes _signature,\n        address _to,\n        uint256 _value,\n        uint256 _fee,\n        uint256 _nonce\n    )\n        whenNotPaused\n        public\n        returns (bool)\n    {\n        if (isTransferWhitelistOnly) {\n            bytes32 hashedTx = super.transferPreSignedHashing(address(this), _to, _value, _fee, _nonce);\n            address from = recover(hashedTx, _signature);\n            require(isUserAllowedToTransfer(from));\n        }\n        return super.transferPreSigned(_signature, _to, _value, _fee, _nonce);\n    }\n\n    /**\n     * @notice Submit a presigned approval\n     * @param _signature bytes The signature, issued by the owner.\n     * @param _spender address The address which will spend the funds.\n     * @param _value uint256 The amount of tokens to allow.\n     * @param _fee uint256 The amount of tokens paid to msg.sender, by the owner.\n     * @param _nonce uint256 Presigned transaction number.\n     */\n    function approvePreSigned(\n        bytes _signature,\n        address _spender,\n        uint256 _value,\n        uint256 _fee,\n        uint256 _nonce\n    )\n        whenNotPaused\n        public\n        returns (bool)\n    {\n        if (isTransferWhitelistOnly) {\n            bytes32 hashedTx = super.approvePreSignedHashing(address(this), _spender, _value, _fee, _nonce);\n            address from = recover(hashedTx, _signature);\n            require(isUserAllowedToTransfer(from));\n        }\n        return super.approvePreSigned(_signature, _spender, _value, _fee, _nonce);\n    }\n}\n",
  "sourcePath": "/Users/achiko/Documents/elva/projects/kittiefight/KittieSITE/contracts/ERC865/token/KittiefightToken.sol",
  "compiler": {
    "name": "solc",
    "version": "0.4.24+commit.e67f0147.Emscripten.clang"
  },
  "schemaVersion": "2.0.1",
  "updatedAt": "2018-11-10T19:19:51.780Z"
}