{
  "contractName": "Migrations",
  "abi": [
    {
      "anonymous": false,
      "inputs": [
        {
          "indexed": true,
          "internalType": "address",
          "name": "previousOwner",
          "type": "address"
        },
        {
          "indexed": true,
          "internalType": "address",
          "name": "newOwner",
          "type": "address"
        }
      ],
      "name": "OwnershipTransferred",
      "type": "event"
    },
    {
      "constant": true,
      "inputs": [],
      "name": "lastCompletedMigration",
      "outputs": [
        {
          "internalType": "uint256",
          "name": "",
          "type": "uint256"
        }
      ],
      "payable": false,
      "stateMutability": "view",
      "type": "function"
    },
    {
      "constant": true,
      "inputs": [],
      "name": "owner",
      "outputs": [
        {
          "internalType": "address",
          "name": "",
          "type": "address"
        }
      ],
      "payable": false,
      "stateMutability": "view",
      "type": "function"
    },
    {
      "constant": false,
      "inputs": [
        {
          "internalType": "address",
          "name": "newOwner",
          "type": "address"
        }
      ],
      "name": "transferOwnership",
      "outputs": [],
      "payable": false,
      "stateMutability": "nonpayable",
      "type": "function"
    },
    {
      "constant": false,
      "inputs": [
        {
          "internalType": "uint256",
          "name": "completed",
          "type": "uint256"
        }
      ],
      "name": "setCompleted",
      "outputs": [],
      "payable": false,
      "stateMutability": "nonpayable",
      "type": "function"
    },
    {
      "constant": false,
      "inputs": [
        {
          "internalType": "address",
          "name": "newAddress",
          "type": "address"
        }
      ],
      "name": "upgrade",
      "outputs": [],
      "payable": false,
      "stateMutability": "nonpayable",
      "type": "function"
    }
  ],
  "bytecode": "0x6080604052600080546001600160a01b03191633179055610270806100256000396000f3fe608060405234801561001057600080fd5b50600436106100575760003560e01c80630900f0101461005c5780638da5cb5b14610084578063f2fde38b146100a8578063fbdbad3c146100ce578063fdacd576146100e8575b600080fd5b6100826004803603602081101561007257600080fd5b50356001600160a01b0316610105565b005b61008c610185565b604080516001600160a01b039092168252519081900360200190f35b610082600480360360208110156100be57600080fd5b50356001600160a01b0316610194565b6100d6610219565b60408051918252519081900360200190f35b610082600480360360208110156100fe57600080fd5b503561021f565b6000546001600160a01b0316331461011c57600080fd5b6000819050806001600160a01b031663fdacd5766001546040518263ffffffff1660e01b815260040180828152602001915050600060405180830381600087803b15801561016957600080fd5b505af115801561017d573d6000803e3d6000fd5b505050505050565b6000546001600160a01b031681565b6000546001600160a01b031633146101ab57600080fd5b6001600160a01b0381166101be57600080fd5b600080546040516001600160a01b03808516939216917f8be0079c531659141344cd1fd0a4f28419497f9722a3daafe3b4186f6b6457e091a3600080546001600160a01b0319166001600160a01b0392909216919091179055565b60015481565b6000546001600160a01b0316331461023657600080fd5b60015556fea265627a7a72315820d3ba117b8c1a21697d784253d662e6df3171c105ff537552792075ccef9495b964736f6c634300050d0032",
  "source": "pragma solidity ^0.5.10;\n\nimport \"../ownership/Ownable.sol\";\n\n\n/**\n * @title Migrations\n * @dev This is a truffle contract, needed for truffle integration, not meant for use by Zeppelin users.\n */\ncontract Migrations is Ownable {\n  uint256 public lastCompletedMigration;\n\n  function setCompleted(uint256 completed) onlyOwner public {\n    lastCompletedMigration = completed;\n  }\n\n  function upgrade(address newAddress) onlyOwner public {\n    Migrations upgraded = Migrations(newAddress);\n    upgraded.setCompleted(lastCompletedMigration);\n  }\n}\n",
  "sourcePath": "D:/projects/kittiefight/token/DutchAuction/contracts/openzeppelin-solidity/lifecycle/Migrations.sol",
  "compiler": {
    "name": "solc",
    "version": "0.5.13+commit.5b0b510c.Emscripten.clang"
  },
  "schemaVersion": "3.0.16",
  "updatedAt": "2019-11-20T23:53:24.320Z",
  "devdoc": {
    "details": "This is a truffle contract, needed for truffle integration, not meant for use by Zeppelin users.",
    "methods": {
      "transferOwnership(address)": {
        "details": "Allows the current owner to transfer control of the contract to a newOwner.",
        "params": {
          "newOwner": "The address to transfer ownership to."
        }
      }
    },
    "title": "Migrations"
  },
  "userdoc": {
    "methods": {}
  }
}