{
  "contractName": "NoOwner",
  "abi": [
    {
      "constant": false,
      "inputs": [
        {
          "name": "token",
          "type": "address"
        }
      ],
      "name": "reclaimToken",
      "outputs": [],
      "payable": false,
      "stateMutability": "nonpayable",
      "type": "function"
    },
    {
      "constant": false,
      "inputs": [
        {
          "name": "contractAddr",
          "type": "address"
        }
      ],
      "name": "reclaimContract",
      "outputs": [],
      "payable": false,
      "stateMutability": "nonpayable",
      "type": "function"
    },
    {
      "constant": true,
      "inputs": [],
      "name": "owner",
      "outputs": [
        {
          "name": "",
          "type": "address"
        }
      ],
      "payable": false,
      "stateMutability": "view",
      "type": "function"
    },
    {
      "constant": false,
      "inputs": [],
      "name": "reclaimEther",
      "outputs": [],
      "payable": false,
      "stateMutability": "nonpayable",
      "type": "function"
    },
    {
      "constant": false,
      "inputs": [
        {
          "name": "from_",
          "type": "address"
        },
        {
          "name": "value_",
          "type": "uint256"
        },
        {
          "name": "data_",
          "type": "bytes"
        }
      ],
      "name": "tokenFallback",
      "outputs": [],
      "payable": false,
      "stateMutability": "nonpayable",
      "type": "function"
    },
    {
      "constant": false,
      "inputs": [
        {
          "name": "newOwner",
          "type": "address"
        }
      ],
      "name": "transferOwnership",
      "outputs": [],
      "payable": false,
      "stateMutability": "nonpayable",
      "type": "function"
    },
    {
      "payable": false,
      "stateMutability": "nonpayable",
      "type": "fallback"
    },
    {
      "anonymous": false,
      "inputs": [
        {
          "indexed": true,
          "name": "previousOwner",
          "type": "address"
        },
        {
          "indexed": true,
          "name": "newOwner",
          "type": "address"
        }
      ],
      "name": "OwnershipTransferred",
      "type": "event"
    }
  ],
  "bytecode": "0x608060405260008054600160a060020a03191633179055341561002157600080fd5b61049c806100306000396000f3006080604052600436106100775763ffffffff7c010000000000000000000000000000000000000000000000000000000060003504166317ffc32081146100865780632aed7f3f146100a95780638da5cb5b146100ca5780639f727c27146100fb578063c0ee0b8a14610110578063f2fde38b14610141575b34801561008357600080fd5b50005b34801561009257600080fd5b506100a7600160a060020a0360043516610162565b005b3480156100b557600080fd5b506100a7600160a060020a036004351661022e565b3480156100d657600080fd5b506100df6102c8565b60408051600160a060020a039092168252519081900360200190f35b34801561010757600080fd5b506100a76102d7565b34801561011c57600080fd5b506100a760048035600160a060020a0316906024803591604435918201910135610322565b34801561014d57600080fd5b506100a7600160a060020a0360043516610327565b60008054600160a060020a0316331461017a57600080fd5b604080517f70a082310000000000000000000000000000000000000000000000000000000081523060048201529051600160a060020a038416916370a082319160248083019260209291908290030181600087803b1580156101db57600080fd5b505af11580156101ef573d6000803e3d6000fd5b505050506040513d602081101561020557600080fd5b505160005490915061022a90600160a060020a0384811691168363ffffffff6103bb16565b5050565b60008054600160a060020a0316331461024657600080fd5b5060008054604080517ff2fde38b000000000000000000000000000000000000000000000000000000008152600160a060020a039283166004820152905184939284169263f2fde38b926024808201939182900301818387803b1580156102ac57600080fd5b505af11580156102c0573d6000803e3d6000fd5b505050505050565b600054600160a060020a031681565b600054600160a060020a031633146102ee57600080fd5b60008054604051600160a060020a0390911691303180156108fc02929091818181858888f19350505050151561032057fe5b565b600080fd5b600054600160a060020a0316331461033e57600080fd5b600160a060020a038116151561035357600080fd5b60008054604051600160a060020a03808516939216917f8be0079c531659141344cd1fd0a4f28419497f9722a3daafe3b4186f6b6457e091a36000805473ffffffffffffffffffffffffffffffffffffffff1916600160a060020a0392909216919091179055565b82600160a060020a031663a9059cbb83836040518363ffffffff167c01000000000000000000000000000000000000000000000000000000000281526004018083600160a060020a0316600160a060020a0316815260200182815260200192505050602060405180830381600087803b15801561043757600080fd5b505af115801561044b573d6000803e3d6000fd5b505050506040513d602081101561046157600080fd5b5051151561046b57fe5b5050505600a165627a7a7230582018968289352b2e7a6c196b584813dcc289c3ae41400b1bab033dc19cd028c6870029",
  "source": "pragma solidity ^0.4.18;\n\nimport \"./HasNoEther.sol\";\nimport \"./HasNoTokens.sol\";\nimport \"./HasNoContracts.sol\";\n\n\n/**\n * @title Base contract for contracts that should not own things.\n * @author Remco Bloemen <remco@2π.com>\n * @dev Solves a class of errors where a contract accidentally becomes owner of Ether, Tokens or\n * Owned contracts. See respective base contracts for details.\n */\ncontract NoOwner is HasNoEther, HasNoTokens, HasNoContracts {\n}\n",
  "sourcePath": "/Users/achiko/Documents/elva/projects/kittiefight/KittieSITE/contracts/openzeppelin-solidity/ownership/NoOwner.sol",
  "compiler": {
    "name": "solc",
    "version": "0.4.24+commit.e67f0147.Emscripten.clang"
  },
  "schemaVersion": "2.0.1",
  "updatedAt": "2018-11-05T14:07:26.244Z"
}