{
  "contractName": "NoOwner",
  "abi": [
    {
      "anonymous": false,
      "inputs": [
        {
          "indexed": true,
          "internalType": "address",
          "name": "previousOwner",
          "type": "address"
        },
        {
          "indexed": true,
          "internalType": "address",
          "name": "newOwner",
          "type": "address"
        }
      ],
      "name": "OwnershipTransferred",
      "type": "event"
    },
    {
      "payable": false,
      "stateMutability": "nonpayable",
      "type": "fallback"
    },
    {
      "constant": true,
      "inputs": [],
      "name": "owner",
      "outputs": [
        {
          "internalType": "address",
          "name": "",
          "type": "address"
        }
      ],
      "payable": false,
      "stateMutability": "view",
      "type": "function"
    },
    {
      "constant": false,
      "inputs": [
        {
          "internalType": "address",
          "name": "contractAddr",
          "type": "address"
        }
      ],
      "name": "reclaimContract",
      "outputs": [],
      "payable": false,
      "stateMutability": "nonpayable",
      "type": "function"
    },
    {
      "constant": false,
      "inputs": [],
      "name": "reclaimEther",
      "outputs": [],
      "payable": false,
      "stateMutability": "nonpayable",
      "type": "function"
    },
    {
      "constant": false,
      "inputs": [
        {
          "internalType": "contract ERC20Basic",
          "name": "token",
          "type": "address"
        }
      ],
      "name": "reclaimToken",
      "outputs": [],
      "payable": false,
      "stateMutability": "nonpayable",
      "type": "function"
    },
    {
      "constant": true,
      "inputs": [
        {
          "internalType": "address",
          "name": "from_",
          "type": "address"
        },
        {
          "internalType": "uint256",
          "name": "value_",
          "type": "uint256"
        },
        {
          "internalType": "bytes",
          "name": "data_",
          "type": "bytes"
        }
      ],
      "name": "tokenFallback",
      "outputs": [],
      "payable": false,
      "stateMutability": "pure",
      "type": "function"
    },
    {
      "constant": false,
      "inputs": [
        {
          "internalType": "address",
          "name": "newOwner",
          "type": "address"
        }
      ],
      "name": "transferOwnership",
      "outputs": [],
      "payable": false,
      "stateMutability": "nonpayable",
      "type": "function"
    }
  ],
  "bytecode": "0x6080604052600080546001600160a01b03191633179055341561002157600080fd5b610468806100306000396000f3fe608060405234801561001057600080fd5b50600436106100625760003560e01c806317ffc320146100645780632aed7f3f1461008a5780638da5cb5b146100b05780639f727c27146100d4578063c0ee0b8a146100dc578063f2fde38b14610161575b005b6100626004803603602081101561007a57600080fd5b50356001600160a01b0316610187565b610062600480360360208110156100a057600080fd5b50356001600160a01b031661023b565b6100b86102ba565b604080516001600160a01b039092168252519081900360200190f35b6100626102c9565b610062600480360360608110156100f257600080fd5b6001600160a01b038235169160208101359181019060608101604082013564010000000081111561012257600080fd5b82018360208201111561013457600080fd5b8035906020019184600183028401116401000000008311171561015657600080fd5b509092509050610312565b6100626004803603602081101561017757600080fd5b50356001600160a01b0316610317565b6000546001600160a01b0316331461019e57600080fd5b604080516370a0823160e01b815230600482015290516000916001600160a01b038416916370a0823191602480820192602092909190829003018186803b1580156101e857600080fd5b505afa1580156101fc573d6000803e3d6000fd5b505050506040513d602081101561021257600080fd5b5051600054909150610237906001600160a01b0384811691168363ffffffff61039c16565b5050565b6000546001600160a01b0316331461025257600080fd5b600080546040805163f2fde38b60e01b81526001600160a01b039283166004820152905184939284169263f2fde38b926024808201939182900301818387803b15801561029e57600080fd5b505af11580156102b2573d6000803e3d6000fd5b505050505050565b6000546001600160a01b031681565b6000546001600160a01b031633146102e057600080fd5b600080546040516001600160a01b0390911691303180156108fc02929091818181858888f1935050505061031057fe5b565b600080fd5b6000546001600160a01b0316331461032e57600080fd5b6001600160a01b03811661034157600080fd5b600080546040516001600160a01b03808516939216917f8be0079c531659141344cd1fd0a4f28419497f9722a3daafe3b4186f6b6457e091a3600080546001600160a01b0319166001600160a01b0392909216919091179055565b826001600160a01b031663a9059cbb83836040518363ffffffff1660e01b815260040180836001600160a01b03166001600160a01b0316815260200182815260200192505050602060405180830381600087803b1580156103fc57600080fd5b505af1158015610410573d6000803e3d6000fd5b505050506040513d602081101561042657600080fd5b505161042e57fe5b50505056fea265627a7a723158204fd94886491c2949065ed3222d8b4b66ff21279757dbc5ca37f1ba8352f766f764736f6c634300050d0032",
  "source": "pragma solidity ^0.5.10;\n\nimport \"./HasNoEther.sol\";\nimport \"./HasNoTokens.sol\";\nimport \"./HasNoContracts.sol\";\n\n\n/**\n * @title Base contract for contracts that should not own things.\n * @author Remco Bloemen <remco@2π.com>\n * @dev Solves a class of errors where a contract accidentally becomes owner of Ether, Tokens or\n * Owned contracts. See respective base contracts for details.\n */\ncontract NoOwner is HasNoEther, HasNoTokens, HasNoContracts {\n}\n",
  "sourcePath": "D:/projects/kittiefight/token/DutchAuction/contracts/openzeppelin-solidity/ownership/NoOwner.sol",
  "compiler": {
    "name": "solc",
    "version": "0.5.13+commit.5b0b510c.Emscripten.clang"
  },
  "schemaVersion": "3.0.16",
  "updatedAt": "2019-11-20T23:53:24.346Z",
  "devdoc": {
    "author": "Remco Bloemen <remco@2π.com>",
    "details": "Solves a class of errors where a contract accidentally becomes owner of Ether, Tokens or Owned contracts. See respective base contracts for details.",
    "methods": {
      "reclaimContract(address)": {
        "details": "Reclaim ownership of Ownable contracts",
        "params": {
          "contractAddr": "The address of the Ownable to be reclaimed."
        }
      },
      "reclaimEther()": {
        "details": "Transfer all Ether held by the contract to the owner."
      },
      "reclaimToken(address)": {
        "details": "Reclaim all ERC20Basic compatible tokens",
        "params": {
          "token": "ERC20Basic The address of the token contract"
        }
      },
      "tokenFallback(address,uint256,bytes)": {
        "details": "Reject all ERC223 compatible tokens",
        "params": {
          "data_": "Bytes The data passed from the caller.",
          "from_": "address The address that is transferring the tokens",
          "value_": "uint256 the amount of the specified token"
        }
      },
      "transferOwnership(address)": {
        "details": "Allows the current owner to transfer control of the contract to a newOwner.",
        "params": {
          "newOwner": "The address to transfer ownership to."
        }
      }
    },
    "title": "Base contract for contracts that should not own things."
  },
  "userdoc": {
    "methods": {}
  }
}