{
  "contractName": "PauserRole",
  "abi": [
    {
      "inputs": [],
      "payable": false,
      "stateMutability": "nonpayable",
      "type": "constructor"
    },
    {
      "anonymous": false,
      "inputs": [
        {
          "indexed": true,
          "name": "account",
          "type": "address"
        }
      ],
      "name": "PauserAdded",
      "type": "event"
    },
    {
      "anonymous": false,
      "inputs": [
        {
          "indexed": true,
          "name": "account",
          "type": "address"
        }
      ],
      "name": "PauserRemoved",
      "type": "event"
    },
    {
      "constant": true,
      "inputs": [
        {
          "name": "account",
          "type": "address"
        }
      ],
      "name": "isPauser",
      "outputs": [
        {
          "name": "",
          "type": "bool"
        }
      ],
      "payable": false,
      "stateMutability": "view",
      "type": "function"
    },
    {
      "constant": false,
      "inputs": [
        {
          "name": "account",
          "type": "address"
        }
      ],
      "name": "addPauser",
      "outputs": [],
      "payable": false,
      "stateMutability": "nonpayable",
      "type": "function"
    },
    {
      "constant": false,
      "inputs": [],
      "name": "renouncePauser",
      "outputs": [],
      "payable": false,
      "stateMutability": "nonpayable",
      "type": "function"
    }
  ],
  "bytecode": "0x608060405234801561001057600080fd5b5061002333640100000000610028810204565b6100b1565b61004060008264010000000061020961007782021704565b604051600160a060020a038216907f6719d08c1888103bea251a4ed56406bd0c3e69723c8a1686e017e7bbe159b6f890600090a250565b600160a060020a038116151561008c57600080fd5b600160a060020a0316600090815260209190915260409020805460ff19166001179055565b61026f806100c06000396000f3006080604052600436106100565763ffffffff7c010000000000000000000000000000000000000000000000000000000060003504166346fbf68e811461005b5780636ef8d66d1461009057806382dc1ec4146100a7575b600080fd5b34801561006757600080fd5b5061007c600160a060020a03600435166100c8565b604080519115158252519081900360200190f35b34801561009c57600080fd5b506100a56100e0565b005b3480156100b357600080fd5b506100a5600160a060020a03600435166100eb565b60006100da818363ffffffff61010b16565b92915050565b6100e933610142565b565b6100f4336100c8565b15156100ff57600080fd5b6101088161018a565b50565b6000600160a060020a038216151561012257600080fd5b50600160a060020a03166000908152602091909152604090205460ff1690565b61015360008263ffffffff6101d216565b604051600160a060020a038216907fcd265ebaf09df2871cc7bd4133404a235ba12eff2041bb89d9c714a2621c7c7e90600090a250565b61019b60008263ffffffff61020916565b604051600160a060020a038216907f6719d08c1888103bea251a4ed56406bd0c3e69723c8a1686e017e7bbe159b6f890600090a250565b600160a060020a03811615156101e757600080fd5b600160a060020a0316600090815260209190915260409020805460ff19169055565b600160a060020a038116151561021e57600080fd5b600160a060020a0316600090815260209190915260409020805460ff191660011790555600a165627a7a72305820dcad94df01f38614b1240bdf4e45f0c6491ac251eb10531dbf3e36fcafcf7a2c0029",
  "source": "pragma solidity ^0.4.24;\n\nimport \"../Roles.sol\";\n\ncontract PauserRole {\n  using Roles for Roles.Role;\n\n  event PauserAdded(address indexed account);\n  event PauserRemoved(address indexed account);\n\n  Roles.Role private pausers;\n\n  constructor() public {\n    _addPauser(msg.sender);\n  }\n\n  modifier onlyPauser() {\n    require(isPauser(msg.sender));\n    _;\n  }\n\n  function isPauser(address account) public view returns (bool) {\n    return pausers.has(account);\n  }\n\n  function addPauser(address account) public onlyPauser {\n    _addPauser(account);\n  }\n\n  function renouncePauser() public {\n    _removePauser(msg.sender);\n  }\n\n  function _addPauser(address account) internal {\n    pausers.add(account);\n    emit PauserAdded(account);\n  }\n\n  function _removePauser(address account) internal {\n    pausers.remove(account);\n    emit PauserRemoved(account);\n  }\n}\n",
  "sourcePath": "/Users/achiko/Documents/elva/projects/kittiefight/KittieSITE/contracts/openzeppelin-solidity__old/access/roles/PauserRole.sol",
  "compiler": {
    "name": "solc",
    "version": "0.4.24+commit.e67f0147.Emscripten.clang"
  },
  "schemaVersion": "2.0.1",
  "updatedAt": "2018-11-05T14:07:26.410Z"
}