{
  "contractName": "PromissoryToken",
  "abi": [
    {
      "constant": true,
      "inputs": [],
      "name": "lastPrice",
      "outputs": [
        {
          "name": "",
          "type": "uint256"
        }
      ],
      "payable": false,
      "stateMutability": "view",
      "type": "function"
    },
    {
      "inputs": [],
      "payable": false,
      "stateMutability": "nonpayable",
      "type": "constructor"
    }
  ],
  "bytecode": "0x6080604052348015600f57600080fd5b50609e8061001e6000396000f300608060405260043610603e5763ffffffff7c0100000000000000000000000000000000000000000000000000000000600035041663053f14da81146043575b600080fd5b348015604e57600080fd5b5060556067565b60408051918252519081900360200190f35b66a56bac75133c00815600a165627a7a72305820f605d0ecd34a87a1eabe6bd444b839f0930b69c021ce3b7dfb1c8b39b988abba0029",
  "source": "pragma solidity ^0.4.23;\n\ncontract PromissoryToken  {\n\n\tuint constant public lastPrice = 46561759600000000;\n\t\n\tconstructor() public {\n\n\t}\n}\n",
  "sourcePath": "/Users/achiko/Documents/elva/projects/kittiefight/DutchAuction/contracts/PromissoryToken.sol",
  "compiler": {
    "name": "solc",
    "version": "0.4.24+commit.e67f0147.Emscripten.clang"
  },
  "schemaVersion": "2.0.1",
  "updatedAt": "2018-12-18T15:58:43.681Z"
}