{
  "contractName": "PromissoryTokenWrapper",
  "abi": [
    {
      "inputs": [
        {
          "name": "_addr",
          "type": "address"
        }
      ],
      "payable": false,
      "stateMutability": "nonpayable",
      "type": "constructor"
    },
    {
      "constant": false,
      "inputs": [],
      "name": "getLastPrice",
      "outputs": [
        {
          "name": "",
          "type": "uint256"
        }
      ],
      "payable": false,
      "stateMutability": "nonpayable",
      "type": "function"
    }
  ],
  "bytecode": "0x608060405234801561001057600080fd5b506040516020806101a2833981016040525160008054600160a060020a03909216600160a060020a0319909216919091179055610150806100526000396000f3006080604052600436106100405763ffffffff7c0100000000000000000000000000000000000000000000000000000000600035041663d8cf24fd8114610045575b600080fd5b34801561005157600080fd5b5061005a61006c565b60408051918252519081900360200190f35b60008060009054906101000a900473ffffffffffffffffffffffffffffffffffffffff1673ffffffffffffffffffffffffffffffffffffffff1663053f14da6040518163ffffffff167c0100000000000000000000000000000000000000000000000000000000028152600401602060405180830381600087803b1580156100f357600080fd5b505af1158015610107573d6000803e3d6000fd5b505050506040513d602081101561011d57600080fd5b50519050905600a165627a7a72305820047914d3569dd33b86ec97f7d4ada55ffde6653b203f2c3659fe999982dec6440029",
  "source": "pragma solidity ^0.4.23;\n\n//import \"./PromissoryToken.sol\";\n\nimport \"./Interfaces/PromissoryContract.sol\";\n\n\ncontract PromissoryTokenWrapper  {\n\n\tPromissoryToken wrap;\n\n\tconstructor(address _addr  ) public {\n\t\twrap = PromissoryToken(_addr);\n\t}\n\n\tfunction getLastPrice() public returns(uint256) {\n\t\treturn wrap.lastPrice();\n\t}\n\n}\n",
  "sourcePath": "/Users/achiko/Documents/elva/projects/kittiefight/KittieSITE/contracts/PrimissoryTokenWrapper.sol",
  "compiler": {
    "name": "solc",
    "version": "0.4.24+commit.e67f0147.Emscripten.clang"
  },
  "schemaVersion": "2.0.1",
  "updatedAt": "2018-11-05T14:07:26.236Z"
}