{
  "contractName": "PropsToken",
  "abi": [
    {
      "constant": true,
      "inputs": [],
      "name": "mintingFinished",
      "outputs": [
        {
          "name": "",
          "type": "bool"
        }
      ],
      "payable": false,
      "stateMutability": "view",
      "type": "function"
    },
    {
      "constant": true,
      "inputs": [],
      "name": "name",
      "outputs": [
        {
          "name": "",
          "type": "string"
        }
      ],
      "payable": false,
      "stateMutability": "view",
      "type": "function"
    },
    {
      "constant": false,
      "inputs": [
        {
          "name": "_spender",
          "type": "address"
        },
        {
          "name": "_value",
          "type": "uint256"
        }
      ],
      "name": "approve",
      "outputs": [
        {
          "name": "",
          "type": "bool"
        }
      ],
      "payable": false,
      "stateMutability": "nonpayable",
      "type": "function"
    },
    {
      "constant": true,
      "inputs": [
        {
          "name": "_token",
          "type": "address"
        },
        {
          "name": "_to",
          "type": "address"
        },
        {
          "name": "_value",
          "type": "uint256"
        },
        {
          "name": "_fee",
          "type": "uint256"
        },
        {
          "name": "_nonce",
          "type": "uint256"
        }
      ],
      "name": "transferPreSignedHashing",
      "outputs": [
        {
          "name": "",
          "type": "bytes32"
        }
      ],
      "payable": false,
      "stateMutability": "pure",
      "type": "function"
    },
    {
      "constant": true,
      "inputs": [],
      "name": "totalSupply",
      "outputs": [
        {
          "name": "",
          "type": "uint256"
        }
      ],
      "payable": false,
      "stateMutability": "view",
      "type": "function"
    },
    {
      "constant": true,
      "inputs": [
        {
          "name": "hash",
          "type": "bytes32"
        },
        {
          "name": "sig",
          "type": "bytes"
        }
      ],
      "name": "recover",
      "outputs": [
        {
          "name": "",
          "type": "address"
        }
      ],
      "payable": false,
      "stateMutability": "pure",
      "type": "function"
    },
    {
      "constant": true,
      "inputs": [],
      "name": "isTransferWhitelistOnly",
      "outputs": [
        {
          "name": "",
          "type": "bool"
        }
      ],
      "payable": false,
      "stateMutability": "view",
      "type": "function"
    },
    {
      "constant": true,
      "inputs": [],
      "name": "decimals",
      "outputs": [
        {
          "name": "",
          "type": "uint8"
        }
      ],
      "payable": false,
      "stateMutability": "view",
      "type": "function"
    },
    {
      "constant": false,
      "inputs": [],
      "name": "unpause",
      "outputs": [],
      "payable": false,
      "stateMutability": "nonpayable",
      "type": "function"
    },
    {
      "constant": false,
      "inputs": [
        {
          "name": "_to",
          "type": "address"
        },
        {
          "name": "_amount",
          "type": "uint256"
        }
      ],
      "name": "mint",
      "outputs": [
        {
          "name": "",
          "type": "bool"
        }
      ],
      "payable": false,
      "stateMutability": "nonpayable",
      "type": "function"
    },
    {
      "constant": true,
      "inputs": [],
      "name": "amountOfTokenToMint",
      "outputs": [
        {
          "name": "",
          "type": "uint256"
        }
      ],
      "payable": false,
      "stateMutability": "view",
      "type": "function"
    },
    {
      "constant": true,
      "inputs": [
        {
          "name": "_token",
          "type": "address"
        },
        {
          "name": "_spender",
          "type": "address"
        },
        {
          "name": "_subtractedValue",
          "type": "uint256"
        },
        {
          "name": "_fee",
          "type": "uint256"
        },
        {
          "name": "_nonce",
          "type": "uint256"
        }
      ],
      "name": "decreaseApprovalPreSignedHashing",
      "outputs": [
        {
          "name": "",
          "type": "bytes32"
        }
      ],
      "payable": false,
      "stateMutability": "pure",
      "type": "function"
    },
    {
      "constant": true,
      "inputs": [],
      "name": "paused",
      "outputs": [
        {
          "name": "",
          "type": "bool"
        }
      ],
      "payable": false,
      "stateMutability": "view",
      "type": "function"
    },
    {
      "constant": false,
      "inputs": [
        {
          "name": "_spender",
          "type": "address"
        },
        {
          "name": "_subtractedValue",
          "type": "uint256"
        }
      ],
      "name": "decreaseApproval",
      "outputs": [
        {
          "name": "success",
          "type": "bool"
        }
      ],
      "payable": false,
      "stateMutability": "nonpayable",
      "type": "function"
    },
    {
      "constant": true,
      "inputs": [
        {
          "name": "_owner",
          "type": "address"
        }
      ],
      "name": "balanceOf",
      "outputs": [
        {
          "name": "balance",
          "type": "uint256"
        }
      ],
      "payable": false,
      "stateMutability": "view",
      "type": "function"
    },
    {
      "constant": false,
      "inputs": [],
      "name": "finishMinting",
      "outputs": [
        {
          "name": "",
          "type": "bool"
        }
      ],
      "payable": false,
      "stateMutability": "nonpayable",
      "type": "function"
    },
    {
      "constant": false,
      "inputs": [],
      "name": "pause",
      "outputs": [],
      "payable": false,
      "stateMutability": "nonpayable",
      "type": "function"
    },
    {
      "constant": false,
      "inputs": [
        {
          "name": "_signature",
          "type": "bytes"
        },
        {
          "name": "_spender",
          "type": "address"
        },
        {
          "name": "_subtractedValue",
          "type": "uint256"
        },
        {
          "name": "_fee",
          "type": "uint256"
        },
        {
          "name": "_nonce",
          "type": "uint256"
        }
      ],
      "name": "decreaseApprovalPreSigned",
      "outputs": [
        {
          "name": "",
          "type": "bool"
        }
      ],
      "payable": false,
      "stateMutability": "nonpayable",
      "type": "function"
    },
    {
      "constant": true,
      "inputs": [],
      "name": "owner",
      "outputs": [
        {
          "name": "",
          "type": "address"
        }
      ],
      "payable": false,
      "stateMutability": "view",
      "type": "function"
    },
    {
      "constant": true,
      "inputs": [],
      "name": "symbol",
      "outputs": [
        {
          "name": "",
          "type": "string"
        }
      ],
      "payable": false,
      "stateMutability": "view",
      "type": "function"
    },
    {
      "constant": true,
      "inputs": [
        {
          "name": "_token",
          "type": "address"
        },
        {
          "name": "_spender",
          "type": "address"
        },
        {
          "name": "_addedValue",
          "type": "uint256"
        },
        {
          "name": "_fee",
          "type": "uint256"
        },
        {
          "name": "_nonce",
          "type": "uint256"
        }
      ],
      "name": "increaseApprovalPreSignedHashing",
      "outputs": [
        {
          "name": "",
          "type": "bytes32"
        }
      ],
      "payable": false,
      "stateMutability": "pure",
      "type": "function"
    },
    {
      "constant": false,
      "inputs": [
        {
          "name": "_signature",
          "type": "bytes"
        },
        {
          "name": "_spender",
          "type": "address"
        },
        {
          "name": "_addedValue",
          "type": "uint256"
        },
        {
          "name": "_fee",
          "type": "uint256"
        },
        {
          "name": "_nonce",
          "type": "uint256"
        }
      ],
      "name": "increaseApprovalPreSigned",
      "outputs": [
        {
          "name": "",
          "type": "bool"
        }
      ],
      "payable": false,
      "stateMutability": "nonpayable",
      "type": "function"
    },
    {
      "constant": true,
      "inputs": [
        {
          "name": "_token",
          "type": "address"
        },
        {
          "name": "_from",
          "type": "address"
        },
        {
          "name": "_to",
          "type": "address"
        },
        {
          "name": "_value",
          "type": "uint256"
        },
        {
          "name": "_fee",
          "type": "uint256"
        },
        {
          "name": "_nonce",
          "type": "uint256"
        }
      ],
      "name": "transferFromPreSignedHashing",
      "outputs": [
        {
          "name": "",
          "type": "bytes32"
        }
      ],
      "payable": false,
      "stateMutability": "pure",
      "type": "function"
    },
    {
      "constant": false,
      "inputs": [
        {
          "name": "_signature",
          "type": "bytes"
        },
        {
          "name": "_from",
          "type": "address"
        },
        {
          "name": "_to",
          "type": "address"
        },
        {
          "name": "_value",
          "type": "uint256"
        },
        {
          "name": "_fee",
          "type": "uint256"
        },
        {
          "name": "_nonce",
          "type": "uint256"
        }
      ],
      "name": "transferFromPreSigned",
      "outputs": [
        {
          "name": "",
          "type": "bool"
        }
      ],
      "payable": false,
      "stateMutability": "nonpayable",
      "type": "function"
    },
    {
      "constant": false,
      "inputs": [
        {
          "name": "_spender",
          "type": "address"
        },
        {
          "name": "_addedValue",
          "type": "uint256"
        }
      ],
      "name": "increaseApproval",
      "outputs": [
        {
          "name": "success",
          "type": "bool"
        }
      ],
      "payable": false,
      "stateMutability": "nonpayable",
      "type": "function"
    },
    {
      "constant": true,
      "inputs": [
        {
          "name": "_owner",
          "type": "address"
        },
        {
          "name": "_spender",
          "type": "address"
        }
      ],
      "name": "allowance",
      "outputs": [
        {
          "name": "",
          "type": "uint256"
        }
      ],
      "payable": false,
      "stateMutability": "view",
      "type": "function"
    },
    {
      "constant": false,
      "inputs": [
        {
          "name": "newOwner",
          "type": "address"
        }
      ],
      "name": "transferOwnership",
      "outputs": [],
      "payable": false,
      "stateMutability": "nonpayable",
      "type": "function"
    },
    {
      "constant": true,
      "inputs": [
        {
          "name": "_token",
          "type": "address"
        },
        {
          "name": "_spender",
          "type": "address"
        },
        {
          "name": "_value",
          "type": "uint256"
        },
        {
          "name": "_fee",
          "type": "uint256"
        },
        {
          "name": "_nonce",
          "type": "uint256"
        }
      ],
      "name": "approvePreSignedHashing",
      "outputs": [
        {
          "name": "",
          "type": "bytes32"
        }
      ],
      "payable": false,
      "stateMutability": "pure",
      "type": "function"
    },
    {
      "anonymous": false,
      "inputs": [
        {
          "indexed": false,
          "name": "user",
          "type": "address"
        }
      ],
      "name": "UserAllowedToTransfer",
      "type": "event"
    },
    {
      "anonymous": false,
      "inputs": [
        {
          "indexed": false,
          "name": "flag",
          "type": "bool"
        }
      ],
      "name": "TransferWhitelistOnly",
      "type": "event"
    },
    {
      "anonymous": false,
      "inputs": [
        {
          "indexed": true,
          "name": "to",
          "type": "address"
        },
        {
          "indexed": false,
          "name": "amount",
          "type": "uint256"
        }
      ],
      "name": "Mint",
      "type": "event"
    },
    {
      "anonymous": false,
      "inputs": [],
      "name": "MintFinished",
      "type": "event"
    },
    {
      "anonymous": false,
      "inputs": [],
      "name": "Pause",
      "type": "event"
    },
    {
      "anonymous": false,
      "inputs": [],
      "name": "Unpause",
      "type": "event"
    },
    {
      "anonymous": false,
      "inputs": [
        {
          "indexed": true,
          "name": "previousOwner",
          "type": "address"
        },
        {
          "indexed": true,
          "name": "newOwner",
          "type": "address"
        }
      ],
      "name": "OwnershipTransferred",
      "type": "event"
    },
    {
      "anonymous": false,
      "inputs": [
        {
          "indexed": true,
          "name": "from",
          "type": "address"
        },
        {
          "indexed": true,
          "name": "to",
          "type": "address"
        },
        {
          "indexed": true,
          "name": "delegate",
          "type": "address"
        },
        {
          "indexed": false,
          "name": "amount",
          "type": "uint256"
        },
        {
          "indexed": false,
          "name": "fee",
          "type": "uint256"
        }
      ],
      "name": "TransferPreSigned",
      "type": "event"
    },
    {
      "anonymous": false,
      "inputs": [
        {
          "indexed": true,
          "name": "from",
          "type": "address"
        },
        {
          "indexed": true,
          "name": "to",
          "type": "address"
        },
        {
          "indexed": true,
          "name": "delegate",
          "type": "address"
        },
        {
          "indexed": false,
          "name": "amount",
          "type": "uint256"
        },
        {
          "indexed": false,
          "name": "fee",
          "type": "uint256"
        }
      ],
      "name": "ApprovalPreSigned",
      "type": "event"
    },
    {
      "anonymous": false,
      "inputs": [
        {
          "indexed": true,
          "name": "owner",
          "type": "address"
        },
        {
          "indexed": true,
          "name": "spender",
          "type": "address"
        },
        {
          "indexed": false,
          "name": "value",
          "type": "uint256"
        }
      ],
      "name": "Approval",
      "type": "event"
    },
    {
      "anonymous": false,
      "inputs": [
        {
          "indexed": true,
          "name": "from",
          "type": "address"
        },
        {
          "indexed": true,
          "name": "to",
          "type": "address"
        },
        {
          "indexed": false,
          "name": "value",
          "type": "uint256"
        }
      ],
      "name": "Transfer",
      "type": "event"
    },
    {
      "constant": true,
      "inputs": [
        {
          "name": "_user",
          "type": "address"
        }
      ],
      "name": "isUserAllowedToTransfer",
      "outputs": [
        {
          "name": "",
          "type": "bool"
        }
      ],
      "payable": false,
      "stateMutability": "view",
      "type": "function"
    },
    {
      "constant": false,
      "inputs": [
        {
          "name": "_isWhitelistOnly",
          "type": "bool"
        }
      ],
      "name": "setWhitelistedOnly",
      "outputs": [],
      "payable": false,
      "stateMutability": "nonpayable",
      "type": "function"
    },
    {
      "constant": false,
      "inputs": [
        {
          "name": "_user",
          "type": "address"
        }
      ],
      "name": "whitelistUserForTransfers",
      "outputs": [],
      "payable": false,
      "stateMutability": "nonpayable",
      "type": "function"
    },
    {
      "constant": false,
      "inputs": [
        {
          "name": "_user",
          "type": "address"
        }
      ],
      "name": "blacklistUserForTransfers",
      "outputs": [],
      "payable": false,
      "stateMutability": "nonpayable",
      "type": "function"
    },
    {
      "constant": false,
      "inputs": [
        {
          "name": "_to",
          "type": "address"
        },
        {
          "name": "_value",
          "type": "uint256"
        }
      ],
      "name": "transfer",
      "outputs": [
        {
          "name": "",
          "type": "bool"
        }
      ],
      "payable": false,
      "stateMutability": "nonpayable",
      "type": "function"
    },
    {
      "constant": false,
      "inputs": [
        {
          "name": "_from",
          "type": "address"
        },
        {
          "name": "_to",
          "type": "address"
        },
        {
          "name": "_value",
          "type": "uint256"
        }
      ],
      "name": "transferFrom",
      "outputs": [
        {
          "name": "",
          "type": "bool"
        }
      ],
      "payable": false,
      "stateMutability": "nonpayable",
      "type": "function"
    },
    {
      "constant": false,
      "inputs": [
        {
          "name": "_signature",
          "type": "bytes"
        },
        {
          "name": "_to",
          "type": "address"
        },
        {
          "name": "_value",
          "type": "uint256"
        },
        {
          "name": "_fee",
          "type": "uint256"
        },
        {
          "name": "_nonce",
          "type": "uint256"
        }
      ],
      "name": "transferPreSigned",
      "outputs": [
        {
          "name": "",
          "type": "bool"
        }
      ],
      "payable": false,
      "stateMutability": "nonpayable",
      "type": "function"
    },
    {
      "constant": false,
      "inputs": [
        {
          "name": "_signature",
          "type": "bytes"
        },
        {
          "name": "_spender",
          "type": "address"
        },
        {
          "name": "_value",
          "type": "uint256"
        },
        {
          "name": "_fee",
          "type": "uint256"
        },
        {
          "name": "_nonce",
          "type": "uint256"
        }
      ],
      "name": "approvePreSigned",
      "outputs": [
        {
          "name": "",
          "type": "bool"
        }
      ],
      "payable": false,
      "stateMutability": "nonpayable",
      "type": "function"
    }
  ],
  "bytecode": "0x608060405260048054600160b860020a031916331790556126cc806100256000396000f3006080604052600436106101c15763ffffffff7c010000000000000000000000000000000000000000000000000000000060003504166305d2035b81146101c657806306fdde03146101ef578063095ea7b3146102795780631296830d1461029d57806315420b711461031057806318160ddd1461035257806319045a251461036757806323b872dd146103e1578063260d387b1461040b5780632b2be3091461042e578063313ce567146104435780633f4ba83a1461046e57806340c10f19146104835780635478bc6b146104a757806359388d78146104bc5780635c975abb146104ec578063617b390b14610501578063661884631461057457806370a08231146105985780637d64bcb4146105b95780638456cb59146105ce5780638be52783146105e35780638da5cb5b1461065657806395d89b411461066b578063a157696b14610680578063a25b93841461069a578063a45f71ff146106bb578063a9059cbb146106eb578063adb8249e1461070f578063b7656dc514610782578063bca50515146107b8578063d73dd62314610835578063dd62ed3e14610859578063f2fde38b14610880578063f7ac9c2e146108a1578063fb37baa1146108d1575b600080fd5b3480156101d257600080fd5b506101db6108f2565b604080519115158252519081900360200190f35b3480156101fb57600080fd5b50610204610914565b6040805160208082528351818301528351919283929083019185019080838360005b8381101561023e578181015183820152602001610226565b50505050905090810190601f16801561026b5780820380516001836020036101000a031916815260200191505b509250505060405180910390f35b34801561028557600080fd5b506101db600160a060020a036004351660243561094b565b3480156102a957600080fd5b506040805160206004803580820135601f81018490048402850184019095528484526101db94369492936024939284019190819084018382808284375094975050508335600160a060020a0316945050506020820135916040810135915060600135610976565b34801561031c57600080fd5b50610340600160a060020a03600435811690602435166044356064356084356109ee565b60408051918252519081900360200190f35b34801561035e57600080fd5b50610340610a60565b34801561037357600080fd5b5060408051602060046024803582810135601f81018590048502860185019096528585526103c5958335953695604494919390910191908190840183828082843750949750610a669650505050505050565b60408051600160a060020a039092168252519081900360200190f35b3480156103ed57600080fd5b506101db600160a060020a0360043581169060243516604435610b3b565b34801561041757600080fd5b5061042c600160a060020a0360043516610b77565b005b34801561043a57600080fd5b506101db610bfa565b34801561044f57600080fd5b50610458610c0a565b6040805160ff9092168252519081900360200190f35b34801561047a57600080fd5b5061042c610c0f565b34801561048f57600080fd5b506101db600160a060020a0360043516602435610c87565b3480156104b357600080fd5b50610340610d91565b3480156104c857600080fd5b50610340600160a060020a0360043581169060243516604435606435608435610da0565b3480156104f857600080fd5b506101db610e12565b34801561050d57600080fd5b506040805160206004803580820135601f81018490048402850184019095528484526101db94369492936024939284019190819084018382808284375094975050508335600160a060020a0316945050506020820135916040810135915060600135610e22565b34801561058057600080fd5b506101db600160a060020a0360043516602435610e8e565b3480156105a457600080fd5b50610340600160a060020a0360043516610eb2565b3480156105c557600080fd5b506101db610ecd565b3480156105da57600080fd5b5061042c610f76565b3480156105ef57600080fd5b506040805160206004803580820135601f81018490048402850184019095528484526101db94369492936024939284019190819084018382808284375094975050508335600160a060020a0316945050506020820135916040810135915060600135610ff3565b34801561066257600080fd5b506103c56112ff565b34801561067757600080fd5b5061020461130e565b34801561068c57600080fd5b5061042c6004351515611345565b3480156106a657600080fd5b506101db600160a060020a03600435166113db565b3480156106c757600080fd5b50610340600160a060020a0360043581169060243516604435606435608435611411565b3480156106f757600080fd5b506101db600160a060020a0360043516602435611483565b34801561071b57600080fd5b506040805160206004803580820135601f81018490048402850184019095528484526101db94369492936024939284019190819084018382808284375094975050508335600160a060020a03169450505060208201359160408101359150606001356114b6565b34801561078e57600080fd5b50610340600160a060020a036004358116906024358116906044351660643560843560a435611797565b3480156107c457600080fd5b506040805160206004803580820135601f81018490048402850184019095528484526101db94369492936024939284019190819084018382808284375094975050600160a060020a038535811696506020860135169460408101359450606081013593506080013591506118199050565b34801561084157600080fd5b506101db600160a060020a0360043516602435611aeb565b34801561086557600080fd5b50610340600160a060020a0360043581169060243516611b0f565b34801561088c57600080fd5b5061042c600160a060020a0360043516611b3a565b3480156108ad57600080fd5b50610340600160a060020a0360043581169060243516604435606435608435611bcf565b3480156108dd57600080fd5b5061042c600160a060020a0360043516611c41565b6004547501000000000000000000000000000000000000000000900460ff1681565b60408051808201909152601181527f4b6974746965666967687420546f6b656e000000000000000000000000000000602082015281565b60045460009060a060020a900460ff161561096557600080fd5b61096f8383611cc6565b9392505050565b6004546000908190819060a060020a900460ff161561099457600080fd5b60045460b060020a900460ff16156109d5576109b330888888886109ee565b91506109bf8289610a66565b90506109ca816113db565b15156109d557600080fd5b6109e28888888888611d1a565b98975050505050505050565b604080517f48664c160000000000000000000000000000000000000000000000000000000081526c01000000000000000000000000600160a060020a0397881681026004830152959096169094026018860152602c850192909252604c840152606c8301525190819003608c01902090565b60015490565b60008060008084516041141515610a805760009350610b32565b50505060208201516040830151606084015160001a601b60ff82161015610aa557601b015b8060ff16601b14158015610abd57508060ff16601c14155b15610acb5760009350610b32565b60408051600080825260208083018085528a905260ff8516838501526060830187905260808301869052925160019360a0808501949193601f19840193928390039091019190865af1158015610b25573d6000803e3d6000fd5b5050506020604051035193505b50505092915050565b60045460009060b060020a900460ff1615610b6457610b59846113db565b1515610b6457600080fd5b610b6f848484611fd2565b949350505050565b600454600160a060020a03163314610b8e57600080fd5b610b97816113db565b1515610ba257600080fd5b600160a060020a038116600081815260056020908152604091829020805460ff19169055815192835290517fad88aec34f4861d5a8a34d064eba1c3ce7222a541db6a6cfbcef0e6aa0dac53c9281900390910190a150565b60045460b060020a900460ff1681565b601281565b600454600160a060020a03163314610c2657600080fd5b60045460a060020a900460ff161515610c3e57600080fd5b6004805474ff0000000000000000000000000000000000000000191690556040517f7805862f689e2f13df9f062ff482ad3ad112aca9e0847911ed832e158c525b3390600090a1565b600454600090600160a060020a03163314610ca157600080fd5b6004547501000000000000000000000000000000000000000000900460ff1615610cca57600080fd5b600154610cdd908363ffffffff611ff716565b600155600160a060020a038316600090815260208190526040902054610d09908363ffffffff611ff716565b600160a060020a03841660008181526020818152604091829020939093558051858152905191927f0f6798a560793a54c3bcfe86a93cde1e73087d944c0ea20544137d412139688592918290030190a2604080518381529051600160a060020a038516916000916000805160206126618339815191529181900360200190a350600192915050565b6a52b7d2dcc80cd2e400000081565b604080517f59388d780000000000000000000000000000000000000000000000000000000081526c01000000000000000000000000600160a060020a0397881681026004830152959096169094026018860152602c850192909252604c840152606c8301525190819003608c01902090565b60045460a060020a900460ff1681565b6004546000908190819060a060020a900460ff1615610e4057600080fd5b60045460b060020a900460ff1615610e8157610e5f3088888888611bcf565b9150610e6b8289610a66565b9050610e76816113db565b1515610e8157600080fd5b6109e28888888888612006565b60045460009060a060020a900460ff1615610ea857600080fd5b61096f8383612291565b600160a060020a031660009081526020819052604090205490565b600454600090600160a060020a03163314610ee757600080fd5b6004547501000000000000000000000000000000000000000000900460ff1615610f1057600080fd5b6004805475ff000000000000000000000000000000000000000000191675010000000000000000000000000000000000000000001790556040517fae5184fba832cb2b1f702aca6117b8d265eaf03ad33eb133f19dde0f5920fa0890600090a150600190565b600454600160a060020a03163314610f8d57600080fd5b60045460a060020a900460ff1615610fa457600080fd5b6004805474ff0000000000000000000000000000000000000000191660a060020a1790556040517f6985a02210a168e66602d3235cb6db0e70f92b3ba4d376a33c0f3d9434bff62590600090a1565b6000808080600160a060020a038816151561100d57600080fd5b6003896040518082805190602001908083835b6020831061103f5780518252601f199092019160209182019101611020565b51815160209384036101000a600019018019909216911617905292019485525060405193849003019092205460ff1615915061107c905057600080fd5b6110893089898989610da0565b9250611095838a610a66565b9150600160a060020a03821615156110ac57600080fd5b50600160a060020a038082166000908152600260209081526040808320938b16835292905220548087111561110857600160a060020a038083166000908152600260209081526040808320938c1683529290529081205561113f565b611118818863ffffffff61236f16565b600160a060020a038084166000908152600260209081526040808320938d16835292905220555b600160a060020a038216600090815260208190526040902054611168908763ffffffff61236f16565b600160a060020a03831660009081526020819052604080822092909255338152205461119a908763ffffffff611ff716565b60008033600160a060020a0316600160a060020a0316815260200190815260200160002081905550600160038a6040518082805190602001908083835b602083106111f65780518252601f1990920191602091820191016111d7565b51815160209384036101000a6000190180199092169116179052920194855250604080519485900382018520805460ff1916961515969096179095558b84529351600160a060020a038d811695908816946000805160206126818339815191529450829003019150a36040805187815290513391600160a060020a038516916000805160206126618339815191529181900360200190a3600160a060020a038281166000818152600260209081526040808320948d16808452948252918290205482519081529081018a90528151339493927f43a220267705e74ee2ceafd46afc841850db6f85a662189a7def697bbdd90ffb928290030190a450600198975050505050505050565b600454600160a060020a031681565b60408051808201909152600381527f4b54590000000000000000000000000000000000000000000000000000000000602082015281565b600454600160a060020a0316331461135c57600080fd5b60045460ff60b060020a909104161515811515146113d8576004805482151560b060020a810276ff00000000000000000000000000000000000000000000199092169190911790915560408051918252517f757db31e37ddce6c8bda07399e53891f513ac7cacd86ae8f781bab706c74d45f9181900360200190a15b50565b6000600160a060020a03821615156113f257600080fd5b50600160a060020a031660009081526005602052604090205460ff1690565b604080517fa45f71ff0000000000000000000000000000000000000000000000000000000081526c01000000000000000000000000600160a060020a0397881681026004830152959096169094026018860152602c850192909252604c840152606c8301525190819003608c01902090565b60045460009060b060020a900460ff16156114ac576114a1336113db565b15156114ac57600080fd5b61096f8383612381565b60008080600160a060020a03871615156114cf57600080fd5b6003886040518082805190602001908083835b602083106115015780518252601f1990920191602091820191016114e2565b51815160209384036101000a600019018019909216911617905292019485525060405193849003019092205460ff1615915061153e905057600080fd5b61154b3088888888611411565b91506115578289610a66565b9050600160a060020a038116151561156e57600080fd5b600160a060020a038082166000908152600260209081526040808320938b16835292905220546115a4908763ffffffff611ff716565b600160a060020a038083166000818152600260209081526040808320948d16835293815283822094909455908152918290529020546115e9908663ffffffff61236f16565b600160a060020a03821660009081526020819052604080822092909255338152205461161b908663ffffffff611ff716565b60008033600160a060020a0316600160a060020a031681526020019081526020016000208190555060016003896040518082805190602001908083835b602083106116775780518252601f199092019160209182019101611658565b51815160209384036101000a6000190180199092169116179052920194855250604080519485900382018520805460ff191696151596909617909555600160a060020a03868116600081815260028452878120928f16808252928452879020548652955190959460008051602061268183398151915294508190039091019150a36040805186815290513391600160a060020a038416916000805160206126618339815191529181900360200190a3600160a060020a038181166000818152600260209081526040808320948c16808452948252918290205482519081529081018990528151339493927f43a220267705e74ee2ceafd46afc841850db6f85a662189a7def697bbdd90ffb928290030190a4506001979650505050505050565b604080517fb7656dc50000000000000000000000000000000000000000000000000000000081526c01000000000000000000000000600160a060020a03808a168202600484015280891682026018840152871602602c820152808201859052606081018490526080810183905290519081900360a00190209695505050505050565b60008080600160a060020a038716151561183257600080fd5b6003896040518082805190602001908083835b602083106118645780518252601f199092019160209182019101611845565b51815160209384036101000a600019018019909216911617905292019485525060405193849003019092205460ff161591506118a1905057600080fd5b6118af308989898989611797565b91506118bb828a610a66565b9050600160a060020a03811615156118d257600080fd5b600160a060020a0388166000908152602081905260409020546118fb908763ffffffff61236f16565b600160a060020a03808a166000908152602081905260408082209390935590891681522054611930908763ffffffff611ff716565b600160a060020a03808916600090815260208181526040808320949094558b83168252600281528382209285168252919091522054611975908763ffffffff61236f16565b600160a060020a03808a166000908152600260209081526040808320938616835292815282822093909355918290529020546119b7908663ffffffff61236f16565b600160a060020a0382166000908152602081905260408082209290925533815220546119e9908663ffffffff611ff716565b60008033600160a060020a0316600160a060020a0316815260200190815260200160002081905550600160038a6040518082805190602001908083835b60208310611a455780518252601f199092019160209182019101611a26565b51815160209384036101000a6000190180199092169116179052920194855250604080519485900382018520805460ff1916961515969096179095558a84529351600160a060020a038c811695908e16946000805160206126618339815191529450829003019150a36040805186815290513391600160a060020a038416916000805160206126618339815191529181900360200190a350600198975050505050505050565b60045460009060a060020a900460ff1615611b0557600080fd5b61096f83836123a5565b600160a060020a03918216600090815260026020908152604080832093909416825291909152205490565b600454600160a060020a03163314611b5157600080fd5b600160a060020a0381161515611b6657600080fd5b600454604051600160a060020a038084169216907f8be0079c531659141344cd1fd0a4f28419497f9722a3daafe3b4186f6b6457e090600090a36004805473ffffffffffffffffffffffffffffffffffffffff1916600160a060020a0392909216919091179055565b604080517ff7ac9c2e0000000000000000000000000000000000000000000000000000000081526c01000000000000000000000000600160a060020a0397881681026004830152959096169094026018860152602c850192909252604c840152606c8301525190819003608c01902090565b600454600160a060020a03163314611c5857600080fd5b611c61816113db565b15611c6b57600080fd5b600160a060020a038116600081815260056020908152604091829020805460ff19166001179055815192835290517fad88aec34f4861d5a8a34d064eba1c3ce7222a541db6a6cfbcef0e6aa0dac53c9281900390910190a150565b336000818152600260209081526040808320600160a060020a03871680855290835281842086905581518681529151939490939092600080516020612681833981519152928290030190a350600192915050565b60008080600160a060020a0387161515611d3357600080fd5b6003886040518082805190602001908083835b60208310611d655780518252601f199092019160209182019101611d46565b51815160209384036101000a600019018019909216911617905292019485525060405193849003019092205460ff16159150611da2905057600080fd5b611daf30888888886109ee565b9150611dbb8289610a66565b9050600160a060020a0381161515611dd257600080fd5b600160a060020a038116600090815260208190526040902054611e0d908690611e01908963ffffffff61236f16565b9063ffffffff61236f16565b600160a060020a038083166000908152602081905260408082209390935590891681522054611e42908763ffffffff611ff716565b600160a060020a038816600090815260208190526040808220929092553381522054611e74908663ffffffff611ff716565b60008033600160a060020a0316600160a060020a031681526020019081526020016000208190555060016003896040518082805190602001908083835b60208310611ed05780518252601f199092019160209182019101611eb1565b51815160209384036101000a6000190180199092169116179052920194855250604080519485900382018520805460ff1916961515969096179095558a84529351600160a060020a038c811695908716946000805160206126618339815191529450829003019150a36040805186815290513391600160a060020a038416916000805160206126618339815191529181900360200190a333600160a060020a031687600160a060020a031682600160a060020a03167fec5a73fd1f178be20c1bca1b406cbf4b5c20d833b66e582fc122fb4baa0fc2a48989604051808381526020018281526020019250505060405180910390a4506001979650505050505050565b60045460009060a060020a900460ff1615611fec57600080fd5b610b6f84848461242c565b60008282018381101561096f57fe5b60008080600160a060020a038716151561201f57600080fd5b6003886040518082805190602001908083835b602083106120515780518252601f199092019160209182019101612032565b51815160209384036101000a600019018019909216911617905292019485525060405193849003019092205460ff1615915061208e905057600080fd5b61209b3088888888611bcf565b91506120a78289610a66565b9050600160a060020a03811615156120be57600080fd5b600160a060020a038082166000818152600260209081526040808320948c1683529381528382208a9055918152908190522054612101908663ffffffff61236f16565b600160a060020a038216600090815260208190526040808220929092553381522054612133908663ffffffff611ff716565b60008033600160a060020a0316600160a060020a031681526020019081526020016000208190555060016003896040518082805190602001908083835b6020831061218f5780518252601f199092019160209182019101612170565b51815160209384036101000a6000190180199092169116179052920194855250604080519485900382018520805460ff1916961515969096179095558a84529351600160a060020a038c811695908716946000805160206126818339815191529450829003019150a36040805186815290513391600160a060020a038416916000805160206126618339815191529181900360200190a333600160a060020a031687600160a060020a031682600160a060020a03167f43a220267705e74ee2ceafd46afc841850db6f85a662189a7def697bbdd90ffb8989604051808381526020018281526020019250505060405180910390a4506001979650505050505050565b336000908152600260209081526040808320600160a060020a0386168452909152812054808311156122e657336000908152600260209081526040808320600160a060020a038816845290915281205561231b565b6122f6818463ffffffff61236f16565b336000908152600260209081526040808320600160a060020a03891684529091529020555b336000818152600260209081526040808320600160a060020a038916808552908352928190205481519081529051929392600080516020612681833981519152929181900390910190a35060019392505050565b60008282111561237b57fe5b50900390565b60045460009060a060020a900460ff161561239b57600080fd5b61096f8383612591565b336000908152600260209081526040808320600160a060020a03861684529091528120546123d9908363ffffffff611ff716565b336000818152600260209081526040808320600160a060020a038916808552908352928190208590558051948552519193600080516020612681833981519152929081900390910190a350600192915050565b6000600160a060020a038316151561244357600080fd5b600160a060020a03841660009081526020819052604090205482111561246857600080fd5b600160a060020a038416600090815260026020908152604080832033845290915290205482111561249857600080fd5b600160a060020a0384166000908152602081905260409020546124c1908363ffffffff61236f16565b600160a060020a0380861660009081526020819052604080822093909355908516815220546124f6908363ffffffff611ff716565b600160a060020a03808516600090815260208181526040808320949094559187168152600282528281203382529091522054612538908363ffffffff61236f16565b600160a060020a0380861660008181526002602090815260408083203384528252918290209490945580518681529051928716939192600080516020612661833981519152929181900390910190a35060019392505050565b6000600160a060020a03831615156125a857600080fd5b336000908152602081905260409020548211156125c457600080fd5b336000908152602081905260409020546125e4908363ffffffff61236f16565b3360009081526020819052604080822092909255600160a060020a03851681522054612616908363ffffffff611ff716565b600160a060020a038416600081815260208181526040918290209390935580518581529051919233926000805160206126618339815191529281900390910190a3506001929150505600ddf252ad1be2c89b69c2b068fc378daa952ba7f163c4a11628f55a4df523b3ef8c5be1e5ebec7d5bd14f71427d1e84f3dd0314c0f7b2291e5b200ac8c7c3b925a165627a7a72305820f5090000732dd556abcd96548e9e2855080c21c2ed63108fc6fef1886c524a5f0029",
  "source": "pragma solidity ^0.4.24;\n\nimport \"../../openzeppelin-solidity/token/ERC20/PausableToken.sol\";\nimport \"../../openzeppelin-solidity/token/ERC20/MintableToken.sol\";\nimport \"./ERC865Token.sol\";\n\n/**\n * @title Kittiefight Token\n * @dev ERC20 Token (KTY)\n *\n * KTY are divisible by 1e18 base\n * units referred to as 'AttoPROPS'.\n *\n * KTY are displayed using 18 decimal places of precision.\n *\n * 1 KTY is equivalent to:\n *   1 * 1e18 == 1e18 == One Quintillion AttoPROPS\n *\n * 1 Billion PROPS (total supply) is equivalent to:\n *   1000000000 * 1e18 == 1e27 == One Octillion AttoPROPS\n *\n */\n\ncontract PropsToken is ERC865Token, PausableToken, MintableToken {\n\n    /* Set the token name for display */\n    string public constant symbol = \"KTY\";\n\n    /* Set the token symbol for display */\n    string public constant name = \"Kittiefight Token\";\n\n    /* Set the number of decimals for display */\n    uint8 public constant decimals = 18;\n\n    /* 100 milion KTY specified */\n    uint256 public constant amountOfTokenToMint = 10**8 * 10**uint256(decimals);\n\n    /* Is crowdsale filtering non registered users. True by default */\n    bool public isTransferWhitelistOnly = false;\n\n    /* Mapping of whitelisted users */\n    mapping (address => bool) transfersWhitelist;\n\n    event UserAllowedToTransfer(address user);\n\n    event TransferWhitelistOnly(bool flag);\n\n    /**\n     * @notice Is the address allowed to transfer\n     * @return true if the sender can transfer\n     */\n    function isUserAllowedToTransfer(address _user) public constant returns (bool) {\n        require(_user != 0x0);\n        return transfersWhitelist[_user];\n    }\n\n    /**\n     * @notice Enabling / Disabling transfers of non whitelisted users\n     */\n    function setWhitelistedOnly(bool _isWhitelistOnly) onlyOwner public {\n        if (isTransferWhitelistOnly != _isWhitelistOnly) {\n            isTransferWhitelistOnly = _isWhitelistOnly;\n            TransferWhitelistOnly(_isWhitelistOnly);\n        }\n    }\n\n    /**\n     * @notice Adding a user to the whitelist\n     */\n    function whitelistUserForTransfers(address _user) onlyOwner public {\n        require(!isUserAllowedToTransfer(_user));\n        transfersWhitelist[_user] = true;\n        UserAllowedToTransfer(_user);\n    }\n\n    /**\n     * @notice Remove a user from the whitelist\n     */\n    function blacklistUserForTransfers(address _user) onlyOwner public {\n        require(isUserAllowedToTransfer(_user));\n        transfersWhitelist[_user] = false;\n        UserAllowedToTransfer(_user);\n    }\n\n    /**\n    * @notice transfer token for a specified address\n    * @param _to The address to transfer to.\n    * @param _value The amount to be transferred.\n    */\n    function transfer(address _to, uint256 _value) public returns (bool) {\n      if (isTransferWhitelistOnly) {\n        require(isUserAllowedToTransfer(msg.sender));\n      }\n      return super.transfer(_to, _value);\n    }\n\n    /**\n     * @notice Transfer tokens from one address to another\n     * @param _from address The address which you want to send tokens from\n     * @param _to address The address which you want to transfer to\n     * @param _value uint256 the amount of tokens to be transferred\n     */\n    function transferFrom(address _from, address _to, uint256 _value) public returns (bool) {\n      if (isTransferWhitelistOnly) {\n        require(isUserAllowedToTransfer(_from));\n      }\n      return super.transferFrom(_from, _to, _value);\n    }\n\n    /**\n     * @notice Submit a presigned transfer\n     * @param _signature bytes The signature, issued by the owner.\n     * @param _to address The address which you want to transfer to.\n     * @param _value uint256 The amount of tokens to be transferred.\n     * @param _fee uint256 The amount of tokens paid to msg.sender, by the owner.\n     * @param _nonce uint256 Presigned transaction number.\n     */\n    function transferPreSigned(\n        bytes _signature,\n        address _to,\n        uint256 _value,\n        uint256 _fee,\n        uint256 _nonce\n    )\n        whenNotPaused\n        public\n        returns (bool)\n    {\n        if (isTransferWhitelistOnly) {\n            bytes32 hashedTx = super.transferPreSignedHashing(address(this), _to, _value, _fee, _nonce);\n            address from = recover(hashedTx, _signature);\n            require(isUserAllowedToTransfer(from));\n        }\n        return super.transferPreSigned(_signature, _to, _value, _fee, _nonce);\n    }\n\n    /**\n     * @notice Submit a presigned approval\n     * @param _signature bytes The signature, issued by the owner.\n     * @param _spender address The address which will spend the funds.\n     * @param _value uint256 The amount of tokens to allow.\n     * @param _fee uint256 The amount of tokens paid to msg.sender, by the owner.\n     * @param _nonce uint256 Presigned transaction number.\n     */\n    function approvePreSigned(\n        bytes _signature,\n        address _spender,\n        uint256 _value,\n        uint256 _fee,\n        uint256 _nonce\n    )\n        whenNotPaused\n        public\n        returns (bool)\n    {\n        if (isTransferWhitelistOnly) {\n            bytes32 hashedTx = super.approvePreSignedHashing(address(this), _spender, _value, _fee, _nonce);\n            address from = recover(hashedTx, _signature);\n            require(isUserAllowedToTransfer(from));\n        }\n        return super.approvePreSigned(_signature, _spender, _value, _fee, _nonce);\n    }\n}\n",
  "sourcePath": "/Users/achiko/Documents/elva/projects/kittiefight/KittieSITE/contracts/ERC865/token/KittiefightToken.sol",
  "compiler": {
    "name": "solc",
    "version": "0.4.24+commit.e67f0147.Emscripten.clang"
  },
  "schemaVersion": "2.0.1",
  "updatedAt": "2018-11-05T14:07:26.230Z"
}