{
  "contractName": "Secondary",
  "abi": [
    {
      "inputs": [],
      "payable": false,
      "stateMutability": "nonpayable",
      "type": "constructor"
    },
    {
      "constant": true,
      "inputs": [],
      "name": "primary",
      "outputs": [
        {
          "name": "",
          "type": "address"
        }
      ],
      "payable": false,
      "stateMutability": "view",
      "type": "function"
    },
    {
      "constant": false,
      "inputs": [
        {
          "name": "recipient",
          "type": "address"
        }
      ],
      "name": "transferPrimary",
      "outputs": [],
      "payable": false,
      "stateMutability": "nonpayable",
      "type": "function"
    }
  ],
  "bytecode": "0x608060405234801561001057600080fd5b5060008054600160a060020a03191633179055610188806100326000396000f30060806040526004361061004b5763ffffffff7c01000000000000000000000000000000000000000000000000000000006000350416632348238c8114610050578063c6dbdf6114610080575b600080fd5b34801561005c57600080fd5b5061007e73ffffffffffffffffffffffffffffffffffffffff600435166100be565b005b34801561008c57600080fd5b50610095610140565b6040805173ffffffffffffffffffffffffffffffffffffffff9092168252519081900360200190f35b60005473ffffffffffffffffffffffffffffffffffffffff1633146100e257600080fd5b73ffffffffffffffffffffffffffffffffffffffff8116151561010457600080fd5b6000805473ffffffffffffffffffffffffffffffffffffffff191673ffffffffffffffffffffffffffffffffffffffff92909216919091179055565b60005473ffffffffffffffffffffffffffffffffffffffff16905600a165627a7a72305820f6a38e03635fdf3e1f86890eaa6426e0c0548df8598eff39aed1f465975ead420029",
  "source": "pragma solidity ^0.4.24;\n\n/**\n * @title Secondary\n * @dev A Secondary contract can only be used by its primary account (the one that created it)\n */\ncontract Secondary {\n  address private _primary;\n\n  /**\n   * @dev Sets the primary account to the one that is creating the Secondary contract.\n   */\n  constructor() public {\n    _primary = msg.sender;\n  }\n\n  /**\n   * @dev Reverts if called from any account other than the primary.\n   */\n  modifier onlyPrimary() {\n    require(msg.sender == _primary);\n    _;\n  }\n\n  function primary() public view returns (address) {\n    return _primary;\n  }\n\n  function transferPrimary(address recipient) public onlyPrimary {\n    require(recipient != address(0));\n\n    _primary = recipient;\n  }\n}\n",
  "sourcePath": "/Users/achiko/Documents/elva/projects/kittiefight/KittieSITE/contracts/openzeppelin-solidity__old/ownership/Secondary.sol",
  "compiler": {
    "name": "solc",
    "version": "0.4.24+commit.e67f0147.Emscripten.clang"
  },
  "schemaVersion": "2.0.1",
  "updatedAt": "2018-11-05T14:07:26.385Z"
}