{
  "contractName": "SignerRole",
  "abi": [
    {
      "inputs": [],
      "payable": false,
      "stateMutability": "nonpayable",
      "type": "constructor"
    },
    {
      "anonymous": false,
      "inputs": [
        {
          "indexed": true,
          "name": "account",
          "type": "address"
        }
      ],
      "name": "SignerAdded",
      "type": "event"
    },
    {
      "anonymous": false,
      "inputs": [
        {
          "indexed": true,
          "name": "account",
          "type": "address"
        }
      ],
      "name": "SignerRemoved",
      "type": "event"
    },
    {
      "constant": true,
      "inputs": [
        {
          "name": "account",
          "type": "address"
        }
      ],
      "name": "isSigner",
      "outputs": [
        {
          "name": "",
          "type": "bool"
        }
      ],
      "payable": false,
      "stateMutability": "view",
      "type": "function"
    },
    {
      "constant": false,
      "inputs": [
        {
          "name": "account",
          "type": "address"
        }
      ],
      "name": "addSigner",
      "outputs": [],
      "payable": false,
      "stateMutability": "nonpayable",
      "type": "function"
    },
    {
      "constant": false,
      "inputs": [],
      "name": "renounceSigner",
      "outputs": [],
      "payable": false,
      "stateMutability": "nonpayable",
      "type": "function"
    }
  ],
  "bytecode": "0x608060405234801561001057600080fd5b5061002333640100000000610028810204565b6100b1565b61004060008264010000000061020961007782021704565b604051600160a060020a038216907f47d1c22a25bb3a5d4e481b9b1e6944c2eade3181a0a20b495ed61d35b5323f2490600090a250565b600160a060020a038116151561008c57600080fd5b600160a060020a0316600090815260209190915260409020805460ff19166001179055565b61026f806100c06000396000f3006080604052600436106100565763ffffffff7c01000000000000000000000000000000000000000000000000000000006000350416637df73e27811461005b578063e5c8b03d14610090578063eb12d61e146100a7575b600080fd5b34801561006757600080fd5b5061007c600160a060020a03600435166100c8565b604080519115158252519081900360200190f35b34801561009c57600080fd5b506100a56100e0565b005b3480156100b357600080fd5b506100a5600160a060020a03600435166100eb565b60006100da818363ffffffff61010b16565b92915050565b6100e933610142565b565b6100f4336100c8565b15156100ff57600080fd5b6101088161018a565b50565b6000600160a060020a038216151561012257600080fd5b50600160a060020a03166000908152602091909152604090205460ff1690565b61015360008263ffffffff6101d216565b604051600160a060020a038216907f3525e22824a8a7df2c9a6029941c824cf95b6447f1e13d5128fd3826d35afe8b90600090a250565b61019b60008263ffffffff61020916565b604051600160a060020a038216907f47d1c22a25bb3a5d4e481b9b1e6944c2eade3181a0a20b495ed61d35b5323f2490600090a250565b600160a060020a03811615156101e757600080fd5b600160a060020a0316600090815260209190915260409020805460ff19169055565b600160a060020a038116151561021e57600080fd5b600160a060020a0316600090815260209190915260409020805460ff191660011790555600a165627a7a7230582034cccb4809e5c9600fe509d3e2bbf52816e632ca462c801b59c9e170dd3b45990029",
  "source": "pragma solidity ^0.4.24;\n\nimport \"../Roles.sol\";\n\ncontract SignerRole {\n  using Roles for Roles.Role;\n\n  event SignerAdded(address indexed account);\n  event SignerRemoved(address indexed account);\n\n  Roles.Role private signers;\n\n  constructor() public {\n    _addSigner(msg.sender);\n  }\n\n  modifier onlySigner() {\n    require(isSigner(msg.sender));\n    _;\n  }\n\n  function isSigner(address account) public view returns (bool) {\n    return signers.has(account);\n  }\n\n  function addSigner(address account) public onlySigner {\n    _addSigner(account);\n  }\n\n  function renounceSigner() public {\n    _removeSigner(msg.sender);\n  }\n\n  function _addSigner(address account) internal {\n    signers.add(account);\n    emit SignerAdded(account);\n  }\n\n  function _removeSigner(address account) internal {\n    signers.remove(account);\n    emit SignerRemoved(account);\n  }\n}\n",
  "sourcePath": "/Users/achiko/Documents/elva/projects/kittiefight/KittieSITE/contracts/openzeppelin-solidity__old/access/roles/SignerRole.sol",
  "compiler": {
    "name": "solc",
    "version": "0.4.24+commit.e67f0147.Emscripten.clang"
  },
  "schemaVersion": "2.0.1",
  "updatedAt": "2018-11-05T14:07:26.408Z"
}