{
  "contractName": "TokenDestructible",
  "abi": [
    {
      "constant": true,
      "inputs": [],
      "name": "owner",
      "outputs": [
        {
          "name": "",
          "type": "address"
        }
      ],
      "payable": false,
      "stateMutability": "view",
      "type": "function"
    },
    {
      "constant": false,
      "inputs": [
        {
          "name": "newOwner",
          "type": "address"
        }
      ],
      "name": "transferOwnership",
      "outputs": [],
      "payable": false,
      "stateMutability": "nonpayable",
      "type": "function"
    },
    {
      "inputs": [],
      "payable": true,
      "stateMutability": "payable",
      "type": "constructor"
    },
    {
      "anonymous": false,
      "inputs": [
        {
          "indexed": true,
          "name": "previousOwner",
          "type": "address"
        },
        {
          "indexed": true,
          "name": "newOwner",
          "type": "address"
        }
      ],
      "name": "OwnershipTransferred",
      "type": "event"
    },
    {
      "constant": false,
      "inputs": [
        {
          "name": "tokens",
          "type": "address[]"
        }
      ],
      "name": "destroy",
      "outputs": [],
      "payable": false,
      "stateMutability": "nonpayable",
      "type": "function"
    }
  ],
  "bytecode": "0x608060405260008054600160a060020a0319163317905561035a806100256000396000f3006080604052600436106100565763ffffffff7c01000000000000000000000000000000000000000000000000000000006000350416638da5cb5b811461005b578063c6786e5a1461008c578063f2fde38b146100e3575b600080fd5b34801561006757600080fd5b50610070610104565b60408051600160a060020a039092168252519081900360200190f35b34801561009857600080fd5b50604080516020600480358082013583810280860185019096528085526100e1953695939460249493850192918291850190849080828437509497506101139650505050505050565b005b3480156100ef57600080fd5b506100e1600160a060020a036004351661029a565b600054600160a060020a031681565b6000805481908190600160a060020a0316331461012f57600080fd5b600092505b835183101561028c57838381518110151561014b57fe5b6020908102909101810151604080517f70a082310000000000000000000000000000000000000000000000000000000081523060048201529051919450600160a060020a038516926370a08231926024808401938290030181600087803b1580156101b557600080fd5b505af11580156101c9573d6000803e3d6000fd5b505050506040513d60208110156101df57600080fd5b505160008054604080517fa9059cbb000000000000000000000000000000000000000000000000000000008152600160a060020a0392831660048201526024810185905290519394509085169263a9059cbb92604480840193602093929083900390910190829087803b15801561025557600080fd5b505af1158015610269573d6000803e3d6000fd5b505050506040513d602081101561027f57600080fd5b5050600190920191610134565b600054600160a060020a0316ff5b600054600160a060020a031633146102b157600080fd5b600160a060020a03811615156102c657600080fd5b60008054604051600160a060020a03808516939216917f8be0079c531659141344cd1fd0a4f28419497f9722a3daafe3b4186f6b6457e091a36000805473ffffffffffffffffffffffffffffffffffffffff1916600160a060020a03929092169190911790555600a165627a7a72305820a91d9f17897fa69a6560ad60cbd5b5aecc360014e9c559b464ad876fb1ae124d0029",
  "source": "pragma solidity ^0.4.18;\n\nimport \"../ownership/Ownable.sol\";\nimport \"../token/ERC20/ERC20Basic.sol\";\n\n\n/**\n * @title TokenDestructible:\n * @author Remco Bloemen <remco@2π.com>\n * @dev Base contract that can be destroyed by owner. All funds in contract including\n * listed tokens will be sent to the owner.\n */\ncontract TokenDestructible is Ownable {\n\n  function TokenDestructible() public payable { }\n\n  /**\n   * @notice Terminate contract and refund to owner\n   * @param tokens List of addresses of ERC20 or ERC20Basic token contracts to\n   refund.\n   * @notice The called token contracts could try to re-enter this contract. Only\n   supply token contracts you trust.\n   */\n  function destroy(address[] tokens) onlyOwner public {\n\n    // Transfer tokens to owner\n    for (uint256 i = 0; i < tokens.length; i++) {\n      ERC20Basic token = ERC20Basic(tokens[i]);\n      uint256 balance = token.balanceOf(this);\n      token.transfer(owner, balance);\n    }\n\n    // Transfer Eth to owner and terminate contract\n    selfdestruct(owner);\n  }\n}\n",
  "sourcePath": "/Users/achiko/Documents/elva/projects/kittiefight/DutchAuction/contracts/openzeppelin-solidity/lifecycle/TokenDestructible.sol",
  "compiler": {
    "name": "solc",
    "version": "0.4.24+commit.e67f0147.Emscripten.clang"
  },
  "schemaVersion": "2.0.1",
  "updatedAt": "2018-11-16T14:02:09.360Z"
}